{
  "contractName": "resolver",
  "abi": [
    {
      "anonymous": false,
      "inputs": [
        {
          "indexed": false,
          "internalType": "uint256",
          "name": "_rentId",
          "type": "uint256"
        }
      ],
      "name": "rentContractId",
      "type": "event"
    },
    {
      "anonymous": false,
      "inputs": [
        {
          "indexed": false,
          "internalType": "address",
          "name": "_message",
          "type": "address"
        }
      ],
      "name": "sendAddress",
      "type": "event"
    },
    {
      "anonymous": false,
      "inputs": [
        {
          "indexed": false,
          "internalType": "address",
          "name": "_message",
          "type": "address"
        }
      ],
      "name": "sendAddressRent",
      "type": "event"
    },
    {
      "anonymous": false,
      "inputs": [
        {
          "indexed": false,
          "internalType": "bool",
          "name": "_bool",
          "type": "bool"
        }
      ],
      "name": "sendBool",
      "type": "event"
    },
    {
      "anonymous": false,
      "inputs": [
        {
          "indexed": false,
          "internalType": "bytes32",
          "name": "",
          "type": "bytes32"
        }
      ],
      "name": "sendDisputeId",
      "type": "event"
    },
    {
      "anonymous": false,
      "inputs": [
        {
          "indexed": false,
          "internalType": "uint256",
          "name": "_message",
          "type": "uint256"
        }
      ],
      "name": "sendId",
      "type": "event"
    },
    {
      "anonymous": false,
      "inputs": [
        {
          "indexed": false,
          "internalType": "uint256",
          "name": "_message",
          "type": "uint256"
        }
      ],
      "name": "sendIdRent",
      "type": "event"
    },
    {
      "anonymous": false,
      "inputs": [
        {
          "indexed": false,
          "internalType": "string",
          "name": "_message",
          "type": "string"
        }
      ],
      "name": "sendMessage",
      "type": "event"
    },
    {
      "anonymous": false,
      "inputs": [
        {
          "indexed": false,
          "internalType": "string",
          "name": "_message",
          "type": "string"
        }
      ],
      "name": "sendStringRent",
      "type": "event"
    },
    {
      "anonymous": false,
      "inputs": [
        {
          "indexed": false,
          "internalType": "contract rentEscrow",
          "name": "_rentEscrow",
          "type": "address"
        }
      ],
      "name": "sendStruct",
      "type": "event"
    },
    {
      "inputs": [
        {
          "internalType": "address",
          "name": "",
          "type": "address"
        },
        {
          "internalType": "uint256",
          "name": "",
          "type": "uint256"
        }
      ],
      "name": "AddressToCaseMapping",
      "outputs": [
        {
          "internalType": "bytes32",
          "name": "",
          "type": "bytes32"
        }
      ],
      "stateMutability": "view",
      "type": "function"
    },
    {
      "inputs": [
        {
          "internalType": "bytes32",
          "name": "",
          "type": "bytes32"
        }
      ],
      "name": "DisputeCaseMapping",
      "outputs": [
        {
          "internalType": "bytes32",
          "name": "disputeId",
          "type": "bytes32"
        },
        {
          "internalType": "uint256",
          "name": "rentId",
          "type": "uint256"
        },
        {
          "internalType": "uint256",
          "name": "status",
          "type": "uint256"
        },
        {
          "internalType": "string",
          "name": "disputeDetail",
          "type": "string"
        }
      ],
      "stateMutability": "view",
      "type": "function"
    },
    {
      "inputs": [
        {
          "internalType": "uint256",
          "name": "_rentId",
          "type": "uint256"
        }
      ],
      "name": "acceptNewContract",
      "outputs": [],
      "stateMutability": "payable",
      "type": "function"
    },
    {
      "inputs": [
        {
          "internalType": "uint256",
          "name": "_rentId",
          "type": "uint256"
        }
      ],
      "name": "acceptRedeemProposal",
      "outputs": [],
      "stateMutability": "nonpayable",
      "type": "function"
    },
    {
      "inputs": [
        {
          "internalType": "address",
          "name": "",
          "type": "address"
        },
        {
          "internalType": "uint256",
          "name": "",
          "type": "uint256"
        }
      ],
      "name": "addressMapping",
      "outputs": [
        {
          "internalType": "uint256",
          "name": "",
          "type": "uint256"
        }
      ],
      "stateMutability": "view",
      "type": "function"
    },
    {
      "inputs": [
        {
          "internalType": "uint256",
          "name": "_rentId",
          "type": "uint256"
        },
        {
          "internalType": "uint256",
          "name": "_tenantShare",
          "type": "uint256"
        },
        {
          "internalType": "uint256",
          "name": "_landlordShare",
          "type": "uint256"
        },
        {
          "internalType": "uint256",
          "name": "_feeShare",
          "type": "uint256"
        }
      ],
      "name": "createRedeemProposal",
      "outputs": [],
      "stateMutability": "nonpayable",
      "type": "function"
    },
    {
      "inputs": [],
      "name": "devGetBalance",
      "outputs": [
        {
          "internalType": "uint256",
          "name": "",
          "type": "uint256"
        }
      ],
      "stateMutability": "view",
      "type": "function"
    },
    {
      "inputs": [
        {
          "internalType": "uint256",
          "name": "_rentId",
          "type": "uint256"
        }
      ],
      "name": "getContractDetails",
      "outputs": [
        {
          "components": [
            {
              "internalType": "uint256",
              "name": "rentId",
              "type": "uint256"
            },
            {
              "internalType": "address",
              "name": "tenant",
              "type": "address"
            },
            {
              "internalType": "address",
              "name": "landlord",
              "type": "address"
            },
            {
              "internalType": "uint256",
              "name": "escrowValue",
              "type": "uint256"
            },
            {
              "internalType": "string",
              "name": "contractDetail",
              "type": "string"
            },
            {
              "internalType": "uint256",
              "name": "status",
              "type": "uint256"
            },
            {
              "components": [
                {
                  "internalType": "uint256",
                  "name": "tenantShare",
                  "type": "uint256"
                },
                {
                  "internalType": "uint256",
                  "name": "landlordShare",
                  "type": "uint256"
                },
                {
                  "internalType": "uint256",
                  "name": "feeShare",
                  "type": "uint256"
                },
                {
                  "internalType": "address",
                  "name": "feeAddress",
                  "type": "address"
                }
              ],
              "internalType": "struct rentEscrowInterface.RedeemProposal",
              "name": "redeemProposal",
              "type": "tuple"
            }
          ],
          "internalType": "struct rentEscrowInterface.RentContract",
          "name": "",
          "type": "tuple"
        }
      ],
      "stateMutability": "view",
      "type": "function"
    },
    {
      "inputs": [],
      "name": "getContractToResolve",
      "outputs": [
        {
          "components": [
            {
              "internalType": "uint256",
              "name": "rentId",
              "type": "uint256"
            },
            {
              "internalType": "address",
              "name": "tenant",
              "type": "address"
            },
            {
              "internalType": "address",
              "name": "landlord",
              "type": "address"
            },
            {
              "internalType": "uint256",
              "name": "escrowValue",
              "type": "uint256"
            },
            {
              "internalType": "string",
              "name": "contractDetail",
              "type": "string"
            },
            {
              "internalType": "uint256",
              "name": "status",
              "type": "uint256"
            },
            {
              "components": [
                {
                  "internalType": "uint256",
                  "name": "tenantShare",
                  "type": "uint256"
                },
                {
                  "internalType": "uint256",
                  "name": "landlordShare",
                  "type": "uint256"
                },
                {
                  "internalType": "uint256",
                  "name": "feeShare",
                  "type": "uint256"
                },
                {
                  "internalType": "address",
                  "name": "feeAddress",
                  "type": "address"
                }
              ],
              "internalType": "struct rentEscrowInterface.RedeemProposal",
              "name": "redeemProposal",
              "type": "tuple"
            }
          ],
          "internalType": "struct rentEscrowInterface.RentContract",
          "name": "",
          "type": "tuple"
        }
      ],
      "stateMutability": "view",
      "type": "function"
    },
    {
      "inputs": [],
      "name": "getContractsByAddress",
      "outputs": [
        {
          "internalType": "uint256[]",
          "name": "",
          "type": "uint256[]"
        }
      ],
      "stateMutability": "view",
      "type": "function"
    },
    {
      "inputs": [
        {
          "internalType": "string",
          "name": "",
          "type": "string"
        }
      ],
      "name": "importantAddresses",
      "outputs": [
        {
          "internalType": "address",
          "name": "",
          "type": "address"
        }
      ],
      "stateMutability": "view",
      "type": "function"
    },
    {
      "inputs": [
        {
          "internalType": "string",
          "name": "",
          "type": "string"
        }
      ],
      "name": "importantStrings",
      "outputs": [
        {
          "internalType": "string",
          "name": "",
          "type": "string"
        }
      ],
      "stateMutability": "view",
      "type": "function"
    },
    {
      "inputs": [],
      "name": "nextRentId",
      "outputs": [
        {
          "internalType": "uint256",
          "name": "",
          "type": "uint256"
        }
      ],
      "stateMutability": "view",
      "type": "function"
    },
    {
      "inputs": [
        {
          "internalType": "uint256",
          "name": "_escrowValue",
          "type": "uint256"
        },
        {
          "internalType": "string",
          "name": "_contractDetail",
          "type": "string"
        }
      ],
      "name": "proposeNewContract",
      "outputs": [],
      "stateMutability": "nonpayable",
      "type": "function"
    },
    {
      "inputs": [
        {
          "internalType": "uint256",
          "name": "_rentId",
          "type": "uint256"
        }
      ],
      "name": "rejectRedeemProposal",
      "outputs": [],
      "stateMutability": "nonpayable",
      "type": "function"
    },
    {
      "inputs": [
        {
          "internalType": "uint256",
          "name": "",
          "type": "uint256"
        }
      ],
      "name": "rentContractsMapping",
      "outputs": [
        {
          "internalType": "uint256",
          "name": "rentId",
          "type": "uint256"
        },
        {
          "internalType": "address",
          "name": "tenant",
          "type": "address"
        },
        {
          "internalType": "address",
          "name": "landlord",
          "type": "address"
        },
        {
          "internalType": "uint256",
          "name": "escrowValue",
          "type": "uint256"
        },
        {
          "internalType": "string",
          "name": "contractDetail",
          "type": "string"
        },
        {
          "internalType": "uint256",
          "name": "status",
          "type": "uint256"
        },
        {
          "components": [
            {
              "internalType": "uint256",
              "name": "tenantShare",
              "type": "uint256"
            },
            {
              "internalType": "uint256",
              "name": "landlordShare",
              "type": "uint256"
            },
            {
              "internalType": "uint256",
              "name": "feeShare",
              "type": "uint256"
            },
            {
              "internalType": "address",
              "name": "feeAddress",
              "type": "address"
            }
          ],
          "internalType": "struct rentEscrowInterface.RedeemProposal",
          "name": "redeemProposal",
          "type": "tuple"
        }
      ],
      "stateMutability": "view",
      "type": "function"
    },
    {
      "inputs": [
        {
          "internalType": "address",
          "name": "_resolverAddress",
          "type": "address"
        }
      ],
      "name": "setResolverAddress",
      "outputs": [],
      "stateMutability": "nonpayable",
      "type": "function"
    },
    {
      "stateMutability": "payable",
      "type": "receive"
    },
    {
      "inputs": [
        {
          "internalType": "uint256",
          "name": "_numberOfJudges",
          "type": "uint256"
        }
      ],
      "name": "updateNumberOfJudges",
      "outputs": [],
      "stateMutability": "nonpayable",
      "type": "function"
    },
    {
      "inputs": [
        {
          "internalType": "bytes32",
          "name": "_disputeId",
          "type": "bytes32"
        }
      ],
      "name": "getDisputeCase",
      "outputs": [
        {
          "components": [
            {
              "internalType": "bytes32",
              "name": "disputeId",
              "type": "bytes32"
            },
            {
              "internalType": "uint256",
              "name": "rentId",
              "type": "uint256"
            },
            {
              "internalType": "uint256",
              "name": "status",
              "type": "uint256"
            },
            {
              "internalType": "address[]",
              "name": "judges",
              "type": "address[]"
            },
            {
              "internalType": "address[]",
              "name": "judgesWhoVoted",
              "type": "address[]"
            },
            {
              "internalType": "address[]",
              "name": "restrictedJudges",
              "type": "address[]"
            },
            {
              "components": [
                {
                  "internalType": "address",
                  "name": "disputePartyAddress",
                  "type": "address"
                },
                {
                  "internalType": "string",
                  "name": "documentation",
                  "type": "string"
                },
                {
                  "internalType": "uint256[]",
                  "name": "judgeVotes",
                  "type": "uint256[]"
                }
              ],
              "internalType": "struct resolver.DisputeParty[2]",
              "name": "disputeParty",
              "type": "tuple[2]"
            },
            {
              "internalType": "string",
              "name": "disputeDetail",
              "type": "string"
            }
          ],
          "internalType": "struct resolver.DisputeCase",
          "name": "",
          "type": "tuple"
        }
      ],
      "stateMutability": "view",
      "type": "function"
    },
    {
      "inputs": [],
      "name": "getMyDisputeCase",
      "outputs": [
        {
          "components": [
            {
              "internalType": "bytes32",
              "name": "disputeId",
              "type": "bytes32"
            },
            {
              "internalType": "uint256",
              "name": "rentId",
              "type": "uint256"
            },
            {
              "internalType": "uint256",
              "name": "status",
              "type": "uint256"
            },
            {
              "internalType": "address[]",
              "name": "judges",
              "type": "address[]"
            },
            {
              "internalType": "address[]",
              "name": "judgesWhoVoted",
              "type": "address[]"
            },
            {
              "internalType": "address[]",
              "name": "restrictedJudges",
              "type": "address[]"
            },
            {
              "components": [
                {
                  "internalType": "address",
                  "name": "disputePartyAddress",
                  "type": "address"
                },
                {
                  "internalType": "string",
                  "name": "documentation",
                  "type": "string"
                },
                {
                  "internalType": "uint256[]",
                  "name": "judgeVotes",
                  "type": "uint256[]"
                }
              ],
              "internalType": "struct resolver.DisputeParty[2]",
              "name": "disputeParty",
              "type": "tuple[2]"
            },
            {
              "internalType": "string",
              "name": "disputeDetail",
              "type": "string"
            }
          ],
          "internalType": "struct resolver.DisputeCase[]",
          "name": "",
          "type": "tuple[]"
        }
      ],
      "stateMutability": "view",
      "type": "function"
    },
    {
      "inputs": [],
      "name": "getMyDisputeCaseId",
      "outputs": [
        {
          "internalType": "bytes32[]",
          "name": "_disputeCaseId",
          "type": "bytes32[]"
        }
      ],
      "stateMutability": "view",
      "type": "function"
    },
    {
      "inputs": [
        {
          "internalType": "address",
          "name": "_rentEscrowAddress",
          "type": "address"
        }
      ],
      "name": "setRentEscrowAddress",
      "outputs": [],
      "stateMutability": "nonpayable",
      "type": "function"
    },
    {
      "inputs": [],
      "name": "getNewContractToResolve",
      "outputs": [],
      "stateMutability": "nonpayable",
      "type": "function"
    },
    {
      "inputs": [],
      "name": "assignJudge",
      "outputs": [],
      "stateMutability": "nonpayable",
      "type": "function"
    },
    {
      "inputs": [
        {
          "internalType": "uint256[2]",
          "name": "_judgeVote",
          "type": "uint256[2]"
        },
        {
          "internalType": "bytes32",
          "name": "_disputeId",
          "type": "bytes32"
        }
      ],
      "name": "castVote",
      "outputs": [],
      "stateMutability": "nonpayable",
      "type": "function"
    },
    {
      "inputs": [
        {
          "internalType": "bytes32",
          "name": "_disputeId",
          "type": "bytes32"
        }
      ],
      "name": "triggerCreateRedeemProposal",
      "outputs": [],
      "stateMutability": "nonpayable",
      "type": "function"
    }
  ],
  "bytecode": "0x60806040526000600255600a60065560006009556003600a5534801561002457600080fd5b5061511d806100346000396000f3fe6080604052600436106101855760003560e01c80638922dfbf116100d1578063b59146f71161008a578063dd28218b11610064578063dd28218b14610583578063eafe9934146105ac578063fb72d92a146105d7578063fcfe7b51146106145761018c565b8063b59146f714610506578063b61f5f531461052f578063c1ec6fc01461055a5761018c565b80638922dfbf146103d15780638db285041461040e578063951283311461043757806396d65c3e14610460578063a6dd42761461049d578063b102b370146104c65761018c565b80634232dfed1161013e5780637395eb41116101185780637395eb411461034a5780637ad637d8146103755780637afc2d561461038c57806385b58963146103b55761018c565b80634232dfed146102a15780634d6d6a9c146102ca5780636b695d24146103075761018c565b8063039ed5011461019157806307e31e2b146101bc5780630836e7d0146101f95780630e593bc3146102365780630e9008fe1461024d5780632458cc3e146102765761018c565b3661018c57005b600080fd5b34801561019d57600080fd5b506101a661063f565b6040516101b39190613556565b60405180910390f35b3480156101c857600080fd5b506101e360048036038101906101de91906136cb565b610645565b6040516101f0919061379c565b60405180910390f35b34801561020557600080fd5b50610220600480360381019061021b91906137f4565b6106fb565b60405161022d9190613c01565b60405180910390f35b34801561024257600080fd5b5061024b610b0f565b005b34801561025957600080fd5b50610274600480360381019061026f9190613c4f565b610d1d565b005b34801561028257600080fd5b5061028b610f9d565b6040516102989190613556565b60405180910390f35b3480156102ad57600080fd5b506102c860048036038101906102c39190613cb6565b610fa5565b005b3480156102d657600080fd5b506102f160048036038101906102ec9190613cb6565b610faf565b6040516102fe9190613dd5565b60405180910390f35b34801561031357600080fd5b5061032e60048036038101906103299190613cb6565b6111bf565b6040516103419796959493929190613e5b565b60405180910390f35b34801561035657600080fd5b5061035f611347565b60405161036c9190613dd5565b60405180910390f35b34801561038157600080fd5b5061038a61155c565b005b34801561039857600080fd5b506103b360048036038101906103ae9190613cb6565b611a1d565b005b6103cf60048036038101906103ca9190613cb6565b611e45565b005b3480156103dd57600080fd5b506103f860048036038101906103f391906136cb565b612014565b6040516104059190613ed2565b60405180910390f35b34801561041a57600080fd5b5061043560048036038101906104309190613f19565b61205d565b005b34801561044357600080fd5b5061045e60048036038101906104599190613ffc565b6120fa565b005b34801561046c57600080fd5b506104876004803603810190610482919061403c565b61231f565b6040516104949190613556565b60405180910390f35b3480156104a957600080fd5b506104c460048036038101906104bf9190613cb6565b612350565b005b3480156104d257600080fd5b506104ed60048036038101906104e891906137f4565b6124d5565b6040516104fd949392919061408b565b60405180910390f35b34801561051257600080fd5b5061052d600480360381019061052891906140d7565b61258d565b005b34801561053b57600080fd5b506105446127ab565b60405161055191906141a2565b60405180910390f35b34801561056657600080fd5b50610581600480360381019061057c91906137f4565b612840565b005b34801561058f57600080fd5b506105aa60048036038101906105a59190613f19565b6129e0565b005b3480156105b857600080fd5b506105c1612aa4565b6040516105ce9190614273565b60405180910390f35b3480156105e357600080fd5b506105fe60048036038101906105f9919061403c565b612b39565b60405161060b9190614295565b60405180910390f35b34801561062057600080fd5b50610629612b6a565b604051610636919061443e565b60405180910390f35b60025481565b600481805160208101820180518482526020830160208501208183528095505050505050600091509050805461067a9061448f565b80601f01602080910402602001604051908101604052809291908181526020018280546106a69061448f565b80156106f35780601f106106c8576101008083540402835291602001916106f3565b820191906000526020600020905b8154815290600101906020018083116106d657829003601f168201915b505050505081565b6107036132ee565b600b600083815260200190815260200160002060405180610100016040529081600082015481526020016001820154815260200160028201548152602001600382018054806020026020016040519081016040528092919081815260200182805480156107c557602002820191906000526020600020905b8160009054906101000a900473ffffffffffffffffffffffffffffffffffffffff1673ffffffffffffffffffffffffffffffffffffffff168152602001906001019080831161077b575b505050505081526020016004820180548060200260200160405190810160405280929190818152602001828054801561085357602002820191906000526020600020905b8160009054906101000a900473ffffffffffffffffffffffffffffffffffffffff1673ffffffffffffffffffffffffffffffffffffffff1681526020019060010190808311610809575b50505050508152602001600582018054806020026020016040519081016040528092919081815260200182805480156108e157602002820191906000526020600020905b8160009054906101000a900473ffffffffffffffffffffffffffffffffffffffff1673ffffffffffffffffffffffffffffffffffffffff1681526020019060010190808311610897575b5050505050815260200160068201600280602002604051908101604052809291906000905b82821015610a6e578382600302016040518060600160405290816000820160009054906101000a900473ffffffffffffffffffffffffffffffffffffffff1673ffffffffffffffffffffffffffffffffffffffff1673ffffffffffffffffffffffffffffffffffffffff1681526020016001820180546109859061448f565b80601f01602080910402602001604051908101604052809291908181526020018280546109b19061448f565b80156109fe5780601f106109d3576101008083540402835291602001916109fe565b820191906000526020600020905b8154815290600101906020018083116109e157829003601f168201915b5050505050815260200160028201805480602002602001604051908101604052809291908181526020018280548015610a5657602002820191906000526020600020905b815481526020019060010190808311610a42575b50505050508152505081526020019060010190610906565b505050508152602001600c82018054610a869061448f565b80601f0160208091040260200160405190810160405280929190818152602001828054610ab29061448f565b8015610aff5780601f10610ad457610100808354040283529160200191610aff565b820191906000526020600020905b815481529060010190602001808311610ae257829003601f168201915b5050505050815250509050919050565b60001515600760000160009054906101000a900460ff1615151415610b3757610b3661155c565b5b610b57600b60006007600101548152602001908152602001600020612c3a565b610b96576040517f08c379a0000000000000000000000000000000000000000000000000000000008152600401610b8d9061450d565b60405180910390fd5b7fdf247fdfb29d1a7f4a949e81abe1b391f62b391f1c1c0a258bdccbe7b9655952600b6000600760010154815260200190815260200160002060000154604051610be09190614295565b60405180910390a1600b60006007600101548152602001908152602001600020600301339080600181540180825580915050600190039060005260206000200160009091909190916101000a81548173ffffffffffffffffffffffffffffffffffffffff021916908373ffffffffffffffffffffffffffffffffffffffff160217905550600c60003373ffffffffffffffffffffffffffffffffffffffff1673ffffffffffffffffffffffffffffffffffffffff168152602001908152602001600020600b60006007600101548152602001908152602001600020600001549080600181540180825580915050600190039060005260206000200160009091909190915055600a54600b600060076001015481526020019081526020016000206003018054905010610d1b57610d1a60008060001b612dc9565b5b565b6000818385610d2c919061455c565b610d36919061455c565b905060648114610d7b576040517f08c379a0000000000000000000000000000000000000000000000000000000008152600401610d7290614624565b60405180910390fd5b60008086815260200190815260200160002060020160009054906101000a900473ffffffffffffffffffffffffffffffffffffffff1673ffffffffffffffffffffffffffffffffffffffff163373ffffffffffffffffffffffffffffffffffffffff161480610e5157506003604051610df39061469b565b908152602001604051809103902060009054906101000a900473ffffffffffffffffffffffffffffffffffffffff1673ffffffffffffffffffffffffffffffffffffffff163373ffffffffffffffffffffffffffffffffffffffff16145b610e90576040517f08c379a0000000000000000000000000000000000000000000000000000000008152600401610e8790614722565b60405180910390fd5b8360008087815260200190815260200160002060060160000181905550826000808781526020019081526020016000206006016001018190555081600080878152602001908152602001600020600601600201819055506003604051610ef59061469b565b908152602001604051809103902060009054906101000a900473ffffffffffffffffffffffffffffffffffffffff1660008087815260200190815260200160002060060160030160006101000a81548173ffffffffffffffffffffffffffffffffffffffff021916908373ffffffffffffffffffffffffffffffffffffffff16021790555061012c600080878152602001908152602001600020600501819055505050505050565b600047905090565b80600a8190555050565b610fb761333c565b6000808381526020019081526020016000206040518060e0016040529081600082015481526020016001820160009054906101000a900473ffffffffffffffffffffffffffffffffffffffff1673ffffffffffffffffffffffffffffffffffffffff1673ffffffffffffffffffffffffffffffffffffffff1681526020016002820160009054906101000a900473ffffffffffffffffffffffffffffffffffffffff1673ffffffffffffffffffffffffffffffffffffffff1673ffffffffffffffffffffffffffffffffffffffff168152602001600382015481526020016004820180546110a49061448f565b80601f01602080910402602001604051908101604052809291908181526020018280546110d09061448f565b801561111d5780601f106110f25761010080835404028352916020019161111d565b820191906000526020600020905b81548152906001019060200180831161110057829003601f168201915b5050505050815260200160058201548152602001600682016040518060800160405290816000820154815260200160018201548152602001600282015481526020016003820160009054906101000a900473ffffffffffffffffffffffffffffffffffffffff1673ffffffffffffffffffffffffffffffffffffffff1673ffffffffffffffffffffffffffffffffffffffff1681525050815250509050919050565b60006020528060005260406000206000915090508060000154908060010160009054906101000a900473ffffffffffffffffffffffffffffffffffffffff16908060020160009054906101000a900473ffffffffffffffffffffffffffffffffffffffff169080600301549080600401805461123a9061448f565b80601f01602080910402602001604051908101604052809291908181526020018280546112669061448f565b80156112b35780601f10611288576101008083540402835291602001916112b3565b820191906000526020600020905b81548152906001019060200180831161129657829003601f168201915b505050505090806005015490806006016040518060800160405290816000820154815260200160018201548152602001600282015481526020016003820160009054906101000a900473ffffffffffffffffffffffffffffffffffffffff1673ffffffffffffffffffffffffffffffffffffffff1673ffffffffffffffffffffffffffffffffffffffff1681525050905087565b61134f61333c565b6000600190506000808281526020019081526020016000206040518060e0016040529081600082015481526020016001820160009054906101000a900473ffffffffffffffffffffffffffffffffffffffff1673ffffffffffffffffffffffffffffffffffffffff1673ffffffffffffffffffffffffffffffffffffffff1681526020016002820160009054906101000a900473ffffffffffffffffffffffffffffffffffffffff1673ffffffffffffffffffffffffffffffffffffffff1673ffffffffffffffffffffffffffffffffffffffff168152602001600382015481526020016004820180546114429061448f565b80601f016020809104026020016040519081016040528092919081815260200182805461146e9061448f565b80156114bb5780601f10611490576101008083540402835291602001916114bb565b820191906000526020600020905b81548152906001019060200180831161149e57829003601f168201915b5050505050815260200160058201548152602001600682016040518060800160405290816000820154815260200160018201548152602001600282015481526020016003820160009054906101000a900473ffffffffffffffffffffffffffffffffffffffff1673ffffffffffffffffffffffffffffffffffffffff1673ffffffffffffffffffffffffffffffffffffffff16815250508152505091505090565b6000600560009054906101000a900473ffffffffffffffffffffffffffffffffffffffff16905060008173ffffffffffffffffffffffffffffffffffffffff16637395eb416040518163ffffffff1660e01b8152600401600060405180830381865afa1580156115d0573d6000803e3d6000fd5b505050506040513d6000823e3d601f19601f820116820180604052508101906115f9919061492f565b90506000600954826000015161160f919061455c565b60405160200161161f9190614999565b6040516020818303038152906040528051906020012090506009600081548092919061164a906149b4565b91905055506000600b6000838152602001908152602001600020905081816000018190555082600001518160010181905550606481600201819055506040518060400160405280600581526020017f48656c6c6f00000000000000000000000000000000000000000000000000000081525081600c0190805190602001906116d39291906133ab565b5060006040518060600160405280856040015173ffffffffffffffffffffffffffffffffffffffff168152602001604051806020016040528060008152508152602001600067ffffffffffffffff811115611731576117306135a0565b5b60405190808252806020026020018201604052801561175f5781602001602082028036833780820191505090505b50815250905060006040518060600160405280866020015173ffffffffffffffffffffffffffffffffffffffff168152602001604051806020016040528060008152508152602001600067ffffffffffffffff8111156117c2576117c16135a0565b5b6040519080825280602002602001820160405280156117f05781602001602082028036833780820191505090505b508152509050818360060160006002811061180e5761180d6149fd565b5b6003020160008201518160000160006101000a81548173ffffffffffffffffffffffffffffffffffffffff021916908373ffffffffffffffffffffffffffffffffffffffff16021790555060208201518160010190805190602001906118759291906133ab565b506040820151816002019080519060200190611892929190613431565b5090505080836006016001600281106118ae576118ad6149fd565b5b6003020160008201518160000160006101000a81548173ffffffffffffffffffffffffffffffffffffffff021916908373ffffffffffffffffffffffffffffffffffffffff16021790555060208201518160010190805190602001906119159291906133ab565b506040820151816002019080519060200190611932929190613431565b50905050600c6000866040015173ffffffffffffffffffffffffffffffffffffffff1673ffffffffffffffffffffffffffffffffffffffff168152602001908152602001600020849080600181540180825580915050600190039060005260206000200160009091909190915055600c6000866020015173ffffffffffffffffffffffffffffffffffffffff1673ffffffffffffffffffffffffffffffffffffffff168152602001908152602001600020849080600181540180825580915050600190039060005260206000200160009091909190915055611a15600185612dc9565b505050505050565b60008082815260200190815260200160002060010160009054906101000a900473ffffffffffffffffffffffffffffffffffffffff1673ffffffffffffffffffffffffffffffffffffffff163373ffffffffffffffffffffffffffffffffffffffff161480611af357506003604051611a959061469b565b908152602001604051809103902060009054906101000a900473ffffffffffffffffffffffffffffffffffffffff1673ffffffffffffffffffffffffffffffffffffffff163373ffffffffffffffffffffffffffffffffffffffff16145b611b32576040517f08c379a0000000000000000000000000000000000000000000000000000000008152600401611b2990614a9e565b60405180910390fd5b6000806000838152602001908152602001600020600301549050600080600084815260200190815260200160002060010160009054906101000a900473ffffffffffffffffffffffffffffffffffffffff169050600060646000808681526020019081526020016000206006016000015484611bae9190614abe565b611bb89190614b47565b9050600080600086815260200190815260200160002060020160009054906101000a900473ffffffffffffffffffffffffffffffffffffffff169050600060646000808881526020019081526020016000206006016001015486611c1c9190614abe565b611c269190614b47565b9050600080600088815260200190815260200160002060060160030160009054906101000a900473ffffffffffffffffffffffffffffffffffffffff169050600060646000808a81526020019081526020016000206006016002015488611c8d9190614abe565b611c979190614b47565b905086818487611ca7919061455c565b611cb1919061455c565b14611cf1576040517f08c379a0000000000000000000000000000000000000000000000000000000008152600401611ce890614c10565b60405180910390fd5b61012c6000808a81526020019081526020016000206005015414611d4a576040517f08c379a0000000000000000000000000000000000000000000000000000000008152600401611d4190614c7c565b60405180910390fd5b6101906000808a8152602001908152602001600020600501819055508573ffffffffffffffffffffffffffffffffffffffff166108fc869081150290604051600060405180830381858888f19350505050158015611dac573d6000803e3d6000fd5b508373ffffffffffffffffffffffffffffffffffffffff166108fc849081150290604051600060405180830381858888f19350505050158015611df3573d6000803e3d6000fd5b508173ffffffffffffffffffffffffffffffffffffffff166108fc829081150290604051600060405180830381858888f19350505050158015611e3a573d6000803e3d6000fd5b505050505050505050565b600080828152602001908152602001600020600301543414611e9c576040517f08c379a0000000000000000000000000000000000000000000000000000000008152600401611e9390614d0e565b60405180910390fd5b60008082815260200190815260200160002060020160009054906101000a900473ffffffffffffffffffffffffffffffffffffffff1673ffffffffffffffffffffffffffffffffffffffff163373ffffffffffffffffffffffffffffffffffffffff161415611f40576040517f08c379a0000000000000000000000000000000000000000000000000000000008152600401611f3790614da0565b60405180910390fd5b6000808281526020019081526020016000206005015460c81415611f99576040517f08c379a0000000000000000000000000000000000000000000000000000000008152600401611f9090614e0c565b60405180910390fd5b3360008083815260200190815260200160002060010160006101000a81548173ffffffffffffffffffffffffffffffffffffffff021916908373ffffffffffffffffffffffffffffffffffffffff16021790555060c86000808381526020019081526020016000206005018190555061201181612df4565b50565b6003818051602081018201805184825260208301602085012081835280955050505050506000915054906101000a900473ffffffffffffffffffffffffffffffffffffffff1681565b80600560006101000a81548173ffffffffffffffffffffffffffffffffffffffff021916908373ffffffffffffffffffffffffffffffffffffffff1602179055507ff3cefb6580958289ed59682f8efcbb4cc6003c65fc36e951618d6809896a407b600560009054906101000a900473ffffffffffffffffffffffffffffffffffffffff166040516120ef9190613ed2565b60405180910390a150565b6064826001600281106121105761210f6149fd565b5b602002015183600060028110612129576121286149fd565b5b6020020151612138919061455c565b14612178576040517f08c379a000000000000000000000000000000000000000000000000000000000815260040161216f90614e78565b60405180910390fd5b6000600b6000838152602001908152602001600020905061219881612e5d565b806006016000600281106121af576121ae6149fd565b5b60030201600201836000600281106121ca576121c96149fd565b5b602002015190806001815401808255809150506001900390600052602060002001600090919091909150558060060160016002811061220c5761220b6149fd565b5b6003020160020183600160028110612227576122266149fd565b5b6020020151908060018154018082558091505060019003906000526020600020016000909190919091505580600401339080600181540180825580915050600190039060005260206000200160009091909190916101000a81548173ffffffffffffffffffffffffffffffffffffffff021916908373ffffffffffffffffffffffffffffffffffffffff160217905550600a54816006016000600281106122d1576122d06149fd565b5b600302016002018054905014801561230b5750600a54816006016001600281106122fe576122fd6149fd565b5b6003020160020180549050145b1561231a5761231982612840565b5b505050565b6001602052816000526040600020818154811061233b57600080fd5b90600052602060002001600091509150505481565b60008082815260200190815260200160002060010160009054906101000a900473ffffffffffffffffffffffffffffffffffffffff1673ffffffffffffffffffffffffffffffffffffffff163373ffffffffffffffffffffffffffffffffffffffff16148061241f575060008082815260200190815260200160002060020160009054906101000a900473ffffffffffffffffffffffffffffffffffffffff1673ffffffffffffffffffffffffffffffffffffffff163373ffffffffffffffffffffffffffffffffffffffff16145b61245e576040517f08c379a000000000000000000000000000000000000000000000000000000000815260040161245590614f0a565b60405180910390fd5b61012c60008083815260200190815260200160002060050154146124b7576040517f08c379a00000000000000000000000000000000000000000000000000000000081526004016124ae90614f76565b60405180910390fd5b60c86000808381526020019081526020016000206005018190555050565b600b60205280600052604060002060009150905080600001549080600101549080600201549080600c01805461250a9061448f565b80601f01602080910402602001604051908101604052809291908181526020018280546125369061448f565b80156125835780601f1061255857610100808354040283529160200191612583565b820191906000526020600020905b81548152906001019060200180831161256657829003601f168201915b5050505050905084565b61259561333c565b60025481600001818152505033816040019073ffffffffffffffffffffffffffffffffffffffff16908173ffffffffffffffffffffffffffffffffffffffff16815250508281606001818152505081816080018190525060648160a00181815250508060008060025481526020019081526020016000206000820151816000015560208201518160010160006101000a81548173ffffffffffffffffffffffffffffffffffffffff021916908373ffffffffffffffffffffffffffffffffffffffff16021790555060408201518160020160006101000a81548173ffffffffffffffffffffffffffffffffffffffff021916908373ffffffffffffffffffffffffffffffffffffffff1602179055506060820151816003015560808201518160040190805190602001906126ca9291906133ab565b5060a0820151816005015560c08201518160060160008201518160000155602082015181600101556040820151816002015560608201518160030160006101000a81548173ffffffffffffffffffffffffffffffffffffffff021916908373ffffffffffffffffffffffffffffffffffffffff1602179055505050905050612753600254612df4565b7fa44f460f2ac523b4a38d95d97950a776d7bf0adbaff2501d321f040e3d661e466002546040516127849190613556565b60405180910390a160016002600082825461279f919061455c565b92505081905550505050565b6060600160003373ffffffffffffffffffffffffffffffffffffffff1673ffffffffffffffffffffffffffffffffffffffff16815260200190815260200160002080548060200260200160405190810160405280929190818152602001828054801561283657602002820191906000526020600020905b815481526020019060010190808311612822575b5050505050905090565b606061284b8261302d565b905061285960065482613191565b90506000600560009054906101000a900473ffffffffffffffffffffffffffffffffffffffff1690508073ffffffffffffffffffffffffffffffffffffffff16630e9008fe600b600086815260200190815260200160002060010154846000815181106128c9576128c86149fd565b5b6020026020010151856001815181106128e5576128e46149fd565b5b602002602001015186600281518110612901576129006149fd565b5b60200260200101516040518563ffffffff1660e01b81526004016129289493929190614f96565b600060405180830381600087803b15801561294257600080fd5b505af1158015612956573d6000803e3d6000fd5b505050508073ffffffffffffffffffffffffffffffffffffffff16637afc2d56600b6000868152602001908152602001600020600101546040518263ffffffff1660e01b81526004016129a99190613556565b600060405180830381600087803b1580156129c357600080fd5b505af11580156129d7573d6000803e3d6000fd5b50505050505050565b8060036040516129ef9061469b565b908152602001604051809103902060006101000a81548173ffffffffffffffffffffffffffffffffffffffff021916908373ffffffffffffffffffffffffffffffffffffffff1602179055506040518060400160405280600581526020017f48656c6c6f0000000000000000000000000000000000000000000000000000008152506004604051612a7f9061469b565b90815260200160405180910390209080519060200190612aa09291906133ab565b5050565b6060600c60003373ffffffffffffffffffffffffffffffffffffffff1673ffffffffffffffffffffffffffffffffffffffff168152602001908152602001600020805480602002602001604051908101604052809291908181526020018280548015612b2f57602002820191906000526020600020905b815481526020019060010190808311612b1b575b5050505050905090565b600c6020528160005260406000208181548110612b5557600080fd5b90600052602060002001600091509150505481565b60606000612b76612aa4565b90506000815167ffffffffffffffff811115612b9557612b946135a0565b5b604051908082528060200260200182016040528015612bce57816020015b612bbb6132ee565b815260200190600190039081612bb35790505b50905060005b8251811015612c3157612c00838281518110612bf357612bf26149fd565b5b60200260200101516106fb565b828281518110612c1357612c126149fd565b5b60200260200101819052508080612c29906149b4565b915050612bd4565b50809250505090565b600080600080600090505b8460030180549050811015612cf057846003018181548110612c6a57612c696149fd565b5b9060005260206000200160009054906101000a900473ffffffffffffffffffffffffffffffffffffffff1673ffffffffffffffffffffffffffffffffffffffff163373ffffffffffffffffffffffffffffffffffffffff1614612ccd5782612cdb565b600183612cda919061455c565b5b92508080612ce8906149b4565b915050612c45565b5060005b6002811015612da257846006018160028110612d1357612d126149fd565b5b6003020160000160009054906101000a900473ffffffffffffffffffffffffffffffffffffffff1673ffffffffffffffffffffffffffffffffffffffff163373ffffffffffffffffffffffffffffffffffffffff1614612d7f57600082612d7a919061455c565b612d8d565b600182612d8c919061455c565b5b91508080612d9a906149b4565b915050612cf4565b5060008183612db1919061455c565b14612dbd576000612dc0565b60015b92505050919050565b81600760000160006101000a81548160ff021916908315150217905550806007600101819055505050565b600160003373ffffffffffffffffffffffffffffffffffffffff1673ffffffffffffffffffffffffffffffffffffffff16815260200190815260200160002081908060018154018082558091505060019003906000526020600020016000909190919091505550565b600080600090505b8260030180549050811015612f1057826003018181548110612e8a57612e896149fd565b5b9060005260206000200160009054906101000a900473ffffffffffffffffffffffffffffffffffffffff1673ffffffffffffffffffffffffffffffffffffffff163373ffffffffffffffffffffffffffffffffffffffff1614612eed5781612efb565b600182612efa919061455c565b5b91508080612f08906149b4565b915050612e65565b5060008111612f54576040517f08c379a0000000000000000000000000000000000000000000000000000000008152600401612f4b90615027565b60405180910390fd5b60005b826004018054905081101561302857826004018181548110612f7c57612f7b6149fd565b5b9060005260206000200160009054906101000a900473ffffffffffffffffffffffffffffffffffffffff1673ffffffffffffffffffffffffffffffffffffffff163373ffffffffffffffffffffffffffffffffffffffff161415613015576040517f08c379a000000000000000000000000000000000000000000000000000000000815260040161300c90615093565b60405180910390fd5b8080613020906149b4565b915050612f57565b505050565b60606000600b600084815260200190815260200160002090506000600267ffffffffffffffff811115613063576130626135a0565b5b6040519080825280602002602001820160405280156130915781602001602082028036833780820191505090505b50905060005b6002811015613186576000805b8460060183600281106130ba576130b96149fd565b5b6003020160020180549050811015613126578460060183600281106130e2576130e16149fd565b5b6003020160020181815481106130fb576130fa6149fd565b5b906000526020600020015482613111919061455c565b9150808061311e906149b4565b9150506130a4565b5083600601826002811061313d5761313c6149fd565b5b6003020160020180549050816131539190614b47565b838381518110613166576131656149fd565b5b60200260200101818152505050808061317e906149b4565b915050613097565b508092505050919050565b60606000600183516131a3919061455c565b67ffffffffffffffff8111156131bc576131bb6135a0565b5b6040519080825280602002602001820160405280156131ea5781602001602082028036833780820191505090505b50905060005b835181101561326957606485606461320891906150b3565b85838151811061321b5761321a6149fd565b5b602002602001015161322d9190614abe565b6132379190614b47565b82828151811061324a576132496149fd565b5b6020026020010181815250508080613261906149b4565b9150506131f0565b508060018151811061327e5761327d6149fd565b5b60200260200101518160008151811061329a576132996149fd565b5b602002602001015160646132ae91906150b3565b6132b891906150b3565b81600183516132c791906150b3565b815181106132d8576132d76149fd565b5b6020026020010181815250508091505092915050565b60405180610100016040528060008019168152602001600081526020016000815260200160608152602001606081526020016060815260200161332f61347e565b8152602001606081525090565b6040518060e0016040528060008152602001600073ffffffffffffffffffffffffffffffffffffffff168152602001600073ffffffffffffffffffffffffffffffffffffffff1681526020016000815260200160608152602001600081526020016133a56134ab565b81525090565b8280546133b79061448f565b90600052602060002090601f0160209004810192826133d95760008555613420565b82601f106133f257805160ff1916838001178555613420565b82800160010185558215613420579182015b8281111561341f578251825591602001919060010190613404565b5b50905061342d91906134e9565b5090565b82805482825590600052602060002090810192821561346d579160200282015b8281111561346c578251825591602001919060010190613451565b5b50905061347a91906134e9565b5090565b60405180604001604052806002905b613495613506565b81526020019060019003908161348d5790505090565b6040518060800160405280600081526020016000815260200160008152602001600073ffffffffffffffffffffffffffffffffffffffff1681525090565b5b808211156135025760008160009055506001016134ea565b5090565b6040518060600160405280600073ffffffffffffffffffffffffffffffffffffffff16815260200160608152602001606081525090565b6000819050919050565b6135508161353d565b82525050565b600060208201905061356b6000830184613547565b92915050565b6000604051905090565b600080fd5b600080fd5b600080fd5b600080fd5b6000601f19601f8301169050919050565b7f4e487b7100000000000000000000000000000000000000000000000000000000600052604160045260246000fd5b6135d88261358f565b810181811067ffffffffffffffff821117156135f7576135f66135a0565b5b80604052505050565b600061360a613571565b905061361682826135cf565b919050565b600067ffffffffffffffff821115613636576136356135a0565b5b61363f8261358f565b9050602081019050919050565b82818337600083830152505050565b600061366e6136698461361b565b613600565b90508281526020810184848401111561368a5761368961358a565b5b61369584828561364c565b509392505050565b600082601f8301126136b2576136b1613585565b5b81356136c284826020860161365b565b91505092915050565b6000602082840312156136e1576136e061357b565b5b600082013567ffffffffffffffff8111156136ff576136fe613580565b5b61370b8482850161369d565b91505092915050565b600081519050919050565b600082825260208201905092915050565b60005b8381101561374e578082015181840152602081019050613733565b8381111561375d576000848401525b50505050565b600061376e82613714565b613778818561371f565b9350613788818560208601613730565b6137918161358f565b840191505092915050565b600060208201905081810360008301526137b68184613763565b905092915050565b6000819050919050565b6137d1816137be565b81146137dc57600080fd5b50565b6000813590506137ee816137c8565b92915050565b60006020828403121561380a5761380961357b565b5b6000613818848285016137df565b91505092915050565b61382a816137be565b82525050565b6138398161353d565b82525050565b600081519050919050565b600082825260208201905092915050565b6000819050602082019050919050565b600073ffffffffffffffffffffffffffffffffffffffff82169050919050565b60006138968261386b565b9050919050565b6138a68161388b565b82525050565b60006138b8838361389d565b60208301905092915050565b6000602082019050919050565b60006138dc8261383f565b6138e6818561384a565b93506138f18361385b565b8060005b8381101561392257815161390988826138ac565b9750613914836138c4565b9250506001810190506138f5565b5085935050505092915050565b600060029050919050565b600081905092915050565b6000819050919050565b600082825260208201905092915050565b600061396b82613714565b613975818561394f565b9350613985818560208601613730565b61398e8161358f565b840191505092915050565b600081519050919050565b600082825260208201905092915050565b6000819050602082019050919050565b60006139d18383613830565b60208301905092915050565b6000602082019050919050565b60006139f582613999565b6139ff81856139a4565b9350613a0a836139b5565b8060005b83811015613a3b578151613a2288826139c5565b9750613a2d836139dd565b925050600181019050613a0e565b5085935050505092915050565b6000606083016000830151613a60600086018261389d565b5060208301518482036020860152613a788282613960565b91505060408301518482036040860152613a9282826139ea565b9150508091505092915050565b6000613aab8383613a48565b905092915050565b6000602082019050919050565b6000613acb8261392f565b613ad5818561393a565b935083602082028501613ae785613945565b8060005b85811015613b235784840389528151613b048582613a9f565b9450613b0f83613ab3565b925060208a01995050600181019050613aeb565b50829750879550505050505092915050565b600061010083016000830151613b4e6000860182613821565b506020830151613b616020860182613830565b506040830151613b746040860182613830565b5060608301518482036060860152613b8c82826138d1565b91505060808301518482036080860152613ba682826138d1565b91505060a083015184820360a0860152613bc082826138d1565b91505060c083015184820360c0860152613bda8282613ac0565b91505060e083015184820360e0860152613bf48282613960565b9150508091505092915050565b60006020820190508181036000830152613c1b8184613b35565b905092915050565b613c2c8161353d565b8114613c3757600080fd5b50565b600081359050613c4981613c23565b92915050565b60008060008060808587031215613c6957613c6861357b565b5b6000613c7787828801613c3a565b9450506020613c8887828801613c3a565b9350506040613c9987828801613c3a565b9250506060613caa87828801613c3a565b91505092959194509250565b600060208284031215613ccc57613ccb61357b565b5b6000613cda84828501613c3a565b91505092915050565b608082016000820151613cf96000850182613830565b506020820151613d0c6020850182613830565b506040820151613d1f6040850182613830565b506060820151613d32606085018261389d565b50505050565b600061014083016000830151613d516000860182613830565b506020830151613d64602086018261389d565b506040830151613d77604086018261389d565b506060830151613d8a6060860182613830565b5060808301518482036080860152613da28282613960565b91505060a0830151613db760a0860182613830565b5060c0830151613dca60c0860182613ce3565b508091505092915050565b60006020820190508181036000830152613def8184613d38565b905092915050565b613e008161388b565b82525050565b608082016000820151613e1c6000850182613830565b506020820151613e2f6020850182613830565b506040820151613e426040850182613830565b506060820151613e55606085018261389d565b50505050565b600061014082019050613e71600083018a613547565b613e7e6020830189613df7565b613e8b6040830188613df7565b613e986060830187613547565b8181036080830152613eaa8186613763565b9050613eb960a0830185613547565b613ec660c0830184613e06565b98975050505050505050565b6000602082019050613ee76000830184613df7565b92915050565b613ef68161388b565b8114613f0157600080fd5b50565b600081359050613f1381613eed565b92915050565b600060208284031215613f2f57613f2e61357b565b5b6000613f3d84828501613f04565b91505092915050565b600067ffffffffffffffff821115613f6157613f606135a0565b5b602082029050919050565b600080fd5b6000613f84613f7f84613f46565b613600565b90508060208402830185811115613f9e57613f9d613f6c565b5b835b81811015613fc75780613fb38882613c3a565b845260208401935050602081019050613fa0565b5050509392505050565b600082601f830112613fe657613fe5613585565b5b6002613ff3848285613f71565b91505092915050565b600080606083850312156140135761401261357b565b5b600061402185828601613fd1565b9250506040614032858286016137df565b9150509250929050565b600080604083850312156140535761405261357b565b5b600061406185828601613f04565b925050602061407285828601613c3a565b9150509250929050565b614085816137be565b82525050565b60006080820190506140a0600083018761407c565b6140ad6020830186613547565b6140ba6040830185613547565b81810360608301526140cc8184613763565b905095945050505050565b600080604083850312156140ee576140ed61357b565b5b60006140fc85828601613c3a565b925050602083013567ffffffffffffffff81111561411d5761411c613580565b5b6141298582860161369d565b9150509250929050565b600082825260208201905092915050565b600061414f82613999565b6141598185614133565b9350614164836139b5565b8060005b8381101561419557815161417c88826139c5565b9750614187836139dd565b925050600181019050614168565b5085935050505092915050565b600060208201905081810360008301526141bc8184614144565b905092915050565b600081519050919050565b600082825260208201905092915050565b6000819050602082019050919050565b60006141fc8383613821565b60208301905092915050565b6000602082019050919050565b6000614220826141c4565b61422a81856141cf565b9350614235836141e0565b8060005b8381101561426657815161424d88826141f0565b975061425883614208565b925050600181019050614239565b5085935050505092915050565b6000602082019050818103600083015261428d8184614215565b905092915050565b60006020820190506142aa600083018461407c565b92915050565b600081519050919050565b600082825260208201905092915050565b6000819050602082019050919050565b6000610100830160008301516142f56000860182613821565b5060208301516143086020860182613830565b50604083015161431b6040860182613830565b506060830151848203606086015261433382826138d1565b9150506080830151848203608086015261434d82826138d1565b91505060a083015184820360a086015261436782826138d1565b91505060c083015184820360c08601526143818282613ac0565b91505060e083015184820360e086015261439b8282613960565b9150508091505092915050565b60006143b483836142dc565b905092915050565b6000602082019050919050565b60006143d4826142b0565b6143de81856142bb565b9350836020820285016143f0856142cc565b8060005b8581101561442c578484038952815161440d85826143a8565b9450614418836143bc565b925060208a019950506001810190506143f4565b50829750879550505050505092915050565b6000602082019050818103600083015261445881846143c9565b905092915050565b7f4e487b7100000000000000000000000000000000000000000000000000000000600052602260045260246000fd5b600060028204905060018216806144a757607f821691505b602082108114156144bb576144ba614460565b5b50919050565b7f5468697320616464726573732063616e6e6f74206265206a7564676500000000600082015250565b60006144f7601c8361371f565b9150614502826144c1565b602082019050919050565b60006020820190508181036000830152614526816144ea565b9050919050565b7f4e487b7100000000000000000000000000000000000000000000000000000000600052601160045260246000fd5b60006145678261353d565b91506145728361353d565b9250827fffffffffffffffffffffffffffffffffffffffffffffffffffffffffffffffff038211156145a7576145a661452d565b5b828201905092915050565b7f54656e616e745368617265202b204c616e646c6f7264205368617265202b204660008201527f6565205368617265206973206e6f742031303025000000000000000000000000602082015250565b600061460e60348361371f565b9150614619826145b2565b604082019050919050565b6000602082019050818103600083015261463d81614601565b9050919050565b600081905092915050565b7f5265736f6c766572416464726573730000000000000000000000000000000000600082015250565b6000614685600f83614644565b91506146908261464f565b600f82019050919050565b60006146a682614678565b9150819050919050565b7f4f6e6c79204c616e646c6f7264206f72205265736f6c7665722063616e20637260008201527f656174652072656465656d2070726f706f73616c000000000000000000000000602082015250565b600061470c60348361371f565b9150614717826146b0565b604082019050919050565b6000602082019050818103600083015261473b816146ff565b9050919050565b600080fd5b600080fd5b60008151905061475b81613c23565b92915050565b60008151905061477081613eed565b92915050565b60006147896147848461361b565b613600565b9050828152602081018484840111156147a5576147a461358a565b5b6147b0848285613730565b509392505050565b600082601f8301126147cd576147cc613585565b5b81516147dd848260208601614776565b91505092915050565b6000608082840312156147fc576147fb614742565b5b6148066080613600565b905060006148168482850161474c565b600083015250602061482a8482850161474c565b602083015250604061483e8482850161474c565b604083015250606061485284828501614761565b60608301525092915050565b6000610140828403121561487557614874614742565b5b61487f60e0613600565b9050600061488f8482850161474c565b60008301525060206148a384828501614761565b60208301525060406148b784828501614761565b60408301525060606148cb8482850161474c565b606083015250608082015167ffffffffffffffff8111156148ef576148ee614747565b5b6148fb848285016147b8565b60808301525060a061490f8482850161474c565b60a08301525060c0614923848285016147e6565b60c08301525092915050565b6000602082840312156149455761494461357b565b5b600082015167ffffffffffffffff81111561496357614962613580565b5b61496f8482850161485e565b91505092915050565b6000819050919050565b61499361498e8261353d565b614978565b82525050565b60006149a58284614982565b60208201915081905092915050565b60006149bf8261353d565b91507fffffffffffffffffffffffffffffffffffffffffffffffffffffffffffffffff8214156149f2576149f161452d565b5b600182019050919050565b7f4e487b7100000000000000000000000000000000000000000000000000000000600052603260045260246000fd5b7f4f6e6c792074656e616e742063616e206163636570742072656465656d20707260008201527f6f706f73616c0000000000000000000000000000000000000000000000000000602082015250565b6000614a8860268361371f565b9150614a9382614a2c565b604082019050919050565b60006020820190508181036000830152614ab781614a7b565b9050919050565b6000614ac98261353d565b9150614ad48361353d565b9250817fffffffffffffffffffffffffffffffffffffffffffffffffffffffffffffffff0483118215151615614b0d57614b0c61452d565b5b828202905092915050565b7f4e487b7100000000000000000000000000000000000000000000000000000000600052601260045260246000fd5b6000614b528261353d565b9150614b5d8361353d565b925082614b6d57614b6c614b18565b5b828204905092915050565b7f54656e616e745368617265202b204c616e646c6f7264205368617265202b204660008201527f656520536861726520646f6573206e6f7420657175616c20457363726f77205660208201527f616c756500000000000000000000000000000000000000000000000000000000604082015250565b6000614bfa60448361371f565b9150614c0582614b78565b606082019050919050565b60006020820190508181036000830152614c2981614bed565b9050919050565b7f457363726f7720737461747573206d7573742062652033303000000000000000600082015250565b6000614c6660198361371f565b9150614c7182614c30565b602082019050919050565b60006020820190508181036000830152614c9581614c59565b9050919050565b7f4574682073656e74206973206e6f742073616d6520617320657363726f77566160008201527f6c75650000000000000000000000000000000000000000000000000000000000602082015250565b6000614cf860238361371f565b9150614d0382614c9c565b604082019050919050565b60006020820190508181036000830152614d2781614ceb565b9050919050565b7f54656e616e7420616e64204c616e646c6f7264206d757374206e6f742062652060008201527f73616d6520616464726573736573000000000000000000000000000000000000602082015250565b6000614d8a602e8361371f565b9150614d9582614d2e565b604082019050919050565b60006020820190508181036000830152614db981614d7d565b9050919050565b7f436f6e747261637420616c726561647920616363657074656400000000000000600082015250565b6000614df660198361371f565b9150614e0182614dc0565b602082019050919050565b60006020820190508181036000830152614e2581614de9565b9050919050565b7f566f746573206e6f742031303000000000000000000000000000000000000000600082015250565b6000614e62600d8361371f565b9150614e6d82614e2c565b602082019050919050565b60006020820190508181036000830152614e9181614e55565b9050919050565b7f4f6e6c792074656e616e74206f72206c616e646c6f72642063616e206163636560008201527f70742072656465656d2070726f706f73616c0000000000000000000000000000602082015250565b6000614ef460328361371f565b9150614eff82614e98565b604082019050919050565b60006020820190508181036000830152614f2381614ee7565b9050919050565b7f416c72656164792072656a6563746564206f7220616363657074656400000000600082015250565b6000614f60601c8361371f565b9150614f6b82614f2a565b602082019050919050565b60006020820190508181036000830152614f8f81614f53565b9050919050565b6000608082019050614fab6000830187613547565b614fb86020830186613547565b614fc56040830185613547565b614fd26060830184613547565b95945050505050565b7f41646472657373206e6f742061206a7564676500000000000000000000000000600082015250565b600061501160138361371f565b915061501c82614fdb565b602082019050919050565b6000602082019050818103600083015261504081615004565b9050919050565b7f4a7564676520416c726561647920766f74656400000000000000000000000000600082015250565b600061507d60138361371f565b915061508882615047565b602082019050919050565b600060208201905081810360008301526150ac81615070565b9050919050565b60006150be8261353d565b91506150c98361353d565b9250828210156150dc576150db61452d565b5b82820390509291505056fea26469706673582212202a9b138006d3caf7008f9acf1d3b9c7088ac959d30406db58bb4e74c0d3d125664736f6c634300080a0033",
  "immutableReferences": {},
  "source": "// SPDX-License-Identifier:\tCC-BY-4.0\npragma solidity ^0.8.10;\nimport \"./rentEscrow.sol\";\n\ncontract resolver is rentEscrow {\n    ///@dev events for production\n    event sendDisputeId(bytes32);\n    //event sendTenant (uint _id);\n    ///@dev events for development\n    event sendMessage (string _message);\n    event sendAddress (address _message);\n    event sendId (uint _message);\n    event sendStruct (rentEscrow _rentEscrow);\n    event sendBool (bool _bool);\n\n    address rentEscrowAddress;\n\n    ///@param id case identifier. Currently same as rentContract. \n    ///@param status status of the case. 100: waiting for judge 200: waiting for resolution 300: resolved\n    ///@param judges addreses that are assigned to resolve the dispute\n    ///@param restrictedJudges addresses that cannot be assigned as judge (among others: tenant, landlord)\n    ///@param disputeDetail  bears details about the case. Currenly a placeholder aim is to link this to some IPFS file\n    ///@param partialResult contains voting of each judge\n    ///@param finalResult contains final result after each judge casted their vote\n    \n    struct DisputeCase {\n        bytes32 disputeId;\n        uint rentId;\n        uint status;\n        address [] judges;\n        address [] judgesWhoVoted;\n        address [] restrictedJudges;\n        DisputeParty [2] disputeParty;\n        string disputeDetail;\n    }\n\n    struct DisputeParty {\n        address disputePartyAddress;\n        string documentation;\n        uint [] judgeVotes;\n    }\n\n    uint feePct = 10;\n\n    ///@dev this is a flag to see if I need to reach for new DisputeCase or I just fill new address into existing one\n    struct CaseWaitingForJudge {\n        bool waiting;\n        bytes32 disputeId;\n    } \n    CaseWaitingForJudge caseWaitingForJudge;\n    \n    function UpdateCaseWaitingForJudge  (bool _waiting, bytes32 _disputeId) internal {\n        caseWaitingForJudge.waiting = _waiting;\n        caseWaitingForJudge.disputeId = _disputeId;\n    }\n\n    uint disputeIdNonce = 0;\n\n    ///@dev Number of judges needed for this contract\n    uint numberOfJudges = 3;\n    ///@dev update number of judges.\n    ///@custom:later should be admin only...\n    function updateNumberOfJudges (uint _numberOfJudges) external {\n        numberOfJudges = _numberOfJudges;\n    }\n\n\n    mapping(bytes32 =>DisputeCase) public DisputeCaseMapping;\n    mapping(address => bytes32 []) public AddressToCaseMapping;\n\n    function getDisputeCase (bytes32 _disputeId) public view returns (DisputeCase memory) {\n\n        return DisputeCaseMapping[_disputeId];\n    }\n    ///@notice Use this to get list of all your cases\n    ///@dev One user can have multiple dispute cases. Therefore I need to coerce from storage to list. I don't know if there is more \n    //elegant way to do this\n     function getMyDisputeCase () public view returns (DisputeCase [] memory) {\n         bytes32 [] memory disputeCaseIds  = getMyDisputeCaseId();\n        ///@custom:later I don't know exactly what I am doing here \n         DisputeCase [] memory disputeCaseList = new DisputeCase[](disputeCaseIds.length);\n        \n         for (uint i = 0; i < disputeCaseIds.length; i++) {\n             disputeCaseList[i] = getDisputeCase(disputeCaseIds[i]);\n         }\n         return disputeCaseList;\n     }\n\n    ///@notice use this to get Ids for further query\n    function getMyDisputeCaseId () public view returns (bytes32 [] memory _disputeCaseId) {\n        return AddressToCaseMapping[msg.sender];\n    }\n\n    ///@dev to establish connection to other contract\n    ///@custom:later  this works fine for single contract. I need this to be modular and can connect multiple contract on the fly\n    \n    function setRentEscrowAddress (address _rentEscrowAddress) public  {\n        rentEscrowAddress = _rentEscrowAddress;\n         emit sendAddress(rentEscrowAddress);\n    }\n\n    ///@notice requests new new dispute case from external contract. It is external contract job to send valid dispute case\n    function getNewContractToResolve () public {\n\n        rentEscrowInterface re = rentEscrowInterface(rentEscrowAddress);\n        RentContract memory rentContract = re.getContractToResolve();\n             \n        ///@dev I will create unique hash for every dispute case. This contract doesn't care if it resolves same rentCotnract multiple times. It is up to the rentContract to manage this\n        ///@dev I have no special motivation to hash the id, other than to a) try it b) make it impossible to view\n        bytes32 disputeId = keccak256(abi.encodePacked(rentContract.rentId + disputeIdNonce));\n        disputeIdNonce++;\n        \n        ///@custom:later if I get this right, newDisputeCase is a pointer to a place in storage. If this function is called multiple times on same rentID (mapping key) data will be overwritten\n        DisputeCase storage newDisputeCase = DisputeCaseMapping[disputeId];\n        newDisputeCase.disputeId = disputeId;\n        newDisputeCase.rentId = rentContract.rentId;\n        newDisputeCase.status = 100;\n        newDisputeCase.disputeDetail = \"Hello\";\n\n        ///@custom:later Seems ugly...\n        DisputeParty memory disputeParty1 = DisputeParty({\n            disputePartyAddress: rentContract.landlord,\n            documentation: \"\",\n            judgeVotes: new uint [](0)\n        });\n\n        DisputeParty memory disputeParty2 = DisputeParty({\n            disputePartyAddress: rentContract.tenant,\n            documentation: \"\",\n            judgeVotes: new uint [](0)\n        });\n\n        newDisputeCase.disputeParty[0] = disputeParty1;\n        newDisputeCase.disputeParty[1] = disputeParty2;\n\n        ///@dev update mappping, so dispute parties can track their own dispute cases\n        AddressToCaseMapping[rentContract.landlord].push(disputeId);\n        AddressToCaseMapping[rentContract.tenant].push(disputeId);\n\n        ///@dev updates flag for nex runs. Now we have a open case, but not enough judges. Therefore we dont need to ask for new disputes\n        UpdateCaseWaitingForJudge(true,disputeId );\n\n    }\n\n    ///@notice Entry point for contract. Dispute lifecycle starts here by assigning judge to existing dispute or requesting new dispute from external contract\n    function assignJudge() public {\n        ///@dev decide if I am missing judges in existing dispute. If yes, this gets skipped, otherwise will ask for new resolution case\n        if (caseWaitingForJudge.waiting == false) {\n            getNewContractToResolve();\n            }\n        ///@custom:later I am shutting this off now for development reasons\n        require(testJudgeEligibility(DisputeCaseMapping[caseWaitingForJudge.disputeId]), \"This address cannot be judge\");\n        \n\n        ///@dev emitting disputeId for future reference in front end\n        emit sendDisputeId(DisputeCaseMapping[caseWaitingForJudge.disputeId].disputeId);\n        \n        //@dev adding msg sender as a new judge and updating the mapping\n        DisputeCaseMapping[caseWaitingForJudge.disputeId].judges.push(msg.sender);\n        AddressToCaseMapping[msg.sender].push(DisputeCaseMapping[caseWaitingForJudge.disputeId].disputeId);\n                \n        ///@dev decide whether we have enough judges. if yes, nex assign judge will call getNewContractToResolve\n        if (DisputeCaseMapping[caseWaitingForJudge.disputeId].judges.length >= numberOfJudges) {\n            UpdateCaseWaitingForJudge(false, 0);\n        }\n    }\n    ///@custom:later is this a case for modifier?\n    ///@dev multiple tests to control who can be judge\n    ///@dev we are on the conservative side and starting with default False. \n    ///@dev this seems extremely verbose, please shill me something more elegant\n    function testJudgeEligibility (DisputeCase storage _disputeCase) internal view returns (bool _eligible) {\n        uint judgeCount;\n        uint disputePartyCount;\n\n        ///@dev test if address is already judge. \n        for(uint i=0; i<_disputeCase.judges.length; i++){\n            judgeCount = msg.sender == _disputeCase.judges[i] ? judgeCount+1:judgeCount;\n            }\n        ///@dev test if address is on the restricted list\n        for(uint i=0; i<_disputeCase.disputeParty.length; i++){\n            disputePartyCount = msg.sender == _disputeCase.disputeParty[i].disputePartyAddress ? disputePartyCount+1:disputePartyCount+0;\n            }\n        \n        _eligible = judgeCount+disputePartyCount==0 ? true:false;\n\n        }\n\n    ///@dev test to see if address can vote or if already voted\n    function testJudgeEligibilityToVote (DisputeCase storage _disputeCase) internal view {\n\n        ///@dev test if address is judge\n        uint judgeCounter;\n        for(uint i=0; i<_disputeCase.judges.length; i++){\n            judgeCounter = msg.sender == _disputeCase.judges[i] ? judgeCounter+1:judgeCounter;\n            }\n        require(judgeCounter >0 ,\"Address not a judge\");\n\n        //test if address already voted\n        for(uint i=0; i<_disputeCase.judgesWhoVoted.length; i++){\n            require(msg.sender!=_disputeCase.judgesWhoVoted[i], \"Judge Already voted\");\n            }\n\n    }\n\n    function castVote(uint [2] memory _judgeVote, bytes32 _disputeId) external {\n        require(_judgeVote[0] + _judgeVote[1] == 100, \"Votes not 100\");\n        DisputeCase storage disputeCase = DisputeCaseMapping[_disputeId];\n        testJudgeEligibilityToVote(disputeCase);\n\n        ///@dev this is suboptimal as it relies on order of votes within array. Should be linked to disputeParty address\n        \n        disputeCase.disputeParty[0].judgeVotes.push(_judgeVote[0]);\n        disputeCase.disputeParty[1].judgeVotes.push(_judgeVote[1]);\n        disputeCase.judgesWhoVoted.push(msg.sender);\n\n        ///@dev Test if all judges voted. If yes, trigger createRedeem proposal and release funds \n        if (disputeCase.disputeParty[0].judgeVotes.length == numberOfJudges &&\n        disputeCase.disputeParty[1].judgeVotes.length == numberOfJudges) {\n            triggerCreateRedeemProposal(_disputeId);\n        }\n    }\n\n    \n    \n    function triggerCreateRedeemProposal(bytes32 _disputeId) public {\n        uint [] memory result;\n        ///@custom:later Which is better? This?\n        result = aggregateJudgeVotes(_disputeId);\n        result = rebaseVotesIncludeFee(feePct, result);\n        //or this: result = rebaseVotesIncludeFee(feePct, aggregateJudgeVotes(_disputeId));\n\n        \n        rentEscrowInterface re = rentEscrowInterface(rentEscrowAddress);\n        re.createRedeemProposal(\n            DisputeCaseMapping[_disputeId].rentId,\n            result[0],\n            result[1],\n            result[2]\n        );\n        re.acceptRedeemProposal(DisputeCaseMapping[_disputeId].rentId);\n    }\n\n    function aggregateJudgeVotes (bytes32 _disputeId) private view returns (uint [] memory) {\n        DisputeCase storage disputeCase = DisputeCaseMapping[_disputeId];\n        uint [] memory result = new uint[](disputeCase.disputeParty.length);\n    \n\n        for (uint i = 0; i<disputeCase.disputeParty.length; i++){\n            uint cummulVotes = 0;\n            for (uint j = 0; j < disputeCase.disputeParty[i].judgeVotes.length; j++){\n                cummulVotes += disputeCase.disputeParty[i].judgeVotes[j];\n            }\n            result[i] = cummulVotes/disputeCase.disputeParty[i].judgeVotes.length;\n            \n        }\n        return result;\n\n    }\n    ///@dev This rebases Votes to include share of fee, that get into Resolver contract\n    ///@dev In case of 2 parties should return 3 values. 1 and 2, is share of dispute parties. 3 is fee share.\n    function rebaseVotesIncludeFee (uint _feeShare, uint [] memory votes) private pure returns (uint [] memory) {\n        uint [] memory result = new uint[](votes.length + 1);\n        \n        for (uint i = 0; i < votes.length; i++ ){\n            result[i] = (votes[i]*(100-_feeShare))/100;\n            \n        }\n        ///@custom:later This is dirty, but I dont know how to round properly and need the sum of result elements to be 100\n        result[result.length - 1] = 100 - result[0] - result[1];\n        return result;\n    }\n\n    receive() external payable {\n\n    }\n\n    }\n\n",
  "sourcePath": "/Users/andy/my_repos/rentEscrow/contracts/resolver.sol",
  "compiler": {
    "name": "solc",
    "version": "0.8.10+commit.fc410830.Emscripten.clang"
  },
  "schemaVersion": "3.4.5",
  "updatedAt": "2022-03-13T12:54:42.360Z",
  "devdoc": {
    "events": {
      "sendDisputeId(bytes32)": {
        "details": "events for production"
      },
      "sendMessage(string)": {
        "details": "events for development"
      }
    },
    "kind": "dev",
    "methods": {
      "createRedeemProposal(uint256,uint256,uint256,uint256)": {
        "custom:navigation": "Redeems"
      },
      "devGetBalance()": {
        "custom:navigation": "Development Helpers"
      },
      "getContractToResolve()": {
        "custom:later": "now gives just first contract. Need to add logic to return contract where redeemProposal was rejected",
        "details": "this is used by retrieve mapping by another contract"
      },
      "getMyDisputeCase()": {
        "details": "One user can have multiple dispute cases. Therefore I need to coerce from storage to list. I don't know if there is more "
      },
      "proposeNewContract(uint256,string)": {
        "custom:navigation": "RentContracts"
      },
      "rejectRedeemProposal(uint256)": {
        "params": {
          "_rentId": "identifies the contract between tenant and landlord"
        }
      },
      "setRentEscrowAddress(address)": {
        "custom:later": "this works fine for single contract. I need this to be modular and can connect multiple contract on the fly",
        "details": "to establish connection to other contract"
      },
      "setResolverAddress(address)": {
        "details": "sets"
      },
      "updateNumberOfJudges(uint256)": {
        "custom:later": "should be admin only...",
        "details": "update number of judges."
      }
    },
    "stateVariables": {
      "numberOfJudges": {
        "details": "Number of judges needed for this contract"
      }
    },
    "version": 1
  },
  "userdoc": {
    "kind": "user",
    "methods": {
      "assignJudge()": {
        "notice": "Entry point for contract. Dispute lifecycle starts here by assigning judge to existing dispute or requesting new dispute from external contract"
      },
      "getContractDetails(uint256)": {
        "notice": "returns RentContract"
      },
      "getContractsByAddress()": {
        "notice": "returns all contracts  where sender is involved party"
      },
      "getMyDisputeCase()": {
        "notice": "Use this to get list of all your cases"
      },
      "getMyDisputeCaseId()": {
        "notice": "use this to get Ids for further query"
      },
      "getNewContractToResolve()": {
        "notice": "requests new new dispute case from external contract. It is external contract job to send valid dispute case"
      },
      "rejectRedeemProposal(uint256)": {
        "notice": "Use this function to reject redeem proposal. Will send it to the resolution centre"
      }
    },
    "version": 1
  }
}