{
  "contractName": "resolver",
  "abi": [
    {
      "anonymous": false,
      "inputs": [
        {
          "indexed": false,
          "internalType": "uint256",
          "name": "_rentId",
          "type": "uint256"
        }
      ],
      "name": "rentContractId",
      "type": "event"
    },
    {
      "anonymous": false,
      "inputs": [
        {
          "indexed": false,
          "internalType": "address",
          "name": "_message",
          "type": "address"
        }
      ],
      "name": "sendAddress",
      "type": "event"
    },
    {
      "anonymous": false,
      "inputs": [
        {
          "indexed": false,
          "internalType": "address",
          "name": "_message",
          "type": "address"
        }
      ],
      "name": "sendAddressRent",
      "type": "event"
    },
    {
      "anonymous": false,
      "inputs": [
        {
          "indexed": false,
          "internalType": "bool",
          "name": "_bool",
          "type": "bool"
        }
      ],
      "name": "sendBool",
      "type": "event"
    },
    {
      "anonymous": false,
      "inputs": [
        {
          "indexed": false,
          "internalType": "bytes32",
          "name": "",
          "type": "bytes32"
        }
      ],
      "name": "sendDisputeId",
      "type": "event"
    },
    {
      "anonymous": false,
      "inputs": [
        {
          "indexed": false,
          "internalType": "uint256",
          "name": "_message",
          "type": "uint256"
        }
      ],
      "name": "sendId",
      "type": "event"
    },
    {
      "anonymous": false,
      "inputs": [
        {
          "indexed": false,
          "internalType": "uint256",
          "name": "_message",
          "type": "uint256"
        }
      ],
      "name": "sendIdRent",
      "type": "event"
    },
    {
      "anonymous": false,
      "inputs": [
        {
          "indexed": false,
          "internalType": "string",
          "name": "_message",
          "type": "string"
        }
      ],
      "name": "sendMessage",
      "type": "event"
    },
    {
      "anonymous": false,
      "inputs": [
        {
          "indexed": false,
          "internalType": "string",
          "name": "_message",
          "type": "string"
        }
      ],
      "name": "sendStringRent",
      "type": "event"
    },
    {
      "anonymous": false,
      "inputs": [
        {
          "indexed": false,
          "internalType": "contract rentEscrow",
          "name": "_rentEscrow",
          "type": "address"
        }
      ],
      "name": "sendStruct",
      "type": "event"
    },
    {
      "inputs": [
        {
          "internalType": "address",
          "name": "",
          "type": "address"
        },
        {
          "internalType": "uint256",
          "name": "",
          "type": "uint256"
        }
      ],
      "name": "AddressToCaseMapping",
      "outputs": [
        {
          "internalType": "bytes32",
          "name": "",
          "type": "bytes32"
        }
      ],
      "stateMutability": "view",
      "type": "function"
    },
    {
      "inputs": [
        {
          "internalType": "bytes32",
          "name": "",
          "type": "bytes32"
        }
      ],
      "name": "DisputeCaseMapping",
      "outputs": [
        {
          "internalType": "bytes32",
          "name": "disputeId",
          "type": "bytes32"
        },
        {
          "internalType": "uint256",
          "name": "rentId",
          "type": "uint256"
        },
        {
          "internalType": "uint256",
          "name": "status",
          "type": "uint256"
        },
        {
          "internalType": "string",
          "name": "disputeDetail",
          "type": "string"
        }
      ],
      "stateMutability": "view",
      "type": "function"
    },
    {
      "inputs": [
        {
          "internalType": "uint256",
          "name": "_rentId",
          "type": "uint256"
        }
      ],
      "name": "acceptNewContract",
      "outputs": [],
      "stateMutability": "payable",
      "type": "function"
    },
    {
      "inputs": [
        {
          "internalType": "uint256",
          "name": "_rentId",
          "type": "uint256"
        }
      ],
      "name": "acceptRedeemProposal",
      "outputs": [],
      "stateMutability": "nonpayable",
      "type": "function"
    },
    {
      "inputs": [
        {
          "internalType": "address",
          "name": "",
          "type": "address"
        },
        {
          "internalType": "uint256",
          "name": "",
          "type": "uint256"
        }
      ],
      "name": "addressMapping",
      "outputs": [
        {
          "internalType": "uint256",
          "name": "",
          "type": "uint256"
        }
      ],
      "stateMutability": "view",
      "type": "function"
    },
    {
      "inputs": [
        {
          "internalType": "uint256",
          "name": "_rentId",
          "type": "uint256"
        },
        {
          "internalType": "uint256",
          "name": "_tenantShare",
          "type": "uint256"
        },
        {
          "internalType": "uint256",
          "name": "_landlordShare",
          "type": "uint256"
        },
        {
          "internalType": "uint256",
          "name": "_feeShare",
          "type": "uint256"
        }
      ],
      "name": "createRedeemProposal",
      "outputs": [],
      "stateMutability": "nonpayable",
      "type": "function"
    },
    {
      "inputs": [],
      "name": "devGetBalance",
      "outputs": [
        {
          "internalType": "uint256",
          "name": "",
          "type": "uint256"
        }
      ],
      "stateMutability": "view",
      "type": "function"
    },
    {
      "inputs": [
        {
          "internalType": "uint256",
          "name": "_rentId",
          "type": "uint256"
        }
      ],
      "name": "disputeRedeemProposal",
      "outputs": [],
      "stateMutability": "nonpayable",
      "type": "function"
    },
    {
      "inputs": [
        {
          "internalType": "uint256",
          "name": "_rentId",
          "type": "uint256"
        }
      ],
      "name": "getContractDetails",
      "outputs": [
        {
          "components": [
            {
              "internalType": "uint256",
              "name": "rentId",
              "type": "uint256"
            },
            {
              "internalType": "address",
              "name": "tenant",
              "type": "address"
            },
            {
              "internalType": "address",
              "name": "landlord",
              "type": "address"
            },
            {
              "internalType": "uint256",
              "name": "escrowValue",
              "type": "uint256"
            },
            {
              "internalType": "string",
              "name": "contractDetail",
              "type": "string"
            },
            {
              "internalType": "uint256",
              "name": "status",
              "type": "uint256"
            },
            {
              "components": [
                {
                  "internalType": "uint256",
                  "name": "tenantShare",
                  "type": "uint256"
                },
                {
                  "internalType": "uint256",
                  "name": "landlordShare",
                  "type": "uint256"
                },
                {
                  "internalType": "uint256",
                  "name": "feeShare",
                  "type": "uint256"
                },
                {
                  "internalType": "address",
                  "name": "feeAddress",
                  "type": "address"
                }
              ],
              "internalType": "struct rentEscrowInterface.RedeemProposal",
              "name": "redeemProposal",
              "type": "tuple"
            }
          ],
          "internalType": "struct rentEscrowInterface.RentContract",
          "name": "",
          "type": "tuple"
        }
      ],
      "stateMutability": "view",
      "type": "function"
    },
    {
      "inputs": [],
      "name": "getContractToResolve",
      "outputs": [
        {
          "components": [
            {
              "internalType": "uint256",
              "name": "rentId",
              "type": "uint256"
            },
            {
              "internalType": "address",
              "name": "tenant",
              "type": "address"
            },
            {
              "internalType": "address",
              "name": "landlord",
              "type": "address"
            },
            {
              "internalType": "uint256",
              "name": "escrowValue",
              "type": "uint256"
            },
            {
              "internalType": "string",
              "name": "contractDetail",
              "type": "string"
            },
            {
              "internalType": "uint256",
              "name": "status",
              "type": "uint256"
            },
            {
              "components": [
                {
                  "internalType": "uint256",
                  "name": "tenantShare",
                  "type": "uint256"
                },
                {
                  "internalType": "uint256",
                  "name": "landlordShare",
                  "type": "uint256"
                },
                {
                  "internalType": "uint256",
                  "name": "feeShare",
                  "type": "uint256"
                },
                {
                  "internalType": "address",
                  "name": "feeAddress",
                  "type": "address"
                }
              ],
              "internalType": "struct rentEscrowInterface.RedeemProposal",
              "name": "redeemProposal",
              "type": "tuple"
            }
          ],
          "internalType": "struct rentEscrowInterface.RentContract",
          "name": "",
          "type": "tuple"
        }
      ],
      "stateMutability": "view",
      "type": "function"
    },
    {
      "inputs": [],
      "name": "getContractsByAddress",
      "outputs": [
        {
          "internalType": "uint256[]",
          "name": "",
          "type": "uint256[]"
        }
      ],
      "stateMutability": "view",
      "type": "function"
    },
    {
      "inputs": [
        {
          "internalType": "string",
          "name": "",
          "type": "string"
        }
      ],
      "name": "importantAddresses",
      "outputs": [
        {
          "internalType": "address",
          "name": "",
          "type": "address"
        }
      ],
      "stateMutability": "view",
      "type": "function"
    },
    {
      "inputs": [
        {
          "internalType": "string",
          "name": "",
          "type": "string"
        }
      ],
      "name": "importantStrings",
      "outputs": [
        {
          "internalType": "string",
          "name": "",
          "type": "string"
        }
      ],
      "stateMutability": "view",
      "type": "function"
    },
    {
      "inputs": [],
      "name": "nextRentId",
      "outputs": [
        {
          "internalType": "uint256",
          "name": "",
          "type": "uint256"
        }
      ],
      "stateMutability": "view",
      "type": "function"
    },
    {
      "inputs": [
        {
          "internalType": "uint256",
          "name": "_escrowValue",
          "type": "uint256"
        },
        {
          "internalType": "string",
          "name": "_contractDetail",
          "type": "string"
        }
      ],
      "name": "proposeNewContract",
      "outputs": [],
      "stateMutability": "nonpayable",
      "type": "function"
    },
    {
      "inputs": [
        {
          "internalType": "uint256",
          "name": "_rentId",
          "type": "uint256"
        }
      ],
      "name": "rejectRedeemProposal",
      "outputs": [],
      "stateMutability": "nonpayable",
      "type": "function"
    },
    {
      "inputs": [
        {
          "internalType": "uint256",
          "name": "",
          "type": "uint256"
        }
      ],
      "name": "rentContractsMapping",
      "outputs": [
        {
          "internalType": "uint256",
          "name": "rentId",
          "type": "uint256"
        },
        {
          "internalType": "address",
          "name": "tenant",
          "type": "address"
        },
        {
          "internalType": "address",
          "name": "landlord",
          "type": "address"
        },
        {
          "internalType": "uint256",
          "name": "escrowValue",
          "type": "uint256"
        },
        {
          "internalType": "string",
          "name": "contractDetail",
          "type": "string"
        },
        {
          "internalType": "uint256",
          "name": "status",
          "type": "uint256"
        },
        {
          "components": [
            {
              "internalType": "uint256",
              "name": "tenantShare",
              "type": "uint256"
            },
            {
              "internalType": "uint256",
              "name": "landlordShare",
              "type": "uint256"
            },
            {
              "internalType": "uint256",
              "name": "feeShare",
              "type": "uint256"
            },
            {
              "internalType": "address",
              "name": "feeAddress",
              "type": "address"
            }
          ],
          "internalType": "struct rentEscrowInterface.RedeemProposal",
          "name": "redeemProposal",
          "type": "tuple"
        }
      ],
      "stateMutability": "view",
      "type": "function"
    },
    {
      "inputs": [
        {
          "internalType": "address",
          "name": "_resolverAddress",
          "type": "address"
        }
      ],
      "name": "setResolverAddress",
      "outputs": [],
      "stateMutability": "nonpayable",
      "type": "function"
    },
    {
      "stateMutability": "payable",
      "type": "receive"
    },
    {
      "inputs": [
        {
          "internalType": "uint256",
          "name": "_numberOfJudges",
          "type": "uint256"
        }
      ],
      "name": "updateNumberOfJudges",
      "outputs": [],
      "stateMutability": "nonpayable",
      "type": "function"
    },
    {
      "inputs": [
        {
          "internalType": "bytes32",
          "name": "_disputeId",
          "type": "bytes32"
        }
      ],
      "name": "getDisputeCase",
      "outputs": [
        {
          "components": [
            {
              "internalType": "bytes32",
              "name": "disputeId",
              "type": "bytes32"
            },
            {
              "internalType": "uint256",
              "name": "rentId",
              "type": "uint256"
            },
            {
              "internalType": "uint256",
              "name": "status",
              "type": "uint256"
            },
            {
              "internalType": "address[]",
              "name": "judges",
              "type": "address[]"
            },
            {
              "internalType": "address[]",
              "name": "judgesWhoVoted",
              "type": "address[]"
            },
            {
              "internalType": "address[]",
              "name": "restrictedJudges",
              "type": "address[]"
            },
            {
              "components": [
                {
                  "internalType": "address",
                  "name": "disputePartyAddress",
                  "type": "address"
                },
                {
                  "internalType": "string",
                  "name": "documentation",
                  "type": "string"
                },
                {
                  "internalType": "uint256[]",
                  "name": "judgeVotes",
                  "type": "uint256[]"
                }
              ],
              "internalType": "struct resolver.DisputeParty[2]",
              "name": "disputeParty",
              "type": "tuple[2]"
            },
            {
              "internalType": "string",
              "name": "disputeDetail",
              "type": "string"
            }
          ],
          "internalType": "struct resolver.DisputeCase",
          "name": "",
          "type": "tuple"
        }
      ],
      "stateMutability": "view",
      "type": "function"
    },
    {
      "inputs": [],
      "name": "getMyDisputeCase",
      "outputs": [
        {
          "components": [
            {
              "internalType": "bytes32",
              "name": "disputeId",
              "type": "bytes32"
            },
            {
              "internalType": "uint256",
              "name": "rentId",
              "type": "uint256"
            },
            {
              "internalType": "uint256",
              "name": "status",
              "type": "uint256"
            },
            {
              "internalType": "address[]",
              "name": "judges",
              "type": "address[]"
            },
            {
              "internalType": "address[]",
              "name": "judgesWhoVoted",
              "type": "address[]"
            },
            {
              "internalType": "address[]",
              "name": "restrictedJudges",
              "type": "address[]"
            },
            {
              "components": [
                {
                  "internalType": "address",
                  "name": "disputePartyAddress",
                  "type": "address"
                },
                {
                  "internalType": "string",
                  "name": "documentation",
                  "type": "string"
                },
                {
                  "internalType": "uint256[]",
                  "name": "judgeVotes",
                  "type": "uint256[]"
                }
              ],
              "internalType": "struct resolver.DisputeParty[2]",
              "name": "disputeParty",
              "type": "tuple[2]"
            },
            {
              "internalType": "string",
              "name": "disputeDetail",
              "type": "string"
            }
          ],
          "internalType": "struct resolver.DisputeCase[]",
          "name": "",
          "type": "tuple[]"
        }
      ],
      "stateMutability": "view",
      "type": "function"
    },
    {
      "inputs": [],
      "name": "getMyDisputeCaseId",
      "outputs": [
        {
          "internalType": "bytes32[]",
          "name": "_disputeCaseId",
          "type": "bytes32[]"
        }
      ],
      "stateMutability": "view",
      "type": "function"
    },
    {
      "inputs": [
        {
          "internalType": "address",
          "name": "_rentEscrowAddress",
          "type": "address"
        }
      ],
      "name": "setRentEscrowAddress",
      "outputs": [],
      "stateMutability": "nonpayable",
      "type": "function"
    },
    {
      "inputs": [],
      "name": "getNewContractToResolve",
      "outputs": [],
      "stateMutability": "nonpayable",
      "type": "function"
    },
    {
      "inputs": [],
      "name": "assignJudge",
      "outputs": [],
      "stateMutability": "nonpayable",
      "type": "function"
    },
    {
      "inputs": [
        {
          "internalType": "uint256[2]",
          "name": "_judgeVote",
          "type": "uint256[2]"
        },
        {
          "internalType": "bytes32",
          "name": "_disputeId",
          "type": "bytes32"
        }
      ],
      "name": "castVote",
      "outputs": [],
      "stateMutability": "nonpayable",
      "type": "function"
    },
    {
      "inputs": [
        {
          "internalType": "bytes32",
          "name": "_disputeId",
          "type": "bytes32"
        }
      ],
      "name": "triggerCreateRedeemProposal",
      "outputs": [],
      "stateMutability": "nonpayable",
      "type": "function"
    }
  ],
  "bytecode": "0x60806040526000600255600a60065560006009556003600a5534801561002457600080fd5b506152e7806100346000396000f3fe6080604052600436106101a05760003560e01c80638922dfbf116100ec578063b61f5f531161008a578063dd28218b11610064578063dd28218b146105c7578063eafe9934146105f0578063fb72d92a1461061b578063fcfe7b5114610658576101a7565b8063b61f5f531461054a578063bcb30fba14610575578063c1ec6fc01461059e576101a7565b806396d65c3e116100c657806396d65c3e1461047b578063a6dd4276146104b8578063b102b370146104e1578063b59146f714610521576101a7565b80638922dfbf146103ec5780638db28504146104295780639512833114610452576101a7565b80634232dfed116101595780637395eb41116101335780637395eb41146103655780637ad637d8146103905780637afc2d56146103a757806385b58963146103d0576101a7565b80634232dfed146102bc5780634d6d6a9c146102e55780636b695d2414610322576101a7565b8063039ed501146101ac57806307e31e2b146101d75780630836e7d0146102145780630e593bc3146102515780630e9008fe146102685780632458cc3e14610291576101a7565b366101a757005b600080fd5b3480156101b857600080fd5b506101c1610683565b6040516101ce9190613720565b60405180910390f35b3480156101e357600080fd5b506101fe60048036038101906101f99190613895565b610689565b60405161020b9190613966565b60405180910390f35b34801561022057600080fd5b5061023b600480360381019061023691906139be565b61073f565b6040516102489190613dcb565b60405180910390f35b34801561025d57600080fd5b50610266610b53565b005b34801561027457600080fd5b5061028f600480360381019061028a9190613e19565b610d61565b005b34801561029d57600080fd5b506102a6610fe1565b6040516102b39190613720565b60405180910390f35b3480156102c857600080fd5b506102e360048036038101906102de9190613e80565b610fe9565b005b3480156102f157600080fd5b5061030c60048036038101906103079190613e80565b610ff3565b6040516103199190613f9f565b60405180910390f35b34801561032e57600080fd5b5061034960048036038101906103449190613e80565b611203565b60405161035c9796959493929190614025565b60405180910390f35b34801561037157600080fd5b5061037a61138b565b6040516103879190613f9f565b60405180910390f35b34801561039c57600080fd5b506103a56115a0565b005b3480156103b357600080fd5b506103ce60048036038101906103c99190613e80565b611a61565b005b6103ea60048036038101906103e59190613e80565b611e89565b005b3480156103f857600080fd5b50610413600480360381019061040e9190613895565b612058565b604051610420919061409c565b60405180910390f35b34801561043557600080fd5b50610450600480360381019061044b91906140e3565b6120a1565b005b34801561045e57600080fd5b50610479600480360381019061047491906141c6565b61213e565b005b34801561048757600080fd5b506104a2600480360381019061049d9190614206565b612363565b6040516104af9190613720565b60405180910390f35b3480156104c457600080fd5b506104df60048036038101906104da9190613e80565b612394565b005b3480156104ed57600080fd5b50610508600480360381019061050391906139be565b612519565b6040516105189493929190614255565b60405180910390f35b34801561052d57600080fd5b50610548600480360381019061054391906142a1565b6125d1565b005b34801561055657600080fd5b5061055f6127ef565b60405161056c919061436c565b60405180910390f35b34801561058157600080fd5b5061059c60048036038101906105979190613e80565b612884565b005b3480156105aa57600080fd5b506105c560048036038101906105c091906139be565b612a0a565b005b3480156105d357600080fd5b506105ee60048036038101906105e991906140e3565b612baa565b005b3480156105fc57600080fd5b50610605612c6e565b604051610612919061443d565b60405180910390f35b34801561062757600080fd5b50610642600480360381019061063d9190614206565b612d03565b60405161064f919061445f565b60405180910390f35b34801561066457600080fd5b5061066d612d34565b60405161067a9190614608565b60405180910390f35b60025481565b60048180516020810182018051848252602083016020850120818352809550505050505060009150905080546106be90614659565b80601f01602080910402602001604051908101604052809291908181526020018280546106ea90614659565b80156107375780601f1061070c57610100808354040283529160200191610737565b820191906000526020600020905b81548152906001019060200180831161071a57829003601f168201915b505050505081565b6107476134b8565b600b6000838152602001908152602001600020604051806101000160405290816000820154815260200160018201548152602001600282015481526020016003820180548060200260200160405190810160405280929190818152602001828054801561080957602002820191906000526020600020905b8160009054906101000a900473ffffffffffffffffffffffffffffffffffffffff1673ffffffffffffffffffffffffffffffffffffffff16815260200190600101908083116107bf575b505050505081526020016004820180548060200260200160405190810160405280929190818152602001828054801561089757602002820191906000526020600020905b8160009054906101000a900473ffffffffffffffffffffffffffffffffffffffff1673ffffffffffffffffffffffffffffffffffffffff168152602001906001019080831161084d575b505050505081526020016005820180548060200260200160405190810160405280929190818152602001828054801561092557602002820191906000526020600020905b8160009054906101000a900473ffffffffffffffffffffffffffffffffffffffff1673ffffffffffffffffffffffffffffffffffffffff16815260200190600101908083116108db575b5050505050815260200160068201600280602002604051908101604052809291906000905b82821015610ab2578382600302016040518060600160405290816000820160009054906101000a900473ffffffffffffffffffffffffffffffffffffffff1673ffffffffffffffffffffffffffffffffffffffff1673ffffffffffffffffffffffffffffffffffffffff1681526020016001820180546109c990614659565b80601f01602080910402602001604051908101604052809291908181526020018280546109f590614659565b8015610a425780601f10610a1757610100808354040283529160200191610a42565b820191906000526020600020905b815481529060010190602001808311610a2557829003601f168201915b5050505050815260200160028201805480602002602001604051908101604052809291908181526020018280548015610a9a57602002820191906000526020600020905b815481526020019060010190808311610a86575b5050505050815250508152602001906001019061094a565b505050508152602001600c82018054610aca90614659565b80601f0160208091040260200160405190810160405280929190818152602001828054610af690614659565b8015610b435780601f10610b1857610100808354040283529160200191610b43565b820191906000526020600020905b815481529060010190602001808311610b2657829003601f168201915b5050505050815250509050919050565b60001515600760000160009054906101000a900460ff1615151415610b7b57610b7a6115a0565b5b610b9b600b60006007600101548152602001908152602001600020612e04565b610bda576040517f08c379a0000000000000000000000000000000000000000000000000000000008152600401610bd1906146d7565b60405180910390fd5b7fdf247fdfb29d1a7f4a949e81abe1b391f62b391f1c1c0a258bdccbe7b9655952600b6000600760010154815260200190815260200160002060000154604051610c24919061445f565b60405180910390a1600b60006007600101548152602001908152602001600020600301339080600181540180825580915050600190039060005260206000200160009091909190916101000a81548173ffffffffffffffffffffffffffffffffffffffff021916908373ffffffffffffffffffffffffffffffffffffffff160217905550600c60003373ffffffffffffffffffffffffffffffffffffffff1673ffffffffffffffffffffffffffffffffffffffff168152602001908152602001600020600b60006007600101548152602001908152602001600020600001549080600181540180825580915050600190039060005260206000200160009091909190915055600a54600b600060076001015481526020019081526020016000206003018054905010610d5f57610d5e60008060001b612f93565b5b565b6000818385610d709190614726565b610d7a9190614726565b905060648114610dbf576040517f08c379a0000000000000000000000000000000000000000000000000000000008152600401610db6906147ee565b60405180910390fd5b60008086815260200190815260200160002060020160009054906101000a900473ffffffffffffffffffffffffffffffffffffffff1673ffffffffffffffffffffffffffffffffffffffff163373ffffffffffffffffffffffffffffffffffffffff161480610e9557506003604051610e3790614865565b908152602001604051809103902060009054906101000a900473ffffffffffffffffffffffffffffffffffffffff1673ffffffffffffffffffffffffffffffffffffffff163373ffffffffffffffffffffffffffffffffffffffff16145b610ed4576040517f08c379a0000000000000000000000000000000000000000000000000000000008152600401610ecb906148ec565b60405180910390fd5b8360008087815260200190815260200160002060060160000181905550826000808781526020019081526020016000206006016001018190555081600080878152602001908152602001600020600601600201819055506003604051610f3990614865565b908152602001604051809103902060009054906101000a900473ffffffffffffffffffffffffffffffffffffffff1660008087815260200190815260200160002060060160030160006101000a81548173ffffffffffffffffffffffffffffffffffffffff021916908373ffffffffffffffffffffffffffffffffffffffff16021790555061012c600080878152602001908152602001600020600501819055505050505050565b600047905090565b80600a8190555050565b610ffb613506565b6000808381526020019081526020016000206040518060e0016040529081600082015481526020016001820160009054906101000a900473ffffffffffffffffffffffffffffffffffffffff1673ffffffffffffffffffffffffffffffffffffffff1673ffffffffffffffffffffffffffffffffffffffff1681526020016002820160009054906101000a900473ffffffffffffffffffffffffffffffffffffffff1673ffffffffffffffffffffffffffffffffffffffff1673ffffffffffffffffffffffffffffffffffffffff168152602001600382015481526020016004820180546110e890614659565b80601f016020809104026020016040519081016040528092919081815260200182805461111490614659565b80156111615780601f1061113657610100808354040283529160200191611161565b820191906000526020600020905b81548152906001019060200180831161114457829003601f168201915b5050505050815260200160058201548152602001600682016040518060800160405290816000820154815260200160018201548152602001600282015481526020016003820160009054906101000a900473ffffffffffffffffffffffffffffffffffffffff1673ffffffffffffffffffffffffffffffffffffffff1673ffffffffffffffffffffffffffffffffffffffff1681525050815250509050919050565b60006020528060005260406000206000915090508060000154908060010160009054906101000a900473ffffffffffffffffffffffffffffffffffffffff16908060020160009054906101000a900473ffffffffffffffffffffffffffffffffffffffff169080600301549080600401805461127e90614659565b80601f01602080910402602001604051908101604052809291908181526020018280546112aa90614659565b80156112f75780601f106112cc576101008083540402835291602001916112f7565b820191906000526020600020905b8154815290600101906020018083116112da57829003601f168201915b505050505090806005015490806006016040518060800160405290816000820154815260200160018201548152602001600282015481526020016003820160009054906101000a900473ffffffffffffffffffffffffffffffffffffffff1673ffffffffffffffffffffffffffffffffffffffff1673ffffffffffffffffffffffffffffffffffffffff1681525050905087565b611393613506565b6000600190506000808281526020019081526020016000206040518060e0016040529081600082015481526020016001820160009054906101000a900473ffffffffffffffffffffffffffffffffffffffff1673ffffffffffffffffffffffffffffffffffffffff1673ffffffffffffffffffffffffffffffffffffffff1681526020016002820160009054906101000a900473ffffffffffffffffffffffffffffffffffffffff1673ffffffffffffffffffffffffffffffffffffffff1673ffffffffffffffffffffffffffffffffffffffff1681526020016003820154815260200160048201805461148690614659565b80601f01602080910402602001604051908101604052809291908181526020018280546114b290614659565b80156114ff5780601f106114d4576101008083540402835291602001916114ff565b820191906000526020600020905b8154815290600101906020018083116114e257829003601f168201915b5050505050815260200160058201548152602001600682016040518060800160405290816000820154815260200160018201548152602001600282015481526020016003820160009054906101000a900473ffffffffffffffffffffffffffffffffffffffff1673ffffffffffffffffffffffffffffffffffffffff1673ffffffffffffffffffffffffffffffffffffffff16815250508152505091505090565b6000600560009054906101000a900473ffffffffffffffffffffffffffffffffffffffff16905060008173ffffffffffffffffffffffffffffffffffffffff16637395eb416040518163ffffffff1660e01b8152600401600060405180830381865afa158015611614573d6000803e3d6000fd5b505050506040513d6000823e3d601f19601f8201168201806040525081019061163d9190614af9565b9050600060095482600001516116539190614726565b6040516020016116639190614b63565b6040516020818303038152906040528051906020012090506009600081548092919061168e90614b7e565b91905055506000600b6000838152602001908152602001600020905081816000018190555082600001518160010181905550606481600201819055506040518060400160405280600581526020017f48656c6c6f00000000000000000000000000000000000000000000000000000081525081600c019080519060200190611717929190613575565b5060006040518060600160405280856040015173ffffffffffffffffffffffffffffffffffffffff168152602001604051806020016040528060008152508152602001600067ffffffffffffffff8111156117755761177461376a565b5b6040519080825280602002602001820160405280156117a35781602001602082028036833780820191505090505b50815250905060006040518060600160405280866020015173ffffffffffffffffffffffffffffffffffffffff168152602001604051806020016040528060008152508152602001600067ffffffffffffffff8111156118065761180561376a565b5b6040519080825280602002602001820160405280156118345781602001602082028036833780820191505090505b508152509050818360060160006002811061185257611851614bc7565b5b6003020160008201518160000160006101000a81548173ffffffffffffffffffffffffffffffffffffffff021916908373ffffffffffffffffffffffffffffffffffffffff16021790555060208201518160010190805190602001906118b9929190613575565b5060408201518160020190805190602001906118d69291906135fb565b5090505080836006016001600281106118f2576118f1614bc7565b5b6003020160008201518160000160006101000a81548173ffffffffffffffffffffffffffffffffffffffff021916908373ffffffffffffffffffffffffffffffffffffffff1602179055506020820151816001019080519060200190611959929190613575565b5060408201518160020190805190602001906119769291906135fb565b50905050600c6000866040015173ffffffffffffffffffffffffffffffffffffffff1673ffffffffffffffffffffffffffffffffffffffff168152602001908152602001600020849080600181540180825580915050600190039060005260206000200160009091909190915055600c6000866020015173ffffffffffffffffffffffffffffffffffffffff1673ffffffffffffffffffffffffffffffffffffffff168152602001908152602001600020849080600181540180825580915050600190039060005260206000200160009091909190915055611a59600185612f93565b505050505050565b60008082815260200190815260200160002060010160009054906101000a900473ffffffffffffffffffffffffffffffffffffffff1673ffffffffffffffffffffffffffffffffffffffff163373ffffffffffffffffffffffffffffffffffffffff161480611b3757506003604051611ad990614865565b908152602001604051809103902060009054906101000a900473ffffffffffffffffffffffffffffffffffffffff1673ffffffffffffffffffffffffffffffffffffffff163373ffffffffffffffffffffffffffffffffffffffff16145b611b76576040517f08c379a0000000000000000000000000000000000000000000000000000000008152600401611b6d90614c68565b60405180910390fd5b6000806000838152602001908152602001600020600301549050600080600084815260200190815260200160002060010160009054906101000a900473ffffffffffffffffffffffffffffffffffffffff169050600060646000808681526020019081526020016000206006016000015484611bf29190614c88565b611bfc9190614d11565b9050600080600086815260200190815260200160002060020160009054906101000a900473ffffffffffffffffffffffffffffffffffffffff169050600060646000808881526020019081526020016000206006016001015486611c609190614c88565b611c6a9190614d11565b9050600080600088815260200190815260200160002060060160030160009054906101000a900473ffffffffffffffffffffffffffffffffffffffff169050600060646000808a81526020019081526020016000206006016002015488611cd19190614c88565b611cdb9190614d11565b905086818487611ceb9190614726565b611cf59190614726565b14611d35576040517f08c379a0000000000000000000000000000000000000000000000000000000008152600401611d2c90614dda565b60405180910390fd5b61012c6000808a81526020019081526020016000206005015414611d8e576040517f08c379a0000000000000000000000000000000000000000000000000000000008152600401611d8590614e46565b60405180910390fd5b6101906000808a8152602001908152602001600020600501819055508573ffffffffffffffffffffffffffffffffffffffff166108fc869081150290604051600060405180830381858888f19350505050158015611df0573d6000803e3d6000fd5b508373ffffffffffffffffffffffffffffffffffffffff166108fc849081150290604051600060405180830381858888f19350505050158015611e37573d6000803e3d6000fd5b508173ffffffffffffffffffffffffffffffffffffffff166108fc829081150290604051600060405180830381858888f19350505050158015611e7e573d6000803e3d6000fd5b505050505050505050565b600080828152602001908152602001600020600301543414611ee0576040517f08c379a0000000000000000000000000000000000000000000000000000000008152600401611ed790614ed8565b60405180910390fd5b60008082815260200190815260200160002060020160009054906101000a900473ffffffffffffffffffffffffffffffffffffffff1673ffffffffffffffffffffffffffffffffffffffff163373ffffffffffffffffffffffffffffffffffffffff161415611f84576040517f08c379a0000000000000000000000000000000000000000000000000000000008152600401611f7b90614f6a565b60405180910390fd5b6000808281526020019081526020016000206005015460c81415611fdd576040517f08c379a0000000000000000000000000000000000000000000000000000000008152600401611fd490614fd6565b60405180910390fd5b3360008083815260200190815260200160002060010160006101000a81548173ffffffffffffffffffffffffffffffffffffffff021916908373ffffffffffffffffffffffffffffffffffffffff16021790555060c86000808381526020019081526020016000206005018190555061205581612fbe565b50565b6003818051602081018201805184825260208301602085012081835280955050505050506000915054906101000a900473ffffffffffffffffffffffffffffffffffffffff1681565b80600560006101000a81548173ffffffffffffffffffffffffffffffffffffffff021916908373ffffffffffffffffffffffffffffffffffffffff1602179055507ff3cefb6580958289ed59682f8efcbb4cc6003c65fc36e951618d6809896a407b600560009054906101000a900473ffffffffffffffffffffffffffffffffffffffff16604051612133919061409c565b60405180910390a150565b60648260016002811061215457612153614bc7565b5b60200201518360006002811061216d5761216c614bc7565b5b602002015161217c9190614726565b146121bc576040517f08c379a00000000000000000000000000000000000000000000000000000000081526004016121b390615042565b60405180910390fd5b6000600b600083815260200190815260200160002090506121dc81613027565b806006016000600281106121f3576121f2614bc7565b5b600302016002018360006002811061220e5761220d614bc7565b5b60200201519080600181540180825580915050600190039060005260206000200160009091909190915055806006016001600281106122505761224f614bc7565b5b600302016002018360016002811061226b5761226a614bc7565b5b6020020151908060018154018082558091505060019003906000526020600020016000909190919091505580600401339080600181540180825580915050600190039060005260206000200160009091909190916101000a81548173ffffffffffffffffffffffffffffffffffffffff021916908373ffffffffffffffffffffffffffffffffffffffff160217905550600a548160060160006002811061231557612314614bc7565b5b600302016002018054905014801561234f5750600a548160060160016002811061234257612341614bc7565b5b6003020160020180549050145b1561235e5761235d82612a0a565b5b505050565b6001602052816000526040600020818154811061237f57600080fd5b90600052602060002001600091509150505481565b60008082815260200190815260200160002060010160009054906101000a900473ffffffffffffffffffffffffffffffffffffffff1673ffffffffffffffffffffffffffffffffffffffff163373ffffffffffffffffffffffffffffffffffffffff161480612463575060008082815260200190815260200160002060020160009054906101000a900473ffffffffffffffffffffffffffffffffffffffff1673ffffffffffffffffffffffffffffffffffffffff163373ffffffffffffffffffffffffffffffffffffffff16145b6124a2576040517f08c379a0000000000000000000000000000000000000000000000000000000008152600401612499906150d4565b60405180910390fd5b61012c60008083815260200190815260200160002060050154146124fb576040517f08c379a00000000000000000000000000000000000000000000000000000000081526004016124f290615140565b60405180910390fd5b60c86000808381526020019081526020016000206005018190555050565b600b60205280600052604060002060009150905080600001549080600101549080600201549080600c01805461254e90614659565b80601f016020809104026020016040519081016040528092919081815260200182805461257a90614659565b80156125c75780601f1061259c576101008083540402835291602001916125c7565b820191906000526020600020905b8154815290600101906020018083116125aa57829003601f168201915b5050505050905084565b6125d9613506565b60025481600001818152505033816040019073ffffffffffffffffffffffffffffffffffffffff16908173ffffffffffffffffffffffffffffffffffffffff16815250508281606001818152505081816080018190525060648160a00181815250508060008060025481526020019081526020016000206000820151816000015560208201518160010160006101000a81548173ffffffffffffffffffffffffffffffffffffffff021916908373ffffffffffffffffffffffffffffffffffffffff16021790555060408201518160020160006101000a81548173ffffffffffffffffffffffffffffffffffffffff021916908373ffffffffffffffffffffffffffffffffffffffff16021790555060608201518160030155608082015181600401908051906020019061270e929190613575565b5060a0820151816005015560c08201518160060160008201518160000155602082015181600101556040820151816002015560608201518160030160006101000a81548173ffffffffffffffffffffffffffffffffffffffff021916908373ffffffffffffffffffffffffffffffffffffffff1602179055505050905050612797600254612fbe565b7fa44f460f2ac523b4a38d95d97950a776d7bf0adbaff2501d321f040e3d661e466002546040516127c89190613720565b60405180910390a16001600260008282546127e39190614726565b92505081905550505050565b6060600160003373ffffffffffffffffffffffffffffffffffffffff1673ffffffffffffffffffffffffffffffffffffffff16815260200190815260200160002080548060200260200160405190810160405280929190818152602001828054801561287a57602002820191906000526020600020905b815481526020019060010190808311612866575b5050505050905090565b60008082815260200190815260200160002060010160009054906101000a900473ffffffffffffffffffffffffffffffffffffffff1673ffffffffffffffffffffffffffffffffffffffff163373ffffffffffffffffffffffffffffffffffffffff161480612953575060008082815260200190815260200160002060020160009054906101000a900473ffffffffffffffffffffffffffffffffffffffff1673ffffffffffffffffffffffffffffffffffffffff163373ffffffffffffffffffffffffffffffffffffffff16145b612992576040517f08c379a0000000000000000000000000000000000000000000000000000000008152600401612989906150d4565b60405180910390fd5b61012c60008083815260200190815260200160002060050154146129eb576040517f08c379a00000000000000000000000000000000000000000000000000000000081526004016129e290615140565b60405180910390fd5b6101366000808381526020019081526020016000206005018190555050565b6060612a15826131f7565b9050612a236006548261335b565b90506000600560009054906101000a900473ffffffffffffffffffffffffffffffffffffffff1690508073ffffffffffffffffffffffffffffffffffffffff16630e9008fe600b60008681526020019081526020016000206001015484600081518110612a9357612a92614bc7565b5b602002602001015185600181518110612aaf57612aae614bc7565b5b602002602001015186600281518110612acb57612aca614bc7565b5b60200260200101516040518563ffffffff1660e01b8152600401612af29493929190615160565b600060405180830381600087803b158015612b0c57600080fd5b505af1158015612b20573d6000803e3d6000fd5b505050508073ffffffffffffffffffffffffffffffffffffffff16637afc2d56600b6000868152602001908152602001600020600101546040518263ffffffff1660e01b8152600401612b739190613720565b600060405180830381600087803b158015612b8d57600080fd5b505af1158015612ba1573d6000803e3d6000fd5b50505050505050565b806003604051612bb990614865565b908152602001604051809103902060006101000a81548173ffffffffffffffffffffffffffffffffffffffff021916908373ffffffffffffffffffffffffffffffffffffffff1602179055506040518060400160405280600581526020017f48656c6c6f0000000000000000000000000000000000000000000000000000008152506004604051612c4990614865565b90815260200160405180910390209080519060200190612c6a929190613575565b5050565b6060600c60003373ffffffffffffffffffffffffffffffffffffffff1673ffffffffffffffffffffffffffffffffffffffff168152602001908152602001600020805480602002602001604051908101604052809291908181526020018280548015612cf957602002820191906000526020600020905b815481526020019060010190808311612ce5575b5050505050905090565b600c6020528160005260406000208181548110612d1f57600080fd5b90600052602060002001600091509150505481565b60606000612d40612c6e565b90506000815167ffffffffffffffff811115612d5f57612d5e61376a565b5b604051908082528060200260200182016040528015612d9857816020015b612d856134b8565b815260200190600190039081612d7d5790505b50905060005b8251811015612dfb57612dca838281518110612dbd57612dbc614bc7565b5b602002602001015161073f565b828281518110612ddd57612ddc614bc7565b5b60200260200101819052508080612df390614b7e565b915050612d9e565b50809250505090565b600080600080600090505b8460030180549050811015612eba57846003018181548110612e3457612e33614bc7565b5b9060005260206000200160009054906101000a900473ffffffffffffffffffffffffffffffffffffffff1673ffffffffffffffffffffffffffffffffffffffff163373ffffffffffffffffffffffffffffffffffffffff1614612e975782612ea5565b600183612ea49190614726565b5b92508080612eb290614b7e565b915050612e0f565b5060005b6002811015612f6c57846006018160028110612edd57612edc614bc7565b5b6003020160000160009054906101000a900473ffffffffffffffffffffffffffffffffffffffff1673ffffffffffffffffffffffffffffffffffffffff163373ffffffffffffffffffffffffffffffffffffffff1614612f4957600082612f449190614726565b612f57565b600182612f569190614726565b5b91508080612f6490614b7e565b915050612ebe565b5060008183612f7b9190614726565b14612f87576000612f8a565b60015b92505050919050565b81600760000160006101000a81548160ff021916908315150217905550806007600101819055505050565b600160003373ffffffffffffffffffffffffffffffffffffffff1673ffffffffffffffffffffffffffffffffffffffff16815260200190815260200160002081908060018154018082558091505060019003906000526020600020016000909190919091505550565b600080600090505b82600301805490508110156130da5782600301818154811061305457613053614bc7565b5b9060005260206000200160009054906101000a900473ffffffffffffffffffffffffffffffffffffffff1673ffffffffffffffffffffffffffffffffffffffff163373ffffffffffffffffffffffffffffffffffffffff16146130b757816130c5565b6001826130c49190614726565b5b915080806130d290614b7e565b91505061302f565b506000811161311e576040517f08c379a0000000000000000000000000000000000000000000000000000000008152600401613115906151f1565b60405180910390fd5b60005b82600401805490508110156131f25782600401818154811061314657613145614bc7565b5b9060005260206000200160009054906101000a900473ffffffffffffffffffffffffffffffffffffffff1673ffffffffffffffffffffffffffffffffffffffff163373ffffffffffffffffffffffffffffffffffffffff1614156131df576040517f08c379a00000000000000000000000000000000000000000000000000000000081526004016131d69061525d565b60405180910390fd5b80806131ea90614b7e565b915050613121565b505050565b60606000600b600084815260200190815260200160002090506000600267ffffffffffffffff81111561322d5761322c61376a565b5b60405190808252806020026020018201604052801561325b5781602001602082028036833780820191505090505b50905060005b6002811015613350576000805b84600601836002811061328457613283614bc7565b5b60030201600201805490508110156132f0578460060183600281106132ac576132ab614bc7565b5b6003020160020181815481106132c5576132c4614bc7565b5b9060005260206000200154826132db9190614726565b915080806132e890614b7e565b91505061326e565b5083600601826002811061330757613306614bc7565b5b60030201600201805490508161331d9190614d11565b8383815181106133305761332f614bc7565b5b60200260200101818152505050808061334890614b7e565b915050613261565b508092505050919050565b606060006001835161336d9190614726565b67ffffffffffffffff8111156133865761338561376a565b5b6040519080825280602002602001820160405280156133b45781602001602082028036833780820191505090505b50905060005b83518110156134335760648560646133d2919061527d565b8583815181106133e5576133e4614bc7565b5b60200260200101516133f79190614c88565b6134019190614d11565b82828151811061341457613413614bc7565b5b602002602001018181525050808061342b90614b7e565b9150506133ba565b508060018151811061344857613447614bc7565b5b60200260200101518160008151811061346457613463614bc7565b5b60200260200101516064613478919061527d565b613482919061527d565b8160018351613491919061527d565b815181106134a2576134a1614bc7565b5b6020026020010181815250508091505092915050565b6040518061010001604052806000801916815260200160008152602001600081526020016060815260200160608152602001606081526020016134f9613648565b8152602001606081525090565b6040518060e0016040528060008152602001600073ffffffffffffffffffffffffffffffffffffffff168152602001600073ffffffffffffffffffffffffffffffffffffffff16815260200160008152602001606081526020016000815260200161356f613675565b81525090565b82805461358190614659565b90600052602060002090601f0160209004810192826135a357600085556135ea565b82601f106135bc57805160ff19168380011785556135ea565b828001600101855582156135ea579182015b828111156135e95782518255916020019190600101906135ce565b5b5090506135f791906136b3565b5090565b828054828255906000526020600020908101928215613637579160200282015b8281111561363657825182559160200191906001019061361b565b5b50905061364491906136b3565b5090565b60405180604001604052806002905b61365f6136d0565b8152602001906001900390816136575790505090565b6040518060800160405280600081526020016000815260200160008152602001600073ffffffffffffffffffffffffffffffffffffffff1681525090565b5b808211156136cc5760008160009055506001016136b4565b5090565b6040518060600160405280600073ffffffffffffffffffffffffffffffffffffffff16815260200160608152602001606081525090565b6000819050919050565b61371a81613707565b82525050565b60006020820190506137356000830184613711565b92915050565b6000604051905090565b600080fd5b600080fd5b600080fd5b600080fd5b6000601f19601f8301169050919050565b7f4e487b7100000000000000000000000000000000000000000000000000000000600052604160045260246000fd5b6137a282613759565b810181811067ffffffffffffffff821117156137c1576137c061376a565b5b80604052505050565b60006137d461373b565b90506137e08282613799565b919050565b600067ffffffffffffffff821115613800576137ff61376a565b5b61380982613759565b9050602081019050919050565b82818337600083830152505050565b6000613838613833846137e5565b6137ca565b90508281526020810184848401111561385457613853613754565b5b61385f848285613816565b509392505050565b600082601f83011261387c5761387b61374f565b5b813561388c848260208601613825565b91505092915050565b6000602082840312156138ab576138aa613745565b5b600082013567ffffffffffffffff8111156138c9576138c861374a565b5b6138d584828501613867565b91505092915050565b600081519050919050565b600082825260208201905092915050565b60005b838110156139185780820151818401526020810190506138fd565b83811115613927576000848401525b50505050565b6000613938826138de565b61394281856138e9565b93506139528185602086016138fa565b61395b81613759565b840191505092915050565b60006020820190508181036000830152613980818461392d565b905092915050565b6000819050919050565b61399b81613988565b81146139a657600080fd5b50565b6000813590506139b881613992565b92915050565b6000602082840312156139d4576139d3613745565b5b60006139e2848285016139a9565b91505092915050565b6139f481613988565b82525050565b613a0381613707565b82525050565b600081519050919050565b600082825260208201905092915050565b6000819050602082019050919050565b600073ffffffffffffffffffffffffffffffffffffffff82169050919050565b6000613a6082613a35565b9050919050565b613a7081613a55565b82525050565b6000613a828383613a67565b60208301905092915050565b6000602082019050919050565b6000613aa682613a09565b613ab08185613a14565b9350613abb83613a25565b8060005b83811015613aec578151613ad38882613a76565b9750613ade83613a8e565b925050600181019050613abf565b5085935050505092915050565b600060029050919050565b600081905092915050565b6000819050919050565b600082825260208201905092915050565b6000613b35826138de565b613b3f8185613b19565b9350613b4f8185602086016138fa565b613b5881613759565b840191505092915050565b600081519050919050565b600082825260208201905092915050565b6000819050602082019050919050565b6000613b9b83836139fa565b60208301905092915050565b6000602082019050919050565b6000613bbf82613b63565b613bc98185613b6e565b9350613bd483613b7f565b8060005b83811015613c05578151613bec8882613b8f565b9750613bf783613ba7565b925050600181019050613bd8565b5085935050505092915050565b6000606083016000830151613c2a6000860182613a67565b5060208301518482036020860152613c428282613b2a565b91505060408301518482036040860152613c5c8282613bb4565b9150508091505092915050565b6000613c758383613c12565b905092915050565b6000602082019050919050565b6000613c9582613af9565b613c9f8185613b04565b935083602082028501613cb185613b0f565b8060005b85811015613ced5784840389528151613cce8582613c69565b9450613cd983613c7d565b925060208a01995050600181019050613cb5565b50829750879550505050505092915050565b600061010083016000830151613d1860008601826139eb565b506020830151613d2b60208601826139fa565b506040830151613d3e60408601826139fa565b5060608301518482036060860152613d568282613a9b565b91505060808301518482036080860152613d708282613a9b565b91505060a083015184820360a0860152613d8a8282613a9b565b91505060c083015184820360c0860152613da48282613c8a565b91505060e083015184820360e0860152613dbe8282613b2a565b9150508091505092915050565b60006020820190508181036000830152613de58184613cff565b905092915050565b613df681613707565b8114613e0157600080fd5b50565b600081359050613e1381613ded565b92915050565b60008060008060808587031215613e3357613e32613745565b5b6000613e4187828801613e04565b9450506020613e5287828801613e04565b9350506040613e6387828801613e04565b9250506060613e7487828801613e04565b91505092959194509250565b600060208284031215613e9657613e95613745565b5b6000613ea484828501613e04565b91505092915050565b608082016000820151613ec360008501826139fa565b506020820151613ed660208501826139fa565b506040820151613ee960408501826139fa565b506060820151613efc6060850182613a67565b50505050565b600061014083016000830151613f1b60008601826139fa565b506020830151613f2e6020860182613a67565b506040830151613f416040860182613a67565b506060830151613f5460608601826139fa565b5060808301518482036080860152613f6c8282613b2a565b91505060a0830151613f8160a08601826139fa565b5060c0830151613f9460c0860182613ead565b508091505092915050565b60006020820190508181036000830152613fb98184613f02565b905092915050565b613fca81613a55565b82525050565b608082016000820151613fe660008501826139fa565b506020820151613ff960208501826139fa565b50604082015161400c60408501826139fa565b50606082015161401f6060850182613a67565b50505050565b60006101408201905061403b600083018a613711565b6140486020830189613fc1565b6140556040830188613fc1565b6140626060830187613711565b8181036080830152614074818661392d565b905061408360a0830185613711565b61409060c0830184613fd0565b98975050505050505050565b60006020820190506140b16000830184613fc1565b92915050565b6140c081613a55565b81146140cb57600080fd5b50565b6000813590506140dd816140b7565b92915050565b6000602082840312156140f9576140f8613745565b5b6000614107848285016140ce565b91505092915050565b600067ffffffffffffffff82111561412b5761412a61376a565b5b602082029050919050565b600080fd5b600061414e61414984614110565b6137ca565b9050806020840283018581111561416857614167614136565b5b835b81811015614191578061417d8882613e04565b84526020840193505060208101905061416a565b5050509392505050565b600082601f8301126141b0576141af61374f565b5b60026141bd84828561413b565b91505092915050565b600080606083850312156141dd576141dc613745565b5b60006141eb8582860161419b565b92505060406141fc858286016139a9565b9150509250929050565b6000806040838503121561421d5761421c613745565b5b600061422b858286016140ce565b925050602061423c85828601613e04565b9150509250929050565b61424f81613988565b82525050565b600060808201905061426a6000830187614246565b6142776020830186613711565b6142846040830185613711565b8181036060830152614296818461392d565b905095945050505050565b600080604083850312156142b8576142b7613745565b5b60006142c685828601613e04565b925050602083013567ffffffffffffffff8111156142e7576142e661374a565b5b6142f385828601613867565b9150509250929050565b600082825260208201905092915050565b600061431982613b63565b61432381856142fd565b935061432e83613b7f565b8060005b8381101561435f5781516143468882613b8f565b975061435183613ba7565b925050600181019050614332565b5085935050505092915050565b60006020820190508181036000830152614386818461430e565b905092915050565b600081519050919050565b600082825260208201905092915050565b6000819050602082019050919050565b60006143c683836139eb565b60208301905092915050565b6000602082019050919050565b60006143ea8261438e565b6143f48185614399565b93506143ff836143aa565b8060005b8381101561443057815161441788826143ba565b9750614422836143d2565b925050600181019050614403565b5085935050505092915050565b6000602082019050818103600083015261445781846143df565b905092915050565b60006020820190506144746000830184614246565b92915050565b600081519050919050565b600082825260208201905092915050565b6000819050602082019050919050565b6000610100830160008301516144bf60008601826139eb565b5060208301516144d260208601826139fa565b5060408301516144e560408601826139fa565b50606083015184820360608601526144fd8282613a9b565b915050608083015184820360808601526145178282613a9b565b91505060a083015184820360a08601526145318282613a9b565b91505060c083015184820360c086015261454b8282613c8a565b91505060e083015184820360e08601526145658282613b2a565b9150508091505092915050565b600061457e83836144a6565b905092915050565b6000602082019050919050565b600061459e8261447a565b6145a88185614485565b9350836020820285016145ba85614496565b8060005b858110156145f657848403895281516145d78582614572565b94506145e283614586565b925060208a019950506001810190506145be565b50829750879550505050505092915050565b600060208201905081810360008301526146228184614593565b905092915050565b7f4e487b7100000000000000000000000000000000000000000000000000000000600052602260045260246000fd5b6000600282049050600182168061467157607f821691505b602082108114156146855761468461462a565b5b50919050565b7f5468697320616464726573732063616e6e6f74206265206a7564676500000000600082015250565b60006146c1601c836138e9565b91506146cc8261468b565b602082019050919050565b600060208201905081810360008301526146f0816146b4565b9050919050565b7f4e487b7100000000000000000000000000000000000000000000000000000000600052601160045260246000fd5b600061473182613707565b915061473c83613707565b9250827fffffffffffffffffffffffffffffffffffffffffffffffffffffffffffffffff03821115614771576147706146f7565b5b828201905092915050565b7f54656e616e745368617265202b204c616e646c6f7264205368617265202b204660008201527f6565205368617265206973206e6f742031303025000000000000000000000000602082015250565b60006147d86034836138e9565b91506147e38261477c565b604082019050919050565b60006020820190508181036000830152614807816147cb565b9050919050565b600081905092915050565b7f5265736f6c766572416464726573730000000000000000000000000000000000600082015250565b600061484f600f8361480e565b915061485a82614819565b600f82019050919050565b600061487082614842565b9150819050919050565b7f4f6e6c79204c616e646c6f7264206f72205265736f6c7665722063616e20637260008201527f656174652072656465656d2070726f706f73616c000000000000000000000000602082015250565b60006148d66034836138e9565b91506148e18261487a565b604082019050919050565b60006020820190508181036000830152614905816148c9565b9050919050565b600080fd5b600080fd5b60008151905061492581613ded565b92915050565b60008151905061493a816140b7565b92915050565b600061495361494e846137e5565b6137ca565b90508281526020810184848401111561496f5761496e613754565b5b61497a8482856138fa565b509392505050565b600082601f8301126149975761499661374f565b5b81516149a7848260208601614940565b91505092915050565b6000608082840312156149c6576149c561490c565b5b6149d060806137ca565b905060006149e084828501614916565b60008301525060206149f484828501614916565b6020830152506040614a0884828501614916565b6040830152506060614a1c8482850161492b565b60608301525092915050565b60006101408284031215614a3f57614a3e61490c565b5b614a4960e06137ca565b90506000614a5984828501614916565b6000830152506020614a6d8482850161492b565b6020830152506040614a818482850161492b565b6040830152506060614a9584828501614916565b606083015250608082015167ffffffffffffffff811115614ab957614ab8614911565b5b614ac584828501614982565b60808301525060a0614ad984828501614916565b60a08301525060c0614aed848285016149b0565b60c08301525092915050565b600060208284031215614b0f57614b0e613745565b5b600082015167ffffffffffffffff811115614b2d57614b2c61374a565b5b614b3984828501614a28565b91505092915050565b6000819050919050565b614b5d614b5882613707565b614b42565b82525050565b6000614b6f8284614b4c565b60208201915081905092915050565b6000614b8982613707565b91507fffffffffffffffffffffffffffffffffffffffffffffffffffffffffffffffff821415614bbc57614bbb6146f7565b5b600182019050919050565b7f4e487b7100000000000000000000000000000000000000000000000000000000600052603260045260246000fd5b7f4f6e6c792074656e616e742063616e206163636570742072656465656d20707260008201527f6f706f73616c0000000000000000000000000000000000000000000000000000602082015250565b6000614c526026836138e9565b9150614c5d82614bf6565b604082019050919050565b60006020820190508181036000830152614c8181614c45565b9050919050565b6000614c9382613707565b9150614c9e83613707565b9250817fffffffffffffffffffffffffffffffffffffffffffffffffffffffffffffffff0483118215151615614cd757614cd66146f7565b5b828202905092915050565b7f4e487b7100000000000000000000000000000000000000000000000000000000600052601260045260246000fd5b6000614d1c82613707565b9150614d2783613707565b925082614d3757614d36614ce2565b5b828204905092915050565b7f54656e616e745368617265202b204c616e646c6f7264205368617265202b204660008201527f656520536861726520646f6573206e6f7420657175616c20457363726f77205660208201527f616c756500000000000000000000000000000000000000000000000000000000604082015250565b6000614dc46044836138e9565b9150614dcf82614d42565b606082019050919050565b60006020820190508181036000830152614df381614db7565b9050919050565b7f457363726f7720737461747573206d7573742062652033303000000000000000600082015250565b6000614e306019836138e9565b9150614e3b82614dfa565b602082019050919050565b60006020820190508181036000830152614e5f81614e23565b9050919050565b7f4574682073656e74206973206e6f742073616d6520617320657363726f77566160008201527f6c75650000000000000000000000000000000000000000000000000000000000602082015250565b6000614ec26023836138e9565b9150614ecd82614e66565b604082019050919050565b60006020820190508181036000830152614ef181614eb5565b9050919050565b7f54656e616e7420616e64204c616e646c6f7264206d757374206e6f742062652060008201527f73616d6520616464726573736573000000000000000000000000000000000000602082015250565b6000614f54602e836138e9565b9150614f5f82614ef8565b604082019050919050565b60006020820190508181036000830152614f8381614f47565b9050919050565b7f436f6e747261637420616c726561647920616363657074656400000000000000600082015250565b6000614fc06019836138e9565b9150614fcb82614f8a565b602082019050919050565b60006020820190508181036000830152614fef81614fb3565b9050919050565b7f566f746573206e6f742031303000000000000000000000000000000000000000600082015250565b600061502c600d836138e9565b915061503782614ff6565b602082019050919050565b6000602082019050818103600083015261505b8161501f565b9050919050565b7f4f6e6c792074656e616e74206f72206c616e646c6f72642063616e206163636560008201527f70742072656465656d2070726f706f73616c0000000000000000000000000000602082015250565b60006150be6032836138e9565b91506150c982615062565b604082019050919050565b600060208201905081810360008301526150ed816150b1565b9050919050565b7f416c72656164792072656a6563746564206f7220616363657074656400000000600082015250565b600061512a601c836138e9565b9150615135826150f4565b602082019050919050565b600060208201905081810360008301526151598161511d565b9050919050565b60006080820190506151756000830187613711565b6151826020830186613711565b61518f6040830185613711565b61519c6060830184613711565b95945050505050565b7f41646472657373206e6f742061206a7564676500000000000000000000000000600082015250565b60006151db6013836138e9565b91506151e6826151a5565b602082019050919050565b6000602082019050818103600083015261520a816151ce565b9050919050565b7f4a7564676520416c726561647920766f74656400000000000000000000000000600082015250565b60006152476013836138e9565b915061525282615211565b602082019050919050565b600060208201905081810360008301526152768161523a565b9050919050565b600061528882613707565b915061529383613707565b9250828210156152a6576152a56146f7565b5b82820390509291505056fea264697066735822122059a35e01733cc417dd4e38a971c1fb19b5e5a34a8b9ff450cf4e20126ccb8c1a64736f6c634300080a0033",
  "immutableReferences": {},
  "source": "// SPDX-License-Identifier:\tCC-BY-4.0\npragma solidity ^0.8.10;\nimport \"./rentEscrow.sol\";\n\ncontract resolver is rentEscrow {\n    ///@dev events for production\n    event sendDisputeId(bytes32);\n    //event sendTenant (uint _id);\n    ///@dev events for development\n    event sendMessage (string _message);\n    event sendAddress (address _message);\n    event sendId (uint _message);\n    event sendStruct (rentEscrow _rentEscrow);\n    event sendBool (bool _bool);\n\n    address rentEscrowAddress;\n\n    ///@param id case identifier. Currently same as rentContract. \n    ///@param status status of the case. 100: waiting for judge 200: waiting for resolution 300: resolved\n    ///@param judges addreses that are assigned to resolve the dispute\n    ///@param restrictedJudges addresses that cannot be assigned as judge (among others: tenant, landlord)\n    ///@param disputeDetail  bears details about the case. Currenly a placeholder aim is to link this to some IPFS file\n    ///@param partialResult contains voting of each judge\n    ///@param finalResult contains final result after each judge casted their vote\n    \n    struct DisputeCase {\n        bytes32 disputeId;\n        uint rentId;\n        uint status;\n        address [] judges;\n        address [] judgesWhoVoted;\n        address [] restrictedJudges;\n        DisputeParty [2] disputeParty;\n        string disputeDetail;\n    }\n\n    struct DisputeParty {\n        address disputePartyAddress;\n        string documentation;\n        uint [] judgeVotes;\n    }\n\n    uint feePct = 10;\n\n    ///@dev this is a flag to see if I need to reach for new DisputeCase or I just fill new address into existing one\n    struct CaseWaitingForJudge {\n        bool waiting;\n        bytes32 disputeId;\n    } \n    CaseWaitingForJudge caseWaitingForJudge;\n    \n    function UpdateCaseWaitingForJudge  (bool _waiting, bytes32 _disputeId) internal {\n        caseWaitingForJudge.waiting = _waiting;\n        caseWaitingForJudge.disputeId = _disputeId;\n    }\n\n    uint disputeIdNonce = 0;\n\n    ///@dev Number of judges needed for this contract\n    uint numberOfJudges = 3;\n    ///@dev update number of judges.\n    ///@custom:later should be admin only...\n    function updateNumberOfJudges (uint _numberOfJudges) external {\n        numberOfJudges = _numberOfJudges;\n    }\n\n\n    mapping(bytes32 =>DisputeCase) public DisputeCaseMapping;\n    mapping(address => bytes32 []) public AddressToCaseMapping;\n\n    function getDisputeCase (bytes32 _disputeId) public view returns (DisputeCase memory) {\n\n        return DisputeCaseMapping[_disputeId];\n    }\n    ///@notice Use this to get list of all your cases\n    ///@dev One user can have multiple dispute cases. Therefore I need to coerce from storage to list. I don't know if there is more \n    //elegant way to do this\n     function getMyDisputeCase () public view returns (DisputeCase [] memory) {\n         bytes32 [] memory disputeCaseIds  = getMyDisputeCaseId();\n        ///@custom:later I don't know exactly what I am doing here \n         DisputeCase [] memory disputeCaseList = new DisputeCase[](disputeCaseIds.length);\n        \n         for (uint i = 0; i < disputeCaseIds.length; i++) {\n             disputeCaseList[i] = getDisputeCase(disputeCaseIds[i]);\n         }\n         return disputeCaseList;\n     }\n\n    ///@notice use this to get Ids for further query\n    function getMyDisputeCaseId () public view returns (bytes32 [] memory _disputeCaseId) {\n        return AddressToCaseMapping[msg.sender];\n    }\n\n    ///@dev to establish connection to other contract\n    ///@custom:later  this works fine for single contract. I need this to be modular and can connect multiple contract on the fly\n    \n    function setRentEscrowAddress (address _rentEscrowAddress) public  {\n        rentEscrowAddress = _rentEscrowAddress;\n         emit sendAddress(rentEscrowAddress);\n    }\n\n    ///@notice requests new new dispute case from external contract. It is external contract job to send valid dispute case\n    function getNewContractToResolve () public {\n\n        rentEscrowInterface re = rentEscrowInterface(rentEscrowAddress);\n        RentContract memory rentContract = re.getContractToResolve();\n             \n        ///@dev I will create unique hash for every dispute case. This contract doesn't care if it resolves same rentCotnract multiple times. It is up to the rentContract to manage this\n        ///@dev I have no special motivation to hash the id, other than to a) try it b) make it impossible to view\n        bytes32 disputeId = keccak256(abi.encodePacked(rentContract.rentId + disputeIdNonce));\n        disputeIdNonce++;\n        \n        ///@custom:later if I get this right, newDisputeCase is a pointer to a place in storage. If this function is called multiple times on same rentID (mapping key) data will be overwritten\n        DisputeCase storage newDisputeCase = DisputeCaseMapping[disputeId];\n        newDisputeCase.disputeId = disputeId;\n        newDisputeCase.rentId = rentContract.rentId;\n        newDisputeCase.status = 100;\n        newDisputeCase.disputeDetail = \"Hello\";\n\n        ///@custom:later Seems ugly...\n        DisputeParty memory disputeParty1 = DisputeParty({\n            disputePartyAddress: rentContract.landlord,\n            documentation: \"\",\n            judgeVotes: new uint [](0)\n        });\n\n        DisputeParty memory disputeParty2 = DisputeParty({\n            disputePartyAddress: rentContract.tenant,\n            documentation: \"\",\n            judgeVotes: new uint [](0)\n        });\n\n        newDisputeCase.disputeParty[0] = disputeParty1;\n        newDisputeCase.disputeParty[1] = disputeParty2;\n\n        ///@dev update mappping, so dispute parties can track their own dispute cases\n        AddressToCaseMapping[rentContract.landlord].push(disputeId);\n        AddressToCaseMapping[rentContract.tenant].push(disputeId);\n\n        ///@dev updates flag for nex runs. Now we have a open case, but not enough judges. Therefore we dont need to ask for new disputes\n        UpdateCaseWaitingForJudge(true,disputeId );\n\n    }\n\n    ///@notice Entry point for contract. Dispute lifecycle starts here by assigning judge to existing dispute or requesting new dispute from external contract\n    function assignJudge() public {\n        ///@dev decide if I am missing judges in existing dispute. If yes, this gets skipped, otherwise will ask for new resolution case\n        if (caseWaitingForJudge.waiting == false) {\n            getNewContractToResolve();\n            }\n        ///@custom:later I am shutting this off now for development reasons\n        require(testJudgeEligibility(DisputeCaseMapping[caseWaitingForJudge.disputeId]), \"This address cannot be judge\");\n        \n\n        ///@dev emitting disputeId for future reference in front end\n        emit sendDisputeId(DisputeCaseMapping[caseWaitingForJudge.disputeId].disputeId);\n        \n        //@dev adding msg sender as a new judge and updating the mapping\n        DisputeCaseMapping[caseWaitingForJudge.disputeId].judges.push(msg.sender);\n        AddressToCaseMapping[msg.sender].push(DisputeCaseMapping[caseWaitingForJudge.disputeId].disputeId);\n                \n        ///@dev decide whether we have enough judges. if yes, nex assign judge will call getNewContractToResolve\n        if (DisputeCaseMapping[caseWaitingForJudge.disputeId].judges.length >= numberOfJudges) {\n            UpdateCaseWaitingForJudge(false, 0);\n        }\n    }\n    ///@custom:later is this a case for modifier?\n    ///@dev multiple tests to control who can be judge\n    ///@dev we are on the conservative side and starting with default False. \n    ///@dev this seems extremely verbose, please shill me something more elegant\n    function testJudgeEligibility (DisputeCase storage _disputeCase) internal view returns (bool _eligible) {\n        uint judgeCount;\n        uint disputePartyCount;\n\n        ///@dev test if address is already judge. \n        for(uint i=0; i<_disputeCase.judges.length; i++){\n            judgeCount = msg.sender == _disputeCase.judges[i] ? judgeCount+1:judgeCount;\n            }\n        ///@dev test if address is on the restricted list\n        for(uint i=0; i<_disputeCase.disputeParty.length; i++){\n            disputePartyCount = msg.sender == _disputeCase.disputeParty[i].disputePartyAddress ? disputePartyCount+1:disputePartyCount+0;\n            }\n        \n        _eligible = judgeCount+disputePartyCount==0 ? true:false;\n\n        }\n\n    ///@dev test to see if address can vote or if already voted\n    function testJudgeEligibilityToVote (DisputeCase storage _disputeCase) internal view {\n\n        ///@dev test if address is judge\n        uint judgeCounter;\n        for(uint i=0; i<_disputeCase.judges.length; i++){\n            judgeCounter = msg.sender == _disputeCase.judges[i] ? judgeCounter+1:judgeCounter;\n            }\n        require(judgeCounter >0 ,\"Address not a judge\");\n\n        //test if address already voted\n        for(uint i=0; i<_disputeCase.judgesWhoVoted.length; i++){\n            require(msg.sender!=_disputeCase.judgesWhoVoted[i], \"Judge Already voted\");\n            }\n\n    }\n\n    function castVote(uint [2] memory _judgeVote, bytes32 _disputeId) external {\n        require(_judgeVote[0] + _judgeVote[1] == 100, \"Votes not 100\");\n        DisputeCase storage disputeCase = DisputeCaseMapping[_disputeId];\n        testJudgeEligibilityToVote(disputeCase);\n\n        ///@dev this is suboptimal as it relies on order of votes within array. Should be linked to disputeParty address\n        \n        disputeCase.disputeParty[0].judgeVotes.push(_judgeVote[0]);\n        disputeCase.disputeParty[1].judgeVotes.push(_judgeVote[1]);\n        disputeCase.judgesWhoVoted.push(msg.sender);\n\n        ///@dev Test if all judges voted. If yes, trigger createRedeem proposal and release funds \n        if (disputeCase.disputeParty[0].judgeVotes.length == numberOfJudges &&\n        disputeCase.disputeParty[1].judgeVotes.length == numberOfJudges) {\n            triggerCreateRedeemProposal(_disputeId);\n        }\n    }\n\n    \n    \n    function triggerCreateRedeemProposal(bytes32 _disputeId) public {\n        uint [] memory result;\n        ///@custom:later Which is better? This?\n        result = aggregateJudgeVotes(_disputeId);\n        result = rebaseVotesIncludeFee(feePct, result);\n        //or this: result = rebaseVotesIncludeFee(feePct, aggregateJudgeVotes(_disputeId));\n\n        \n        rentEscrowInterface re = rentEscrowInterface(rentEscrowAddress);\n        re.createRedeemProposal(\n            DisputeCaseMapping[_disputeId].rentId,\n            result[0],\n            result[1],\n            result[2]\n        );\n        re.acceptRedeemProposal(DisputeCaseMapping[_disputeId].rentId);\n    }\n\n    function aggregateJudgeVotes (bytes32 _disputeId) private view returns (uint [] memory) {\n        DisputeCase storage disputeCase = DisputeCaseMapping[_disputeId];\n        uint [] memory result = new uint[](disputeCase.disputeParty.length);\n    \n\n        for (uint i = 0; i<disputeCase.disputeParty.length; i++){\n            uint cummulVotes = 0;\n            for (uint j = 0; j < disputeCase.disputeParty[i].judgeVotes.length; j++){\n                cummulVotes += disputeCase.disputeParty[i].judgeVotes[j];\n            }\n            result[i] = cummulVotes/disputeCase.disputeParty[i].judgeVotes.length;\n            \n        }\n        return result;\n\n    }\n    ///@dev This rebases Votes to include share of fee, that get into Resolver contract\n    ///@dev In case of 2 parties should return 3 values. 1 and 2, is share of dispute parties. 3 is fee share.\n    function rebaseVotesIncludeFee (uint _feeShare, uint [] memory votes) private pure returns (uint [] memory) {\n        uint [] memory result = new uint[](votes.length + 1);\n        \n        for (uint i = 0; i < votes.length; i++ ){\n            result[i] = (votes[i]*(100-_feeShare))/100;\n            \n        }\n        ///@custom:later This is dirty, but I dont know how to round properly and need the sum of result elements to be 100\n        result[result.length - 1] = 100 - result[0] - result[1];\n        return result;\n    }\n\n    receive() external payable {\n\n    }\n\n    }\n\n",
  "sourcePath": "/Users/andy/my_repos/rentEscrow/contracts/resolver.sol",
  "compiler": {
    "name": "solc",
    "version": "0.8.10+commit.fc410830.Emscripten.clang"
  },
  "schemaVersion": "3.4.5",
  "updatedAt": "2022-03-26T08:39:48.914Z",
  "devdoc": {
    "events": {
      "sendDisputeId(bytes32)": {
        "details": "events for production"
      },
      "sendMessage(string)": {
        "details": "events for development"
      }
    },
    "kind": "dev",
    "methods": {
      "createRedeemProposal(uint256,uint256,uint256,uint256)": {
        "custom:navigation": "Redeems"
      },
      "devGetBalance()": {
        "custom:navigation": "Development Helpers"
      },
      "getContractToResolve()": {
        "custom:later": "now gives just first contract. Need to add logic to return contract where redeemProposal was rejected",
        "details": "this is used by retrieve mapping by another contract"
      },
      "getMyDisputeCase()": {
        "details": "One user can have multiple dispute cases. Therefore I need to coerce from storage to list. I don't know if there is more "
      },
      "proposeNewContract(uint256,string)": {
        "custom:navigation": "RentContracts"
      },
      "rejectRedeemProposal(uint256)": {
        "params": {
          "_rentId": "identifies the contract between tenant and landlord"
        }
      },
      "setRentEscrowAddress(address)": {
        "custom:later": "this works fine for single contract. I need this to be modular and can connect multiple contract on the fly",
        "details": "to establish connection to other contract"
      },
      "setResolverAddress(address)": {
        "details": "sets"
      },
      "updateNumberOfJudges(uint256)": {
        "custom:later": "should be admin only...",
        "details": "update number of judges."
      }
    },
    "stateVariables": {
      "numberOfJudges": {
        "details": "Number of judges needed for this contract"
      }
    },
    "version": 1
  },
  "userdoc": {
    "kind": "user",
    "methods": {
      "assignJudge()": {
        "notice": "Entry point for contract. Dispute lifecycle starts here by assigning judge to existing dispute or requesting new dispute from external contract"
      },
      "getContractDetails(uint256)": {
        "notice": "returns RentContract"
      },
      "getContractsByAddress()": {
        "notice": "returns all contracts  where sender is involved party"
      },
      "getMyDisputeCase()": {
        "notice": "Use this to get list of all your cases"
      },
      "getMyDisputeCaseId()": {
        "notice": "use this to get Ids for further query"
      },
      "getNewContractToResolve()": {
        "notice": "requests new new dispute case from external contract. It is external contract job to send valid dispute case"
      },
      "rejectRedeemProposal(uint256)": {
        "notice": "Use this function to reject redeem proposal. Will send it to the resolution centre"
      }
    },
    "version": 1
  }
}