{
  "contractName": "rentEscrow",
  "abi": [
    {
      "anonymous": false,
      "inputs": [
        {
          "indexed": false,
          "internalType": "uint256",
          "name": "_rentId",
          "type": "uint256"
        }
      ],
      "name": "rentContractId",
      "type": "event"
    },
    {
      "anonymous": false,
      "inputs": [
        {
          "indexed": false,
          "internalType": "address",
          "name": "_message",
          "type": "address"
        }
      ],
      "name": "sendAddressRent",
      "type": "event"
    },
    {
      "anonymous": false,
      "inputs": [
        {
          "indexed": false,
          "internalType": "uint256",
          "name": "_message",
          "type": "uint256"
        }
      ],
      "name": "sendIdRent",
      "type": "event"
    },
    {
      "anonymous": false,
      "inputs": [
        {
          "indexed": false,
          "internalType": "string",
          "name": "_message",
          "type": "string"
        }
      ],
      "name": "sendStringRent",
      "type": "event"
    },
    {
      "inputs": [
        {
          "internalType": "address",
          "name": "",
          "type": "address"
        },
        {
          "internalType": "uint256",
          "name": "",
          "type": "uint256"
        }
      ],
      "name": "addressMapping",
      "outputs": [
        {
          "internalType": "uint256",
          "name": "",
          "type": "uint256"
        }
      ],
      "stateMutability": "view",
      "type": "function",
      "constant": true
    },
    {
      "inputs": [
        {
          "internalType": "string",
          "name": "",
          "type": "string"
        }
      ],
      "name": "importantAddresses",
      "outputs": [
        {
          "internalType": "address",
          "name": "",
          "type": "address"
        }
      ],
      "stateMutability": "view",
      "type": "function",
      "constant": true
    },
    {
      "inputs": [
        {
          "internalType": "string",
          "name": "",
          "type": "string"
        }
      ],
      "name": "importantStrings",
      "outputs": [
        {
          "internalType": "string",
          "name": "",
          "type": "string"
        }
      ],
      "stateMutability": "view",
      "type": "function",
      "constant": true
    },
    {
      "inputs": [],
      "name": "nextRentId",
      "outputs": [
        {
          "internalType": "uint256",
          "name": "",
          "type": "uint256"
        }
      ],
      "stateMutability": "view",
      "type": "function",
      "constant": true
    },
    {
      "inputs": [
        {
          "internalType": "uint256",
          "name": "",
          "type": "uint256"
        }
      ],
      "name": "rentContractsMapping",
      "outputs": [
        {
          "internalType": "uint256",
          "name": "rentId",
          "type": "uint256"
        },
        {
          "internalType": "address",
          "name": "tenant",
          "type": "address"
        },
        {
          "internalType": "address",
          "name": "landlord",
          "type": "address"
        },
        {
          "internalType": "uint256",
          "name": "escrowValue",
          "type": "uint256"
        },
        {
          "internalType": "string",
          "name": "contractDetail",
          "type": "string"
        },
        {
          "internalType": "uint256",
          "name": "status",
          "type": "uint256"
        },
        {
          "components": [
            {
              "internalType": "uint256",
              "name": "tenantShare",
              "type": "uint256"
            },
            {
              "internalType": "uint256",
              "name": "landlordShare",
              "type": "uint256"
            },
            {
              "internalType": "uint256",
              "name": "feeShare",
              "type": "uint256"
            },
            {
              "internalType": "address",
              "name": "feeAddress",
              "type": "address"
            },
            {
              "internalType": "uint256",
              "name": "proposalStatus",
              "type": "uint256"
            }
          ],
          "internalType": "struct rentEscrowInterface.RedeemProposal",
          "name": "redeemProposal",
          "type": "tuple"
        }
      ],
      "stateMutability": "view",
      "type": "function",
      "constant": true
    },
    {
      "inputs": [
        {
          "internalType": "address",
          "name": "_resolverAddress",
          "type": "address"
        }
      ],
      "name": "setResolverAddress",
      "outputs": [],
      "stateMutability": "nonpayable",
      "type": "function"
    },
    {
      "inputs": [
        {
          "internalType": "uint256",
          "name": "_escrowValue",
          "type": "uint256"
        },
        {
          "internalType": "string",
          "name": "_contractDetail",
          "type": "string"
        }
      ],
      "name": "proposeNewContract",
      "outputs": [],
      "stateMutability": "nonpayable",
      "type": "function"
    },
    {
      "inputs": [
        {
          "internalType": "uint256",
          "name": "_rentId",
          "type": "uint256"
        }
      ],
      "name": "acceptNewContract",
      "outputs": [],
      "stateMutability": "payable",
      "type": "function",
      "payable": true
    },
    {
      "inputs": [
        {
          "internalType": "uint256",
          "name": "_rentId",
          "type": "uint256"
        },
        {
          "internalType": "uint256",
          "name": "_tenantShare",
          "type": "uint256"
        },
        {
          "internalType": "uint256",
          "name": "_landlordShare",
          "type": "uint256"
        },
        {
          "internalType": "uint256",
          "name": "_feeShare",
          "type": "uint256"
        }
      ],
      "name": "createRedeemProposal",
      "outputs": [],
      "stateMutability": "nonpayable",
      "type": "function"
    },
    {
      "inputs": [
        {
          "internalType": "uint256",
          "name": "_rentId",
          "type": "uint256"
        }
      ],
      "name": "acceptRedeemProposal",
      "outputs": [],
      "stateMutability": "nonpayable",
      "type": "function"
    },
    {
      "inputs": [
        {
          "internalType": "uint256",
          "name": "_rentId",
          "type": "uint256"
        }
      ],
      "name": "rejectRedeemProposal",
      "outputs": [],
      "stateMutability": "nonpayable",
      "type": "function"
    },
    {
      "inputs": [],
      "name": "devGetBalance",
      "outputs": [
        {
          "internalType": "uint256",
          "name": "",
          "type": "uint256"
        }
      ],
      "stateMutability": "view",
      "type": "function",
      "constant": true
    },
    {
      "inputs": [],
      "name": "getContractToResolve",
      "outputs": [
        {
          "components": [
            {
              "internalType": "uint256",
              "name": "rentId",
              "type": "uint256"
            },
            {
              "internalType": "address",
              "name": "tenant",
              "type": "address"
            },
            {
              "internalType": "address",
              "name": "landlord",
              "type": "address"
            },
            {
              "internalType": "uint256",
              "name": "escrowValue",
              "type": "uint256"
            },
            {
              "internalType": "string",
              "name": "contractDetail",
              "type": "string"
            },
            {
              "internalType": "uint256",
              "name": "status",
              "type": "uint256"
            },
            {
              "components": [
                {
                  "internalType": "uint256",
                  "name": "tenantShare",
                  "type": "uint256"
                },
                {
                  "internalType": "uint256",
                  "name": "landlordShare",
                  "type": "uint256"
                },
                {
                  "internalType": "uint256",
                  "name": "feeShare",
                  "type": "uint256"
                },
                {
                  "internalType": "address",
                  "name": "feeAddress",
                  "type": "address"
                },
                {
                  "internalType": "uint256",
                  "name": "proposalStatus",
                  "type": "uint256"
                }
              ],
              "internalType": "struct rentEscrowInterface.RedeemProposal",
              "name": "redeemProposal",
              "type": "tuple"
            }
          ],
          "internalType": "struct rentEscrowInterface.RentContract",
          "name": "",
          "type": "tuple"
        }
      ],
      "stateMutability": "view",
      "type": "function",
      "constant": true
    },
    {
      "inputs": [],
      "name": "getContractsByAddress",
      "outputs": [
        {
          "internalType": "uint256[]",
          "name": "",
          "type": "uint256[]"
        }
      ],
      "stateMutability": "view",
      "type": "function",
      "constant": true
    },
    {
      "inputs": [
        {
          "internalType": "uint256",
          "name": "_rentId",
          "type": "uint256"
        }
      ],
      "name": "getContractDetails",
      "outputs": [
        {
          "components": [
            {
              "internalType": "uint256",
              "name": "rentId",
              "type": "uint256"
            },
            {
              "internalType": "address",
              "name": "tenant",
              "type": "address"
            },
            {
              "internalType": "address",
              "name": "landlord",
              "type": "address"
            },
            {
              "internalType": "uint256",
              "name": "escrowValue",
              "type": "uint256"
            },
            {
              "internalType": "string",
              "name": "contractDetail",
              "type": "string"
            },
            {
              "internalType": "uint256",
              "name": "status",
              "type": "uint256"
            },
            {
              "components": [
                {
                  "internalType": "uint256",
                  "name": "tenantShare",
                  "type": "uint256"
                },
                {
                  "internalType": "uint256",
                  "name": "landlordShare",
                  "type": "uint256"
                },
                {
                  "internalType": "uint256",
                  "name": "feeShare",
                  "type": "uint256"
                },
                {
                  "internalType": "address",
                  "name": "feeAddress",
                  "type": "address"
                },
                {
                  "internalType": "uint256",
                  "name": "proposalStatus",
                  "type": "uint256"
                }
              ],
              "internalType": "struct rentEscrowInterface.RedeemProposal",
              "name": "redeemProposal",
              "type": "tuple"
            }
          ],
          "internalType": "struct rentEscrowInterface.RentContract",
          "name": "",
          "type": "tuple"
        }
      ],
      "stateMutability": "view",
      "type": "function",
      "constant": true
    }
  ],
  "bytecode": "0x6080604052600060025534801561001557600080fd5b50612b6e806100256000396000f3fe6080604052600436106100e85760003560e01c80637afc2d561161008a578063a6dd427611610059578063a6dd427614610313578063b59146f71461033c578063b61f5f5314610365578063dd28218b14610390576100e8565b80637afc2d561461025457806385b589631461027d5780638922dfbf1461029957806396d65c3e146102d6576100e8565b80632458cc3e116100c65780632458cc3e1461017e5780634d6d6a9c146101a95780636b695d24146101e65780637395eb4114610229576100e8565b8063039ed501146100ed57806307e31e2b146101185780630e9008fe14610155575b600080fd5b3480156100f957600080fd5b506101026103b9565b60405161010f9190611ba0565b60405180910390f35b34801561012457600080fd5b5061013f600480360381019061013a9190611d15565b6103bf565b60405161014c9190611de6565b60405180910390f35b34801561016157600080fd5b5061017c60048036038101906101779190611e34565b610475565b005b34801561018a57600080fd5b506101936106f7565b6040516101a09190611ba0565b60405180910390f35b3480156101b557600080fd5b506101d060048036038101906101cb9190611e9b565b6106ff565b6040516101dd9190612067565b60405180910390f35b3480156101f257600080fd5b5061020d60048036038101906102089190611e9b565b610919565b6040516102209796959493929190612100565b60405180910390f35b34801561023557600080fd5b5061023e610aab565b60405161024b9190612067565b60405180910390f35b34801561026057600080fd5b5061027b60048036038101906102769190611e9b565b610cca565b005b61029760048036038101906102929190611e9b565b6110f6565b005b3480156102a557600080fd5b506102c060048036038101906102bb9190611d15565b6112c5565b6040516102cd9190612177565b60405180910390f35b3480156102e257600080fd5b506102fd60048036038101906102f891906121be565b61130e565b60405161030a9190611ba0565b60405180910390f35b34801561031f57600080fd5b5061033a60048036038101906103359190611e9b565b61133f565b005b34801561034857600080fd5b50610363600480360381019061035e91906121fe565b611646565b005b34801561037157600080fd5b5061037a61186e565b6040516103879190612309565b60405180910390f35b34801561039c57600080fd5b506103b760048036038101906103b2919061232b565b611903565b005b60025481565b60048180516020810182018051848252602083016020850120818352809550505050505060009150905080546103f490612387565b80601f016020809104026020016040519081016040528092919081815260200182805461042090612387565b801561046d5780601f106104425761010080835404028352916020019161046d565b820191906000526020600020905b81548152906001019060200180831161045057829003601f168201915b505050505081565b600081838561048491906123e8565b61048e91906123e8565b9050606481146104d3576040517f08c379a00000000000000000000000000000000000000000000000000000000081526004016104ca906124b0565b60405180910390fd5b60008086815260200190815260200160002060020160009054906101000a900473ffffffffffffffffffffffffffffffffffffffff1673ffffffffffffffffffffffffffffffffffffffff163373ffffffffffffffffffffffffffffffffffffffff1614806105a95750600360405161054b90612527565b908152602001604051809103902060009054906101000a900473ffffffffffffffffffffffffffffffffffffffff1673ffffffffffffffffffffffffffffffffffffffff163373ffffffffffffffffffffffffffffffffffffffff16145b6105e8576040517f08c379a00000000000000000000000000000000000000000000000000000000081526004016105df906125ae565b60405180910390fd5b836000808781526020019081526020016000206006016000018190555082600080878152602001908152602001600020600601600101819055508160008087815260200190815260200160002060060160020181905550600360405161064d90612527565b908152602001604051809103902060009054906101000a900473ffffffffffffffffffffffffffffffffffffffff1660008087815260200190815260200160002060060160030160006101000a81548173ffffffffffffffffffffffffffffffffffffffff021916908373ffffffffffffffffffffffffffffffffffffffff1602179055506064600080878152602001908152602001600020600601600401819055505050505050565b600047905090565b610707611a30565b6000808381526020019081526020016000206040518060e0016040529081600082015481526020016001820160009054906101000a900473ffffffffffffffffffffffffffffffffffffffff1673ffffffffffffffffffffffffffffffffffffffff1673ffffffffffffffffffffffffffffffffffffffff1681526020016002820160009054906101000a900473ffffffffffffffffffffffffffffffffffffffff1673ffffffffffffffffffffffffffffffffffffffff1673ffffffffffffffffffffffffffffffffffffffff168152602001600382015481526020016004820180546107f490612387565b80601f016020809104026020016040519081016040528092919081815260200182805461082090612387565b801561086d5780601f106108425761010080835404028352916020019161086d565b820191906000526020600020905b81548152906001019060200180831161085057829003601f168201915b5050505050815260200160058201548152602001600682016040518060a00160405290816000820154815260200160018201548152602001600282015481526020016003820160009054906101000a900473ffffffffffffffffffffffffffffffffffffffff1673ffffffffffffffffffffffffffffffffffffffff1673ffffffffffffffffffffffffffffffffffffffff168152602001600482015481525050815250509050919050565b60006020528060005260406000206000915090508060000154908060010160009054906101000a900473ffffffffffffffffffffffffffffffffffffffff16908060020160009054906101000a900473ffffffffffffffffffffffffffffffffffffffff169080600301549080600401805461099490612387565b80601f01602080910402602001604051908101604052809291908181526020018280546109c090612387565b8015610a0d5780601f106109e257610100808354040283529160200191610a0d565b820191906000526020600020905b8154815290600101906020018083116109f057829003601f168201915b505050505090806005015490806006016040518060a00160405290816000820154815260200160018201548152602001600282015481526020016003820160009054906101000a900473ffffffffffffffffffffffffffffffffffffffff1673ffffffffffffffffffffffffffffffffffffffff1673ffffffffffffffffffffffffffffffffffffffff168152602001600482015481525050905087565b610ab3611a30565b6000600190506000808281526020019081526020016000206040518060e0016040529081600082015481526020016001820160009054906101000a900473ffffffffffffffffffffffffffffffffffffffff1673ffffffffffffffffffffffffffffffffffffffff1673ffffffffffffffffffffffffffffffffffffffff1681526020016002820160009054906101000a900473ffffffffffffffffffffffffffffffffffffffff1673ffffffffffffffffffffffffffffffffffffffff1673ffffffffffffffffffffffffffffffffffffffff16815260200160038201548152602001600482018054610ba690612387565b80601f0160208091040260200160405190810160405280929190818152602001828054610bd290612387565b8015610c1f5780601f10610bf457610100808354040283529160200191610c1f565b820191906000526020600020905b815481529060010190602001808311610c0257829003601f168201915b5050505050815260200160058201548152602001600682016040518060a00160405290816000820154815260200160018201548152602001600282015481526020016003820160009054906101000a900473ffffffffffffffffffffffffffffffffffffffff1673ffffffffffffffffffffffffffffffffffffffff1673ffffffffffffffffffffffffffffffffffffffff1681526020016004820154815250508152505091505090565b60008082815260200190815260200160002060010160009054906101000a900473ffffffffffffffffffffffffffffffffffffffff1673ffffffffffffffffffffffffffffffffffffffff163373ffffffffffffffffffffffffffffffffffffffff161480610da057506003604051610d4290612527565b908152602001604051809103902060009054906101000a900473ffffffffffffffffffffffffffffffffffffffff1673ffffffffffffffffffffffffffffffffffffffff163373ffffffffffffffffffffffffffffffffffffffff16145b610ddf576040517f08c379a0000000000000000000000000000000000000000000000000000000008152600401610dd690612640565b60405180910390fd5b6000806000838152602001908152602001600020600301549050600080600084815260200190815260200160002060010160009054906101000a900473ffffffffffffffffffffffffffffffffffffffff169050600060646000808681526020019081526020016000206006016000015484610e5b9190612660565b610e6591906126e9565b9050600080600086815260200190815260200160002060020160009054906101000a900473ffffffffffffffffffffffffffffffffffffffff169050600060646000808881526020019081526020016000206006016001015486610ec99190612660565b610ed391906126e9565b9050600080600088815260200190815260200160002060060160030160009054906101000a900473ffffffffffffffffffffffffffffffffffffffff169050600060646000808a81526020019081526020016000206006016002015488610f3a9190612660565b610f4491906126e9565b905086818487610f5491906123e8565b610f5e91906123e8565b14610f9e576040517f08c379a0000000000000000000000000000000000000000000000000000000008152600401610f95906127b2565b60405180910390fd5b60646000808a81526020019081526020016000206006016004015414610ff9576040517f08c379a0000000000000000000000000000000000000000000000000000000008152600401610ff09061281e565b60405180910390fd5b60c86000808a8152602001908152602001600020600601600401819055508573ffffffffffffffffffffffffffffffffffffffff166108fc869081150290604051600060405180830381858888f1935050505015801561105d573d6000803e3d6000fd5b508373ffffffffffffffffffffffffffffffffffffffff166108fc849081150290604051600060405180830381858888f193505050501580156110a4573d6000803e3d6000fd5b508173ffffffffffffffffffffffffffffffffffffffff166108fc829081150290604051600060405180830381858888f193505050501580156110eb573d6000803e3d6000fd5b505050505050505050565b60008082815260200190815260200160002060030154341461114d576040517f08c379a0000000000000000000000000000000000000000000000000000000008152600401611144906128b0565b60405180910390fd5b60008082815260200190815260200160002060020160009054906101000a900473ffffffffffffffffffffffffffffffffffffffff1673ffffffffffffffffffffffffffffffffffffffff163373ffffffffffffffffffffffffffffffffffffffff1614156111f1576040517f08c379a00000000000000000000000000000000000000000000000000000000081526004016111e890612942565b60405180910390fd5b6000808281526020019081526020016000206005015460c8141561124a576040517f08c379a0000000000000000000000000000000000000000000000000000000008152600401611241906129ae565b60405180910390fd5b3360008083815260200190815260200160002060010160006101000a81548173ffffffffffffffffffffffffffffffffffffffff021916908373ffffffffffffffffffffffffffffffffffffffff16021790555060c8600080838152602001908152602001600020600501819055506112c2816119c7565b50565b6003818051602081018201805184825260208301602085012081835280955050505050506000915054906101000a900473ffffffffffffffffffffffffffffffffffffffff1681565b6001602052816000526040600020818154811061132a57600080fd5b90600052602060002001600091509150505481565b60008082815260200190815260200160002060010160009054906101000a900473ffffffffffffffffffffffffffffffffffffffff1673ffffffffffffffffffffffffffffffffffffffff163373ffffffffffffffffffffffffffffffffffffffff16148061140e575060008082815260200190815260200160002060020160009054906101000a900473ffffffffffffffffffffffffffffffffffffffff1673ffffffffffffffffffffffffffffffffffffffff163373ffffffffffffffffffffffffffffffffffffffff16145b61144d576040517f08c379a000000000000000000000000000000000000000000000000000000000815260040161144490612a40565b60405180910390fd5b61012d6000808381526020019081526020016000206006016004015414158015611491575061012e6000808381526020019081526020016000206006016004015414155b6114d0576040517f08c379a00000000000000000000000000000000000000000000000000000000081526004016114c790612aac565b60405180910390fd5b60c860008083815260200190815260200160002060060160040154141561152c576040517f08c379a000000000000000000000000000000000000000000000000000000000815260040161152390612b18565b60405180910390fd5b60008082815260200190815260200160002060020160009054906101000a900473ffffffffffffffffffffffffffffffffffffffff1673ffffffffffffffffffffffffffffffffffffffff163373ffffffffffffffffffffffffffffffffffffffff1614156115b95761012d60008083815260200190815260200160002060060160040181905550611643565b60008082815260200190815260200160002060010160009054906101000a900473ffffffffffffffffffffffffffffffffffffffff1673ffffffffffffffffffffffffffffffffffffffff163373ffffffffffffffffffffffffffffffffffffffff1614156116425761012e600080838152602001908152602001600020600601600401819055505b5b50565b61164e611a30565b60025481600001818152505033816040019073ffffffffffffffffffffffffffffffffffffffff16908173ffffffffffffffffffffffffffffffffffffffff16815250508281606001818152505081816080018190525060648160a00181815250508060008060025481526020019081526020016000206000820151816000015560208201518160010160006101000a81548173ffffffffffffffffffffffffffffffffffffffff021916908373ffffffffffffffffffffffffffffffffffffffff16021790555060408201518160020160006101000a81548173ffffffffffffffffffffffffffffffffffffffff021916908373ffffffffffffffffffffffffffffffffffffffff160217905550606082015181600301556080820151816004019080519060200190611783929190611a9f565b5060a0820151816005015560c08201518160060160008201518160000155602082015181600101556040820151816002015560608201518160030160006101000a81548173ffffffffffffffffffffffffffffffffffffffff021916908373ffffffffffffffffffffffffffffffffffffffff1602179055506080820151816004015550509050506118166002546119c7565b7fa44f460f2ac523b4a38d95d97950a776d7bf0adbaff2501d321f040e3d661e466002546040516118479190611ba0565b60405180910390a160016002600082825461186291906123e8565b92505081905550505050565b6060600160003373ffffffffffffffffffffffffffffffffffffffff1673ffffffffffffffffffffffffffffffffffffffff1681526020019081526020016000208054806020026020016040519081016040528092919081815260200182805480156118f957602002820191906000526020600020905b8154815260200190600101908083116118e5575b5050505050905090565b80600360405161191290612527565b908152602001604051809103902060006101000a81548173ffffffffffffffffffffffffffffffffffffffff021916908373ffffffffffffffffffffffffffffffffffffffff1602179055506040518060400160405280600581526020017f48656c6c6f00000000000000000000000000000000000000000000000000000081525060046040516119a290612527565b908152602001604051809103902090805190602001906119c3929190611a9f565b5050565b600160003373ffffffffffffffffffffffffffffffffffffffff1673ffffffffffffffffffffffffffffffffffffffff16815260200190815260200160002081908060018154018082558091505060019003906000526020600020016000909190919091505550565b6040518060e0016040528060008152602001600073ffffffffffffffffffffffffffffffffffffffff168152602001600073ffffffffffffffffffffffffffffffffffffffff168152602001600081526020016060815260200160008152602001611a99611b25565b81525090565b828054611aab90612387565b90600052602060002090601f016020900481019282611acd5760008555611b14565b82601f10611ae657805160ff1916838001178555611b14565b82800160010185558215611b14579182015b82811115611b13578251825591602001919060010190611af8565b5b509050611b219190611b6a565b5090565b6040518060a00160405280600081526020016000815260200160008152602001600073ffffffffffffffffffffffffffffffffffffffff168152602001600081525090565b5b80821115611b83576000816000905550600101611b6b565b5090565b6000819050919050565b611b9a81611b87565b82525050565b6000602082019050611bb56000830184611b91565b92915050565b6000604051905090565b600080fd5b600080fd5b600080fd5b600080fd5b6000601f19601f8301169050919050565b7f4e487b7100000000000000000000000000000000000000000000000000000000600052604160045260246000fd5b611c2282611bd9565b810181811067ffffffffffffffff82111715611c4157611c40611bea565b5b80604052505050565b6000611c54611bbb565b9050611c608282611c19565b919050565b600067ffffffffffffffff821115611c8057611c7f611bea565b5b611c8982611bd9565b9050602081019050919050565b82818337600083830152505050565b6000611cb8611cb384611c65565b611c4a565b905082815260208101848484011115611cd457611cd3611bd4565b5b611cdf848285611c96565b509392505050565b600082601f830112611cfc57611cfb611bcf565b5b8135611d0c848260208601611ca5565b91505092915050565b600060208284031215611d2b57611d2a611bc5565b5b600082013567ffffffffffffffff811115611d4957611d48611bca565b5b611d5584828501611ce7565b91505092915050565b600081519050919050565b600082825260208201905092915050565b60005b83811015611d98578082015181840152602081019050611d7d565b83811115611da7576000848401525b50505050565b6000611db882611d5e565b611dc28185611d69565b9350611dd2818560208601611d7a565b611ddb81611bd9565b840191505092915050565b60006020820190508181036000830152611e008184611dad565b905092915050565b611e1181611b87565b8114611e1c57600080fd5b50565b600081359050611e2e81611e08565b92915050565b60008060008060808587031215611e4e57611e4d611bc5565b5b6000611e5c87828801611e1f565b9450506020611e6d87828801611e1f565b9350506040611e7e87828801611e1f565b9250506060611e8f87828801611e1f565b91505092959194509250565b600060208284031215611eb157611eb0611bc5565b5b6000611ebf84828501611e1f565b91505092915050565b611ed181611b87565b82525050565b600073ffffffffffffffffffffffffffffffffffffffff82169050919050565b6000611f0282611ed7565b9050919050565b611f1281611ef7565b82525050565b600082825260208201905092915050565b6000611f3482611d5e565b611f3e8185611f18565b9350611f4e818560208601611d7a565b611f5781611bd9565b840191505092915050565b60a082016000820151611f786000850182611ec8565b506020820151611f8b6020850182611ec8565b506040820151611f9e6040850182611ec8565b506060820151611fb16060850182611f09565b506080820151611fc46080850182611ec8565b50505050565b600061016083016000830151611fe36000860182611ec8565b506020830151611ff66020860182611f09565b5060408301516120096040860182611f09565b50606083015161201c6060860182611ec8565b50608083015184820360808601526120348282611f29565b91505060a083015161204960a0860182611ec8565b5060c083015161205c60c0860182611f62565b508091505092915050565b600060208201905081810360008301526120818184611fca565b905092915050565b61209281611ef7565b82525050565b60a0820160008201516120ae6000850182611ec8565b5060208201516120c16020850182611ec8565b5060408201516120d46040850182611ec8565b5060608201516120e76060850182611f09565b5060808201516120fa6080850182611ec8565b50505050565b600061016082019050612116600083018a611b91565b6121236020830189612089565b6121306040830188612089565b61213d6060830187611b91565b818103608083015261214f8186611dad565b905061215e60a0830185611b91565b61216b60c0830184612098565b98975050505050505050565b600060208201905061218c6000830184612089565b92915050565b61219b81611ef7565b81146121a657600080fd5b50565b6000813590506121b881612192565b92915050565b600080604083850312156121d5576121d4611bc5565b5b60006121e3858286016121a9565b92505060206121f485828601611e1f565b9150509250929050565b6000806040838503121561221557612214611bc5565b5b600061222385828601611e1f565b925050602083013567ffffffffffffffff81111561224457612243611bca565b5b61225085828601611ce7565b9150509250929050565b600081519050919050565b600082825260208201905092915050565b6000819050602082019050919050565b60006122928383611ec8565b60208301905092915050565b6000602082019050919050565b60006122b68261225a565b6122c08185612265565b93506122cb83612276565b8060005b838110156122fc5781516122e38882612286565b97506122ee8361229e565b9250506001810190506122cf565b5085935050505092915050565b6000602082019050818103600083015261232381846122ab565b905092915050565b60006020828403121561234157612340611bc5565b5b600061234f848285016121a9565b91505092915050565b7f4e487b7100000000000000000000000000000000000000000000000000000000600052602260045260246000fd5b6000600282049050600182168061239f57607f821691505b602082108114156123b3576123b2612358565b5b50919050565b7f4e487b7100000000000000000000000000000000000000000000000000000000600052601160045260246000fd5b60006123f382611b87565b91506123fe83611b87565b9250827fffffffffffffffffffffffffffffffffffffffffffffffffffffffffffffffff03821115612433576124326123b9565b5b828201905092915050565b7f54656e616e745368617265202b204c616e646c6f7264205368617265202b204660008201527f6565205368617265206973206e6f742031303025000000000000000000000000602082015250565b600061249a603483611d69565b91506124a58261243e565b604082019050919050565b600060208201905081810360008301526124c98161248d565b9050919050565b600081905092915050565b7f5265736f6c766572416464726573730000000000000000000000000000000000600082015250565b6000612511600f836124d0565b915061251c826124db565b600f82019050919050565b600061253282612504565b9150819050919050565b7f4f6e6c79204c616e646c6f7264206f72205265736f6c7665722063616e20637260008201527f656174652072656465656d2070726f706f73616c000000000000000000000000602082015250565b6000612598603483611d69565b91506125a38261253c565b604082019050919050565b600060208201905081810360008301526125c78161258b565b9050919050565b7f4f6e6c792074656e616e742063616e206163636570742072656465656d20707260008201527f6f706f73616c0000000000000000000000000000000000000000000000000000602082015250565b600061262a602683611d69565b9150612635826125ce565b604082019050919050565b600060208201905081810360008301526126598161261d565b9050919050565b600061266b82611b87565b915061267683611b87565b9250817fffffffffffffffffffffffffffffffffffffffffffffffffffffffffffffffff04831182151516156126af576126ae6123b9565b5b828202905092915050565b7f4e487b7100000000000000000000000000000000000000000000000000000000600052601260045260246000fd5b60006126f482611b87565b91506126ff83611b87565b92508261270f5761270e6126ba565b5b828204905092915050565b7f54656e616e745368617265202b204c616e646c6f7264205368617265202b204660008201527f656520536861726520646f6573206e6f7420657175616c20457363726f77205660208201527f616c756500000000000000000000000000000000000000000000000000000000604082015250565b600061279c604483611d69565b91506127a78261271a565b606082019050919050565b600060208201905081810360008301526127cb8161278f565b9050919050565b7f457363726f7720686173206265656e20616c726561642072656465656d65642e600082015250565b6000612808602083611d69565b9150612813826127d2565b602082019050919050565b60006020820190508181036000830152612837816127fb565b9050919050565b7f4574682073656e74206973206e6f742073616d6520617320657363726f77566160008201527f6c75650000000000000000000000000000000000000000000000000000000000602082015250565b600061289a602383611d69565b91506128a58261283e565b604082019050919050565b600060208201905081810360008301526128c98161288d565b9050919050565b7f54656e616e7420616e64204c616e646c6f7264206d757374206e6f742062652060008201527f73616d6520616464726573736573000000000000000000000000000000000000602082015250565b600061292c602e83611d69565b9150612937826128d0565b604082019050919050565b6000602082019050818103600083015261295b8161291f565b9050919050565b7f436f6e747261637420616c726561647920616363657074656400000000000000600082015250565b6000612998601983611d69565b91506129a382612962565b602082019050919050565b600060208201905081810360008301526129c78161298b565b9050919050565b7f4f6e6c792074656e616e74206f72206c616e646c6f72642063616e206163636560008201527f70742072656465656d2070726f706f73616c0000000000000000000000000000602082015250565b6000612a2a603283611d69565b9150612a35826129ce565b604082019050919050565b60006020820190508181036000830152612a5981612a1d565b9050919050565b7f416c72656164792072656a656374656400000000000000000000000000000000600082015250565b6000612a96601083611d69565b9150612aa182612a60565b602082019050919050565b60006020820190508181036000830152612ac581612a89565b9050919050565b7f416c726561647920616363657074656400000000000000000000000000000000600082015250565b6000612b02601083611d69565b9150612b0d82612acc565b602082019050919050565b60006020820190508181036000830152612b3181612af5565b905091905056fea2646970667358221220577767acf572bf99df830e2a07447d125ea8c6b6093c03353cbe4ce9de309baf64736f6c634300080a0033",
  "immutableReferences": {},
  "source": "// SPDX-License-Identifier:\tCC-BY-4.0\npragma solidity ^0.8.10;\n\ninterface rentEscrowInterface { \n\n    struct RentContract {\n            uint rentId;\n            address tenant;\n            address landlord;\n            uint256 escrowValue;\n            string contractDetail;\n            uint status; ///@dev 100 Proposed 200 Accepted by Tenant\n            RedeemProposal redeemProposal;\n        }\n\n    struct RedeemProposal {\n        uint tenantShare;\n        uint landlordShare;\n        uint feeShare;\n        address feeAddress;\n        uint proposalStatus; /// @dev 100 Proposed 200 Redeemed by tenant 202 Redemed via Dispute Resolution 301 rejected by landlord 302 rejected by tenant\n    }\n\n    function getContractToResolve () external view returns (RentContract memory);\n    function createRedeemProposal (uint _rentId, uint _tenantShare, uint _landlordShare, uint _feeShare ) external;\n    function acceptRedeemProposal(uint _rentId) external;\n    }\n\ncontract rentEscrow is rentEscrowInterface {\n///@custom:navigation Events\n    event sendAddressRent (address _message); \n    event sendStringRent (string _message); \n    event sendIdRent (uint _message); \n    ///@dev in order to give some feedback that rentcontract was created, we will emit its id. Later maybe be filled with some other\n    event rentContractId (uint _rentId);\n\n///@custom:navigation Mappings\n    mapping(uint => RentContract) public rentContractsMapping;\n\n    // will use this to search contracts by address\n    mapping(address => uint[]) public addressMapping;\n    uint public nextRentId = 0;\n\n\n    ///@dev this contracf address is allowed to trigger redeem proposal creation\n    mapping(string => address) public importantAddresses;\n    mapping(string => string) public importantStrings;\n\n    ///@dev sets\n    function setResolverAddress (address _resolverAddress) public  {\n        importantAddresses[\"ResolverAddress\"] = _resolverAddress;\n        importantStrings[\"ResolverAddress\"] = \"Hello\";\n    }\n///@custom:navigation RentContracts\n    function proposeNewContract (uint256 _escrowValue, string memory _contractDetail) external {\n        RentContract memory myRentContract;\n     \n        myRentContract.rentId = nextRentId;\n        myRentContract.landlord = msg.sender;\n        myRentContract.escrowValue = _escrowValue;\n        myRentContract.contractDetail = _contractDetail;\n        myRentContract.status = 100;\n        \n        rentContractsMapping[nextRentId] = myRentContract; //Later: Change to nextId to hashed ID\n        updateAddressMapping(nextRentId);\n        emit rentContractId(nextRentId);\n        \n        nextRentId += 1;\n\n    }\n\n    function acceptNewContract (uint _rentId) external payable{\n        require(msg.value == rentContractsMapping[_rentId].escrowValue, \"Eth sent is not same as escrowValue\");\n        require(msg.sender != rentContractsMapping[_rentId].landlord, \"Tenant and Landlord must not be same addresses\");\n        require(200 != rentContractsMapping[_rentId].status, \"Contract already accepted\");\n        \n        rentContractsMapping[_rentId].tenant = msg.sender;\n        rentContractsMapping[_rentId].status = 200;\n\n        updateAddressMapping(_rentId);\n\n    }\n///@custom:navigation Redeems\n    function createRedeemProposal (uint _rentId, uint _tenantShare, uint _landlordShare, uint _feeShare ) external {\n        \n        uint shareSum = _tenantShare + _landlordShare + _feeShare;\n        require(shareSum == 100, \"TenantShare + Landlord Share + Fee Share is not 100%\" );\n\n        //only landlord or resolver can create redeemProposal\n        // test required\n        require(msg.sender ==  rentContractsMapping[_rentId].landlord || msg.sender == importantAddresses[\"ResolverAddress\"] , \"Only Landlord or Resolver can create redeem proposal\");\n\n        rentContractsMapping[_rentId].redeemProposal.tenantShare = _tenantShare;\n        rentContractsMapping[_rentId].redeemProposal.landlordShare = _landlordShare;\n        rentContractsMapping[_rentId].redeemProposal.feeShare = _feeShare;\n        //Later: fee address must be protected\n        rentContractsMapping[_rentId].redeemProposal.feeAddress = importantAddresses[\"ResolverAddress\"];\n        rentContractsMapping[_rentId].redeemProposal.proposalStatus = 100;\n    \n    }\n\n    function acceptRedeemProposal(uint _rentId) external {\n        //only tenant can accept redeemProposal\n        // test required\n        require(msg.sender ==  rentContractsMapping[_rentId].tenant || msg.sender == importantAddresses[\"ResolverAddress\"],\"Only tenant can accept redeem proposal\");\n\n        \n        uint escrowValue = rentContractsMapping[_rentId].escrowValue;\n        // send to tenant\n        address payable tenantAddress = payable(rentContractsMapping[_rentId].tenant);\n        uint escrowTenant = escrowValue * rentContractsMapping[_rentId].redeemProposal.tenantShare / 100;\n\n         // send to landlord\n        address payable landlordAddress = payable(rentContractsMapping[_rentId].landlord);\n        uint escrowLandlord = escrowValue * rentContractsMapping[_rentId].redeemProposal.landlordShare / 100;\n\n        // send to fee\n        address payable feeAddress = payable(rentContractsMapping[_rentId].redeemProposal.feeAddress);\n        uint fee = escrowValue * rentContractsMapping[_rentId].redeemProposal.feeShare / 100;\n\n        //values to send must equal to escrowValue\n        require((escrowTenant + escrowLandlord + fee) == escrowValue, \"TenantShare + Landlord Share + Fee Share does not equal Escrow Value\");\n\n        // status must be 100 (proposed), to avoid double dip\n        require(rentContractsMapping[_rentId].redeemProposal.proposalStatus == 100, \"Escrow has been alread redeemed.\");\n        rentContractsMapping[_rentId].redeemProposal.proposalStatus = 200;\n\n        //Later: would it make sense to stop any redemptions in case sum of individual escrows is below total balance ???\n        \n        //Sending\n        tenantAddress.transfer(escrowTenant);\n        landlordAddress.transfer(escrowLandlord);\n        feeAddress.transfer(fee);    \n    }\n\n    ///@notice Use this function to reject redeem proposal. Will send it to the resolution centre\n    ///@param _rentId identifies the contract between tenant and landlord\n\n    function rejectRedeemProposal(uint _rentId) external {\n        ///@dev UX has a say here, currently tenant and landlord can reject at any time\n        require((msg.sender ==  rentContractsMapping[_rentId].tenant || msg.sender == rentContractsMapping[_rentId].landlord), \"Only tenant or landlord can accept redeem proposal\");\n        \n        ///@custom:later probably better to re-write to allowed statuses\n        require(\n            rentContractsMapping[_rentId].redeemProposal.proposalStatus != 301 &&\n            rentContractsMapping[_rentId].redeemProposal.proposalStatus != 302,\"Already rejected\");\n        require(rentContractsMapping[_rentId].redeemProposal.proposalStatus != (200),\"Already accepted\" );\n\n        if(msg.sender == rentContractsMapping[_rentId].landlord) {\n            rentContractsMapping[_rentId].redeemProposal.proposalStatus = 301;\n        }\n        else if (msg.sender == rentContractsMapping[_rentId].tenant){\n             rentContractsMapping[_rentId].redeemProposal.proposalStatus = 302;\n\n        }\n\n    }\n \n///@custom:navigation Development Helpers\n    function devGetBalance () external view returns(uint){\n        return(address(this).balance);\n    }\n    ///@dev this is used by retrieve mapping by another contract\n    ///@custom:later now gives just first contract. Need to add logic to return contract where redeemProposal was rejected\n    function getContractToResolve () external view returns (RentContract memory) {\n         uint _rentId = 1;\n         return rentContractsMapping[_rentId];\n        }\n    \n    ///@dev Should go to some utils contract\n    function updateAddressMapping (uint _rentId) internal {\n        addressMapping[msg.sender].push(_rentId);\n        }\n\n    ///@notice returns all contracts  where sender is involved party\n    function getContractsByAddress () external view returns ( uint[] memory ){\n    return addressMapping[msg.sender];\n\n        }\n    ///@notice returns RentContract\n    function getContractDetails (uint _rentId) external view returns (RentContract memory) {\n        return rentContractsMapping[_rentId];\n    }\n}",
  "sourcePath": "/Users/andy/my_repos/rentEscrow/contracts/rentEscrow.sol",
  "compiler": {
    "name": "solc",
    "version": "0.8.10+commit.fc410830.Emscripten.clang"
  },
  "schemaVersion": "3.4.5",
  "updatedAt": "2022-03-12T13:14:09.366Z",
  "networkType": "ethereum",
  "devdoc": {
    "events": {
      "rentContractId(uint256)": {
        "details": "in order to give some feedback that rentcontract was created, we will emit its id. Later maybe be filled with some other"
      },
      "sendAddressRent(address)": {
        "custom:navigation": "Events"
      }
    },
    "kind": "dev",
    "methods": {
      "createRedeemProposal(uint256,uint256,uint256,uint256)": {
        "custom:navigation": "Redeems"
      },
      "devGetBalance()": {
        "custom:navigation": "Development Helpers"
      },
      "getContractToResolve()": {
        "custom:later": "now gives just first contract. Need to add logic to return contract where redeemProposal was rejected",
        "details": "this is used by retrieve mapping by another contract"
      },
      "proposeNewContract(uint256,string)": {
        "custom:navigation": "RentContracts"
      },
      "rejectRedeemProposal(uint256)": {
        "params": {
          "_rentId": "identifies the contract between tenant and landlord"
        }
      },
      "setResolverAddress(address)": {
        "details": "sets"
      }
    },
    "stateVariables": {
      "importantAddresses": {
        "details": "this contracf address is allowed to trigger redeem proposal creation"
      },
      "rentContractsMapping": {
        "custom:navigation": "Mappings"
      }
    },
    "version": 1
  },
  "userdoc": {
    "kind": "user",
    "methods": {
      "getContractDetails(uint256)": {
        "notice": "returns RentContract"
      },
      "getContractsByAddress()": {
        "notice": "returns all contracts  where sender is involved party"
      },
      "rejectRedeemProposal(uint256)": {
        "notice": "Use this function to reject redeem proposal. Will send it to the resolution centre"
      }
    },
    "version": 1
  }
}