{
  "contractName": "rentEscrow",
  "abi": [
    {
      "inputs": [
        {
          "internalType": "address",
          "name": "",
          "type": "address"
        },
        {
          "internalType": "uint256",
          "name": "",
          "type": "uint256"
        }
      ],
      "name": "addressMapping",
      "outputs": [
        {
          "internalType": "uint256",
          "name": "",
          "type": "uint256"
        }
      ],
      "stateMutability": "view",
      "type": "function"
    },
    {
      "inputs": [],
      "name": "nextRentId",
      "outputs": [
        {
          "internalType": "uint256",
          "name": "",
          "type": "uint256"
        }
      ],
      "stateMutability": "view",
      "type": "function"
    },
    {
      "inputs": [
        {
          "internalType": "uint256",
          "name": "",
          "type": "uint256"
        }
      ],
      "name": "rentContractsMapping",
      "outputs": [
        {
          "internalType": "address",
          "name": "tenant",
          "type": "address"
        },
        {
          "internalType": "address",
          "name": "landlord",
          "type": "address"
        },
        {
          "internalType": "uint256",
          "name": "escrowValue",
          "type": "uint256"
        },
        {
          "internalType": "string",
          "name": "contractDetail",
          "type": "string"
        },
        {
          "internalType": "string",
          "name": "status",
          "type": "string"
        }
      ],
      "stateMutability": "view",
      "type": "function"
    },
    {
      "inputs": [],
      "name": "getContractsByAddress",
      "outputs": [
        {
          "internalType": "uint256[]",
          "name": "",
          "type": "uint256[]"
        }
      ],
      "stateMutability": "view",
      "type": "function"
    },
    {
      "inputs": [
        {
          "internalType": "uint256",
          "name": "_escrowValue",
          "type": "uint256"
        },
        {
          "internalType": "string",
          "name": "_contractDetail",
          "type": "string"
        }
      ],
      "name": "proposeNewContract",
      "outputs": [],
      "stateMutability": "nonpayable",
      "type": "function"
    },
    {
      "inputs": [
        {
          "internalType": "uint256",
          "name": "_rentId",
          "type": "uint256"
        }
      ],
      "name": "acceptNewContract",
      "outputs": [],
      "stateMutability": "payable",
      "type": "function"
    },
    {
      "inputs": [],
      "name": "devGetBalance",
      "outputs": [
        {
          "internalType": "uint256",
          "name": "",
          "type": "uint256"
        }
      ],
      "stateMutability": "view",
      "type": "function"
    }
  ],
  "bytecode": "0x6080604052600060025534801561001557600080fd5b50610dff806100256000396000f3fe6080604052600436106100705760003560e01c806385b589631161004e57806385b589631461010c57806396d65c3e14610128578063b59146f714610165578063b61f5f531461018e57610070565b8063039ed501146100755780632458cc3e146100a05780636b695d24146100cb575b600080fd5b34801561008157600080fd5b5061008a6101b9565b60405161009791906107b1565b60405180910390f35b3480156100ac57600080fd5b506100b56101bf565b6040516100c291906107b1565b60405180910390f35b3480156100d757600080fd5b506100f260048036038101906100ed919061080c565b6101c7565b604051610103959493929190610913565b60405180910390f35b6101266004803603810190610121919061080c565b61034d565b005b34801561013457600080fd5b5061014f600480360381019061014a91906109a0565b610404565b60405161015c91906107b1565b60405180910390f35b34801561017157600080fd5b5061018c60048036038101906101879190610b15565b610435565b005b34801561019a57600080fd5b506101a361059c565b6040516101b09190610c2f565b60405180910390f35b60025481565b600047905090565b60006020528060005260406000206000915090508060000160009054906101000a900473ffffffffffffffffffffffffffffffffffffffff16908060010160009054906101000a900473ffffffffffffffffffffffffffffffffffffffff169080600201549080600301805461023c90610c80565b80601f016020809104026020016040519081016040528092919081815260200182805461026890610c80565b80156102b55780601f1061028a576101008083540402835291602001916102b5565b820191906000526020600020905b81548152906001019060200180831161029857829003601f168201915b5050505050908060040180546102ca90610c80565b80601f01602080910402602001604051908101604052809291908181526020018280546102f690610c80565b80156103435780601f1061031857610100808354040283529160200191610343565b820191906000526020600020905b81548152906001019060200180831161032657829003601f168201915b5050505050905085565b6000808281526020019081526020016000206002015434146103a4576040517f08c379a000000000000000000000000000000000000000000000000000000000815260040161039b90610d24565b60405180910390fd5b3360008083815260200190815260200160002060000160006101000a81548173ffffffffffffffffffffffffffffffffffffffff021916908373ffffffffffffffffffffffffffffffffffffffff16021790555061040181610631565b50565b6001602052816000526040600020818154811061042057600080fd5b90600052602060002001600091509150505481565b61043d61069a565b33816020019073ffffffffffffffffffffffffffffffffffffffff16908173ffffffffffffffffffffffffffffffffffffffff16815250508281604001818152505081816060018190525080600080600254815260200190815260200160002060008201518160000160006101000a81548173ffffffffffffffffffffffffffffffffffffffff021916908373ffffffffffffffffffffffffffffffffffffffff16021790555060208201518160010160006101000a81548173ffffffffffffffffffffffffffffffffffffffff021916908373ffffffffffffffffffffffffffffffffffffffff1602179055506040820151816002015560608201518160030190805190602001906105519291906106f5565b50608082015181600401908051906020019061056e9291906106f5565b5090505061057d600254610631565b6001600260008282546105909190610d73565b92505081905550505050565b6060600160003373ffffffffffffffffffffffffffffffffffffffff1673ffffffffffffffffffffffffffffffffffffffff16815260200190815260200160002080548060200260200160405190810160405280929190818152602001828054801561062757602002820191906000526020600020905b815481526020019060010190808311610613575b5050505050905090565b600160003373ffffffffffffffffffffffffffffffffffffffff1673ffffffffffffffffffffffffffffffffffffffff16815260200190815260200160002081908060018154018082558091505060019003906000526020600020016000909190919091505550565b6040518060a00160405280600073ffffffffffffffffffffffffffffffffffffffff168152602001600073ffffffffffffffffffffffffffffffffffffffff1681526020016000815260200160608152602001606081525090565b82805461070190610c80565b90600052602060002090601f016020900481019282610723576000855561076a565b82601f1061073c57805160ff191683800117855561076a565b8280016001018555821561076a579182015b8281111561076957825182559160200191906001019061074e565b5b509050610777919061077b565b5090565b5b8082111561079457600081600090555060010161077c565b5090565b6000819050919050565b6107ab81610798565b82525050565b60006020820190506107c660008301846107a2565b92915050565b6000604051905090565b600080fd5b600080fd5b6107e981610798565b81146107f457600080fd5b50565b600081359050610806816107e0565b92915050565b600060208284031215610822576108216107d6565b5b6000610830848285016107f7565b91505092915050565b600073ffffffffffffffffffffffffffffffffffffffff82169050919050565b600061086482610839565b9050919050565b61087481610859565b82525050565b600081519050919050565b600082825260208201905092915050565b60005b838110156108b4578082015181840152602081019050610899565b838111156108c3576000848401525b50505050565b6000601f19601f8301169050919050565b60006108e58261087a565b6108ef8185610885565b93506108ff818560208601610896565b610908816108c9565b840191505092915050565b600060a082019050610928600083018861086b565b610935602083018761086b565b61094260408301866107a2565b818103606083015261095481856108da565b9050818103608083015261096881846108da565b90509695505050505050565b61097d81610859565b811461098857600080fd5b50565b60008135905061099a81610974565b92915050565b600080604083850312156109b7576109b66107d6565b5b60006109c58582860161098b565b92505060206109d6858286016107f7565b9150509250929050565b600080fd5b600080fd5b7f4e487b7100000000000000000000000000000000000000000000000000000000600052604160045260246000fd5b610a22826108c9565b810181811067ffffffffffffffff82111715610a4157610a406109ea565b5b80604052505050565b6000610a546107cc565b9050610a608282610a19565b919050565b600067ffffffffffffffff821115610a8057610a7f6109ea565b5b610a89826108c9565b9050602081019050919050565b82818337600083830152505050565b6000610ab8610ab384610a65565b610a4a565b905082815260208101848484011115610ad457610ad36109e5565b5b610adf848285610a96565b509392505050565b600082601f830112610afc57610afb6109e0565b5b8135610b0c848260208601610aa5565b91505092915050565b60008060408385031215610b2c57610b2b6107d6565b5b6000610b3a858286016107f7565b925050602083013567ffffffffffffffff811115610b5b57610b5a6107db565b5b610b6785828601610ae7565b9150509250929050565b600081519050919050565b600082825260208201905092915050565b6000819050602082019050919050565b610ba681610798565b82525050565b6000610bb88383610b9d565b60208301905092915050565b6000602082019050919050565b6000610bdc82610b71565b610be68185610b7c565b9350610bf183610b8d565b8060005b83811015610c22578151610c098882610bac565b9750610c1483610bc4565b925050600181019050610bf5565b5085935050505092915050565b60006020820190508181036000830152610c498184610bd1565b905092915050565b7f4e487b7100000000000000000000000000000000000000000000000000000000600052602260045260246000fd5b60006002820490506001821680610c9857607f821691505b60208210811415610cac57610cab610c51565b5b50919050565b7f4574682073656e74206973206e6f742073616d6520617320657363726f77566160008201527f6c75650000000000000000000000000000000000000000000000000000000000602082015250565b6000610d0e602383610885565b9150610d1982610cb2565b604082019050919050565b60006020820190508181036000830152610d3d81610d01565b9050919050565b7f4e487b7100000000000000000000000000000000000000000000000000000000600052601160045260246000fd5b6000610d7e82610798565b9150610d8983610798565b9250827fffffffffffffffffffffffffffffffffffffffffffffffffffffffffffffffff03821115610dbe57610dbd610d44565b5b82820190509291505056fea2646970667358221220ca24e7e67399c903a046b4c4d39048aff923fe5a78fda5d15a2176e97d8608fb64736f6c634300080a0033",
  "immutableReferences": {},
  "source": "pragma solidity ^0.8.10;\n\ncontract rentEscrow{\n\n    struct rentContract {\n        address tenant;\n        address landlord;\n        uint256 escrowValue;\n        string contractDetail;\n        string status;\n    }\n\n    mapping(uint => rentContract) public rentContractsMapping;\n    // will use this to search contracts by address\n    mapping(address => uint[]) public addressMapping;\n    uint public nextRentId = 0;\n\n    // Should go to some utils contract\n\n    function updateAddressMapping (uint _rentId) internal {\n        addressMapping[msg.sender].push(_rentId);\n    }\n\n    function getContractsByAddress () external view returns ( uint[] memory ){\n    return addressMapping[msg.sender];\n\n    }\n\n    function proposeNewContract (uint256 _escrowValue, string memory _contractDetail) external {\n        rentContract memory myRentContract;\n     \n        myRentContract.landlord = msg.sender;\n        myRentContract.escrowValue = _escrowValue;\n        myRentContract.contractDetail = _contractDetail;\n        \n        rentContractsMapping[nextRentId] = myRentContract; //Later: Change to nextId to hashed ID\n        updateAddressMapping(nextRentId);\n        nextRentId += 1;\n\n    }\n\n    function acceptNewContract (uint _rentId) external payable{\n        require(msg.value == rentContractsMapping[_rentId].escrowValue, \"Eth sent is not same as escrowValue\");\n        \n        rentContractsMapping[_rentId].tenant = msg.sender;\n\n        updateAddressMapping(_rentId);\n\n    }\n \n\n    function devGetBalance () external view returns(uint){\n        return(address(this).balance);\n    }\n}",
  "sourcePath": "/Users/andy/my_repos/rentEscrow/contracts/rentEscrow.sol",
  "compiler": {
    "name": "solc",
    "version": "0.8.10+commit.fc410830.Emscripten.clang"
  },
  "schemaVersion": "3.4.3",
  "updatedAt": "2022-01-01T14:44:23.575Z",
  "devdoc": {
    "kind": "dev",
    "methods": {},
    "version": 1
  },
  "userdoc": {
    "kind": "user",
    "methods": {},
    "version": 1
  }
}