{
  "contractName": "rentEscrow",
  "abi": [
    {
      "inputs": [
        {
          "internalType": "address",
          "name": "",
          "type": "address"
        },
        {
          "internalType": "uint256",
          "name": "",
          "type": "uint256"
        }
      ],
      "name": "addressMapping",
      "outputs": [
        {
          "internalType": "uint256",
          "name": "",
          "type": "uint256"
        }
      ],
      "stateMutability": "view",
      "type": "function"
    },
    {
      "inputs": [],
      "name": "nextRentId",
      "outputs": [
        {
          "internalType": "uint256",
          "name": "",
          "type": "uint256"
        }
      ],
      "stateMutability": "view",
      "type": "function"
    },
    {
      "inputs": [
        {
          "internalType": "uint256",
          "name": "",
          "type": "uint256"
        }
      ],
      "name": "rentContractsMapping",
      "outputs": [
        {
          "internalType": "address",
          "name": "tenant",
          "type": "address"
        },
        {
          "internalType": "address",
          "name": "landlord",
          "type": "address"
        },
        {
          "internalType": "uint256",
          "name": "escrowValue",
          "type": "uint256"
        },
        {
          "internalType": "string",
          "name": "contractDetail",
          "type": "string"
        },
        {
          "internalType": "string",
          "name": "status",
          "type": "string"
        },
        {
          "components": [
            {
              "internalType": "uint256",
              "name": "tenantShare",
              "type": "uint256"
            },
            {
              "internalType": "uint256",
              "name": "landlordShare",
              "type": "uint256"
            },
            {
              "internalType": "uint256",
              "name": "feeShare",
              "type": "uint256"
            },
            {
              "internalType": "address",
              "name": "feeAddress",
              "type": "address"
            },
            {
              "internalType": "uint256",
              "name": "proposalStatus",
              "type": "uint256"
            }
          ],
          "internalType": "struct rentEscrow.redeemProposal",
          "name": "redeemProposal",
          "type": "tuple"
        }
      ],
      "stateMutability": "view",
      "type": "function"
    },
    {
      "inputs": [],
      "name": "getContractsByAddress",
      "outputs": [
        {
          "internalType": "uint256[]",
          "name": "",
          "type": "uint256[]"
        }
      ],
      "stateMutability": "view",
      "type": "function"
    },
    {
      "inputs": [
        {
          "internalType": "uint256",
          "name": "_escrowValue",
          "type": "uint256"
        },
        {
          "internalType": "string",
          "name": "_contractDetail",
          "type": "string"
        }
      ],
      "name": "proposeNewContract",
      "outputs": [],
      "stateMutability": "nonpayable",
      "type": "function"
    },
    {
      "inputs": [
        {
          "internalType": "uint256",
          "name": "_rentId",
          "type": "uint256"
        }
      ],
      "name": "acceptNewContract",
      "outputs": [],
      "stateMutability": "payable",
      "type": "function"
    },
    {
      "inputs": [
        {
          "internalType": "uint256",
          "name": "_rentId",
          "type": "uint256"
        },
        {
          "internalType": "uint256",
          "name": "_tenantShare",
          "type": "uint256"
        },
        {
          "internalType": "uint256",
          "name": "_landlordShare",
          "type": "uint256"
        },
        {
          "internalType": "uint256",
          "name": "_feeShare",
          "type": "uint256"
        },
        {
          "internalType": "address",
          "name": "_feeAddress",
          "type": "address"
        }
      ],
      "name": "createRedeemProposal",
      "outputs": [],
      "stateMutability": "nonpayable",
      "type": "function"
    },
    {
      "inputs": [
        {
          "internalType": "uint256",
          "name": "_rentId",
          "type": "uint256"
        }
      ],
      "name": "acceptRedeemProposal",
      "outputs": [],
      "stateMutability": "nonpayable",
      "type": "function"
    },
    {
      "inputs": [],
      "name": "devGetBalance",
      "outputs": [
        {
          "internalType": "uint256",
          "name": "",
          "type": "uint256"
        }
      ],
      "stateMutability": "view",
      "type": "function"
    }
  ],
  "bytecode": "0x6080604052600060025534801561001557600080fd5b506119e6806100256000396000f3fe6080604052600436106100865760003560e01c80637afc2d56116100595780637afc2d561461014c57806385b589631461017557806396d65c3e14610191578063b59146f7146101ce578063b61f5f53146101f757610086565b8063039ed5011461008b5780632458cc3e146100b65780633d45370c146100e15780636b695d241461010a575b600080fd5b34801561009757600080fd5b506100a0610222565b6040516100ad9190610f03565b60405180910390f35b3480156100c257600080fd5b506100cb610228565b6040516100d89190610f03565b60405180910390f35b3480156100ed57600080fd5b5061010860048036038101906101039190610fbc565b610230565b005b34801561011657600080fd5b50610131600480360381019061012c9190611037565b610405565b60405161014396959493929190611192565b60405180910390f35b34801561015857600080fd5b50610173600480360381019061016e9190611037565b610619565b005b61018f600480360381019061018a9190611037565b6109d3565b005b34801561019d57600080fd5b506101b860048036038101906101b39190611202565b610a8a565b6040516101c59190610f03565b60405180910390f35b3480156101da57600080fd5b506101f560048036038101906101f09190611377565b610abb565b005b34801561020357600080fd5b5061020c610c9c565b6040516102199190611482565b60405180910390f35b60025481565b600047905090565b600082848661023f91906114d3565b61024991906114d3565b90506064811461028e576040517f08c379a00000000000000000000000000000000000000000000000000000000081526004016102859061159b565b60405180910390fd5b60008087815260200190815260200160002060010160009054906101000a900473ffffffffffffffffffffffffffffffffffffffff1673ffffffffffffffffffffffffffffffffffffffff163373ffffffffffffffffffffffffffffffffffffffff1614610331576040517f08c379a00000000000000000000000000000000000000000000000000000000081526004016103289061162d565b60405180910390fd5b8460008088815260200190815260200160002060050160000181905550836000808881526020019081526020016000206005016001018190555082600080888152602001908152602001600020600501600201819055508160008088815260200190815260200160002060050160030160006101000a81548173ffffffffffffffffffffffffffffffffffffffff021916908373ffffffffffffffffffffffffffffffffffffffff160217905550606460008088815260200190815260200160002060050160040181905550505050505050565b60006020528060005260406000206000915090508060000160009054906101000a900473ffffffffffffffffffffffffffffffffffffffff16908060010160009054906101000a900473ffffffffffffffffffffffffffffffffffffffff169080600201549080600301805461047a9061167c565b80601f01602080910402602001604051908101604052809291908181526020018280546104a69061167c565b80156104f35780601f106104c8576101008083540402835291602001916104f3565b820191906000526020600020905b8154815290600101906020018083116104d657829003601f168201915b5050505050908060040180546105089061167c565b80601f01602080910402602001604051908101604052809291908181526020018280546105349061167c565b80156105815780601f1061055657610100808354040283529160200191610581565b820191906000526020600020905b81548152906001019060200180831161056457829003601f168201915b505050505090806005016040518060a00160405290816000820154815260200160018201548152602001600282015481526020016003820160009054906101000a900473ffffffffffffffffffffffffffffffffffffffff1673ffffffffffffffffffffffffffffffffffffffff1673ffffffffffffffffffffffffffffffffffffffff168152602001600482015481525050905086565b60008082815260200190815260200160002060000160009054906101000a900473ffffffffffffffffffffffffffffffffffffffff1673ffffffffffffffffffffffffffffffffffffffff163373ffffffffffffffffffffffffffffffffffffffff16146106bc576040517f08c379a00000000000000000000000000000000000000000000000000000000081526004016106b390611720565b60405180910390fd5b6000806000838152602001908152602001600020600201549050600080600084815260200190815260200160002060000160009054906101000a900473ffffffffffffffffffffffffffffffffffffffff1690506000606460008086815260200190815260200160002060050160000154846107389190611740565b61074291906117c9565b9050600080600086815260200190815260200160002060010160009054906101000a900473ffffffffffffffffffffffffffffffffffffffff1690506000606460008088815260200190815260200160002060050160010154866107a69190611740565b6107b091906117c9565b9050600080600088815260200190815260200160002060050160030160009054906101000a900473ffffffffffffffffffffffffffffffffffffffff169050600060646000808a815260200190815260200160002060050160020154886108179190611740565b61082191906117c9565b90508681848761083191906114d3565b61083b91906114d3565b1461087b576040517f08c379a000000000000000000000000000000000000000000000000000000000815260040161087290611892565b60405180910390fd5b60646000808a815260200190815260200160002060050160040154146108d6576040517f08c379a00000000000000000000000000000000000000000000000000000000081526004016108cd906118fe565b60405180910390fd5b60c86000808a8152602001908152602001600020600501600401819055508573ffffffffffffffffffffffffffffffffffffffff166108fc869081150290604051600060405180830381858888f1935050505015801561093a573d6000803e3d6000fd5b508373ffffffffffffffffffffffffffffffffffffffff166108fc849081150290604051600060405180830381858888f19350505050158015610981573d6000803e3d6000fd5b508173ffffffffffffffffffffffffffffffffffffffff166108fc829081150290604051600060405180830381858888f193505050501580156109c8573d6000803e3d6000fd5b505050505050505050565b600080828152602001908152602001600020600201543414610a2a576040517f08c379a0000000000000000000000000000000000000000000000000000000008152600401610a2190611990565b60405180910390fd5b3360008083815260200190815260200160002060000160006101000a81548173ffffffffffffffffffffffffffffffffffffffff021916908373ffffffffffffffffffffffffffffffffffffffff160217905550610a8781610d31565b50565b60016020528160005260406000208181548110610aa657600080fd5b90600052602060002001600091509150505481565b610ac3610d9a565b33816020019073ffffffffffffffffffffffffffffffffffffffff16908173ffffffffffffffffffffffffffffffffffffffff16815250508281604001818152505081816060018190525080600080600254815260200190815260200160002060008201518160000160006101000a81548173ffffffffffffffffffffffffffffffffffffffff021916908373ffffffffffffffffffffffffffffffffffffffff16021790555060208201518160010160006101000a81548173ffffffffffffffffffffffffffffffffffffffff021916908373ffffffffffffffffffffffffffffffffffffffff160217905550604082015181600201556060820151816003019080519060200190610bd7929190610e02565b506080820151816004019080519060200190610bf4929190610e02565b5060a08201518160050160008201518160000155602082015181600101556040820151816002015560608201518160030160006101000a81548173ffffffffffffffffffffffffffffffffffffffff021916908373ffffffffffffffffffffffffffffffffffffffff160217905550608082015181600401555050905050610c7d600254610d31565b600160026000828254610c9091906114d3565b92505081905550505050565b6060600160003373ffffffffffffffffffffffffffffffffffffffff1673ffffffffffffffffffffffffffffffffffffffff168152602001908152602001600020805480602002602001604051908101604052809291908181526020018280548015610d2757602002820191906000526020600020905b815481526020019060010190808311610d13575b5050505050905090565b600160003373ffffffffffffffffffffffffffffffffffffffff1673ffffffffffffffffffffffffffffffffffffffff16815260200190815260200160002081908060018154018082558091505060019003906000526020600020016000909190919091505550565b6040518060c00160405280600073ffffffffffffffffffffffffffffffffffffffff168152602001600073ffffffffffffffffffffffffffffffffffffffff168152602001600081526020016060815260200160608152602001610dfc610e88565b81525090565b828054610e0e9061167c565b90600052602060002090601f016020900481019282610e305760008555610e77565b82601f10610e4957805160ff1916838001178555610e77565b82800160010185558215610e77579182015b82811115610e76578251825591602001919060010190610e5b565b5b509050610e849190610ecd565b5090565b6040518060a00160405280600081526020016000815260200160008152602001600073ffffffffffffffffffffffffffffffffffffffff168152602001600081525090565b5b80821115610ee6576000816000905550600101610ece565b5090565b6000819050919050565b610efd81610eea565b82525050565b6000602082019050610f186000830184610ef4565b92915050565b6000604051905090565b600080fd5b600080fd5b610f3b81610eea565b8114610f4657600080fd5b50565b600081359050610f5881610f32565b92915050565b600073ffffffffffffffffffffffffffffffffffffffff82169050919050565b6000610f8982610f5e565b9050919050565b610f9981610f7e565b8114610fa457600080fd5b50565b600081359050610fb681610f90565b92915050565b600080600080600060a08688031215610fd857610fd7610f28565b5b6000610fe688828901610f49565b9550506020610ff788828901610f49565b945050604061100888828901610f49565b935050606061101988828901610f49565b925050608061102a88828901610fa7565b9150509295509295909350565b60006020828403121561104d5761104c610f28565b5b600061105b84828501610f49565b91505092915050565b61106d81610f7e565b82525050565b600081519050919050565b600082825260208201905092915050565b60005b838110156110ad578082015181840152602081019050611092565b838111156110bc576000848401525b50505050565b6000601f19601f8301169050919050565b60006110de82611073565b6110e8818561107e565b93506110f881856020860161108f565b611101816110c2565b840191505092915050565b61111581610eea565b82525050565b61112481610f7e565b82525050565b60a082016000820151611140600085018261110c565b506020820151611153602085018261110c565b506040820151611166604085018261110c565b506060820151611179606085018261111b565b50608082015161118c608085018261110c565b50505050565b6000610140820190506111a86000830189611064565b6111b56020830188611064565b6111c26040830187610ef4565b81810360608301526111d481866110d3565b905081810360808301526111e881856110d3565b90506111f760a083018461112a565b979650505050505050565b6000806040838503121561121957611218610f28565b5b600061122785828601610fa7565b925050602061123885828601610f49565b9150509250929050565b600080fd5b600080fd5b7f4e487b7100000000000000000000000000000000000000000000000000000000600052604160045260246000fd5b611284826110c2565b810181811067ffffffffffffffff821117156112a3576112a261124c565b5b80604052505050565b60006112b6610f1e565b90506112c2828261127b565b919050565b600067ffffffffffffffff8211156112e2576112e161124c565b5b6112eb826110c2565b9050602081019050919050565b82818337600083830152505050565b600061131a611315846112c7565b6112ac565b90508281526020810184848401111561133657611335611247565b5b6113418482856112f8565b509392505050565b600082601f83011261135e5761135d611242565b5b813561136e848260208601611307565b91505092915050565b6000806040838503121561138e5761138d610f28565b5b600061139c85828601610f49565b925050602083013567ffffffffffffffff8111156113bd576113bc610f2d565b5b6113c985828601611349565b9150509250929050565b600081519050919050565b600082825260208201905092915050565b6000819050602082019050919050565b600061140b838361110c565b60208301905092915050565b6000602082019050919050565b600061142f826113d3565b61143981856113de565b9350611444836113ef565b8060005b8381101561147557815161145c88826113ff565b975061146783611417565b925050600181019050611448565b5085935050505092915050565b6000602082019050818103600083015261149c8184611424565b905092915050565b7f4e487b7100000000000000000000000000000000000000000000000000000000600052601160045260246000fd5b60006114de82610eea565b91506114e983610eea565b9250827fffffffffffffffffffffffffffffffffffffffffffffffffffffffffffffffff0382111561151e5761151d6114a4565b5b828201905092915050565b7f54656e616e745368617265202b204c616e646c6f7264205368617265202b204660008201527f6565205368617265206973206e6f742031303025000000000000000000000000602082015250565b600061158560348361107e565b915061159082611529565b604082019050919050565b600060208201905081810360008301526115b481611578565b9050919050565b7f4f6e6c79204c616e646c6f72642063616e206372656174652072656465656d2060008201527f70726f706f73616c000000000000000000000000000000000000000000000000602082015250565b600061161760288361107e565b9150611622826115bb565b604082019050919050565b600060208201905081810360008301526116468161160a565b9050919050565b7f4e487b7100000000000000000000000000000000000000000000000000000000600052602260045260246000fd5b6000600282049050600182168061169457607f821691505b602082108114156116a8576116a761164d565b5b50919050565b7f4f6e6c792074656e616e742063616e206163636570742072656465656d20707260008201527f6f706f73616c0000000000000000000000000000000000000000000000000000602082015250565b600061170a60268361107e565b9150611715826116ae565b604082019050919050565b60006020820190508181036000830152611739816116fd565b9050919050565b600061174b82610eea565b915061175683610eea565b9250817fffffffffffffffffffffffffffffffffffffffffffffffffffffffffffffffff048311821515161561178f5761178e6114a4565b5b828202905092915050565b7f4e487b7100000000000000000000000000000000000000000000000000000000600052601260045260246000fd5b60006117d482610eea565b91506117df83610eea565b9250826117ef576117ee61179a565b5b828204905092915050565b7f54656e616e745368617265202b204c616e646c6f7264205368617265202b204660008201527f656520536861726520646f6573206e6f7420657175616c20457363726f77205660208201527f616c756500000000000000000000000000000000000000000000000000000000604082015250565b600061187c60448361107e565b9150611887826117fa565b606082019050919050565b600060208201905081810360008301526118ab8161186f565b9050919050565b7f457363726f7720686173206265656e20616c726561642072656465656d65642e600082015250565b60006118e860208361107e565b91506118f3826118b2565b602082019050919050565b60006020820190508181036000830152611917816118db565b9050919050565b7f4574682073656e74206973206e6f742073616d6520617320657363726f77566160008201527f6c75650000000000000000000000000000000000000000000000000000000000602082015250565b600061197a60238361107e565b91506119858261191e565b604082019050919050565b600060208201905081810360008301526119a98161196d565b905091905056fea26469706673582212203c03ceed81fccb85003da8ee2847330814e30646d195439018965a92230a6d2b64736f6c634300080a0033",
  "immutableReferences": {},
  "source": "pragma solidity ^0.8.10;\n\ncontract rentEscrow{\n\n    struct rentContract {\n        address tenant;\n        address landlord;\n        uint256 escrowValue;\n        string contractDetail;\n        string status;\n        redeemProposal redeemProposal;\n    }\n\n    struct redeemProposal {\n        uint tenantShare;\n        uint landlordShare;\n        uint feeShare;\n        address feeAddress;\n        uint proposalStatus; // 100 Proposed 200 Redeemed by tenant 202 Redemed via Dispute Resolution\n    }\n\n    mapping(uint => rentContract) public rentContractsMapping;\n\n    // will use this to search contracts by address\n    mapping(address => uint[]) public addressMapping;\n    uint public nextRentId = 0;\n\n    // Should go to some utils contract\n\n    function updateAddressMapping (uint _rentId) internal {\n        addressMapping[msg.sender].push(_rentId);\n    }\n\n    function getContractsByAddress () external view returns ( uint[] memory ){\n    return addressMapping[msg.sender];\n\n    }\n\n    function proposeNewContract (uint256 _escrowValue, string memory _contractDetail) external {\n        rentContract memory myRentContract;\n     \n        myRentContract.landlord = msg.sender;\n        myRentContract.escrowValue = _escrowValue;\n        myRentContract.contractDetail = _contractDetail;\n        \n        rentContractsMapping[nextRentId] = myRentContract; //Later: Change to nextId to hashed ID\n        updateAddressMapping(nextRentId);\n        nextRentId += 1;\n\n    }\n\n    function acceptNewContract (uint _rentId) external payable{\n        require(msg.value == rentContractsMapping[_rentId].escrowValue, \"Eth sent is not same as escrowValue\");\n        \n        rentContractsMapping[_rentId].tenant = msg.sender;\n\n        updateAddressMapping(_rentId);\n\n    }\n\n    function createRedeemProposal (uint _rentId, uint _tenantShare, uint _landlordShare, uint _feeShare, address _feeAddress  ) external {\n        \n        uint shareSum = _tenantShare + _landlordShare + _feeShare;\n        require(shareSum == 100, \"TenantShare + Landlord Share + Fee Share is not 100%\" );\n\n        //only landlord can create redeemProposal\n        // test required\n        require(msg.sender ==  rentContractsMapping[_rentId].landlord, \"Only Landlord can create redeem proposal\");\n\n        rentContractsMapping[_rentId].redeemProposal.tenantShare = _tenantShare;\n        rentContractsMapping[_rentId].redeemProposal.landlordShare = _landlordShare;\n        rentContractsMapping[_rentId].redeemProposal.feeShare = _feeShare;\n        //Later: fee address must be protected\n        rentContractsMapping[_rentId].redeemProposal.feeAddress = _feeAddress;\n        rentContractsMapping[_rentId].redeemProposal.proposalStatus = 100;\n    \n    }\n\n    function acceptRedeemProposal(uint _rentId) external {\n        //only tenant can accept redeemProposal\n        // test required\n        require(msg.sender ==  rentContractsMapping[_rentId].tenant,\"Only tenant can accept redeem proposal\");\n\n        \n        uint escrowValue = rentContractsMapping[_rentId].escrowValue;\n        // send to tenant\n        address payable tenantAddress = payable(rentContractsMapping[_rentId].tenant);\n        uint escrowTenant = escrowValue * rentContractsMapping[_rentId].redeemProposal.tenantShare / 100;\n\n         // send to landlord\n        address payable landlordAddress = payable(rentContractsMapping[_rentId].landlord);\n        uint escrowLandlord = escrowValue * rentContractsMapping[_rentId].redeemProposal.landlordShare / 100;\n\n        // send to fee\n        address payable feeAddress = payable(rentContractsMapping[_rentId].redeemProposal.feeAddress);\n        uint fee = escrowValue * rentContractsMapping[_rentId].redeemProposal.feeShare / 100;\n\n\n\n        //values to send must equal to escrowValue\n        require((escrowTenant + escrowLandlord + fee) == escrowValue, \"TenantShare + Landlord Share + Fee Share does not equal Escrow Value\");\n\n        // status must be 100 (proposed), to avoid double dip\n        require(rentContractsMapping[_rentId].redeemProposal.proposalStatus == 100, \"Escrow has been alread redeemed.\");\n        rentContractsMapping[_rentId].redeemProposal.proposalStatus = 200;\n\n        //Later: would it make sense to stop any redemptions in case sum of individual escrows is below total balance ???\n        \n        //Sending\n        tenantAddress.transfer(escrowTenant);\n        landlordAddress.transfer(escrowLandlord);\n        feeAddress.transfer(fee);\n\n        \n\n\n\n\n        \n    }\n \n\n    function devGetBalance () external view returns(uint){\n        return(address(this).balance);\n    }\n}",
  "sourcePath": "/Users/andy/my_repos/rentEscrow/contracts/rentEscrow.sol",
  "compiler": {
    "name": "solc",
    "version": "0.8.10+commit.fc410830.Emscripten.clang"
  },
  "schemaVersion": "3.4.3",
  "updatedAt": "2022-01-07T10:22:58.456Z",
  "devdoc": {
    "kind": "dev",
    "methods": {},
    "version": 1
  },
  "userdoc": {
    "kind": "user",
    "methods": {},
    "version": 1
  }
}