{
  "contractName": "rentEscrow",
  "abi": [
    {
      "anonymous": false,
      "inputs": [
        {
          "indexed": false,
          "internalType": "uint256",
          "name": "_rentId",
          "type": "uint256"
        }
      ],
      "name": "rentContractId",
      "type": "event"
    },
    {
      "anonymous": false,
      "inputs": [
        {
          "indexed": false,
          "internalType": "address",
          "name": "_message",
          "type": "address"
        }
      ],
      "name": "sendAddressRent",
      "type": "event"
    },
    {
      "anonymous": false,
      "inputs": [
        {
          "indexed": false,
          "internalType": "uint256",
          "name": "_message",
          "type": "uint256"
        }
      ],
      "name": "sendIdRent",
      "type": "event"
    },
    {
      "anonymous": false,
      "inputs": [
        {
          "indexed": false,
          "internalType": "string",
          "name": "_message",
          "type": "string"
        }
      ],
      "name": "sendStringRent",
      "type": "event"
    },
    {
      "inputs": [
        {
          "internalType": "address",
          "name": "",
          "type": "address"
        },
        {
          "internalType": "uint256",
          "name": "",
          "type": "uint256"
        }
      ],
      "name": "addressMapping",
      "outputs": [
        {
          "internalType": "uint256",
          "name": "",
          "type": "uint256"
        }
      ],
      "stateMutability": "view",
      "type": "function",
      "constant": true
    },
    {
      "inputs": [
        {
          "internalType": "string",
          "name": "",
          "type": "string"
        }
      ],
      "name": "importantAddresses",
      "outputs": [
        {
          "internalType": "address",
          "name": "",
          "type": "address"
        }
      ],
      "stateMutability": "view",
      "type": "function",
      "constant": true
    },
    {
      "inputs": [
        {
          "internalType": "string",
          "name": "",
          "type": "string"
        }
      ],
      "name": "importantStrings",
      "outputs": [
        {
          "internalType": "string",
          "name": "",
          "type": "string"
        }
      ],
      "stateMutability": "view",
      "type": "function",
      "constant": true
    },
    {
      "inputs": [],
      "name": "nextRentId",
      "outputs": [
        {
          "internalType": "uint256",
          "name": "",
          "type": "uint256"
        }
      ],
      "stateMutability": "view",
      "type": "function",
      "constant": true
    },
    {
      "inputs": [
        {
          "internalType": "uint256",
          "name": "",
          "type": "uint256"
        }
      ],
      "name": "rentContractsMapping",
      "outputs": [
        {
          "internalType": "uint256",
          "name": "rentId",
          "type": "uint256"
        },
        {
          "internalType": "address",
          "name": "tenant",
          "type": "address"
        },
        {
          "internalType": "address",
          "name": "landlord",
          "type": "address"
        },
        {
          "internalType": "uint256",
          "name": "escrowValue",
          "type": "uint256"
        },
        {
          "internalType": "string",
          "name": "contractDetail",
          "type": "string"
        },
        {
          "internalType": "uint256",
          "name": "status",
          "type": "uint256"
        },
        {
          "components": [
            {
              "internalType": "uint256",
              "name": "tenantShare",
              "type": "uint256"
            },
            {
              "internalType": "uint256",
              "name": "landlordShare",
              "type": "uint256"
            },
            {
              "internalType": "uint256",
              "name": "feeShare",
              "type": "uint256"
            },
            {
              "internalType": "address",
              "name": "feeAddress",
              "type": "address"
            }
          ],
          "internalType": "struct rentEscrowInterface.RedeemProposal",
          "name": "redeemProposal",
          "type": "tuple"
        }
      ],
      "stateMutability": "view",
      "type": "function",
      "constant": true
    },
    {
      "inputs": [
        {
          "internalType": "address",
          "name": "_resolverAddress",
          "type": "address"
        }
      ],
      "name": "setResolverAddress",
      "outputs": [],
      "stateMutability": "nonpayable",
      "type": "function"
    },
    {
      "inputs": [
        {
          "internalType": "uint256",
          "name": "_escrowValue",
          "type": "uint256"
        },
        {
          "internalType": "string",
          "name": "_contractDetail",
          "type": "string"
        }
      ],
      "name": "proposeNewContract",
      "outputs": [],
      "stateMutability": "nonpayable",
      "type": "function"
    },
    {
      "inputs": [
        {
          "internalType": "uint256",
          "name": "_rentId",
          "type": "uint256"
        }
      ],
      "name": "acceptNewContract",
      "outputs": [],
      "stateMutability": "payable",
      "type": "function",
      "payable": true
    },
    {
      "inputs": [
        {
          "internalType": "uint256",
          "name": "_rentId",
          "type": "uint256"
        },
        {
          "internalType": "uint256",
          "name": "_tenantShare",
          "type": "uint256"
        },
        {
          "internalType": "uint256",
          "name": "_landlordShare",
          "type": "uint256"
        },
        {
          "internalType": "uint256",
          "name": "_feeShare",
          "type": "uint256"
        }
      ],
      "name": "createRedeemProposal",
      "outputs": [],
      "stateMutability": "nonpayable",
      "type": "function"
    },
    {
      "inputs": [
        {
          "internalType": "uint256",
          "name": "_rentId",
          "type": "uint256"
        }
      ],
      "name": "acceptRedeemProposal",
      "outputs": [],
      "stateMutability": "nonpayable",
      "type": "function"
    },
    {
      "inputs": [
        {
          "internalType": "uint256",
          "name": "_rentId",
          "type": "uint256"
        }
      ],
      "name": "rejectRedeemProposal",
      "outputs": [],
      "stateMutability": "nonpayable",
      "type": "function"
    },
    {
      "inputs": [
        {
          "internalType": "uint256",
          "name": "_rentId",
          "type": "uint256"
        }
      ],
      "name": "disputeRedeemProposal",
      "outputs": [],
      "stateMutability": "nonpayable",
      "type": "function"
    },
    {
      "inputs": [],
      "name": "devGetBalance",
      "outputs": [
        {
          "internalType": "uint256",
          "name": "",
          "type": "uint256"
        }
      ],
      "stateMutability": "view",
      "type": "function",
      "constant": true
    },
    {
      "inputs": [],
      "name": "getContractToResolve",
      "outputs": [
        {
          "components": [
            {
              "internalType": "uint256",
              "name": "rentId",
              "type": "uint256"
            },
            {
              "internalType": "address",
              "name": "tenant",
              "type": "address"
            },
            {
              "internalType": "address",
              "name": "landlord",
              "type": "address"
            },
            {
              "internalType": "uint256",
              "name": "escrowValue",
              "type": "uint256"
            },
            {
              "internalType": "string",
              "name": "contractDetail",
              "type": "string"
            },
            {
              "internalType": "uint256",
              "name": "status",
              "type": "uint256"
            },
            {
              "components": [
                {
                  "internalType": "uint256",
                  "name": "tenantShare",
                  "type": "uint256"
                },
                {
                  "internalType": "uint256",
                  "name": "landlordShare",
                  "type": "uint256"
                },
                {
                  "internalType": "uint256",
                  "name": "feeShare",
                  "type": "uint256"
                },
                {
                  "internalType": "address",
                  "name": "feeAddress",
                  "type": "address"
                }
              ],
              "internalType": "struct rentEscrowInterface.RedeemProposal",
              "name": "redeemProposal",
              "type": "tuple"
            }
          ],
          "internalType": "struct rentEscrowInterface.RentContract",
          "name": "",
          "type": "tuple"
        }
      ],
      "stateMutability": "view",
      "type": "function",
      "constant": true
    },
    {
      "inputs": [],
      "name": "getContractsByAddress",
      "outputs": [
        {
          "internalType": "uint256[]",
          "name": "",
          "type": "uint256[]"
        }
      ],
      "stateMutability": "view",
      "type": "function",
      "constant": true
    },
    {
      "inputs": [
        {
          "internalType": "uint256",
          "name": "_rentId",
          "type": "uint256"
        }
      ],
      "name": "getContractDetails",
      "outputs": [
        {
          "components": [
            {
              "internalType": "uint256",
              "name": "rentId",
              "type": "uint256"
            },
            {
              "internalType": "address",
              "name": "tenant",
              "type": "address"
            },
            {
              "internalType": "address",
              "name": "landlord",
              "type": "address"
            },
            {
              "internalType": "uint256",
              "name": "escrowValue",
              "type": "uint256"
            },
            {
              "internalType": "string",
              "name": "contractDetail",
              "type": "string"
            },
            {
              "internalType": "uint256",
              "name": "status",
              "type": "uint256"
            },
            {
              "components": [
                {
                  "internalType": "uint256",
                  "name": "tenantShare",
                  "type": "uint256"
                },
                {
                  "internalType": "uint256",
                  "name": "landlordShare",
                  "type": "uint256"
                },
                {
                  "internalType": "uint256",
                  "name": "feeShare",
                  "type": "uint256"
                },
                {
                  "internalType": "address",
                  "name": "feeAddress",
                  "type": "address"
                }
              ],
              "internalType": "struct rentEscrowInterface.RedeemProposal",
              "name": "redeemProposal",
              "type": "tuple"
            }
          ],
          "internalType": "struct rentEscrowInterface.RentContract",
          "name": "",
          "type": "tuple"
        }
      ],
      "stateMutability": "view",
      "type": "function",
      "constant": true
    }
  ],
  "bytecode": "0x6080604052600060025534801561001557600080fd5b50612adf806100256000396000f3fe6080604052600436106100f35760003560e01c806385b589631161008a578063b59146f711610059578063b59146f714610347578063b61f5f5314610370578063bcb30fba1461039b578063dd28218b146103c4576100f3565b806385b58963146102885780638922dfbf146102a457806396d65c3e146102e1578063a6dd42761461031e576100f3565b80634d6d6a9c116100c65780634d6d6a9c146101b45780636b695d24146101f15780637395eb41146102345780637afc2d561461025f576100f3565b8063039ed501146100f857806307e31e2b146101235780630e9008fe146101605780632458cc3e14610189575b600080fd5b34801561010457600080fd5b5061010d6103ed565b60405161011a9190611ba3565b60405180910390f35b34801561012f57600080fd5b5061014a60048036038101906101459190611d18565b6103f3565b6040516101579190611de9565b60405180910390f35b34801561016c57600080fd5b5061018760048036038101906101829190611e37565b6104a9565b005b34801561019557600080fd5b5061019e610729565b6040516101ab9190611ba3565b60405180910390f35b3480156101c057600080fd5b506101db60048036038101906101d69190611e9e565b610731565b6040516101e89190612057565b60405180910390f35b3480156101fd57600080fd5b5061021860048036038101906102139190611e9e565b610941565b60405161022b97969594939291906120dd565b60405180910390f35b34801561024057600080fd5b50610249610ac9565b6040516102569190612057565b60405180910390f35b34801561026b57600080fd5b5061028660048036038101906102819190611e9e565b610cde565b005b6102a2600480360381019061029d9190611e9e565b611106565b005b3480156102b057600080fd5b506102cb60048036038101906102c69190611d18565b6112d5565b6040516102d89190612154565b60405180910390f35b3480156102ed57600080fd5b506103086004803603810190610303919061219b565b61131e565b6040516103159190611ba3565b60405180910390f35b34801561032a57600080fd5b5061034560048036038101906103409190611e9e565b61134f565b005b34801561035357600080fd5b5061036e600480360381019061036991906121db565b6114d4565b005b34801561037c57600080fd5b506103856116f2565b60405161039291906122e6565b60405180910390f35b3480156103a757600080fd5b506103c260048036038101906103bd9190611e9e565b611787565b005b3480156103d057600080fd5b506103eb60048036038101906103e69190612308565b61190d565b005b60025481565b600481805160208101820180518482526020830160208501208183528095505050505050600091509050805461042890612364565b80601f016020809104026020016040519081016040528092919081815260200182805461045490612364565b80156104a15780601f10610476576101008083540402835291602001916104a1565b820191906000526020600020905b81548152906001019060200180831161048457829003601f168201915b505050505081565b60008183856104b891906123c5565b6104c291906123c5565b905060648114610507576040517f08c379a00000000000000000000000000000000000000000000000000000000081526004016104fe9061248d565b60405180910390fd5b60008086815260200190815260200160002060020160009054906101000a900473ffffffffffffffffffffffffffffffffffffffff1673ffffffffffffffffffffffffffffffffffffffff163373ffffffffffffffffffffffffffffffffffffffff1614806105dd5750600360405161057f90612504565b908152602001604051809103902060009054906101000a900473ffffffffffffffffffffffffffffffffffffffff1673ffffffffffffffffffffffffffffffffffffffff163373ffffffffffffffffffffffffffffffffffffffff16145b61061c576040517f08c379a00000000000000000000000000000000000000000000000000000000081526004016106139061258b565b60405180910390fd5b836000808781526020019081526020016000206006016000018190555082600080878152602001908152602001600020600601600101819055508160008087815260200190815260200160002060060160020181905550600360405161068190612504565b908152602001604051809103902060009054906101000a900473ffffffffffffffffffffffffffffffffffffffff1660008087815260200190815260200160002060060160030160006101000a81548173ffffffffffffffffffffffffffffffffffffffff021916908373ffffffffffffffffffffffffffffffffffffffff16021790555061012c600080878152602001908152602001600020600501819055505050505050565b600047905090565b610739611a3a565b6000808381526020019081526020016000206040518060e0016040529081600082015481526020016001820160009054906101000a900473ffffffffffffffffffffffffffffffffffffffff1673ffffffffffffffffffffffffffffffffffffffff1673ffffffffffffffffffffffffffffffffffffffff1681526020016002820160009054906101000a900473ffffffffffffffffffffffffffffffffffffffff1673ffffffffffffffffffffffffffffffffffffffff1673ffffffffffffffffffffffffffffffffffffffff1681526020016003820154815260200160048201805461082690612364565b80601f016020809104026020016040519081016040528092919081815260200182805461085290612364565b801561089f5780601f106108745761010080835404028352916020019161089f565b820191906000526020600020905b81548152906001019060200180831161088257829003601f168201915b5050505050815260200160058201548152602001600682016040518060800160405290816000820154815260200160018201548152602001600282015481526020016003820160009054906101000a900473ffffffffffffffffffffffffffffffffffffffff1673ffffffffffffffffffffffffffffffffffffffff1673ffffffffffffffffffffffffffffffffffffffff1681525050815250509050919050565b60006020528060005260406000206000915090508060000154908060010160009054906101000a900473ffffffffffffffffffffffffffffffffffffffff16908060020160009054906101000a900473ffffffffffffffffffffffffffffffffffffffff16908060030154908060040180546109bc90612364565b80601f01602080910402602001604051908101604052809291908181526020018280546109e890612364565b8015610a355780601f10610a0a57610100808354040283529160200191610a35565b820191906000526020600020905b815481529060010190602001808311610a1857829003601f168201915b505050505090806005015490806006016040518060800160405290816000820154815260200160018201548152602001600282015481526020016003820160009054906101000a900473ffffffffffffffffffffffffffffffffffffffff1673ffffffffffffffffffffffffffffffffffffffff1673ffffffffffffffffffffffffffffffffffffffff1681525050905087565b610ad1611a3a565b6000600190506000808281526020019081526020016000206040518060e0016040529081600082015481526020016001820160009054906101000a900473ffffffffffffffffffffffffffffffffffffffff1673ffffffffffffffffffffffffffffffffffffffff1673ffffffffffffffffffffffffffffffffffffffff1681526020016002820160009054906101000a900473ffffffffffffffffffffffffffffffffffffffff1673ffffffffffffffffffffffffffffffffffffffff1673ffffffffffffffffffffffffffffffffffffffff16815260200160038201548152602001600482018054610bc490612364565b80601f0160208091040260200160405190810160405280929190818152602001828054610bf090612364565b8015610c3d5780601f10610c1257610100808354040283529160200191610c3d565b820191906000526020600020905b815481529060010190602001808311610c2057829003601f168201915b5050505050815260200160058201548152602001600682016040518060800160405290816000820154815260200160018201548152602001600282015481526020016003820160009054906101000a900473ffffffffffffffffffffffffffffffffffffffff1673ffffffffffffffffffffffffffffffffffffffff1673ffffffffffffffffffffffffffffffffffffffff16815250508152505091505090565b60008082815260200190815260200160002060010160009054906101000a900473ffffffffffffffffffffffffffffffffffffffff1673ffffffffffffffffffffffffffffffffffffffff163373ffffffffffffffffffffffffffffffffffffffff161480610db457506003604051610d5690612504565b908152602001604051809103902060009054906101000a900473ffffffffffffffffffffffffffffffffffffffff1673ffffffffffffffffffffffffffffffffffffffff163373ffffffffffffffffffffffffffffffffffffffff16145b610df3576040517f08c379a0000000000000000000000000000000000000000000000000000000008152600401610dea9061261d565b60405180910390fd5b6000806000838152602001908152602001600020600301549050600080600084815260200190815260200160002060010160009054906101000a900473ffffffffffffffffffffffffffffffffffffffff169050600060646000808681526020019081526020016000206006016000015484610e6f919061263d565b610e7991906126c6565b9050600080600086815260200190815260200160002060020160009054906101000a900473ffffffffffffffffffffffffffffffffffffffff169050600060646000808881526020019081526020016000206006016001015486610edd919061263d565b610ee791906126c6565b9050600080600088815260200190815260200160002060060160030160009054906101000a900473ffffffffffffffffffffffffffffffffffffffff169050600060646000808a81526020019081526020016000206006016002015488610f4e919061263d565b610f5891906126c6565b905086818487610f6891906123c5565b610f7291906123c5565b14610fb2576040517f08c379a0000000000000000000000000000000000000000000000000000000008152600401610fa99061278f565b60405180910390fd5b61012c6000808a8152602001908152602001600020600501541461100b576040517f08c379a0000000000000000000000000000000000000000000000000000000008152600401611002906127fb565b60405180910390fd5b6101906000808a8152602001908152602001600020600501819055508573ffffffffffffffffffffffffffffffffffffffff166108fc869081150290604051600060405180830381858888f1935050505015801561106d573d6000803e3d6000fd5b508373ffffffffffffffffffffffffffffffffffffffff166108fc849081150290604051600060405180830381858888f193505050501580156110b4573d6000803e3d6000fd5b508173ffffffffffffffffffffffffffffffffffffffff166108fc829081150290604051600060405180830381858888f193505050501580156110fb573d6000803e3d6000fd5b505050505050505050565b60008082815260200190815260200160002060030154341461115d576040517f08c379a00000000000000000000000000000000000000000000000000000000081526004016111549061288d565b60405180910390fd5b60008082815260200190815260200160002060020160009054906101000a900473ffffffffffffffffffffffffffffffffffffffff1673ffffffffffffffffffffffffffffffffffffffff163373ffffffffffffffffffffffffffffffffffffffff161415611201576040517f08c379a00000000000000000000000000000000000000000000000000000000081526004016111f89061291f565b60405180910390fd5b6000808281526020019081526020016000206005015460c8141561125a576040517f08c379a00000000000000000000000000000000000000000000000000000000081526004016112519061298b565b60405180910390fd5b3360008083815260200190815260200160002060010160006101000a81548173ffffffffffffffffffffffffffffffffffffffff021916908373ffffffffffffffffffffffffffffffffffffffff16021790555060c8600080838152602001908152602001600020600501819055506112d2816119d1565b50565b6003818051602081018201805184825260208301602085012081835280955050505050506000915054906101000a900473ffffffffffffffffffffffffffffffffffffffff1681565b6001602052816000526040600020818154811061133a57600080fd5b90600052602060002001600091509150505481565b60008082815260200190815260200160002060010160009054906101000a900473ffffffffffffffffffffffffffffffffffffffff1673ffffffffffffffffffffffffffffffffffffffff163373ffffffffffffffffffffffffffffffffffffffff16148061141e575060008082815260200190815260200160002060020160009054906101000a900473ffffffffffffffffffffffffffffffffffffffff1673ffffffffffffffffffffffffffffffffffffffff163373ffffffffffffffffffffffffffffffffffffffff16145b61145d576040517f08c379a000000000000000000000000000000000000000000000000000000000815260040161145490612a1d565b60405180910390fd5b61012c60008083815260200190815260200160002060050154146114b6576040517f08c379a00000000000000000000000000000000000000000000000000000000081526004016114ad90612a89565b60405180910390fd5b60c86000808381526020019081526020016000206005018190555050565b6114dc611a3a565b60025481600001818152505033816040019073ffffffffffffffffffffffffffffffffffffffff16908173ffffffffffffffffffffffffffffffffffffffff16815250508281606001818152505081816080018190525060648160a00181815250508060008060025481526020019081526020016000206000820151816000015560208201518160010160006101000a81548173ffffffffffffffffffffffffffffffffffffffff021916908373ffffffffffffffffffffffffffffffffffffffff16021790555060408201518160020160006101000a81548173ffffffffffffffffffffffffffffffffffffffff021916908373ffffffffffffffffffffffffffffffffffffffff160217905550606082015181600301556080820151816004019080519060200190611611929190611aa9565b5060a0820151816005015560c08201518160060160008201518160000155602082015181600101556040820151816002015560608201518160030160006101000a81548173ffffffffffffffffffffffffffffffffffffffff021916908373ffffffffffffffffffffffffffffffffffffffff160217905550505090505061169a6002546119d1565b7fa44f460f2ac523b4a38d95d97950a776d7bf0adbaff2501d321f040e3d661e466002546040516116cb9190611ba3565b60405180910390a16001600260008282546116e691906123c5565b92505081905550505050565b6060600160003373ffffffffffffffffffffffffffffffffffffffff1673ffffffffffffffffffffffffffffffffffffffff16815260200190815260200160002080548060200260200160405190810160405280929190818152602001828054801561177d57602002820191906000526020600020905b815481526020019060010190808311611769575b5050505050905090565b60008082815260200190815260200160002060010160009054906101000a900473ffffffffffffffffffffffffffffffffffffffff1673ffffffffffffffffffffffffffffffffffffffff163373ffffffffffffffffffffffffffffffffffffffff161480611856575060008082815260200190815260200160002060020160009054906101000a900473ffffffffffffffffffffffffffffffffffffffff1673ffffffffffffffffffffffffffffffffffffffff163373ffffffffffffffffffffffffffffffffffffffff16145b611895576040517f08c379a000000000000000000000000000000000000000000000000000000000815260040161188c90612a1d565b60405180910390fd5b61012c60008083815260200190815260200160002060050154146118ee576040517f08c379a00000000000000000000000000000000000000000000000000000000081526004016118e590612a89565b60405180910390fd5b6101366000808381526020019081526020016000206005018190555050565b80600360405161191c90612504565b908152602001604051809103902060006101000a81548173ffffffffffffffffffffffffffffffffffffffff021916908373ffffffffffffffffffffffffffffffffffffffff1602179055506040518060400160405280600581526020017f48656c6c6f00000000000000000000000000000000000000000000000000000081525060046040516119ac90612504565b908152602001604051809103902090805190602001906119cd929190611aa9565b5050565b600160003373ffffffffffffffffffffffffffffffffffffffff1673ffffffffffffffffffffffffffffffffffffffff16815260200190815260200160002081908060018154018082558091505060019003906000526020600020016000909190919091505550565b6040518060e0016040528060008152602001600073ffffffffffffffffffffffffffffffffffffffff168152602001600073ffffffffffffffffffffffffffffffffffffffff168152602001600081526020016060815260200160008152602001611aa3611b2f565b81525090565b828054611ab590612364565b90600052602060002090601f016020900481019282611ad75760008555611b1e565b82601f10611af057805160ff1916838001178555611b1e565b82800160010185558215611b1e579182015b82811115611b1d578251825591602001919060010190611b02565b5b509050611b2b9190611b6d565b5090565b6040518060800160405280600081526020016000815260200160008152602001600073ffffffffffffffffffffffffffffffffffffffff1681525090565b5b80821115611b86576000816000905550600101611b6e565b5090565b6000819050919050565b611b9d81611b8a565b82525050565b6000602082019050611bb86000830184611b94565b92915050565b6000604051905090565b600080fd5b600080fd5b600080fd5b600080fd5b6000601f19601f8301169050919050565b7f4e487b7100000000000000000000000000000000000000000000000000000000600052604160045260246000fd5b611c2582611bdc565b810181811067ffffffffffffffff82111715611c4457611c43611bed565b5b80604052505050565b6000611c57611bbe565b9050611c638282611c1c565b919050565b600067ffffffffffffffff821115611c8357611c82611bed565b5b611c8c82611bdc565b9050602081019050919050565b82818337600083830152505050565b6000611cbb611cb684611c68565b611c4d565b905082815260208101848484011115611cd757611cd6611bd7565b5b611ce2848285611c99565b509392505050565b600082601f830112611cff57611cfe611bd2565b5b8135611d0f848260208601611ca8565b91505092915050565b600060208284031215611d2e57611d2d611bc8565b5b600082013567ffffffffffffffff811115611d4c57611d4b611bcd565b5b611d5884828501611cea565b91505092915050565b600081519050919050565b600082825260208201905092915050565b60005b83811015611d9b578082015181840152602081019050611d80565b83811115611daa576000848401525b50505050565b6000611dbb82611d61565b611dc58185611d6c565b9350611dd5818560208601611d7d565b611dde81611bdc565b840191505092915050565b60006020820190508181036000830152611e038184611db0565b905092915050565b611e1481611b8a565b8114611e1f57600080fd5b50565b600081359050611e3181611e0b565b92915050565b60008060008060808587031215611e5157611e50611bc8565b5b6000611e5f87828801611e22565b9450506020611e7087828801611e22565b9350506040611e8187828801611e22565b9250506060611e9287828801611e22565b91505092959194509250565b600060208284031215611eb457611eb3611bc8565b5b6000611ec284828501611e22565b91505092915050565b611ed481611b8a565b82525050565b600073ffffffffffffffffffffffffffffffffffffffff82169050919050565b6000611f0582611eda565b9050919050565b611f1581611efa565b82525050565b600082825260208201905092915050565b6000611f3782611d61565b611f418185611f1b565b9350611f51818560208601611d7d565b611f5a81611bdc565b840191505092915050565b608082016000820151611f7b6000850182611ecb565b506020820151611f8e6020850182611ecb565b506040820151611fa16040850182611ecb565b506060820151611fb46060850182611f0c565b50505050565b600061014083016000830151611fd36000860182611ecb565b506020830151611fe66020860182611f0c565b506040830151611ff96040860182611f0c565b50606083015161200c6060860182611ecb565b50608083015184820360808601526120248282611f2c565b91505060a083015161203960a0860182611ecb565b5060c083015161204c60c0860182611f65565b508091505092915050565b600060208201905081810360008301526120718184611fba565b905092915050565b61208281611efa565b82525050565b60808201600082015161209e6000850182611ecb565b5060208201516120b16020850182611ecb565b5060408201516120c46040850182611ecb565b5060608201516120d76060850182611f0c565b50505050565b6000610140820190506120f3600083018a611b94565b6121006020830189612079565b61210d6040830188612079565b61211a6060830187611b94565b818103608083015261212c8186611db0565b905061213b60a0830185611b94565b61214860c0830184612088565b98975050505050505050565b60006020820190506121696000830184612079565b92915050565b61217881611efa565b811461218357600080fd5b50565b6000813590506121958161216f565b92915050565b600080604083850312156121b2576121b1611bc8565b5b60006121c085828601612186565b92505060206121d185828601611e22565b9150509250929050565b600080604083850312156121f2576121f1611bc8565b5b600061220085828601611e22565b925050602083013567ffffffffffffffff81111561222157612220611bcd565b5b61222d85828601611cea565b9150509250929050565b600081519050919050565b600082825260208201905092915050565b6000819050602082019050919050565b600061226f8383611ecb565b60208301905092915050565b6000602082019050919050565b600061229382612237565b61229d8185612242565b93506122a883612253565b8060005b838110156122d95781516122c08882612263565b97506122cb8361227b565b9250506001810190506122ac565b5085935050505092915050565b600060208201905081810360008301526123008184612288565b905092915050565b60006020828403121561231e5761231d611bc8565b5b600061232c84828501612186565b91505092915050565b7f4e487b7100000000000000000000000000000000000000000000000000000000600052602260045260246000fd5b6000600282049050600182168061237c57607f821691505b602082108114156123905761238f612335565b5b50919050565b7f4e487b7100000000000000000000000000000000000000000000000000000000600052601160045260246000fd5b60006123d082611b8a565b91506123db83611b8a565b9250827fffffffffffffffffffffffffffffffffffffffffffffffffffffffffffffffff038211156124105761240f612396565b5b828201905092915050565b7f54656e616e745368617265202b204c616e646c6f7264205368617265202b204660008201527f6565205368617265206973206e6f742031303025000000000000000000000000602082015250565b6000612477603483611d6c565b91506124828261241b565b604082019050919050565b600060208201905081810360008301526124a68161246a565b9050919050565b600081905092915050565b7f5265736f6c766572416464726573730000000000000000000000000000000000600082015250565b60006124ee600f836124ad565b91506124f9826124b8565b600f82019050919050565b600061250f826124e1565b9150819050919050565b7f4f6e6c79204c616e646c6f7264206f72205265736f6c7665722063616e20637260008201527f656174652072656465656d2070726f706f73616c000000000000000000000000602082015250565b6000612575603483611d6c565b915061258082612519565b604082019050919050565b600060208201905081810360008301526125a481612568565b9050919050565b7f4f6e6c792074656e616e742063616e206163636570742072656465656d20707260008201527f6f706f73616c0000000000000000000000000000000000000000000000000000602082015250565b6000612607602683611d6c565b9150612612826125ab565b604082019050919050565b60006020820190508181036000830152612636816125fa565b9050919050565b600061264882611b8a565b915061265383611b8a565b9250817fffffffffffffffffffffffffffffffffffffffffffffffffffffffffffffffff048311821515161561268c5761268b612396565b5b828202905092915050565b7f4e487b7100000000000000000000000000000000000000000000000000000000600052601260045260246000fd5b60006126d182611b8a565b91506126dc83611b8a565b9250826126ec576126eb612697565b5b828204905092915050565b7f54656e616e745368617265202b204c616e646c6f7264205368617265202b204660008201527f656520536861726520646f6573206e6f7420657175616c20457363726f77205660208201527f616c756500000000000000000000000000000000000000000000000000000000604082015250565b6000612779604483611d6c565b9150612784826126f7565b606082019050919050565b600060208201905081810360008301526127a88161276c565b9050919050565b7f457363726f7720737461747573206d7573742062652033303000000000000000600082015250565b60006127e5601983611d6c565b91506127f0826127af565b602082019050919050565b60006020820190508181036000830152612814816127d8565b9050919050565b7f4574682073656e74206973206e6f742073616d6520617320657363726f77566160008201527f6c75650000000000000000000000000000000000000000000000000000000000602082015250565b6000612877602383611d6c565b91506128828261281b565b604082019050919050565b600060208201905081810360008301526128a68161286a565b9050919050565b7f54656e616e7420616e64204c616e646c6f7264206d757374206e6f742062652060008201527f73616d6520616464726573736573000000000000000000000000000000000000602082015250565b6000612909602e83611d6c565b9150612914826128ad565b604082019050919050565b60006020820190508181036000830152612938816128fc565b9050919050565b7f436f6e747261637420616c726561647920616363657074656400000000000000600082015250565b6000612975601983611d6c565b91506129808261293f565b602082019050919050565b600060208201905081810360008301526129a481612968565b9050919050565b7f4f6e6c792074656e616e74206f72206c616e646c6f72642063616e206163636560008201527f70742072656465656d2070726f706f73616c0000000000000000000000000000602082015250565b6000612a07603283611d6c565b9150612a12826129ab565b604082019050919050565b60006020820190508181036000830152612a36816129fa565b9050919050565b7f416c72656164792072656a6563746564206f7220616363657074656400000000600082015250565b6000612a73601c83611d6c565b9150612a7e82612a3d565b602082019050919050565b60006020820190508181036000830152612aa281612a66565b905091905056fea26469706673582212205b0195480730ab3c4cc99892bb8dcd319ab4e408ce395e322ffbcbc6cba936ef64736f6c634300080a0033",
  "immutableReferences": {},
  "source": "// SPDX-License-Identifier:\tCC-BY-4.0\npragma solidity ^0.8.10;\n\ninterface rentEscrowInterface { \n\n    struct RentContract {\n            uint rentId;\n            address tenant;\n            address landlord;\n            uint256 escrowValue;\n            string contractDetail;\n            uint status; ///@dev 100 Proposed; 200 Accepted by Tenant; 300 Redeem Proposal created; 310 Dispute Redeem; 400 Escrow Redeemed\n            RedeemProposal redeemProposal;\n        }\n\n    struct RedeemProposal {\n        uint tenantShare;\n        uint landlordShare;\n        uint feeShare;\n        address feeAddress;\n    }\n\n    function getContractToResolve () external view returns (RentContract memory);\n    function createRedeemProposal (uint _rentId, uint _tenantShare, uint _landlordShare, uint _feeShare ) external;\n    function acceptRedeemProposal(uint _rentId) external;\n    }\n\ncontract rentEscrow is rentEscrowInterface {\n///@custom:navigation Events\n    event sendAddressRent (address _message); \n    event sendStringRent (string _message); \n    event sendIdRent (uint _message); \n    ///@dev in order to give some feedback that rentcontract was created, we will emit its id. Later maybe be filled with some other\n    event rentContractId (uint _rentId);\n\n///@custom:navigation Mappings\n    mapping(uint => RentContract) public rentContractsMapping;\n\n    // will use this to search contracts by address\n    mapping(address => uint[]) public addressMapping;\n    uint public nextRentId = 0;\n\n\n    ///@dev this contracf address is allowed to trigger redeem proposal creation\n    mapping(string => address) public importantAddresses;\n    mapping(string => string) public importantStrings;\n\n    ///@dev sets\n    function setResolverAddress (address _resolverAddress) public  {\n        importantAddresses[\"ResolverAddress\"] = _resolverAddress;\n        importantStrings[\"ResolverAddress\"] = \"Hello\";\n    }\n///@custom:navigation RentContracts\n    function proposeNewContract (uint256 _escrowValue, string memory _contractDetail) external {\n        RentContract memory myRentContract;\n     \n        myRentContract.rentId = nextRentId;\n        myRentContract.landlord = msg.sender;\n        myRentContract.escrowValue = _escrowValue;\n        myRentContract.contractDetail = _contractDetail;\n        myRentContract.status = 100;\n        \n        rentContractsMapping[nextRentId] = myRentContract; //Later: Change to nextId to hashed ID\n        updateAddressMapping(nextRentId);\n        emit rentContractId(nextRentId);\n        \n        nextRentId += 1;\n\n    }\n\n    function acceptNewContract (uint _rentId) external payable{\n        require(msg.value == rentContractsMapping[_rentId].escrowValue, \"Eth sent is not same as escrowValue\");\n        require(msg.sender != rentContractsMapping[_rentId].landlord, \"Tenant and Landlord must not be same addresses\");\n        require(200 != rentContractsMapping[_rentId].status, \"Contract already accepted\");\n        \n        rentContractsMapping[_rentId].tenant = msg.sender;\n        rentContractsMapping[_rentId].status = 200;\n\n        updateAddressMapping(_rentId);\n\n    }\n///@custom:navigation Redeems\n    function createRedeemProposal (uint _rentId, uint _tenantShare, uint _landlordShare, uint _feeShare ) external {\n        \n        uint shareSum = _tenantShare + _landlordShare + _feeShare;\n        require(shareSum == 100, \"TenantShare + Landlord Share + Fee Share is not 100%\" );\n\n        //only landlord or resolver can create redeemProposal\n        // test required\n        require(msg.sender ==  rentContractsMapping[_rentId].landlord || msg.sender == importantAddresses[\"ResolverAddress\"] , \"Only Landlord or Resolver can create redeem proposal\");\n\n        rentContractsMapping[_rentId].redeemProposal.tenantShare = _tenantShare;\n        rentContractsMapping[_rentId].redeemProposal.landlordShare = _landlordShare;\n        rentContractsMapping[_rentId].redeemProposal.feeShare = _feeShare;\n        //Later: fee address must be protected\n        rentContractsMapping[_rentId].redeemProposal.feeAddress = importantAddresses[\"ResolverAddress\"];\n        rentContractsMapping[_rentId].status = 300;\n    \n    }\n\n    function acceptRedeemProposal(uint _rentId) external {\n        //only tenant can accept redeemProposal\n        // test required\n        require(msg.sender ==  rentContractsMapping[_rentId].tenant || msg.sender == importantAddresses[\"ResolverAddress\"],\"Only tenant can accept redeem proposal\");\n\n        \n        uint escrowValue = rentContractsMapping[_rentId].escrowValue;\n        // send to tenant\n        address payable tenantAddress = payable(rentContractsMapping[_rentId].tenant);\n        uint escrowTenant = escrowValue * rentContractsMapping[_rentId].redeemProposal.tenantShare / 100;\n\n         // send to landlord\n        address payable landlordAddress = payable(rentContractsMapping[_rentId].landlord);\n        uint escrowLandlord = escrowValue * rentContractsMapping[_rentId].redeemProposal.landlordShare / 100;\n\n        // send to fee\n        address payable feeAddress = payable(rentContractsMapping[_rentId].redeemProposal.feeAddress);\n        uint fee = escrowValue * rentContractsMapping[_rentId].redeemProposal.feeShare / 100;\n\n        //values to send must equal to escrowValue\n        require((escrowTenant + escrowLandlord + fee) == escrowValue, \"TenantShare + Landlord Share + Fee Share does not equal Escrow Value\");\n\n        // status must be 300 (proposed), to avoid double dip\n        require(rentContractsMapping[_rentId].status == 300, \"Escrow status must be 300\");\n        rentContractsMapping[_rentId].status = 400;\n\n        //Later: would it make sense to stop any redemptions in case sum of individual escrows is below total balance ???\n        \n        //Sending\n        tenantAddress.transfer(escrowTenant);\n        landlordAddress.transfer(escrowLandlord);\n        feeAddress.transfer(fee);    \n    }\n\n    ///@notice Use this function to reject redeem proposal. Will send it to the resolution centre\n    ///@param _rentId identifies the contract between tenant and landlord\n\n    function rejectRedeemProposal(uint _rentId) external {\n        ///@dev UX has a say here, currently tenant and landlord can reject at any time\n        require((msg.sender ==  rentContractsMapping[_rentId].tenant || msg.sender == rentContractsMapping[_rentId].landlord), \"Only tenant or landlord can accept redeem proposal\");\n        \n        require(rentContractsMapping[_rentId].status == 300, \"Already rejected or accepted\");\n\n        rentContractsMapping[_rentId].status = 200;\n\n        }\n\n    function disputeRedeemProposal(uint _rentId) external {\n        ///@dev UX has a say here, currently tenant and landlord can dispute at any time\n        require((msg.sender ==  rentContractsMapping[_rentId].tenant || msg.sender == rentContractsMapping[_rentId].landlord), \"Only tenant or landlord can accept redeem proposal\");\n        \n        require(rentContractsMapping[_rentId].status == 300, \"Already rejected or accepted\");\n\n        rentContractsMapping[_rentId].status = 310;\n\n        }\n \n///@custom:navigation Development Helpers\n    function devGetBalance () external view returns(uint){\n        return(address(this).balance);\n    }\n    ///@dev this is used by retrieve mapping by another contract\n    ///@custom:later now gives just first contract. Need to add logic to return contract where redeemProposal was rejected\n    function getContractToResolve () external view returns (RentContract memory) {\n         uint _rentId = 1;\n         return rentContractsMapping[_rentId];\n        }\n    \n    ///@dev Should go to some utils contract\n    function updateAddressMapping (uint _rentId) internal {\n        addressMapping[msg.sender].push(_rentId);\n        }\n\n    ///@notice returns all contracts  where sender is involved party\n    function getContractsByAddress () external view returns ( uint[] memory ){\n    return addressMapping[msg.sender];\n\n        }\n    ///@notice returns RentContract\n    function getContractDetails (uint _rentId) external view returns (RentContract memory) {\n        return rentContractsMapping[_rentId];\n    }\n}",
  "sourcePath": "/Users/andy/my_repos/rentEscrow/contracts/rentEscrow.sol",
  "compiler": {
    "name": "solc",
    "version": "0.8.10+commit.fc410830.Emscripten.clang"
  },
  "schemaVersion": "3.4.5",
  "updatedAt": "2022-03-26T08:39:53.206Z",
  "networkType": "ethereum",
  "devdoc": {
    "events": {
      "rentContractId(uint256)": {
        "details": "in order to give some feedback that rentcontract was created, we will emit its id. Later maybe be filled with some other"
      },
      "sendAddressRent(address)": {
        "custom:navigation": "Events"
      }
    },
    "kind": "dev",
    "methods": {
      "createRedeemProposal(uint256,uint256,uint256,uint256)": {
        "custom:navigation": "Redeems"
      },
      "devGetBalance()": {
        "custom:navigation": "Development Helpers"
      },
      "getContractToResolve()": {
        "custom:later": "now gives just first contract. Need to add logic to return contract where redeemProposal was rejected",
        "details": "this is used by retrieve mapping by another contract"
      },
      "proposeNewContract(uint256,string)": {
        "custom:navigation": "RentContracts"
      },
      "rejectRedeemProposal(uint256)": {
        "params": {
          "_rentId": "identifies the contract between tenant and landlord"
        }
      },
      "setResolverAddress(address)": {
        "details": "sets"
      }
    },
    "stateVariables": {
      "importantAddresses": {
        "details": "this contracf address is allowed to trigger redeem proposal creation"
      },
      "rentContractsMapping": {
        "custom:navigation": "Mappings"
      }
    },
    "version": 1
  },
  "userdoc": {
    "kind": "user",
    "methods": {
      "getContractDetails(uint256)": {
        "notice": "returns RentContract"
      },
      "getContractsByAddress()": {
        "notice": "returns all contracts  where sender is involved party"
      },
      "rejectRedeemProposal(uint256)": {
        "notice": "Use this function to reject redeem proposal. Will send it to the resolution centre"
      }
    },
    "version": 1
  }
}