{
  "contractName": "rentEscrow",
  "abi": [
    {
      "anonymous": false,
      "inputs": [
        {
          "indexed": false,
          "internalType": "uint256",
          "name": "_rentId",
          "type": "uint256"
        }
      ],
      "name": "rentContractId",
      "type": "event"
    },
    {
      "anonymous": false,
      "inputs": [
        {
          "indexed": false,
          "internalType": "address",
          "name": "_message",
          "type": "address"
        }
      ],
      "name": "sendAddressRent",
      "type": "event"
    },
    {
      "anonymous": false,
      "inputs": [
        {
          "indexed": false,
          "internalType": "uint256",
          "name": "_message",
          "type": "uint256"
        }
      ],
      "name": "sendIdRent",
      "type": "event"
    },
    {
      "anonymous": false,
      "inputs": [
        {
          "indexed": false,
          "internalType": "string",
          "name": "_message",
          "type": "string"
        }
      ],
      "name": "sendStringRent",
      "type": "event"
    },
    {
      "inputs": [
        {
          "internalType": "address",
          "name": "",
          "type": "address"
        },
        {
          "internalType": "uint256",
          "name": "",
          "type": "uint256"
        }
      ],
      "name": "addressMapping",
      "outputs": [
        {
          "internalType": "uint256",
          "name": "",
          "type": "uint256"
        }
      ],
      "stateMutability": "view",
      "type": "function"
    },
    {
      "inputs": [
        {
          "internalType": "string",
          "name": "",
          "type": "string"
        }
      ],
      "name": "importantAddresses",
      "outputs": [
        {
          "internalType": "address",
          "name": "",
          "type": "address"
        }
      ],
      "stateMutability": "view",
      "type": "function"
    },
    {
      "inputs": [
        {
          "internalType": "string",
          "name": "",
          "type": "string"
        }
      ],
      "name": "importantStrings",
      "outputs": [
        {
          "internalType": "string",
          "name": "",
          "type": "string"
        }
      ],
      "stateMutability": "view",
      "type": "function"
    },
    {
      "inputs": [],
      "name": "nextRentId",
      "outputs": [
        {
          "internalType": "uint256",
          "name": "",
          "type": "uint256"
        }
      ],
      "stateMutability": "view",
      "type": "function"
    },
    {
      "inputs": [
        {
          "internalType": "uint256",
          "name": "",
          "type": "uint256"
        }
      ],
      "name": "rentContractsMapping",
      "outputs": [
        {
          "internalType": "uint256",
          "name": "rentId",
          "type": "uint256"
        },
        {
          "internalType": "address",
          "name": "tenant",
          "type": "address"
        },
        {
          "internalType": "address",
          "name": "landlord",
          "type": "address"
        },
        {
          "internalType": "uint256",
          "name": "escrowValue",
          "type": "uint256"
        },
        {
          "internalType": "string",
          "name": "contractDetail",
          "type": "string"
        },
        {
          "internalType": "string",
          "name": "status",
          "type": "string"
        },
        {
          "components": [
            {
              "internalType": "uint256",
              "name": "tenantShare",
              "type": "uint256"
            },
            {
              "internalType": "uint256",
              "name": "landlordShare",
              "type": "uint256"
            },
            {
              "internalType": "uint256",
              "name": "feeShare",
              "type": "uint256"
            },
            {
              "internalType": "address",
              "name": "feeAddress",
              "type": "address"
            },
            {
              "internalType": "uint256",
              "name": "proposalStatus",
              "type": "uint256"
            }
          ],
          "internalType": "struct rentEscrowInterface.RedeemProposal",
          "name": "redeemProposal",
          "type": "tuple"
        }
      ],
      "stateMutability": "view",
      "type": "function"
    },
    {
      "inputs": [
        {
          "internalType": "address",
          "name": "_resolverAddress",
          "type": "address"
        }
      ],
      "name": "setResolverAddress",
      "outputs": [],
      "stateMutability": "nonpayable",
      "type": "function"
    },
    {
      "inputs": [
        {
          "internalType": "uint256",
          "name": "_escrowValue",
          "type": "uint256"
        },
        {
          "internalType": "string",
          "name": "_contractDetail",
          "type": "string"
        }
      ],
      "name": "proposeNewContract",
      "outputs": [],
      "stateMutability": "nonpayable",
      "type": "function"
    },
    {
      "inputs": [
        {
          "internalType": "uint256",
          "name": "_rentId",
          "type": "uint256"
        }
      ],
      "name": "acceptNewContract",
      "outputs": [],
      "stateMutability": "payable",
      "type": "function"
    },
    {
      "inputs": [
        {
          "internalType": "uint256",
          "name": "_rentId",
          "type": "uint256"
        },
        {
          "internalType": "uint256",
          "name": "_tenantShare",
          "type": "uint256"
        },
        {
          "internalType": "uint256",
          "name": "_landlordShare",
          "type": "uint256"
        },
        {
          "internalType": "uint256",
          "name": "_feeShare",
          "type": "uint256"
        }
      ],
      "name": "createRedeemProposal",
      "outputs": [],
      "stateMutability": "nonpayable",
      "type": "function"
    },
    {
      "inputs": [
        {
          "internalType": "uint256",
          "name": "_rentId",
          "type": "uint256"
        }
      ],
      "name": "acceptRedeemProposal",
      "outputs": [],
      "stateMutability": "nonpayable",
      "type": "function"
    },
    {
      "inputs": [
        {
          "internalType": "uint256",
          "name": "_rentId",
          "type": "uint256"
        }
      ],
      "name": "rejectRedeemProposal",
      "outputs": [],
      "stateMutability": "nonpayable",
      "type": "function"
    },
    {
      "inputs": [],
      "name": "devGetBalance",
      "outputs": [
        {
          "internalType": "uint256",
          "name": "",
          "type": "uint256"
        }
      ],
      "stateMutability": "view",
      "type": "function"
    },
    {
      "inputs": [],
      "name": "getContractToResolve",
      "outputs": [
        {
          "components": [
            {
              "internalType": "uint256",
              "name": "rentId",
              "type": "uint256"
            },
            {
              "internalType": "address",
              "name": "tenant",
              "type": "address"
            },
            {
              "internalType": "address",
              "name": "landlord",
              "type": "address"
            },
            {
              "internalType": "uint256",
              "name": "escrowValue",
              "type": "uint256"
            },
            {
              "internalType": "string",
              "name": "contractDetail",
              "type": "string"
            },
            {
              "internalType": "string",
              "name": "status",
              "type": "string"
            },
            {
              "components": [
                {
                  "internalType": "uint256",
                  "name": "tenantShare",
                  "type": "uint256"
                },
                {
                  "internalType": "uint256",
                  "name": "landlordShare",
                  "type": "uint256"
                },
                {
                  "internalType": "uint256",
                  "name": "feeShare",
                  "type": "uint256"
                },
                {
                  "internalType": "address",
                  "name": "feeAddress",
                  "type": "address"
                },
                {
                  "internalType": "uint256",
                  "name": "proposalStatus",
                  "type": "uint256"
                }
              ],
              "internalType": "struct rentEscrowInterface.RedeemProposal",
              "name": "redeemProposal",
              "type": "tuple"
            }
          ],
          "internalType": "struct rentEscrowInterface.RentContract",
          "name": "",
          "type": "tuple"
        }
      ],
      "stateMutability": "view",
      "type": "function"
    },
    {
      "inputs": [],
      "name": "getContractsByAddress",
      "outputs": [
        {
          "internalType": "uint256[]",
          "name": "",
          "type": "uint256[]"
        }
      ],
      "stateMutability": "view",
      "type": "function"
    }
  ],
  "bytecode": "0x6080604052600060025534801561001557600080fd5b5061281c806100256000396000f3fe6080604052600436106100dd5760003560e01c806385b589631161007f578063a6dd427611610059578063a6dd4276146102cb578063b59146f7146102f4578063b61f5f531461031d578063dd28218b14610348576100dd565b806385b58963146102355780638922dfbf1461025157806396d65c3e1461028e576100dd565b80632458cc3e116100bb5780632458cc3e146101735780636b695d241461019e5780637395eb41146101e15780637afc2d561461020c576100dd565b8063039ed501146100e257806307e31e2b1461010d5780630e9008fe1461014a575b600080fd5b3480156100ee57600080fd5b506100f7610371565b604051610104919061193e565b60405180910390f35b34801561011957600080fd5b50610134600480360381019061012f9190611ab3565b610377565b6040516101419190611b84565b60405180910390f35b34801561015657600080fd5b50610171600480360381019061016c9190611bd2565b61042d565b005b34801561017f57600080fd5b506101886106af565b604051610195919061193e565b60405180910390f35b3480156101aa57600080fd5b506101c560048036038101906101c09190611c39565b6106b7565b6040516101d89796959493929190611d2d565b60405180910390f35b3480156101ed57600080fd5b506101f66108d1565b6040516102039190611f01565b60405180910390f35b34801561021857600080fd5b50610233600480360381019061022e9190611c39565b610b78565b005b61024f600480360381019061024a9190611c39565b610fa4565b005b34801561025d57600080fd5b5061027860048036038101906102739190611ab3565b61105b565b6040516102859190611f23565b60405180910390f35b34801561029a57600080fd5b506102b560048036038101906102b09190611f6a565b6110a4565b6040516102c2919061193e565b60405180910390f35b3480156102d757600080fd5b506102f260048036038101906102ed9190611c39565b6110d5565b005b34801561030057600080fd5b5061031b60048036038101906103169190611faa565b6113dc565b005b34801561032957600080fd5b5061033261160c565b60405161033f91906120b5565b60405180910390f35b34801561035457600080fd5b5061036f600480360381019061036a91906120d7565b6116a1565b005b60025481565b60048180516020810182018051848252602083016020850120818352809550505050505060009150905080546103ac90612133565b80601f01602080910402602001604051908101604052809291908181526020018280546103d890612133565b80156104255780601f106103fa57610100808354040283529160200191610425565b820191906000526020600020905b81548152906001019060200180831161040857829003601f168201915b505050505081565b600081838561043c9190612194565b6104469190612194565b90506064811461048b576040517f08c379a00000000000000000000000000000000000000000000000000000000081526004016104829061225c565b60405180910390fd5b60008086815260200190815260200160002060020160009054906101000a900473ffffffffffffffffffffffffffffffffffffffff1673ffffffffffffffffffffffffffffffffffffffff163373ffffffffffffffffffffffffffffffffffffffff16148061056157506003604051610503906122d3565b908152602001604051809103902060009054906101000a900473ffffffffffffffffffffffffffffffffffffffff1673ffffffffffffffffffffffffffffffffffffffff163373ffffffffffffffffffffffffffffffffffffffff16145b6105a0576040517f08c379a00000000000000000000000000000000000000000000000000000000081526004016105979061235a565b60405180910390fd5b8360008087815260200190815260200160002060060160000181905550826000808781526020019081526020016000206006016001018190555081600080878152602001908152602001600020600601600201819055506003604051610605906122d3565b908152602001604051809103902060009054906101000a900473ffffffffffffffffffffffffffffffffffffffff1660008087815260200190815260200160002060060160030160006101000a81548173ffffffffffffffffffffffffffffffffffffffff021916908373ffffffffffffffffffffffffffffffffffffffff1602179055506064600080878152602001908152602001600020600601600401819055505050505050565b600047905090565b60006020528060005260406000206000915090508060000154908060010160009054906101000a900473ffffffffffffffffffffffffffffffffffffffff16908060020160009054906101000a900473ffffffffffffffffffffffffffffffffffffffff169080600301549080600401805461073290612133565b80601f016020809104026020016040519081016040528092919081815260200182805461075e90612133565b80156107ab5780601f10610780576101008083540402835291602001916107ab565b820191906000526020600020905b81548152906001019060200180831161078e57829003601f168201915b5050505050908060050180546107c090612133565b80601f01602080910402602001604051908101604052809291908181526020018280546107ec90612133565b80156108395780601f1061080e57610100808354040283529160200191610839565b820191906000526020600020905b81548152906001019060200180831161081c57829003601f168201915b505050505090806006016040518060a00160405290816000820154815260200160018201548152602001600282015481526020016003820160009054906101000a900473ffffffffffffffffffffffffffffffffffffffff1673ffffffffffffffffffffffffffffffffffffffff1673ffffffffffffffffffffffffffffffffffffffff168152602001600482015481525050905087565b6108d96117ce565b6000600190506000808281526020019081526020016000206040518060e0016040529081600082015481526020016001820160009054906101000a900473ffffffffffffffffffffffffffffffffffffffff1673ffffffffffffffffffffffffffffffffffffffff1673ffffffffffffffffffffffffffffffffffffffff1681526020016002820160009054906101000a900473ffffffffffffffffffffffffffffffffffffffff1673ffffffffffffffffffffffffffffffffffffffff1673ffffffffffffffffffffffffffffffffffffffff168152602001600382015481526020016004820180546109cc90612133565b80601f01602080910402602001604051908101604052809291908181526020018280546109f890612133565b8015610a455780601f10610a1a57610100808354040283529160200191610a45565b820191906000526020600020905b815481529060010190602001808311610a2857829003601f168201915b50505050508152602001600582018054610a5e90612133565b80601f0160208091040260200160405190810160405280929190818152602001828054610a8a90612133565b8015610ad75780601f10610aac57610100808354040283529160200191610ad7565b820191906000526020600020905b815481529060010190602001808311610aba57829003601f168201915b50505050508152602001600682016040518060a00160405290816000820154815260200160018201548152602001600282015481526020016003820160009054906101000a900473ffffffffffffffffffffffffffffffffffffffff1673ffffffffffffffffffffffffffffffffffffffff1673ffffffffffffffffffffffffffffffffffffffff1681526020016004820154815250508152505091505090565b60008082815260200190815260200160002060010160009054906101000a900473ffffffffffffffffffffffffffffffffffffffff1673ffffffffffffffffffffffffffffffffffffffff163373ffffffffffffffffffffffffffffffffffffffff161480610c4e57506003604051610bf0906122d3565b908152602001604051809103902060009054906101000a900473ffffffffffffffffffffffffffffffffffffffff1673ffffffffffffffffffffffffffffffffffffffff163373ffffffffffffffffffffffffffffffffffffffff16145b610c8d576040517f08c379a0000000000000000000000000000000000000000000000000000000008152600401610c84906123ec565b60405180910390fd5b6000806000838152602001908152602001600020600301549050600080600084815260200190815260200160002060010160009054906101000a900473ffffffffffffffffffffffffffffffffffffffff169050600060646000808681526020019081526020016000206006016000015484610d09919061240c565b610d139190612495565b9050600080600086815260200190815260200160002060020160009054906101000a900473ffffffffffffffffffffffffffffffffffffffff169050600060646000808881526020019081526020016000206006016001015486610d77919061240c565b610d819190612495565b9050600080600088815260200190815260200160002060060160030160009054906101000a900473ffffffffffffffffffffffffffffffffffffffff169050600060646000808a81526020019081526020016000206006016002015488610de8919061240c565b610df29190612495565b905086818487610e029190612194565b610e0c9190612194565b14610e4c576040517f08c379a0000000000000000000000000000000000000000000000000000000008152600401610e439061255e565b60405180910390fd5b60646000808a81526020019081526020016000206006016004015414610ea7576040517f08c379a0000000000000000000000000000000000000000000000000000000008152600401610e9e906125ca565b60405180910390fd5b60c86000808a8152602001908152602001600020600601600401819055508573ffffffffffffffffffffffffffffffffffffffff166108fc869081150290604051600060405180830381858888f19350505050158015610f0b573d6000803e3d6000fd5b508373ffffffffffffffffffffffffffffffffffffffff166108fc849081150290604051600060405180830381858888f19350505050158015610f52573d6000803e3d6000fd5b508173ffffffffffffffffffffffffffffffffffffffff166108fc829081150290604051600060405180830381858888f19350505050158015610f99573d6000803e3d6000fd5b505050505050505050565b600080828152602001908152602001600020600301543414610ffb576040517f08c379a0000000000000000000000000000000000000000000000000000000008152600401610ff29061265c565b60405180910390fd5b3360008083815260200190815260200160002060010160006101000a81548173ffffffffffffffffffffffffffffffffffffffff021916908373ffffffffffffffffffffffffffffffffffffffff16021790555061105881611765565b50565b6003818051602081018201805184825260208301602085012081835280955050505050506000915054906101000a900473ffffffffffffffffffffffffffffffffffffffff1681565b600160205281600052604060002081815481106110c057600080fd5b90600052602060002001600091509150505481565b60008082815260200190815260200160002060010160009054906101000a900473ffffffffffffffffffffffffffffffffffffffff1673ffffffffffffffffffffffffffffffffffffffff163373ffffffffffffffffffffffffffffffffffffffff1614806111a4575060008082815260200190815260200160002060020160009054906101000a900473ffffffffffffffffffffffffffffffffffffffff1673ffffffffffffffffffffffffffffffffffffffff163373ffffffffffffffffffffffffffffffffffffffff16145b6111e3576040517f08c379a00000000000000000000000000000000000000000000000000000000081526004016111da906126ee565b60405180910390fd5b61012d6000808381526020019081526020016000206006016004015414158015611227575061012e6000808381526020019081526020016000206006016004015414155b611266576040517f08c379a000000000000000000000000000000000000000000000000000000000815260040161125d9061275a565b60405180910390fd5b60c86000808381526020019081526020016000206006016004015414156112c2576040517f08c379a00000000000000000000000000000000000000000000000000000000081526004016112b9906127c6565b60405180910390fd5b60008082815260200190815260200160002060020160009054906101000a900473ffffffffffffffffffffffffffffffffffffffff1673ffffffffffffffffffffffffffffffffffffffff163373ffffffffffffffffffffffffffffffffffffffff16141561134f5761012d600080838152602001908152602001600020600601600401819055506113d9565b60008082815260200190815260200160002060010160009054906101000a900473ffffffffffffffffffffffffffffffffffffffff1673ffffffffffffffffffffffffffffffffffffffff163373ffffffffffffffffffffffffffffffffffffffff1614156113d85761012e600080838152602001908152602001600020600601600401819055505b5b50565b6113e46117ce565b60025481600001818152505033816040019073ffffffffffffffffffffffffffffffffffffffff16908173ffffffffffffffffffffffffffffffffffffffff1681525050828160600181815250508181608001819052508060008060025481526020019081526020016000206000820151816000015560208201518160010160006101000a81548173ffffffffffffffffffffffffffffffffffffffff021916908373ffffffffffffffffffffffffffffffffffffffff16021790555060408201518160020160006101000a81548173ffffffffffffffffffffffffffffffffffffffff021916908373ffffffffffffffffffffffffffffffffffffffff16021790555060608201518160030155608082015181600401908051906020019061150e92919061183d565b5060a082015181600501908051906020019061152b92919061183d565b5060c08201518160060160008201518160000155602082015181600101556040820151816002015560608201518160030160006101000a81548173ffffffffffffffffffffffffffffffffffffffff021916908373ffffffffffffffffffffffffffffffffffffffff1602179055506080820151816004015550509050506115b4600254611765565b7fa44f460f2ac523b4a38d95d97950a776d7bf0adbaff2501d321f040e3d661e466002546040516115e5919061193e565b60405180910390a16001600260008282546116009190612194565b92505081905550505050565b6060600160003373ffffffffffffffffffffffffffffffffffffffff1673ffffffffffffffffffffffffffffffffffffffff16815260200190815260200160002080548060200260200160405190810160405280929190818152602001828054801561169757602002820191906000526020600020905b815481526020019060010190808311611683575b5050505050905090565b8060036040516116b0906122d3565b908152602001604051809103902060006101000a81548173ffffffffffffffffffffffffffffffffffffffff021916908373ffffffffffffffffffffffffffffffffffffffff1602179055506040518060400160405280600581526020017f48656c6c6f0000000000000000000000000000000000000000000000000000008152506004604051611740906122d3565b9081526020016040518091039020908051906020019061176192919061183d565b5050565b600160003373ffffffffffffffffffffffffffffffffffffffff1673ffffffffffffffffffffffffffffffffffffffff16815260200190815260200160002081908060018154018082558091505060019003906000526020600020016000909190919091505550565b6040518060e0016040528060008152602001600073ffffffffffffffffffffffffffffffffffffffff168152602001600073ffffffffffffffffffffffffffffffffffffffff1681526020016000815260200160608152602001606081526020016118376118c3565b81525090565b82805461184990612133565b90600052602060002090601f01602090048101928261186b57600085556118b2565b82601f1061188457805160ff19168380011785556118b2565b828001600101855582156118b2579182015b828111156118b1578251825591602001919060010190611896565b5b5090506118bf9190611908565b5090565b6040518060a00160405280600081526020016000815260200160008152602001600073ffffffffffffffffffffffffffffffffffffffff168152602001600081525090565b5b80821115611921576000816000905550600101611909565b5090565b6000819050919050565b61193881611925565b82525050565b6000602082019050611953600083018461192f565b92915050565b6000604051905090565b600080fd5b600080fd5b600080fd5b600080fd5b6000601f19601f8301169050919050565b7f4e487b7100000000000000000000000000000000000000000000000000000000600052604160045260246000fd5b6119c082611977565b810181811067ffffffffffffffff821117156119df576119de611988565b5b80604052505050565b60006119f2611959565b90506119fe82826119b7565b919050565b600067ffffffffffffffff821115611a1e57611a1d611988565b5b611a2782611977565b9050602081019050919050565b82818337600083830152505050565b6000611a56611a5184611a03565b6119e8565b905082815260208101848484011115611a7257611a71611972565b5b611a7d848285611a34565b509392505050565b600082601f830112611a9a57611a9961196d565b5b8135611aaa848260208601611a43565b91505092915050565b600060208284031215611ac957611ac8611963565b5b600082013567ffffffffffffffff811115611ae757611ae6611968565b5b611af384828501611a85565b91505092915050565b600081519050919050565b600082825260208201905092915050565b60005b83811015611b36578082015181840152602081019050611b1b565b83811115611b45576000848401525b50505050565b6000611b5682611afc565b611b608185611b07565b9350611b70818560208601611b18565b611b7981611977565b840191505092915050565b60006020820190508181036000830152611b9e8184611b4b565b905092915050565b611baf81611925565b8114611bba57600080fd5b50565b600081359050611bcc81611ba6565b92915050565b60008060008060808587031215611bec57611beb611963565b5b6000611bfa87828801611bbd565b9450506020611c0b87828801611bbd565b9350506040611c1c87828801611bbd565b9250506060611c2d87828801611bbd565b91505092959194509250565b600060208284031215611c4f57611c4e611963565b5b6000611c5d84828501611bbd565b91505092915050565b600073ffffffffffffffffffffffffffffffffffffffff82169050919050565b6000611c9182611c66565b9050919050565b611ca181611c86565b82525050565b611cb081611925565b82525050565b611cbf81611c86565b82525050565b60a082016000820151611cdb6000850182611ca7565b506020820151611cee6020850182611ca7565b506040820151611d016040850182611ca7565b506060820151611d146060850182611cb6565b506080820151611d276080850182611ca7565b50505050565b600061016082019050611d43600083018a61192f565b611d506020830189611c98565b611d5d6040830188611c98565b611d6a606083018761192f565b8181036080830152611d7c8186611b4b565b905081810360a0830152611d908185611b4b565b9050611d9f60c0830184611cc5565b98975050505050505050565b600082825260208201905092915050565b6000611dc782611afc565b611dd18185611dab565b9350611de1818560208601611b18565b611dea81611977565b840191505092915050565b60a082016000820151611e0b6000850182611ca7565b506020820151611e1e6020850182611ca7565b506040820151611e316040850182611ca7565b506060820151611e446060850182611cb6565b506080820151611e576080850182611ca7565b50505050565b600061016083016000830151611e766000860182611ca7565b506020830151611e896020860182611cb6565b506040830151611e9c6040860182611cb6565b506060830151611eaf6060860182611ca7565b5060808301518482036080860152611ec78282611dbc565b91505060a083015184820360a0860152611ee18282611dbc565b91505060c0830151611ef660c0860182611df5565b508091505092915050565b60006020820190508181036000830152611f1b8184611e5d565b905092915050565b6000602082019050611f386000830184611c98565b92915050565b611f4781611c86565b8114611f5257600080fd5b50565b600081359050611f6481611f3e565b92915050565b60008060408385031215611f8157611f80611963565b5b6000611f8f85828601611f55565b9250506020611fa085828601611bbd565b9150509250929050565b60008060408385031215611fc157611fc0611963565b5b6000611fcf85828601611bbd565b925050602083013567ffffffffffffffff811115611ff057611fef611968565b5b611ffc85828601611a85565b9150509250929050565b600081519050919050565b600082825260208201905092915050565b6000819050602082019050919050565b600061203e8383611ca7565b60208301905092915050565b6000602082019050919050565b600061206282612006565b61206c8185612011565b935061207783612022565b8060005b838110156120a857815161208f8882612032565b975061209a8361204a565b92505060018101905061207b565b5085935050505092915050565b600060208201905081810360008301526120cf8184612057565b905092915050565b6000602082840312156120ed576120ec611963565b5b60006120fb84828501611f55565b91505092915050565b7f4e487b7100000000000000000000000000000000000000000000000000000000600052602260045260246000fd5b6000600282049050600182168061214b57607f821691505b6020821081141561215f5761215e612104565b5b50919050565b7f4e487b7100000000000000000000000000000000000000000000000000000000600052601160045260246000fd5b600061219f82611925565b91506121aa83611925565b9250827fffffffffffffffffffffffffffffffffffffffffffffffffffffffffffffffff038211156121df576121de612165565b5b828201905092915050565b7f54656e616e745368617265202b204c616e646c6f7264205368617265202b204660008201527f6565205368617265206973206e6f742031303025000000000000000000000000602082015250565b6000612246603483611b07565b9150612251826121ea565b604082019050919050565b6000602082019050818103600083015261227581612239565b9050919050565b600081905092915050565b7f5265736f6c766572416464726573730000000000000000000000000000000000600082015250565b60006122bd600f8361227c565b91506122c882612287565b600f82019050919050565b60006122de826122b0565b9150819050919050565b7f4f6e6c79204c616e646c6f7264206f72205265736f6c7665722063616e20637260008201527f656174652072656465656d2070726f706f73616c000000000000000000000000602082015250565b6000612344603483611b07565b915061234f826122e8565b604082019050919050565b6000602082019050818103600083015261237381612337565b9050919050565b7f4f6e6c792074656e616e742063616e206163636570742072656465656d20707260008201527f6f706f73616c0000000000000000000000000000000000000000000000000000602082015250565b60006123d6602683611b07565b91506123e18261237a565b604082019050919050565b60006020820190508181036000830152612405816123c9565b9050919050565b600061241782611925565b915061242283611925565b9250817fffffffffffffffffffffffffffffffffffffffffffffffffffffffffffffffff048311821515161561245b5761245a612165565b5b828202905092915050565b7f4e487b7100000000000000000000000000000000000000000000000000000000600052601260045260246000fd5b60006124a082611925565b91506124ab83611925565b9250826124bb576124ba612466565b5b828204905092915050565b7f54656e616e745368617265202b204c616e646c6f7264205368617265202b204660008201527f656520536861726520646f6573206e6f7420657175616c20457363726f77205660208201527f616c756500000000000000000000000000000000000000000000000000000000604082015250565b6000612548604483611b07565b9150612553826124c6565b606082019050919050565b600060208201905081810360008301526125778161253b565b9050919050565b7f457363726f7720686173206265656e20616c726561642072656465656d65642e600082015250565b60006125b4602083611b07565b91506125bf8261257e565b602082019050919050565b600060208201905081810360008301526125e3816125a7565b9050919050565b7f4574682073656e74206973206e6f742073616d6520617320657363726f77566160008201527f6c75650000000000000000000000000000000000000000000000000000000000602082015250565b6000612646602383611b07565b9150612651826125ea565b604082019050919050565b6000602082019050818103600083015261267581612639565b9050919050565b7f4f6e6c792074656e616e74206f72206c616e646c6f72642063616e206163636560008201527f70742072656465656d2070726f706f73616c0000000000000000000000000000602082015250565b60006126d8603283611b07565b91506126e38261267c565b604082019050919050565b60006020820190508181036000830152612707816126cb565b9050919050565b7f416c72656164792072656a656374656400000000000000000000000000000000600082015250565b6000612744601083611b07565b915061274f8261270e565b602082019050919050565b6000602082019050818103600083015261277381612737565b9050919050565b7f416c726561647920616363657074656400000000000000000000000000000000600082015250565b60006127b0601083611b07565b91506127bb8261277a565b602082019050919050565b600060208201905081810360008301526127df816127a3565b905091905056fea26469706673582212204881f3490b5dd54f62cf2dbe7db37123058c44997006d2bd6ec3043a7e1bb7ec64736f6c634300080a0033",
  "immutableReferences": {},
  "source": "// SPDX-License-Identifier:\tCC-BY-4.0\npragma solidity ^0.8.10;\n\ninterface rentEscrowInterface { \n\n    struct RentContract {\n            uint rentId;\n            address tenant;\n            address landlord;\n            uint256 escrowValue;\n            string contractDetail;\n            string status;\n            RedeemProposal redeemProposal;\n        }\n\n    struct RedeemProposal {\n        uint tenantShare;\n        uint landlordShare;\n        uint feeShare;\n        address feeAddress;\n        uint proposalStatus; /// @dev 100 Proposed 200 Redeemed by tenant 202 Redemed via Dispute Resolution 301 rejected by landlord 302 rejected by tenant\n    }\n\n    function getContractToResolve () external view returns (RentContract memory);\n    function createRedeemProposal (uint _rentId, uint _tenantShare, uint _landlordShare, uint _feeShare ) external;\n    function acceptRedeemProposal(uint _rentId) external;\n    }\n\ncontract rentEscrow is rentEscrowInterface {\n///@custom:navigation Events\n    event sendAddressRent (address _message); \n    event sendStringRent (string _message); \n    event sendIdRent (uint _message); \n    ///@dev in order to give some feedback that rentcontract was created, we will emit its id. Later maybe be filled with some other\n    event rentContractId (uint _rentId);\n\n///@custom:navigation Mappings\n    mapping(uint => RentContract) public rentContractsMapping;\n\n    // will use this to search contracts by address\n    mapping(address => uint[]) public addressMapping;\n    uint public nextRentId = 0;\n\n\n    ///@dev this contracf address is allowed to trigger redeem proposal creation\n    mapping(string => address) public importantAddresses;\n    mapping(string => string) public importantStrings;\n\n    ///@dev sets\n    function setResolverAddress (address _resolverAddress) public  {\n        importantAddresses[\"ResolverAddress\"] = _resolverAddress;\n        importantStrings[\"ResolverAddress\"] = \"Hello\";\n    }\n///@custom:navigation RentContracts\n    function proposeNewContract (uint256 _escrowValue, string memory _contractDetail) external {\n        RentContract memory myRentContract;\n     \n        myRentContract.rentId = nextRentId;\n        myRentContract.landlord = msg.sender;\n        myRentContract.escrowValue = _escrowValue;\n        myRentContract.contractDetail = _contractDetail;\n        \n        rentContractsMapping[nextRentId] = myRentContract; //Later: Change to nextId to hashed ID\n        updateAddressMapping(nextRentId);\n        emit rentContractId(nextRentId);\n        \n        nextRentId += 1;\n\n    }\n\n    function acceptNewContract (uint _rentId) external payable{\n        require(msg.value == rentContractsMapping[_rentId].escrowValue, \"Eth sent is not same as escrowValue\");\n        \n        rentContractsMapping[_rentId].tenant = msg.sender;\n\n        updateAddressMapping(_rentId);\n\n    }\n///@custom:navigation Redeems\n    function createRedeemProposal (uint _rentId, uint _tenantShare, uint _landlordShare, uint _feeShare ) external {\n        \n        uint shareSum = _tenantShare + _landlordShare + _feeShare;\n        require(shareSum == 100, \"TenantShare + Landlord Share + Fee Share is not 100%\" );\n\n        //only landlord or resolver can create redeemProposal\n        // test required\n        require(msg.sender ==  rentContractsMapping[_rentId].landlord || msg.sender == importantAddresses[\"ResolverAddress\"] , \"Only Landlord or Resolver can create redeem proposal\");\n\n        rentContractsMapping[_rentId].redeemProposal.tenantShare = _tenantShare;\n        rentContractsMapping[_rentId].redeemProposal.landlordShare = _landlordShare;\n        rentContractsMapping[_rentId].redeemProposal.feeShare = _feeShare;\n        //Later: fee address must be protected\n        rentContractsMapping[_rentId].redeemProposal.feeAddress = importantAddresses[\"ResolverAddress\"];\n        rentContractsMapping[_rentId].redeemProposal.proposalStatus = 100;\n    \n    }\n\n    function acceptRedeemProposal(uint _rentId) external {\n        //only tenant can accept redeemProposal\n        // test required\n        require(msg.sender ==  rentContractsMapping[_rentId].tenant || msg.sender == importantAddresses[\"ResolverAddress\"],\"Only tenant can accept redeem proposal\");\n\n        \n        uint escrowValue = rentContractsMapping[_rentId].escrowValue;\n        // send to tenant\n        address payable tenantAddress = payable(rentContractsMapping[_rentId].tenant);\n        uint escrowTenant = escrowValue * rentContractsMapping[_rentId].redeemProposal.tenantShare / 100;\n\n         // send to landlord\n        address payable landlordAddress = payable(rentContractsMapping[_rentId].landlord);\n        uint escrowLandlord = escrowValue * rentContractsMapping[_rentId].redeemProposal.landlordShare / 100;\n\n        // send to fee\n        address payable feeAddress = payable(rentContractsMapping[_rentId].redeemProposal.feeAddress);\n        uint fee = escrowValue * rentContractsMapping[_rentId].redeemProposal.feeShare / 100;\n\n        //values to send must equal to escrowValue\n        require((escrowTenant + escrowLandlord + fee) == escrowValue, \"TenantShare + Landlord Share + Fee Share does not equal Escrow Value\");\n\n        // status must be 100 (proposed), to avoid double dip\n        require(rentContractsMapping[_rentId].redeemProposal.proposalStatus == 100, \"Escrow has been alread redeemed.\");\n        rentContractsMapping[_rentId].redeemProposal.proposalStatus = 200;\n\n        //Later: would it make sense to stop any redemptions in case sum of individual escrows is below total balance ???\n        \n        //Sending\n        tenantAddress.transfer(escrowTenant);\n        landlordAddress.transfer(escrowLandlord);\n        feeAddress.transfer(fee);    \n    }\n\n    ///@notice Use this function to reject redeem proposal. Will send it to the resolution centre\n    ///@param _rentId identifies the contract between tenant and landlord\n\n    function rejectRedeemProposal(uint _rentId) external {\n        ///@dev UX has a say here, currently tenant and landlord can reject at any time\n        require((msg.sender ==  rentContractsMapping[_rentId].tenant || msg.sender == rentContractsMapping[_rentId].landlord), \"Only tenant or landlord can accept redeem proposal\");\n        \n        ///@custom:later probably better to re-write to allowed statuses\n        require(\n            rentContractsMapping[_rentId].redeemProposal.proposalStatus != 301 &&\n            rentContractsMapping[_rentId].redeemProposal.proposalStatus != 302,\"Already rejected\");\n        require(rentContractsMapping[_rentId].redeemProposal.proposalStatus != (200),\"Already accepted\" );\n\n        if(msg.sender == rentContractsMapping[_rentId].landlord) {\n            rentContractsMapping[_rentId].redeemProposal.proposalStatus = 301;\n        }\n        else if (msg.sender == rentContractsMapping[_rentId].tenant){\n             rentContractsMapping[_rentId].redeemProposal.proposalStatus = 302;\n\n        }\n\n    }\n \n///@custom:navigation Development Helpers\n    function devGetBalance () external view returns(uint){\n        return(address(this).balance);\n    }\n    ///@dev this is used by retrieve mapping by another contract\n    ///@custom:later now gives just first contract. Need to add logic to return contract where redeemProposal was rejected\n    function getContractToResolve () external view returns (RentContract memory) {\n         uint _rentId = 1;\n         return rentContractsMapping[_rentId];\n        }\n    \n    ///@dev Should go to some utils contract\n    function updateAddressMapping (uint _rentId) internal {\n        addressMapping[msg.sender].push(_rentId);\n        }\n\n    ///@notice returns all contracts  where sender is involved party\n    function getContractsByAddress () external view returns ( uint[] memory ){\n    return addressMapping[msg.sender];\n\n        }\n}",
  "sourcePath": "/Users/andy/my_repos/rentEscrow/contracts/rentEscrow.sol",
  "compiler": {
    "name": "solc",
    "version": "0.8.10+commit.fc410830.Emscripten.clang"
  },
  "schemaVersion": "3.4.3",
  "updatedAt": "2022-02-19T20:30:42.372Z",
  "devdoc": {
    "events": {
      "rentContractId(uint256)": {
        "details": "in order to give some feedback that rentcontract was created, we will emit its id. Later maybe be filled with some other"
      },
      "sendAddressRent(address)": {
        "custom:navigation": "Events"
      }
    },
    "kind": "dev",
    "methods": {
      "createRedeemProposal(uint256,uint256,uint256,uint256)": {
        "custom:navigation": "Redeems"
      },
      "devGetBalance()": {
        "custom:navigation": "Development Helpers"
      },
      "getContractToResolve()": {
        "custom:later": "now gives just first contract. Need to add logic to return contract where redeemProposal was rejected",
        "details": "this is used by retrieve mapping by another contract"
      },
      "proposeNewContract(uint256,string)": {
        "custom:navigation": "RentContracts"
      },
      "rejectRedeemProposal(uint256)": {
        "params": {
          "_rentId": "identifies the contract between tenant and landlord"
        }
      },
      "setResolverAddress(address)": {
        "details": "sets"
      }
    },
    "stateVariables": {
      "importantAddresses": {
        "details": "this contracf address is allowed to trigger redeem proposal creation"
      },
      "rentContractsMapping": {
        "custom:navigation": "Mappings"
      }
    },
    "version": 1
  },
  "userdoc": {
    "kind": "user",
    "methods": {
      "getContractsByAddress()": {
        "notice": "returns all contracts  where sender is involved party"
      },
      "rejectRedeemProposal(uint256)": {
        "notice": "Use this function to reject redeem proposal. Will send it to the resolution centre"
      }
    },
    "version": 1
  }
}