{
  "contractName": "rentEscrow",
  "abi": [
    {
      "anonymous": false,
      "inputs": [
        {
          "indexed": false,
          "internalType": "uint256",
          "name": "_rentId",
          "type": "uint256"
        }
      ],
      "name": "rentContractId",
      "type": "event"
    },
    {
      "anonymous": false,
      "inputs": [
        {
          "indexed": false,
          "internalType": "uint256",
          "name": "_rentId",
          "type": "uint256"
        }
      ],
      "name": "rentContractId2",
      "type": "event"
    },
    {
      "inputs": [
        {
          "internalType": "address",
          "name": "",
          "type": "address"
        },
        {
          "internalType": "uint256",
          "name": "",
          "type": "uint256"
        }
      ],
      "name": "addressMapping",
      "outputs": [
        {
          "internalType": "uint256",
          "name": "",
          "type": "uint256"
        }
      ],
      "stateMutability": "view",
      "type": "function"
    },
    {
      "inputs": [],
      "name": "nextRentId",
      "outputs": [
        {
          "internalType": "uint256",
          "name": "",
          "type": "uint256"
        }
      ],
      "stateMutability": "view",
      "type": "function"
    },
    {
      "inputs": [
        {
          "internalType": "uint256",
          "name": "",
          "type": "uint256"
        }
      ],
      "name": "rentContractsMapping",
      "outputs": [
        {
          "internalType": "address",
          "name": "tenant",
          "type": "address"
        },
        {
          "internalType": "address",
          "name": "landlord",
          "type": "address"
        },
        {
          "internalType": "uint256",
          "name": "escrowValue",
          "type": "uint256"
        },
        {
          "internalType": "string",
          "name": "contractDetail",
          "type": "string"
        },
        {
          "internalType": "string",
          "name": "status",
          "type": "string"
        },
        {
          "components": [
            {
              "internalType": "uint256",
              "name": "tenantShare",
              "type": "uint256"
            },
            {
              "internalType": "uint256",
              "name": "landlordShare",
              "type": "uint256"
            },
            {
              "internalType": "uint256",
              "name": "feeShare",
              "type": "uint256"
            },
            {
              "internalType": "address",
              "name": "feeAddress",
              "type": "address"
            },
            {
              "internalType": "uint256",
              "name": "proposalStatus",
              "type": "uint256"
            }
          ],
          "internalType": "struct rentEscrow.redeemProposal",
          "name": "redeemProposal",
          "type": "tuple"
        }
      ],
      "stateMutability": "view",
      "type": "function"
    },
    {
      "inputs": [],
      "name": "getContractsByAddress",
      "outputs": [
        {
          "internalType": "uint256[]",
          "name": "",
          "type": "uint256[]"
        }
      ],
      "stateMutability": "view",
      "type": "function"
    },
    {
      "inputs": [
        {
          "internalType": "uint256",
          "name": "_escrowValue",
          "type": "uint256"
        },
        {
          "internalType": "string",
          "name": "_contractDetail",
          "type": "string"
        }
      ],
      "name": "proposeNewContract",
      "outputs": [],
      "stateMutability": "nonpayable",
      "type": "function"
    },
    {
      "inputs": [
        {
          "internalType": "uint256",
          "name": "_rentId",
          "type": "uint256"
        }
      ],
      "name": "acceptNewContract",
      "outputs": [],
      "stateMutability": "payable",
      "type": "function"
    },
    {
      "inputs": [
        {
          "internalType": "uint256",
          "name": "_rentId",
          "type": "uint256"
        },
        {
          "internalType": "uint256",
          "name": "_tenantShare",
          "type": "uint256"
        },
        {
          "internalType": "uint256",
          "name": "_landlordShare",
          "type": "uint256"
        },
        {
          "internalType": "uint256",
          "name": "_feeShare",
          "type": "uint256"
        },
        {
          "internalType": "address",
          "name": "_feeAddress",
          "type": "address"
        }
      ],
      "name": "createRedeemProposal",
      "outputs": [],
      "stateMutability": "nonpayable",
      "type": "function"
    },
    {
      "inputs": [
        {
          "internalType": "uint256",
          "name": "_rentId",
          "type": "uint256"
        }
      ],
      "name": "acceptRedeemProposal",
      "outputs": [],
      "stateMutability": "nonpayable",
      "type": "function"
    },
    {
      "inputs": [
        {
          "internalType": "uint256",
          "name": "_rentId",
          "type": "uint256"
        }
      ],
      "name": "rejectRedeemProposal",
      "outputs": [],
      "stateMutability": "nonpayable",
      "type": "function"
    },
    {
      "inputs": [],
      "name": "devGetBalance",
      "outputs": [
        {
          "internalType": "uint256",
          "name": "",
          "type": "uint256"
        }
      ],
      "stateMutability": "view",
      "type": "function"
    }
  ],
  "bytecode": "0x6080604052600060025534801561001557600080fd5b50611ec4806100256000396000f3fe6080604052600436106100915760003560e01c806385b589631161005957806385b589631461018057806396d65c3e1461019c578063a6dd4276146101d9578063b59146f714610202578063b61f5f531461022b57610091565b8063039ed501146100965780632458cc3e146100c15780633d45370c146100ec5780636b695d24146101155780637afc2d5614610157575b600080fd5b3480156100a257600080fd5b506100ab610256565b6040516100b89190611277565b60405180910390f35b3480156100cd57600080fd5b506100d661025c565b6040516100e39190611277565b60405180910390f35b3480156100f857600080fd5b50610113600480360381019061010e9190611330565b610264565b005b34801561012157600080fd5b5061013c600480360381019061013791906113ab565b610439565b60405161014e96959493929190611506565b60405180910390f35b34801561016357600080fd5b5061017e600480360381019061017991906113ab565b61064d565b005b61019a600480360381019061019591906113ab565b610a07565b005b3480156101a857600080fd5b506101c360048036038101906101be9190611576565b610abe565b6040516101d09190611277565b60405180910390f35b3480156101e557600080fd5b5061020060048036038101906101fb91906113ab565b610aef565b005b34801561020e57600080fd5b50610229600480360381019061022491906116eb565b610df6565b005b34801561023757600080fd5b50610240611010565b60405161024d91906117f6565b60405180910390f35b60025481565b600047905090565b60008284866102739190611847565b61027d9190611847565b9050606481146102c2576040517f08c379a00000000000000000000000000000000000000000000000000000000081526004016102b99061190f565b60405180910390fd5b60008087815260200190815260200160002060010160009054906101000a900473ffffffffffffffffffffffffffffffffffffffff1673ffffffffffffffffffffffffffffffffffffffff163373ffffffffffffffffffffffffffffffffffffffff1614610365576040517f08c379a000000000000000000000000000000000000000000000000000000000815260040161035c906119a1565b60405180910390fd5b8460008088815260200190815260200160002060050160000181905550836000808881526020019081526020016000206005016001018190555082600080888152602001908152602001600020600501600201819055508160008088815260200190815260200160002060050160030160006101000a81548173ffffffffffffffffffffffffffffffffffffffff021916908373ffffffffffffffffffffffffffffffffffffffff160217905550606460008088815260200190815260200160002060050160040181905550505050505050565b60006020528060005260406000206000915090508060000160009054906101000a900473ffffffffffffffffffffffffffffffffffffffff16908060010160009054906101000a900473ffffffffffffffffffffffffffffffffffffffff16908060020154908060030180546104ae906119f0565b80601f01602080910402602001604051908101604052809291908181526020018280546104da906119f0565b80156105275780601f106104fc57610100808354040283529160200191610527565b820191906000526020600020905b81548152906001019060200180831161050a57829003601f168201915b50505050509080600401805461053c906119f0565b80601f0160208091040260200160405190810160405280929190818152602001828054610568906119f0565b80156105b55780601f1061058a576101008083540402835291602001916105b5565b820191906000526020600020905b81548152906001019060200180831161059857829003601f168201915b505050505090806005016040518060a00160405290816000820154815260200160018201548152602001600282015481526020016003820160009054906101000a900473ffffffffffffffffffffffffffffffffffffffff1673ffffffffffffffffffffffffffffffffffffffff1673ffffffffffffffffffffffffffffffffffffffff168152602001600482015481525050905086565b60008082815260200190815260200160002060000160009054906101000a900473ffffffffffffffffffffffffffffffffffffffff1673ffffffffffffffffffffffffffffffffffffffff163373ffffffffffffffffffffffffffffffffffffffff16146106f0576040517f08c379a00000000000000000000000000000000000000000000000000000000081526004016106e790611a94565b60405180910390fd5b6000806000838152602001908152602001600020600201549050600080600084815260200190815260200160002060000160009054906101000a900473ffffffffffffffffffffffffffffffffffffffff16905060006064600080868152602001908152602001600020600501600001548461076c9190611ab4565b6107769190611b3d565b9050600080600086815260200190815260200160002060010160009054906101000a900473ffffffffffffffffffffffffffffffffffffffff1690506000606460008088815260200190815260200160002060050160010154866107da9190611ab4565b6107e49190611b3d565b9050600080600088815260200190815260200160002060050160030160009054906101000a900473ffffffffffffffffffffffffffffffffffffffff169050600060646000808a8152602001908152602001600020600501600201548861084b9190611ab4565b6108559190611b3d565b9050868184876108659190611847565b61086f9190611847565b146108af576040517f08c379a00000000000000000000000000000000000000000000000000000000081526004016108a690611c06565b60405180910390fd5b60646000808a8152602001908152602001600020600501600401541461090a576040517f08c379a000000000000000000000000000000000000000000000000000000000815260040161090190611c72565b60405180910390fd5b60c86000808a8152602001908152602001600020600501600401819055508573ffffffffffffffffffffffffffffffffffffffff166108fc869081150290604051600060405180830381858888f1935050505015801561096e573d6000803e3d6000fd5b508373ffffffffffffffffffffffffffffffffffffffff166108fc849081150290604051600060405180830381858888f193505050501580156109b5573d6000803e3d6000fd5b508173ffffffffffffffffffffffffffffffffffffffff166108fc829081150290604051600060405180830381858888f193505050501580156109fc573d6000803e3d6000fd5b505050505050505050565b600080828152602001908152602001600020600201543414610a5e576040517f08c379a0000000000000000000000000000000000000000000000000000000008152600401610a5590611d04565b60405180910390fd5b3360008083815260200190815260200160002060000160006101000a81548173ffffffffffffffffffffffffffffffffffffffff021916908373ffffffffffffffffffffffffffffffffffffffff160217905550610abb816110a5565b50565b60016020528160005260406000208181548110610ada57600080fd5b90600052602060002001600091509150505481565b60008082815260200190815260200160002060000160009054906101000a900473ffffffffffffffffffffffffffffffffffffffff1673ffffffffffffffffffffffffffffffffffffffff163373ffffffffffffffffffffffffffffffffffffffff161480610bbe575060008082815260200190815260200160002060010160009054906101000a900473ffffffffffffffffffffffffffffffffffffffff1673ffffffffffffffffffffffffffffffffffffffff163373ffffffffffffffffffffffffffffffffffffffff16145b610bfd576040517f08c379a0000000000000000000000000000000000000000000000000000000008152600401610bf490611d96565b60405180910390fd5b61012d6000808381526020019081526020016000206005016004015414158015610c41575061012e6000808381526020019081526020016000206005016004015414155b610c80576040517f08c379a0000000000000000000000000000000000000000000000000000000008152600401610c7790611e02565b60405180910390fd5b60c8600080838152602001908152602001600020600501600401541415610cdc576040517f08c379a0000000000000000000000000000000000000000000000000000000008152600401610cd390611e6e565b60405180910390fd5b60008082815260200190815260200160002060010160009054906101000a900473ffffffffffffffffffffffffffffffffffffffff1673ffffffffffffffffffffffffffffffffffffffff163373ffffffffffffffffffffffffffffffffffffffff161415610d695761012d60008083815260200190815260200160002060050160040181905550610df3565b60008082815260200190815260200160002060000160009054906101000a900473ffffffffffffffffffffffffffffffffffffffff1673ffffffffffffffffffffffffffffffffffffffff163373ffffffffffffffffffffffffffffffffffffffff161415610df25761012e600080838152602001908152602001600020600501600401819055505b5b50565b610dfe61110e565b33816020019073ffffffffffffffffffffffffffffffffffffffff16908173ffffffffffffffffffffffffffffffffffffffff16815250508281604001818152505081816060018190525080600080600254815260200190815260200160002060008201518160000160006101000a81548173ffffffffffffffffffffffffffffffffffffffff021916908373ffffffffffffffffffffffffffffffffffffffff16021790555060208201518160010160006101000a81548173ffffffffffffffffffffffffffffffffffffffff021916908373ffffffffffffffffffffffffffffffffffffffff160217905550604082015181600201556060820151816003019080519060200190610f12929190611176565b506080820151816004019080519060200190610f2f929190611176565b5060a08201518160050160008201518160000155602082015181600101556040820151816002015560608201518160030160006101000a81548173ffffffffffffffffffffffffffffffffffffffff021916908373ffffffffffffffffffffffffffffffffffffffff160217905550608082015181600401555050905050610fb86002546110a5565b7fa44f460f2ac523b4a38d95d97950a776d7bf0adbaff2501d321f040e3d661e46600254604051610fe99190611277565b60405180910390a16001600260008282546110049190611847565b92505081905550505050565b6060600160003373ffffffffffffffffffffffffffffffffffffffff1673ffffffffffffffffffffffffffffffffffffffff16815260200190815260200160002080548060200260200160405190810160405280929190818152602001828054801561109b57602002820191906000526020600020905b815481526020019060010190808311611087575b5050505050905090565b600160003373ffffffffffffffffffffffffffffffffffffffff1673ffffffffffffffffffffffffffffffffffffffff16815260200190815260200160002081908060018154018082558091505060019003906000526020600020016000909190919091505550565b6040518060c00160405280600073ffffffffffffffffffffffffffffffffffffffff168152602001600073ffffffffffffffffffffffffffffffffffffffff1681526020016000815260200160608152602001606081526020016111706111fc565b81525090565b828054611182906119f0565b90600052602060002090601f0160209004810192826111a457600085556111eb565b82601f106111bd57805160ff19168380011785556111eb565b828001600101855582156111eb579182015b828111156111ea5782518255916020019190600101906111cf565b5b5090506111f89190611241565b5090565b6040518060a00160405280600081526020016000815260200160008152602001600073ffffffffffffffffffffffffffffffffffffffff168152602001600081525090565b5b8082111561125a576000816000905550600101611242565b5090565b6000819050919050565b6112718161125e565b82525050565b600060208201905061128c6000830184611268565b92915050565b6000604051905090565b600080fd5b600080fd5b6112af8161125e565b81146112ba57600080fd5b50565b6000813590506112cc816112a6565b92915050565b600073ffffffffffffffffffffffffffffffffffffffff82169050919050565b60006112fd826112d2565b9050919050565b61130d816112f2565b811461131857600080fd5b50565b60008135905061132a81611304565b92915050565b600080600080600060a0868803121561134c5761134b61129c565b5b600061135a888289016112bd565b955050602061136b888289016112bd565b945050604061137c888289016112bd565b935050606061138d888289016112bd565b925050608061139e8882890161131b565b9150509295509295909350565b6000602082840312156113c1576113c061129c565b5b60006113cf848285016112bd565b91505092915050565b6113e1816112f2565b82525050565b600081519050919050565b600082825260208201905092915050565b60005b83811015611421578082015181840152602081019050611406565b83811115611430576000848401525b50505050565b6000601f19601f8301169050919050565b6000611452826113e7565b61145c81856113f2565b935061146c818560208601611403565b61147581611436565b840191505092915050565b6114898161125e565b82525050565b611498816112f2565b82525050565b60a0820160008201516114b46000850182611480565b5060208201516114c76020850182611480565b5060408201516114da6040850182611480565b5060608201516114ed606085018261148f565b5060808201516115006080850182611480565b50505050565b60006101408201905061151c60008301896113d8565b61152960208301886113d8565b6115366040830187611268565b81810360608301526115488186611447565b9050818103608083015261155c8185611447565b905061156b60a083018461149e565b979650505050505050565b6000806040838503121561158d5761158c61129c565b5b600061159b8582860161131b565b92505060206115ac858286016112bd565b9150509250929050565b600080fd5b600080fd5b7f4e487b7100000000000000000000000000000000000000000000000000000000600052604160045260246000fd5b6115f882611436565b810181811067ffffffffffffffff82111715611617576116166115c0565b5b80604052505050565b600061162a611292565b905061163682826115ef565b919050565b600067ffffffffffffffff821115611656576116556115c0565b5b61165f82611436565b9050602081019050919050565b82818337600083830152505050565b600061168e6116898461163b565b611620565b9050828152602081018484840111156116aa576116a96115bb565b5b6116b584828561166c565b509392505050565b600082601f8301126116d2576116d16115b6565b5b81356116e284826020860161167b565b91505092915050565b600080604083850312156117025761170161129c565b5b6000611710858286016112bd565b925050602083013567ffffffffffffffff811115611731576117306112a1565b5b61173d858286016116bd565b9150509250929050565b600081519050919050565b600082825260208201905092915050565b6000819050602082019050919050565b600061177f8383611480565b60208301905092915050565b6000602082019050919050565b60006117a382611747565b6117ad8185611752565b93506117b883611763565b8060005b838110156117e95781516117d08882611773565b97506117db8361178b565b9250506001810190506117bc565b5085935050505092915050565b600060208201905081810360008301526118108184611798565b905092915050565b7f4e487b7100000000000000000000000000000000000000000000000000000000600052601160045260246000fd5b60006118528261125e565b915061185d8361125e565b9250827fffffffffffffffffffffffffffffffffffffffffffffffffffffffffffffffff0382111561189257611891611818565b5b828201905092915050565b7f54656e616e745368617265202b204c616e646c6f7264205368617265202b204660008201527f6565205368617265206973206e6f742031303025000000000000000000000000602082015250565b60006118f96034836113f2565b91506119048261189d565b604082019050919050565b60006020820190508181036000830152611928816118ec565b9050919050565b7f4f6e6c79204c616e646c6f72642063616e206372656174652072656465656d2060008201527f70726f706f73616c000000000000000000000000000000000000000000000000602082015250565b600061198b6028836113f2565b91506119968261192f565b604082019050919050565b600060208201905081810360008301526119ba8161197e565b9050919050565b7f4e487b7100000000000000000000000000000000000000000000000000000000600052602260045260246000fd5b60006002820490506001821680611a0857607f821691505b60208210811415611a1c57611a1b6119c1565b5b50919050565b7f4f6e6c792074656e616e742063616e206163636570742072656465656d20707260008201527f6f706f73616c0000000000000000000000000000000000000000000000000000602082015250565b6000611a7e6026836113f2565b9150611a8982611a22565b604082019050919050565b60006020820190508181036000830152611aad81611a71565b9050919050565b6000611abf8261125e565b9150611aca8361125e565b9250817fffffffffffffffffffffffffffffffffffffffffffffffffffffffffffffffff0483118215151615611b0357611b02611818565b5b828202905092915050565b7f4e487b7100000000000000000000000000000000000000000000000000000000600052601260045260246000fd5b6000611b488261125e565b9150611b538361125e565b925082611b6357611b62611b0e565b5b828204905092915050565b7f54656e616e745368617265202b204c616e646c6f7264205368617265202b204660008201527f656520536861726520646f6573206e6f7420657175616c20457363726f77205660208201527f616c756500000000000000000000000000000000000000000000000000000000604082015250565b6000611bf06044836113f2565b9150611bfb82611b6e565b606082019050919050565b60006020820190508181036000830152611c1f81611be3565b9050919050565b7f457363726f7720686173206265656e20616c726561642072656465656d65642e600082015250565b6000611c5c6020836113f2565b9150611c6782611c26565b602082019050919050565b60006020820190508181036000830152611c8b81611c4f565b9050919050565b7f4574682073656e74206973206e6f742073616d6520617320657363726f77566160008201527f6c75650000000000000000000000000000000000000000000000000000000000602082015250565b6000611cee6023836113f2565b9150611cf982611c92565b604082019050919050565b60006020820190508181036000830152611d1d81611ce1565b9050919050565b7f4f6e6c792074656e616e74206f72206c616e646c6f72642063616e206163636560008201527f70742072656465656d2070726f706f73616c0000000000000000000000000000602082015250565b6000611d806032836113f2565b9150611d8b82611d24565b604082019050919050565b60006020820190508181036000830152611daf81611d73565b9050919050565b7f416c72656164792072656a656374656400000000000000000000000000000000600082015250565b6000611dec6010836113f2565b9150611df782611db6565b602082019050919050565b60006020820190508181036000830152611e1b81611ddf565b9050919050565b7f416c726561647920616363657074656400000000000000000000000000000000600082015250565b6000611e586010836113f2565b9150611e6382611e22565b602082019050919050565b60006020820190508181036000830152611e8781611e4b565b905091905056fea26469706673582212202e643b0cdc135c07bf88434522aada756134fcb4d17339e98122052d888fbb7164736f6c634300080a0033",
  "immutableReferences": {},
  "source": "pragma solidity ^0.8.10;\n\ncontract rentEscrow{\n\n    struct rentContract {\n        address tenant;\n        address landlord;\n        uint256 escrowValue;\n        string contractDetail;\n        string status;\n        redeemProposal redeemProposal;\n    }\n\n    struct redeemProposal {\n        uint tenantShare;\n        uint landlordShare;\n        uint feeShare;\n        address feeAddress;\n        uint proposalStatus; /// @dev 100 Proposed 200 Redeemed by tenant 202 Redemed via Dispute Resolution 301 rejected by landlord 302 rejected by tenant\n    }\n\n    mapping(uint => rentContract) public rentContractsMapping;\n\n    // will use this to search contracts by address\n    mapping(address => uint[]) public addressMapping;\n    uint public nextRentId = 0;\n\n    ///@dev in order to give some feedback that rentcontract was created, we will emit its id. Later maybe be filled with some other\n    event rentContractId (uint _rentId);\n    event rentContractId2 (uint _rentId);\n\n    ///@dev Should go to some utils contract\n\n    function updateAddressMapping (uint _rentId) internal {\n        addressMapping[msg.sender].push(_rentId);\n    }\n\n    function getContractsByAddress () external view returns ( uint[] memory ){\n    return addressMapping[msg.sender];\n\n    }\n\n    function proposeNewContract (uint256 _escrowValue, string memory _contractDetail) external {\n        rentContract memory myRentContract;\n     \n        myRentContract.landlord = msg.sender;\n        myRentContract.escrowValue = _escrowValue;\n        myRentContract.contractDetail = _contractDetail;\n        \n        rentContractsMapping[nextRentId] = myRentContract; //Later: Change to nextId to hashed ID\n        updateAddressMapping(nextRentId);\n        emit rentContractId(nextRentId);\n        \n        nextRentId += 1;\n\n    }\n\n    function acceptNewContract (uint _rentId) external payable{\n        require(msg.value == rentContractsMapping[_rentId].escrowValue, \"Eth sent is not same as escrowValue\");\n        \n        rentContractsMapping[_rentId].tenant = msg.sender;\n\n        updateAddressMapping(_rentId);\n\n    }\n\n    function createRedeemProposal (uint _rentId, uint _tenantShare, uint _landlordShare, uint _feeShare, address _feeAddress  ) external {\n        \n        uint shareSum = _tenantShare + _landlordShare + _feeShare;\n        require(shareSum == 100, \"TenantShare + Landlord Share + Fee Share is not 100%\" );\n\n        //only landlord can create redeemProposal\n        // test required\n        require(msg.sender ==  rentContractsMapping[_rentId].landlord, \"Only Landlord can create redeem proposal\");\n\n        rentContractsMapping[_rentId].redeemProposal.tenantShare = _tenantShare;\n        rentContractsMapping[_rentId].redeemProposal.landlordShare = _landlordShare;\n        rentContractsMapping[_rentId].redeemProposal.feeShare = _feeShare;\n        //Later: fee address must be protected\n        rentContractsMapping[_rentId].redeemProposal.feeAddress = _feeAddress;\n        rentContractsMapping[_rentId].redeemProposal.proposalStatus = 100;\n    \n    }\n\n    function acceptRedeemProposal(uint _rentId) external {\n        //only tenant can accept redeemProposal\n        // test required\n        require(msg.sender ==  rentContractsMapping[_rentId].tenant,\"Only tenant can accept redeem proposal\");\n\n        \n        uint escrowValue = rentContractsMapping[_rentId].escrowValue;\n        // send to tenant\n        address payable tenantAddress = payable(rentContractsMapping[_rentId].tenant);\n        uint escrowTenant = escrowValue * rentContractsMapping[_rentId].redeemProposal.tenantShare / 100;\n\n         // send to landlord\n        address payable landlordAddress = payable(rentContractsMapping[_rentId].landlord);\n        uint escrowLandlord = escrowValue * rentContractsMapping[_rentId].redeemProposal.landlordShare / 100;\n\n        // send to fee\n        address payable feeAddress = payable(rentContractsMapping[_rentId].redeemProposal.feeAddress);\n        uint fee = escrowValue * rentContractsMapping[_rentId].redeemProposal.feeShare / 100;\n\n        //values to send must equal to escrowValue\n        require((escrowTenant + escrowLandlord + fee) == escrowValue, \"TenantShare + Landlord Share + Fee Share does not equal Escrow Value\");\n\n        // status must be 100 (proposed), to avoid double dip\n        require(rentContractsMapping[_rentId].redeemProposal.proposalStatus == 100, \"Escrow has been alread redeemed.\");\n        rentContractsMapping[_rentId].redeemProposal.proposalStatus = 200;\n\n        //Later: would it make sense to stop any redemptions in case sum of individual escrows is below total balance ???\n        \n        //Sending\n        tenantAddress.transfer(escrowTenant);\n        landlordAddress.transfer(escrowLandlord);\n        feeAddress.transfer(fee);    \n    }\n\n    ///@notice Use this function to reject redeem proposal. Will send it to the resolution centre\n    ///@param _rentId identifies the contract between tenant and landlord\n\n    function rejectRedeemProposal(uint _rentId) external {\n        ///@dev UX has a say here, currently tenant and landlord can reject at any time\n        require((msg.sender ==  rentContractsMapping[_rentId].tenant || msg.sender == rentContractsMapping[_rentId].landlord), \"Only tenant or landlord can accept redeem proposal\");\n        \n        ///@custom:later probably better to re-write to allowed statuses\n        require(\n            rentContractsMapping[_rentId].redeemProposal.proposalStatus != 301 &&\n            rentContractsMapping[_rentId].redeemProposal.proposalStatus != 302,\"Already rejected\");\n        require(rentContractsMapping[_rentId].redeemProposal.proposalStatus != (200),\"Already accepted\" );\n\n        if(msg.sender == rentContractsMapping[_rentId].landlord) {\n            rentContractsMapping[_rentId].redeemProposal.proposalStatus = 301;\n        }\n        else if (msg.sender == rentContractsMapping[_rentId].tenant){\n             rentContractsMapping[_rentId].redeemProposal.proposalStatus = 302;\n\n        }\n\n    }\n \n\n    function devGetBalance () external view returns(uint){\n        return(address(this).balance);\n    }\n}",
  "sourcePath": "/Users/andy/my_repos/rentEscrow/contracts/rentEscrow.sol",
  "compiler": {
    "name": "solc",
    "version": "0.8.10+commit.fc410830.Emscripten.clang"
  },
  "schemaVersion": "3.4.3",
  "updatedAt": "2022-01-15T20:00:49.313Z",
  "devdoc": {
    "events": {
      "rentContractId(uint256)": {
        "details": "in order to give some feedback that rentcontract was created, we will emit its id. Later maybe be filled with some other"
      }
    },
    "kind": "dev",
    "methods": {
      "rejectRedeemProposal(uint256)": {
        "params": {
          "_rentId": "identifies the contract between tenant and landlord"
        }
      }
    },
    "version": 1
  },
  "userdoc": {
    "kind": "user",
    "methods": {
      "rejectRedeemProposal(uint256)": {
        "notice": "Use this function to reject redeem proposal. Will send it to the resolution centre"
      }
    },
    "version": 1
  }
}