{
  "contractName": "rentEscrow",
  "abi": [
    {
      "anonymous": false,
      "inputs": [
        {
          "indexed": false,
          "internalType": "uint256",
          "name": "_rentId",
          "type": "uint256"
        }
      ],
      "name": "rentContractId",
      "type": "event"
    },
    {
      "inputs": [
        {
          "internalType": "address",
          "name": "",
          "type": "address"
        },
        {
          "internalType": "uint256",
          "name": "",
          "type": "uint256"
        }
      ],
      "name": "addressMapping",
      "outputs": [
        {
          "internalType": "uint256",
          "name": "",
          "type": "uint256"
        }
      ],
      "stateMutability": "view",
      "type": "function"
    },
    {
      "inputs": [],
      "name": "nextRentId",
      "outputs": [
        {
          "internalType": "uint256",
          "name": "",
          "type": "uint256"
        }
      ],
      "stateMutability": "view",
      "type": "function"
    },
    {
      "inputs": [
        {
          "internalType": "uint256",
          "name": "",
          "type": "uint256"
        }
      ],
      "name": "rentContractsMapping",
      "outputs": [
        {
          "internalType": "uint256",
          "name": "rentId",
          "type": "uint256"
        },
        {
          "internalType": "address",
          "name": "tenant",
          "type": "address"
        },
        {
          "internalType": "address",
          "name": "landlord",
          "type": "address"
        },
        {
          "internalType": "uint256",
          "name": "escrowValue",
          "type": "uint256"
        },
        {
          "internalType": "string",
          "name": "contractDetail",
          "type": "string"
        },
        {
          "internalType": "string",
          "name": "status",
          "type": "string"
        },
        {
          "components": [
            {
              "internalType": "uint256",
              "name": "tenantShare",
              "type": "uint256"
            },
            {
              "internalType": "uint256",
              "name": "landlordShare",
              "type": "uint256"
            },
            {
              "internalType": "uint256",
              "name": "feeShare",
              "type": "uint256"
            },
            {
              "internalType": "address",
              "name": "feeAddress",
              "type": "address"
            },
            {
              "internalType": "uint256",
              "name": "proposalStatus",
              "type": "uint256"
            }
          ],
          "internalType": "struct rentEscrowInterface.RedeemProposal",
          "name": "redeemProposal",
          "type": "tuple"
        }
      ],
      "stateMutability": "view",
      "type": "function"
    },
    {
      "inputs": [],
      "name": "getContractToResolve",
      "outputs": [
        {
          "components": [
            {
              "internalType": "uint256",
              "name": "rentId",
              "type": "uint256"
            },
            {
              "internalType": "address",
              "name": "tenant",
              "type": "address"
            },
            {
              "internalType": "address",
              "name": "landlord",
              "type": "address"
            },
            {
              "internalType": "uint256",
              "name": "escrowValue",
              "type": "uint256"
            },
            {
              "internalType": "string",
              "name": "contractDetail",
              "type": "string"
            },
            {
              "internalType": "string",
              "name": "status",
              "type": "string"
            },
            {
              "components": [
                {
                  "internalType": "uint256",
                  "name": "tenantShare",
                  "type": "uint256"
                },
                {
                  "internalType": "uint256",
                  "name": "landlordShare",
                  "type": "uint256"
                },
                {
                  "internalType": "uint256",
                  "name": "feeShare",
                  "type": "uint256"
                },
                {
                  "internalType": "address",
                  "name": "feeAddress",
                  "type": "address"
                },
                {
                  "internalType": "uint256",
                  "name": "proposalStatus",
                  "type": "uint256"
                }
              ],
              "internalType": "struct rentEscrowInterface.RedeemProposal",
              "name": "redeemProposal",
              "type": "tuple"
            }
          ],
          "internalType": "struct rentEscrowInterface.RentContract",
          "name": "",
          "type": "tuple"
        }
      ],
      "stateMutability": "view",
      "type": "function"
    },
    {
      "inputs": [],
      "name": "getContractsByAddress",
      "outputs": [
        {
          "internalType": "uint256[]",
          "name": "",
          "type": "uint256[]"
        }
      ],
      "stateMutability": "view",
      "type": "function"
    },
    {
      "inputs": [
        {
          "internalType": "uint256",
          "name": "_escrowValue",
          "type": "uint256"
        },
        {
          "internalType": "string",
          "name": "_contractDetail",
          "type": "string"
        }
      ],
      "name": "proposeNewContract",
      "outputs": [],
      "stateMutability": "nonpayable",
      "type": "function"
    },
    {
      "inputs": [
        {
          "internalType": "uint256",
          "name": "_rentId",
          "type": "uint256"
        }
      ],
      "name": "acceptNewContract",
      "outputs": [],
      "stateMutability": "payable",
      "type": "function"
    },
    {
      "inputs": [
        {
          "internalType": "uint256",
          "name": "_rentId",
          "type": "uint256"
        },
        {
          "internalType": "uint256",
          "name": "_tenantShare",
          "type": "uint256"
        },
        {
          "internalType": "uint256",
          "name": "_landlordShare",
          "type": "uint256"
        },
        {
          "internalType": "uint256",
          "name": "_feeShare",
          "type": "uint256"
        },
        {
          "internalType": "address",
          "name": "_feeAddress",
          "type": "address"
        }
      ],
      "name": "createRedeemProposal",
      "outputs": [],
      "stateMutability": "nonpayable",
      "type": "function"
    },
    {
      "inputs": [
        {
          "internalType": "uint256",
          "name": "_rentId",
          "type": "uint256"
        }
      ],
      "name": "acceptRedeemProposal",
      "outputs": [],
      "stateMutability": "nonpayable",
      "type": "function"
    },
    {
      "inputs": [
        {
          "internalType": "uint256",
          "name": "_rentId",
          "type": "uint256"
        }
      ],
      "name": "rejectRedeemProposal",
      "outputs": [],
      "stateMutability": "nonpayable",
      "type": "function"
    },
    {
      "inputs": [],
      "name": "devGetBalance",
      "outputs": [
        {
          "internalType": "uint256",
          "name": "",
          "type": "uint256"
        }
      ],
      "stateMutability": "view",
      "type": "function"
    }
  ],
  "bytecode": "0x6080604052600060025534801561001557600080fd5b5061234b806100256000396000f3fe60806040526004361061009c5760003560e01c80637afc2d56116100645780637afc2d561461018e57806385b58963146101b757806396d65c3e146101d3578063a6dd427614610210578063b59146f714610239578063b61f5f53146102625761009c565b8063039ed501146100a15780632458cc3e146100cc5780633d45370c146100f75780636b695d24146101205780637395eb4114610163575b600080fd5b3480156100ad57600080fd5b506100b661028d565b6040516100c39190611578565b60405180910390f35b3480156100d857600080fd5b506100e1610293565b6040516100ee9190611578565b60405180910390f35b34801561010357600080fd5b5061011e60048036038101906101199190611631565b61029b565b005b34801561012c57600080fd5b50610147600480360381019061014291906116ac565b610470565b60405161015a9796959493929190611807565b60405180910390f35b34801561016f57600080fd5b5061017861068a565b60405161018591906119db565b60405180910390f35b34801561019a57600080fd5b506101b560048036038101906101b091906116ac565b610931565b005b6101d160048036038101906101cc91906116ac565b610ceb565b005b3480156101df57600080fd5b506101fa60048036038101906101f591906119fd565b610da2565b6040516102079190611578565b60405180910390f35b34801561021c57600080fd5b50610237600480360381019061023291906116ac565b610dd3565b005b34801561024557600080fd5b50610260600480360381019061025b9190611b72565b6110da565b005b34801561026e57600080fd5b5061027761130a565b6040516102849190611c7d565b60405180910390f35b60025481565b600047905090565b60008284866102aa9190611cce565b6102b49190611cce565b9050606481146102f9576040517f08c379a00000000000000000000000000000000000000000000000000000000081526004016102f090611d96565b60405180910390fd5b60008087815260200190815260200160002060020160009054906101000a900473ffffffffffffffffffffffffffffffffffffffff1673ffffffffffffffffffffffffffffffffffffffff163373ffffffffffffffffffffffffffffffffffffffff161461039c576040517f08c379a000000000000000000000000000000000000000000000000000000000815260040161039390611e28565b60405180910390fd5b8460008088815260200190815260200160002060060160000181905550836000808881526020019081526020016000206006016001018190555082600080888152602001908152602001600020600601600201819055508160008088815260200190815260200160002060060160030160006101000a81548173ffffffffffffffffffffffffffffffffffffffff021916908373ffffffffffffffffffffffffffffffffffffffff160217905550606460008088815260200190815260200160002060060160040181905550505050505050565b60006020528060005260406000206000915090508060000154908060010160009054906101000a900473ffffffffffffffffffffffffffffffffffffffff16908060020160009054906101000a900473ffffffffffffffffffffffffffffffffffffffff16908060030154908060040180546104eb90611e77565b80601f016020809104026020016040519081016040528092919081815260200182805461051790611e77565b80156105645780601f1061053957610100808354040283529160200191610564565b820191906000526020600020905b81548152906001019060200180831161054757829003601f168201915b50505050509080600501805461057990611e77565b80601f01602080910402602001604051908101604052809291908181526020018280546105a590611e77565b80156105f25780601f106105c7576101008083540402835291602001916105f2565b820191906000526020600020905b8154815290600101906020018083116105d557829003601f168201915b505050505090806006016040518060a00160405290816000820154815260200160018201548152602001600282015481526020016003820160009054906101000a900473ffffffffffffffffffffffffffffffffffffffff1673ffffffffffffffffffffffffffffffffffffffff1673ffffffffffffffffffffffffffffffffffffffff168152602001600482015481525050905087565b610692611408565b6000600190506000808281526020019081526020016000206040518060e0016040529081600082015481526020016001820160009054906101000a900473ffffffffffffffffffffffffffffffffffffffff1673ffffffffffffffffffffffffffffffffffffffff1673ffffffffffffffffffffffffffffffffffffffff1681526020016002820160009054906101000a900473ffffffffffffffffffffffffffffffffffffffff1673ffffffffffffffffffffffffffffffffffffffff1673ffffffffffffffffffffffffffffffffffffffff1681526020016003820154815260200160048201805461078590611e77565b80601f01602080910402602001604051908101604052809291908181526020018280546107b190611e77565b80156107fe5780601f106107d3576101008083540402835291602001916107fe565b820191906000526020600020905b8154815290600101906020018083116107e157829003601f168201915b5050505050815260200160058201805461081790611e77565b80601f016020809104026020016040519081016040528092919081815260200182805461084390611e77565b80156108905780601f1061086557610100808354040283529160200191610890565b820191906000526020600020905b81548152906001019060200180831161087357829003601f168201915b50505050508152602001600682016040518060a00160405290816000820154815260200160018201548152602001600282015481526020016003820160009054906101000a900473ffffffffffffffffffffffffffffffffffffffff1673ffffffffffffffffffffffffffffffffffffffff1673ffffffffffffffffffffffffffffffffffffffff1681526020016004820154815250508152505091505090565b60008082815260200190815260200160002060010160009054906101000a900473ffffffffffffffffffffffffffffffffffffffff1673ffffffffffffffffffffffffffffffffffffffff163373ffffffffffffffffffffffffffffffffffffffff16146109d4576040517f08c379a00000000000000000000000000000000000000000000000000000000081526004016109cb90611f1b565b60405180910390fd5b6000806000838152602001908152602001600020600301549050600080600084815260200190815260200160002060010160009054906101000a900473ffffffffffffffffffffffffffffffffffffffff169050600060646000808681526020019081526020016000206006016000015484610a509190611f3b565b610a5a9190611fc4565b9050600080600086815260200190815260200160002060020160009054906101000a900473ffffffffffffffffffffffffffffffffffffffff169050600060646000808881526020019081526020016000206006016001015486610abe9190611f3b565b610ac89190611fc4565b9050600080600088815260200190815260200160002060060160030160009054906101000a900473ffffffffffffffffffffffffffffffffffffffff169050600060646000808a81526020019081526020016000206006016002015488610b2f9190611f3b565b610b399190611fc4565b905086818487610b499190611cce565b610b539190611cce565b14610b93576040517f08c379a0000000000000000000000000000000000000000000000000000000008152600401610b8a9061208d565b60405180910390fd5b60646000808a81526020019081526020016000206006016004015414610bee576040517f08c379a0000000000000000000000000000000000000000000000000000000008152600401610be5906120f9565b60405180910390fd5b60c86000808a8152602001908152602001600020600601600401819055508573ffffffffffffffffffffffffffffffffffffffff166108fc869081150290604051600060405180830381858888f19350505050158015610c52573d6000803e3d6000fd5b508373ffffffffffffffffffffffffffffffffffffffff166108fc849081150290604051600060405180830381858888f19350505050158015610c99573d6000803e3d6000fd5b508173ffffffffffffffffffffffffffffffffffffffff166108fc829081150290604051600060405180830381858888f19350505050158015610ce0573d6000803e3d6000fd5b505050505050505050565b600080828152602001908152602001600020600301543414610d42576040517f08c379a0000000000000000000000000000000000000000000000000000000008152600401610d399061218b565b60405180910390fd5b3360008083815260200190815260200160002060010160006101000a81548173ffffffffffffffffffffffffffffffffffffffff021916908373ffffffffffffffffffffffffffffffffffffffff160217905550610d9f8161139f565b50565b60016020528160005260406000208181548110610dbe57600080fd5b90600052602060002001600091509150505481565b60008082815260200190815260200160002060010160009054906101000a900473ffffffffffffffffffffffffffffffffffffffff1673ffffffffffffffffffffffffffffffffffffffff163373ffffffffffffffffffffffffffffffffffffffff161480610ea2575060008082815260200190815260200160002060020160009054906101000a900473ffffffffffffffffffffffffffffffffffffffff1673ffffffffffffffffffffffffffffffffffffffff163373ffffffffffffffffffffffffffffffffffffffff16145b610ee1576040517f08c379a0000000000000000000000000000000000000000000000000000000008152600401610ed89061221d565b60405180910390fd5b61012d6000808381526020019081526020016000206006016004015414158015610f25575061012e6000808381526020019081526020016000206006016004015414155b610f64576040517f08c379a0000000000000000000000000000000000000000000000000000000008152600401610f5b90612289565b60405180910390fd5b60c8600080838152602001908152602001600020600601600401541415610fc0576040517f08c379a0000000000000000000000000000000000000000000000000000000008152600401610fb7906122f5565b60405180910390fd5b60008082815260200190815260200160002060020160009054906101000a900473ffffffffffffffffffffffffffffffffffffffff1673ffffffffffffffffffffffffffffffffffffffff163373ffffffffffffffffffffffffffffffffffffffff16141561104d5761012d600080838152602001908152602001600020600601600401819055506110d7565b60008082815260200190815260200160002060010160009054906101000a900473ffffffffffffffffffffffffffffffffffffffff1673ffffffffffffffffffffffffffffffffffffffff163373ffffffffffffffffffffffffffffffffffffffff1614156110d65761012e600080838152602001908152602001600020600601600401819055505b5b50565b6110e2611408565b60025481600001818152505033816040019073ffffffffffffffffffffffffffffffffffffffff16908173ffffffffffffffffffffffffffffffffffffffff1681525050828160600181815250508181608001819052508060008060025481526020019081526020016000206000820151816000015560208201518160010160006101000a81548173ffffffffffffffffffffffffffffffffffffffff021916908373ffffffffffffffffffffffffffffffffffffffff16021790555060408201518160020160006101000a81548173ffffffffffffffffffffffffffffffffffffffff021916908373ffffffffffffffffffffffffffffffffffffffff16021790555060608201518160030155608082015181600401908051906020019061120c929190611477565b5060a0820151816005019080519060200190611229929190611477565b5060c08201518160060160008201518160000155602082015181600101556040820151816002015560608201518160030160006101000a81548173ffffffffffffffffffffffffffffffffffffffff021916908373ffffffffffffffffffffffffffffffffffffffff1602179055506080820151816004015550509050506112b260025461139f565b7fa44f460f2ac523b4a38d95d97950a776d7bf0adbaff2501d321f040e3d661e466002546040516112e39190611578565b60405180910390a16001600260008282546112fe9190611cce565b92505081905550505050565b6060600160003373ffffffffffffffffffffffffffffffffffffffff1673ffffffffffffffffffffffffffffffffffffffff16815260200190815260200160002080548060200260200160405190810160405280929190818152602001828054801561139557602002820191906000526020600020905b815481526020019060010190808311611381575b5050505050905090565b600160003373ffffffffffffffffffffffffffffffffffffffff1673ffffffffffffffffffffffffffffffffffffffff16815260200190815260200160002081908060018154018082558091505060019003906000526020600020016000909190919091505550565b6040518060e0016040528060008152602001600073ffffffffffffffffffffffffffffffffffffffff168152602001600073ffffffffffffffffffffffffffffffffffffffff1681526020016000815260200160608152602001606081526020016114716114fd565b81525090565b82805461148390611e77565b90600052602060002090601f0160209004810192826114a557600085556114ec565b82601f106114be57805160ff19168380011785556114ec565b828001600101855582156114ec579182015b828111156114eb5782518255916020019190600101906114d0565b5b5090506114f99190611542565b5090565b6040518060a00160405280600081526020016000815260200160008152602001600073ffffffffffffffffffffffffffffffffffffffff168152602001600081525090565b5b8082111561155b576000816000905550600101611543565b5090565b6000819050919050565b6115728161155f565b82525050565b600060208201905061158d6000830184611569565b92915050565b6000604051905090565b600080fd5b600080fd5b6115b08161155f565b81146115bb57600080fd5b50565b6000813590506115cd816115a7565b92915050565b600073ffffffffffffffffffffffffffffffffffffffff82169050919050565b60006115fe826115d3565b9050919050565b61160e816115f3565b811461161957600080fd5b50565b60008135905061162b81611605565b92915050565b600080600080600060a0868803121561164d5761164c61159d565b5b600061165b888289016115be565b955050602061166c888289016115be565b945050604061167d888289016115be565b935050606061168e888289016115be565b925050608061169f8882890161161c565b9150509295509295909350565b6000602082840312156116c2576116c161159d565b5b60006116d0848285016115be565b91505092915050565b6116e2816115f3565b82525050565b600081519050919050565b600082825260208201905092915050565b60005b83811015611722578082015181840152602081019050611707565b83811115611731576000848401525b50505050565b6000601f19601f8301169050919050565b6000611753826116e8565b61175d81856116f3565b935061176d818560208601611704565b61177681611737565b840191505092915050565b61178a8161155f565b82525050565b611799816115f3565b82525050565b60a0820160008201516117b56000850182611781565b5060208201516117c86020850182611781565b5060408201516117db6040850182611781565b5060608201516117ee6060850182611790565b5060808201516118016080850182611781565b50505050565b60006101608201905061181d600083018a611569565b61182a60208301896116d9565b61183760408301886116d9565b6118446060830187611569565b81810360808301526118568186611748565b905081810360a083015261186a8185611748565b905061187960c083018461179f565b98975050505050505050565b600082825260208201905092915050565b60006118a1826116e8565b6118ab8185611885565b93506118bb818560208601611704565b6118c481611737565b840191505092915050565b60a0820160008201516118e56000850182611781565b5060208201516118f86020850182611781565b50604082015161190b6040850182611781565b50606082015161191e6060850182611790565b5060808201516119316080850182611781565b50505050565b6000610160830160008301516119506000860182611781565b5060208301516119636020860182611790565b5060408301516119766040860182611790565b5060608301516119896060860182611781565b50608083015184820360808601526119a18282611896565b91505060a083015184820360a08601526119bb8282611896565b91505060c08301516119d060c08601826118cf565b508091505092915050565b600060208201905081810360008301526119f58184611937565b905092915050565b60008060408385031215611a1457611a1361159d565b5b6000611a228582860161161c565b9250506020611a33858286016115be565b9150509250929050565b600080fd5b600080fd5b7f4e487b7100000000000000000000000000000000000000000000000000000000600052604160045260246000fd5b611a7f82611737565b810181811067ffffffffffffffff82111715611a9e57611a9d611a47565b5b80604052505050565b6000611ab1611593565b9050611abd8282611a76565b919050565b600067ffffffffffffffff821115611add57611adc611a47565b5b611ae682611737565b9050602081019050919050565b82818337600083830152505050565b6000611b15611b1084611ac2565b611aa7565b905082815260208101848484011115611b3157611b30611a42565b5b611b3c848285611af3565b509392505050565b600082601f830112611b5957611b58611a3d565b5b8135611b69848260208601611b02565b91505092915050565b60008060408385031215611b8957611b8861159d565b5b6000611b97858286016115be565b925050602083013567ffffffffffffffff811115611bb857611bb76115a2565b5b611bc485828601611b44565b9150509250929050565b600081519050919050565b600082825260208201905092915050565b6000819050602082019050919050565b6000611c068383611781565b60208301905092915050565b6000602082019050919050565b6000611c2a82611bce565b611c348185611bd9565b9350611c3f83611bea565b8060005b83811015611c70578151611c578882611bfa565b9750611c6283611c12565b925050600181019050611c43565b5085935050505092915050565b60006020820190508181036000830152611c978184611c1f565b905092915050565b7f4e487b7100000000000000000000000000000000000000000000000000000000600052601160045260246000fd5b6000611cd98261155f565b9150611ce48361155f565b9250827fffffffffffffffffffffffffffffffffffffffffffffffffffffffffffffffff03821115611d1957611d18611c9f565b5b828201905092915050565b7f54656e616e745368617265202b204c616e646c6f7264205368617265202b204660008201527f6565205368617265206973206e6f742031303025000000000000000000000000602082015250565b6000611d806034836116f3565b9150611d8b82611d24565b604082019050919050565b60006020820190508181036000830152611daf81611d73565b9050919050565b7f4f6e6c79204c616e646c6f72642063616e206372656174652072656465656d2060008201527f70726f706f73616c000000000000000000000000000000000000000000000000602082015250565b6000611e126028836116f3565b9150611e1d82611db6565b604082019050919050565b60006020820190508181036000830152611e4181611e05565b9050919050565b7f4e487b7100000000000000000000000000000000000000000000000000000000600052602260045260246000fd5b60006002820490506001821680611e8f57607f821691505b60208210811415611ea357611ea2611e48565b5b50919050565b7f4f6e6c792074656e616e742063616e206163636570742072656465656d20707260008201527f6f706f73616c0000000000000000000000000000000000000000000000000000602082015250565b6000611f056026836116f3565b9150611f1082611ea9565b604082019050919050565b60006020820190508181036000830152611f3481611ef8565b9050919050565b6000611f468261155f565b9150611f518361155f565b9250817fffffffffffffffffffffffffffffffffffffffffffffffffffffffffffffffff0483118215151615611f8a57611f89611c9f565b5b828202905092915050565b7f4e487b7100000000000000000000000000000000000000000000000000000000600052601260045260246000fd5b6000611fcf8261155f565b9150611fda8361155f565b925082611fea57611fe9611f95565b5b828204905092915050565b7f54656e616e745368617265202b204c616e646c6f7264205368617265202b204660008201527f656520536861726520646f6573206e6f7420657175616c20457363726f77205660208201527f616c756500000000000000000000000000000000000000000000000000000000604082015250565b60006120776044836116f3565b915061208282611ff5565b606082019050919050565b600060208201905081810360008301526120a68161206a565b9050919050565b7f457363726f7720686173206265656e20616c726561642072656465656d65642e600082015250565b60006120e36020836116f3565b91506120ee826120ad565b602082019050919050565b60006020820190508181036000830152612112816120d6565b9050919050565b7f4574682073656e74206973206e6f742073616d6520617320657363726f77566160008201527f6c75650000000000000000000000000000000000000000000000000000000000602082015250565b60006121756023836116f3565b915061218082612119565b604082019050919050565b600060208201905081810360008301526121a481612168565b9050919050565b7f4f6e6c792074656e616e74206f72206c616e646c6f72642063616e206163636560008201527f70742072656465656d2070726f706f73616c0000000000000000000000000000602082015250565b60006122076032836116f3565b9150612212826121ab565b604082019050919050565b60006020820190508181036000830152612236816121fa565b9050919050565b7f416c72656164792072656a656374656400000000000000000000000000000000600082015250565b60006122736010836116f3565b915061227e8261223d565b602082019050919050565b600060208201905081810360008301526122a281612266565b9050919050565b7f416c726561647920616363657074656400000000000000000000000000000000600082015250565b60006122df6010836116f3565b91506122ea826122a9565b602082019050919050565b6000602082019050818103600083015261230e816122d2565b905091905056fea264697066735822122084adb5218c880ff7b9137e53fd03727385e9df913f9e554f65673c82a921229764736f6c634300080a0033",
  "immutableReferences": {},
  "source": "pragma solidity ^0.8.10;\n\ninterface rentEscrowInterface { \n\nstruct RentContract {\n        uint rentId;\n        address tenant;\n        address landlord;\n        uint256 escrowValue;\n        string contractDetail;\n        string status;\n        RedeemProposal redeemProposal;\n    }\n\n    struct RedeemProposal {\n        uint tenantShare;\n        uint landlordShare;\n        uint feeShare;\n        address feeAddress;\n        uint proposalStatus; /// @dev 100 Proposed 200 Redeemed by tenant 202 Redemed via Dispute Resolution 301 rejected by landlord 302 rejected by tenant\n    }\n\n    function getContractToResolve () external view returns (RentContract memory);\n}\n\ncontract rentEscrow is rentEscrowInterface {\n\n    // struct RentContract {\n    //     uint rentId;\n    //     address tenant;\n    //     address landlord;\n    //     uint256 escrowValue;\n    //     string contractDetail;\n    //     string status;\n    //     redeemProposal redeemProposal;\n    // }\n\n    // struct redeemProposal {\n    //     uint tenantShare;\n    //     uint landlordShare;\n    //     uint feeShare;\n    //     address feeAddress;\n    //     uint proposalStatus; /// @dev 100 Proposed 200 Redeemed by tenant 202 Redemed via Dispute Resolution 301 rejected by landlord 302 rejected by tenant\n    // }\n\n    mapping(uint => RentContract) public rentContractsMapping;\n\n    // will use this to search contracts by address\n    mapping(address => uint[]) public addressMapping;\n    uint public nextRentId = 0;\n\n    ///@dev in order to give some feedback that rentcontract was created, we will emit its id. Later maybe be filled with some other\n    event rentContractId (uint _rentId);\n\n    ///@dev this is used by retrieve mapping by another contract\n    ///@custom:later now gives just first contract. Need to add logic to return contract where redeemProposal was rejected\n     function getContractToResolve () external view returns (RentContract memory) {\n         uint _rentId = 1;\n         return rentContractsMapping[_rentId];\n    }\n    \n    ///@dev Should go to some utils contract\n    function updateAddressMapping (uint _rentId) internal {\n        addressMapping[msg.sender].push(_rentId);\n    }\n\n    ///@notice returns all contracts  where sender is involved party\n    function getContractsByAddress () external view returns ( uint[] memory ){\n    return addressMapping[msg.sender];\n\n    }\n\n    function proposeNewContract (uint256 _escrowValue, string memory _contractDetail) external {\n        RentContract memory myRentContract;\n     \n        myRentContract.rentId = nextRentId;\n        myRentContract.landlord = msg.sender;\n        myRentContract.escrowValue = _escrowValue;\n        myRentContract.contractDetail = _contractDetail;\n        \n        rentContractsMapping[nextRentId] = myRentContract; //Later: Change to nextId to hashed ID\n        updateAddressMapping(nextRentId);\n        emit rentContractId(nextRentId);\n        \n        nextRentId += 1;\n\n    }\n\n    function acceptNewContract (uint _rentId) external payable{\n        require(msg.value == rentContractsMapping[_rentId].escrowValue, \"Eth sent is not same as escrowValue\");\n        \n        rentContractsMapping[_rentId].tenant = msg.sender;\n\n        updateAddressMapping(_rentId);\n\n    }\n\n    function createRedeemProposal (uint _rentId, uint _tenantShare, uint _landlordShare, uint _feeShare, address _feeAddress  ) external {\n        \n        uint shareSum = _tenantShare + _landlordShare + _feeShare;\n        require(shareSum == 100, \"TenantShare + Landlord Share + Fee Share is not 100%\" );\n\n        //only landlord can create redeemProposal\n        // test required\n        require(msg.sender ==  rentContractsMapping[_rentId].landlord, \"Only Landlord can create redeem proposal\");\n\n        rentContractsMapping[_rentId].redeemProposal.tenantShare = _tenantShare;\n        rentContractsMapping[_rentId].redeemProposal.landlordShare = _landlordShare;\n        rentContractsMapping[_rentId].redeemProposal.feeShare = _feeShare;\n        //Later: fee address must be protected\n        rentContractsMapping[_rentId].redeemProposal.feeAddress = _feeAddress;\n        rentContractsMapping[_rentId].redeemProposal.proposalStatus = 100;\n    \n    }\n\n    function acceptRedeemProposal(uint _rentId) external {\n        //only tenant can accept redeemProposal\n        // test required\n        require(msg.sender ==  rentContractsMapping[_rentId].tenant,\"Only tenant can accept redeem proposal\");\n\n        \n        uint escrowValue = rentContractsMapping[_rentId].escrowValue;\n        // send to tenant\n        address payable tenantAddress = payable(rentContractsMapping[_rentId].tenant);\n        uint escrowTenant = escrowValue * rentContractsMapping[_rentId].redeemProposal.tenantShare / 100;\n\n         // send to landlord\n        address payable landlordAddress = payable(rentContractsMapping[_rentId].landlord);\n        uint escrowLandlord = escrowValue * rentContractsMapping[_rentId].redeemProposal.landlordShare / 100;\n\n        // send to fee\n        address payable feeAddress = payable(rentContractsMapping[_rentId].redeemProposal.feeAddress);\n        uint fee = escrowValue * rentContractsMapping[_rentId].redeemProposal.feeShare / 100;\n\n        //values to send must equal to escrowValue\n        require((escrowTenant + escrowLandlord + fee) == escrowValue, \"TenantShare + Landlord Share + Fee Share does not equal Escrow Value\");\n\n        // status must be 100 (proposed), to avoid double dip\n        require(rentContractsMapping[_rentId].redeemProposal.proposalStatus == 100, \"Escrow has been alread redeemed.\");\n        rentContractsMapping[_rentId].redeemProposal.proposalStatus = 200;\n\n        //Later: would it make sense to stop any redemptions in case sum of individual escrows is below total balance ???\n        \n        //Sending\n        tenantAddress.transfer(escrowTenant);\n        landlordAddress.transfer(escrowLandlord);\n        feeAddress.transfer(fee);    \n    }\n\n    ///@notice Use this function to reject redeem proposal. Will send it to the resolution centre\n    ///@param _rentId identifies the contract between tenant and landlord\n\n    function rejectRedeemProposal(uint _rentId) external {\n        ///@dev UX has a say here, currently tenant and landlord can reject at any time\n        require((msg.sender ==  rentContractsMapping[_rentId].tenant || msg.sender == rentContractsMapping[_rentId].landlord), \"Only tenant or landlord can accept redeem proposal\");\n        \n        ///@custom:later probably better to re-write to allowed statuses\n        require(\n            rentContractsMapping[_rentId].redeemProposal.proposalStatus != 301 &&\n            rentContractsMapping[_rentId].redeemProposal.proposalStatus != 302,\"Already rejected\");\n        require(rentContractsMapping[_rentId].redeemProposal.proposalStatus != (200),\"Already accepted\" );\n\n        if(msg.sender == rentContractsMapping[_rentId].landlord) {\n            rentContractsMapping[_rentId].redeemProposal.proposalStatus = 301;\n        }\n        else if (msg.sender == rentContractsMapping[_rentId].tenant){\n             rentContractsMapping[_rentId].redeemProposal.proposalStatus = 302;\n\n        }\n\n    }\n \n\n    function devGetBalance () external view returns(uint){\n        return(address(this).balance);\n    }\n}",
  "sourcePath": "/Users/andy/my_repos/rentEscrow/contracts/rentEscrow.sol",
  "compiler": {
    "name": "solc",
    "version": "0.8.10+commit.fc410830.Emscripten.clang"
  },
  "schemaVersion": "3.4.3",
  "updatedAt": "2022-01-29T15:12:16.024Z",
  "devdoc": {
    "events": {
      "rentContractId(uint256)": {
        "details": "in order to give some feedback that rentcontract was created, we will emit its id. Later maybe be filled with some other"
      }
    },
    "kind": "dev",
    "methods": {
      "getContractToResolve()": {
        "custom:later": "now gives just first contract. Need to add logic to return contract where redeemProposal was rejected",
        "details": "this is used by retrieve mapping by another contract"
      },
      "rejectRedeemProposal(uint256)": {
        "params": {
          "_rentId": "identifies the contract between tenant and landlord"
        }
      }
    },
    "version": 1
  },
  "userdoc": {
    "kind": "user",
    "methods": {
      "getContractsByAddress()": {
        "notice": "returns all contracts  where sender is involved party"
      },
      "rejectRedeemProposal(uint256)": {
        "notice": "Use this function to reject redeem proposal. Will send it to the resolution centre"
      }
    },
    "version": 1
  }
}