{
  "contractName": "rentEscrow",
  "abi": [
    {
      "inputs": [
        {
          "internalType": "address",
          "name": "",
          "type": "address"
        },
        {
          "internalType": "uint256",
          "name": "",
          "type": "uint256"
        }
      ],
      "name": "addressMapping",
      "outputs": [
        {
          "internalType": "uint256",
          "name": "",
          "type": "uint256"
        }
      ],
      "stateMutability": "view",
      "type": "function"
    },
    {
      "inputs": [],
      "name": "nextRentId",
      "outputs": [
        {
          "internalType": "uint256",
          "name": "",
          "type": "uint256"
        }
      ],
      "stateMutability": "view",
      "type": "function"
    },
    {
      "inputs": [
        {
          "internalType": "uint256",
          "name": "",
          "type": "uint256"
        }
      ],
      "name": "rentContractsMapping",
      "outputs": [
        {
          "internalType": "address",
          "name": "tenant",
          "type": "address"
        },
        {
          "internalType": "address",
          "name": "landlord",
          "type": "address"
        },
        {
          "internalType": "uint256",
          "name": "escrowValue",
          "type": "uint256"
        },
        {
          "internalType": "string",
          "name": "contractDetail",
          "type": "string"
        },
        {
          "internalType": "string",
          "name": "status",
          "type": "string"
        },
        {
          "components": [
            {
              "internalType": "uint256",
              "name": "tenantShare",
              "type": "uint256"
            },
            {
              "internalType": "uint256",
              "name": "landlordShare",
              "type": "uint256"
            },
            {
              "internalType": "uint256",
              "name": "feeShare",
              "type": "uint256"
            },
            {
              "internalType": "address",
              "name": "feeAddress",
              "type": "address"
            },
            {
              "internalType": "uint256",
              "name": "proposalStatus",
              "type": "uint256"
            }
          ],
          "internalType": "struct rentEscrow.redeemProposal",
          "name": "redeemProposal",
          "type": "tuple"
        }
      ],
      "stateMutability": "view",
      "type": "function"
    },
    {
      "inputs": [],
      "name": "getContractsByAddress",
      "outputs": [
        {
          "internalType": "uint256[]",
          "name": "",
          "type": "uint256[]"
        }
      ],
      "stateMutability": "view",
      "type": "function"
    },
    {
      "inputs": [
        {
          "internalType": "uint256",
          "name": "_escrowValue",
          "type": "uint256"
        },
        {
          "internalType": "string",
          "name": "_contractDetail",
          "type": "string"
        }
      ],
      "name": "proposeNewContract",
      "outputs": [
        {
          "internalType": "uint256",
          "name": "rentId",
          "type": "uint256"
        }
      ],
      "stateMutability": "nonpayable",
      "type": "function"
    },
    {
      "inputs": [
        {
          "internalType": "uint256",
          "name": "_rentId",
          "type": "uint256"
        }
      ],
      "name": "acceptNewContract",
      "outputs": [],
      "stateMutability": "payable",
      "type": "function"
    },
    {
      "inputs": [
        {
          "internalType": "uint256",
          "name": "_rentId",
          "type": "uint256"
        },
        {
          "internalType": "uint256",
          "name": "_tenantShare",
          "type": "uint256"
        },
        {
          "internalType": "uint256",
          "name": "_landlordShare",
          "type": "uint256"
        },
        {
          "internalType": "uint256",
          "name": "_feeShare",
          "type": "uint256"
        },
        {
          "internalType": "address",
          "name": "_feeAddress",
          "type": "address"
        }
      ],
      "name": "createRedeemProposal",
      "outputs": [],
      "stateMutability": "nonpayable",
      "type": "function"
    },
    {
      "inputs": [
        {
          "internalType": "uint256",
          "name": "_rentId",
          "type": "uint256"
        }
      ],
      "name": "acceptRedeemProposal",
      "outputs": [],
      "stateMutability": "nonpayable",
      "type": "function"
    },
    {
      "inputs": [
        {
          "internalType": "uint256",
          "name": "_rentId",
          "type": "uint256"
        }
      ],
      "name": "rejectRedeemProposal",
      "outputs": [],
      "stateMutability": "nonpayable",
      "type": "function"
    },
    {
      "inputs": [],
      "name": "devGetBalance",
      "outputs": [
        {
          "internalType": "uint256",
          "name": "",
          "type": "uint256"
        }
      ],
      "stateMutability": "view",
      "type": "function"
    }
  ],
  "bytecode": "0x6080604052600060025534801561001557600080fd5b50611ea8806100256000396000f3fe6080604052600436106100915760003560e01c806385b589631161005957806385b589631461018057806396d65c3e1461019c578063a6dd4276146101d9578063b59146f714610202578063b61f5f531461023f57610091565b8063039ed501146100965780632458cc3e146100c15780633d45370c146100ec5780636b695d24146101155780637afc2d5614610157575b600080fd5b3480156100a257600080fd5b506100ab61026a565b6040516100b8919061125b565b60405180910390f35b3480156100cd57600080fd5b506100d6610270565b6040516100e3919061125b565b60405180910390f35b3480156100f857600080fd5b50610113600480360381019061010e9190611314565b610278565b005b34801561012157600080fd5b5061013c6004803603810190610137919061138f565b61044d565b60405161014e969594939291906114ea565b60405180910390f35b34801561016357600080fd5b5061017e6004803603810190610179919061138f565b610661565b005b61019a6004803603810190610195919061138f565b610a1b565b005b3480156101a857600080fd5b506101c360048036038101906101be919061155a565b610ad2565b6040516101d0919061125b565b60405180910390f35b3480156101e557600080fd5b5061020060048036038101906101fb919061138f565b610b03565b005b34801561020e57600080fd5b50610229600480360381019061022491906116cf565b610e0a565b604051610236919061125b565b60405180910390f35b34801561024b57600080fd5b50610254610ff4565b60405161026191906117da565b60405180910390f35b60025481565b600047905090565b6000828486610287919061182b565b610291919061182b565b9050606481146102d6576040517f08c379a00000000000000000000000000000000000000000000000000000000081526004016102cd906118f3565b60405180910390fd5b60008087815260200190815260200160002060010160009054906101000a900473ffffffffffffffffffffffffffffffffffffffff1673ffffffffffffffffffffffffffffffffffffffff163373ffffffffffffffffffffffffffffffffffffffff1614610379576040517f08c379a000000000000000000000000000000000000000000000000000000000815260040161037090611985565b60405180910390fd5b8460008088815260200190815260200160002060050160000181905550836000808881526020019081526020016000206005016001018190555082600080888152602001908152602001600020600501600201819055508160008088815260200190815260200160002060050160030160006101000a81548173ffffffffffffffffffffffffffffffffffffffff021916908373ffffffffffffffffffffffffffffffffffffffff160217905550606460008088815260200190815260200160002060050160040181905550505050505050565b60006020528060005260406000206000915090508060000160009054906101000a900473ffffffffffffffffffffffffffffffffffffffff16908060010160009054906101000a900473ffffffffffffffffffffffffffffffffffffffff16908060020154908060030180546104c2906119d4565b80601f01602080910402602001604051908101604052809291908181526020018280546104ee906119d4565b801561053b5780601f106105105761010080835404028352916020019161053b565b820191906000526020600020905b81548152906001019060200180831161051e57829003601f168201915b505050505090806004018054610550906119d4565b80601f016020809104026020016040519081016040528092919081815260200182805461057c906119d4565b80156105c95780601f1061059e576101008083540402835291602001916105c9565b820191906000526020600020905b8154815290600101906020018083116105ac57829003601f168201915b505050505090806005016040518060a00160405290816000820154815260200160018201548152602001600282015481526020016003820160009054906101000a900473ffffffffffffffffffffffffffffffffffffffff1673ffffffffffffffffffffffffffffffffffffffff1673ffffffffffffffffffffffffffffffffffffffff168152602001600482015481525050905086565b60008082815260200190815260200160002060000160009054906101000a900473ffffffffffffffffffffffffffffffffffffffff1673ffffffffffffffffffffffffffffffffffffffff163373ffffffffffffffffffffffffffffffffffffffff1614610704576040517f08c379a00000000000000000000000000000000000000000000000000000000081526004016106fb90611a78565b60405180910390fd5b6000806000838152602001908152602001600020600201549050600080600084815260200190815260200160002060000160009054906101000a900473ffffffffffffffffffffffffffffffffffffffff1690506000606460008086815260200190815260200160002060050160000154846107809190611a98565b61078a9190611b21565b9050600080600086815260200190815260200160002060010160009054906101000a900473ffffffffffffffffffffffffffffffffffffffff1690506000606460008088815260200190815260200160002060050160010154866107ee9190611a98565b6107f89190611b21565b9050600080600088815260200190815260200160002060050160030160009054906101000a900473ffffffffffffffffffffffffffffffffffffffff169050600060646000808a8152602001908152602001600020600501600201548861085f9190611a98565b6108699190611b21565b905086818487610879919061182b565b610883919061182b565b146108c3576040517f08c379a00000000000000000000000000000000000000000000000000000000081526004016108ba90611bea565b60405180910390fd5b60646000808a8152602001908152602001600020600501600401541461091e576040517f08c379a000000000000000000000000000000000000000000000000000000000815260040161091590611c56565b60405180910390fd5b60c86000808a8152602001908152602001600020600501600401819055508573ffffffffffffffffffffffffffffffffffffffff166108fc869081150290604051600060405180830381858888f19350505050158015610982573d6000803e3d6000fd5b508373ffffffffffffffffffffffffffffffffffffffff166108fc849081150290604051600060405180830381858888f193505050501580156109c9573d6000803e3d6000fd5b508173ffffffffffffffffffffffffffffffffffffffff166108fc829081150290604051600060405180830381858888f19350505050158015610a10573d6000803e3d6000fd5b505050505050505050565b600080828152602001908152602001600020600201543414610a72576040517f08c379a0000000000000000000000000000000000000000000000000000000008152600401610a6990611ce8565b60405180910390fd5b3360008083815260200190815260200160002060000160006101000a81548173ffffffffffffffffffffffffffffffffffffffff021916908373ffffffffffffffffffffffffffffffffffffffff160217905550610acf81611089565b50565b60016020528160005260406000208181548110610aee57600080fd5b90600052602060002001600091509150505481565b60008082815260200190815260200160002060000160009054906101000a900473ffffffffffffffffffffffffffffffffffffffff1673ffffffffffffffffffffffffffffffffffffffff163373ffffffffffffffffffffffffffffffffffffffff161480610bd2575060008082815260200190815260200160002060010160009054906101000a900473ffffffffffffffffffffffffffffffffffffffff1673ffffffffffffffffffffffffffffffffffffffff163373ffffffffffffffffffffffffffffffffffffffff16145b610c11576040517f08c379a0000000000000000000000000000000000000000000000000000000008152600401610c0890611d7a565b60405180910390fd5b61012d6000808381526020019081526020016000206005016004015414158015610c55575061012e6000808381526020019081526020016000206005016004015414155b610c94576040517f08c379a0000000000000000000000000000000000000000000000000000000008152600401610c8b90611de6565b60405180910390fd5b60c8600080838152602001908152602001600020600501600401541415610cf0576040517f08c379a0000000000000000000000000000000000000000000000000000000008152600401610ce790611e52565b60405180910390fd5b60008082815260200190815260200160002060010160009054906101000a900473ffffffffffffffffffffffffffffffffffffffff1673ffffffffffffffffffffffffffffffffffffffff163373ffffffffffffffffffffffffffffffffffffffff161415610d7d5761012d60008083815260200190815260200160002060050160040181905550610e07565b60008082815260200190815260200160002060000160009054906101000a900473ffffffffffffffffffffffffffffffffffffffff1673ffffffffffffffffffffffffffffffffffffffff163373ffffffffffffffffffffffffffffffffffffffff161415610e065761012e600080838152602001908152602001600020600501600401819055505b5b50565b6000610e146110f2565b33816020019073ffffffffffffffffffffffffffffffffffffffff16908173ffffffffffffffffffffffffffffffffffffffff16815250508381604001818152505082816060018190525080600080600254815260200190815260200160002060008201518160000160006101000a81548173ffffffffffffffffffffffffffffffffffffffff021916908373ffffffffffffffffffffffffffffffffffffffff16021790555060208201518160010160006101000a81548173ffffffffffffffffffffffffffffffffffffffff021916908373ffffffffffffffffffffffffffffffffffffffff160217905550604082015181600201556060820151816003019080519060200190610f2892919061115a565b506080820151816004019080519060200190610f4592919061115a565b5060a08201518160050160008201518160000155602082015181600101556040820151816002015560608201518160030160006101000a81548173ffffffffffffffffffffffffffffffffffffffff021916908373ffffffffffffffffffffffffffffffffffffffff160217905550608082015181600401555050905050610fce600254611089565b6002549150600160026000828254610fe6919061182b565b925050819055505092915050565b6060600160003373ffffffffffffffffffffffffffffffffffffffff1673ffffffffffffffffffffffffffffffffffffffff16815260200190815260200160002080548060200260200160405190810160405280929190818152602001828054801561107f57602002820191906000526020600020905b81548152602001906001019080831161106b575b5050505050905090565b600160003373ffffffffffffffffffffffffffffffffffffffff1673ffffffffffffffffffffffffffffffffffffffff16815260200190815260200160002081908060018154018082558091505060019003906000526020600020016000909190919091505550565b6040518060c00160405280600073ffffffffffffffffffffffffffffffffffffffff168152602001600073ffffffffffffffffffffffffffffffffffffffff1681526020016000815260200160608152602001606081526020016111546111e0565b81525090565b828054611166906119d4565b90600052602060002090601f01602090048101928261118857600085556111cf565b82601f106111a157805160ff19168380011785556111cf565b828001600101855582156111cf579182015b828111156111ce5782518255916020019190600101906111b3565b5b5090506111dc9190611225565b5090565b6040518060a00160405280600081526020016000815260200160008152602001600073ffffffffffffffffffffffffffffffffffffffff168152602001600081525090565b5b8082111561123e576000816000905550600101611226565b5090565b6000819050919050565b61125581611242565b82525050565b6000602082019050611270600083018461124c565b92915050565b6000604051905090565b600080fd5b600080fd5b61129381611242565b811461129e57600080fd5b50565b6000813590506112b08161128a565b92915050565b600073ffffffffffffffffffffffffffffffffffffffff82169050919050565b60006112e1826112b6565b9050919050565b6112f1816112d6565b81146112fc57600080fd5b50565b60008135905061130e816112e8565b92915050565b600080600080600060a086880312156113305761132f611280565b5b600061133e888289016112a1565b955050602061134f888289016112a1565b9450506040611360888289016112a1565b9350506060611371888289016112a1565b9250506080611382888289016112ff565b9150509295509295909350565b6000602082840312156113a5576113a4611280565b5b60006113b3848285016112a1565b91505092915050565b6113c5816112d6565b82525050565b600081519050919050565b600082825260208201905092915050565b60005b838110156114055780820151818401526020810190506113ea565b83811115611414576000848401525b50505050565b6000601f19601f8301169050919050565b6000611436826113cb565b61144081856113d6565b93506114508185602086016113e7565b6114598161141a565b840191505092915050565b61146d81611242565b82525050565b61147c816112d6565b82525050565b60a0820160008201516114986000850182611464565b5060208201516114ab6020850182611464565b5060408201516114be6040850182611464565b5060608201516114d16060850182611473565b5060808201516114e46080850182611464565b50505050565b60006101408201905061150060008301896113bc565b61150d60208301886113bc565b61151a604083018761124c565b818103606083015261152c818661142b565b90508181036080830152611540818561142b565b905061154f60a0830184611482565b979650505050505050565b6000806040838503121561157157611570611280565b5b600061157f858286016112ff565b9250506020611590858286016112a1565b9150509250929050565b600080fd5b600080fd5b7f4e487b7100000000000000000000000000000000000000000000000000000000600052604160045260246000fd5b6115dc8261141a565b810181811067ffffffffffffffff821117156115fb576115fa6115a4565b5b80604052505050565b600061160e611276565b905061161a82826115d3565b919050565b600067ffffffffffffffff82111561163a576116396115a4565b5b6116438261141a565b9050602081019050919050565b82818337600083830152505050565b600061167261166d8461161f565b611604565b90508281526020810184848401111561168e5761168d61159f565b5b611699848285611650565b509392505050565b600082601f8301126116b6576116b561159a565b5b81356116c684826020860161165f565b91505092915050565b600080604083850312156116e6576116e5611280565b5b60006116f4858286016112a1565b925050602083013567ffffffffffffffff81111561171557611714611285565b5b611721858286016116a1565b9150509250929050565b600081519050919050565b600082825260208201905092915050565b6000819050602082019050919050565b60006117638383611464565b60208301905092915050565b6000602082019050919050565b60006117878261172b565b6117918185611736565b935061179c83611747565b8060005b838110156117cd5781516117b48882611757565b97506117bf8361176f565b9250506001810190506117a0565b5085935050505092915050565b600060208201905081810360008301526117f4818461177c565b905092915050565b7f4e487b7100000000000000000000000000000000000000000000000000000000600052601160045260246000fd5b600061183682611242565b915061184183611242565b9250827fffffffffffffffffffffffffffffffffffffffffffffffffffffffffffffffff03821115611876576118756117fc565b5b828201905092915050565b7f54656e616e745368617265202b204c616e646c6f7264205368617265202b204660008201527f6565205368617265206973206e6f742031303025000000000000000000000000602082015250565b60006118dd6034836113d6565b91506118e882611881565b604082019050919050565b6000602082019050818103600083015261190c816118d0565b9050919050565b7f4f6e6c79204c616e646c6f72642063616e206372656174652072656465656d2060008201527f70726f706f73616c000000000000000000000000000000000000000000000000602082015250565b600061196f6028836113d6565b915061197a82611913565b604082019050919050565b6000602082019050818103600083015261199e81611962565b9050919050565b7f4e487b7100000000000000000000000000000000000000000000000000000000600052602260045260246000fd5b600060028204905060018216806119ec57607f821691505b60208210811415611a00576119ff6119a5565b5b50919050565b7f4f6e6c792074656e616e742063616e206163636570742072656465656d20707260008201527f6f706f73616c0000000000000000000000000000000000000000000000000000602082015250565b6000611a626026836113d6565b9150611a6d82611a06565b604082019050919050565b60006020820190508181036000830152611a9181611a55565b9050919050565b6000611aa382611242565b9150611aae83611242565b9250817fffffffffffffffffffffffffffffffffffffffffffffffffffffffffffffffff0483118215151615611ae757611ae66117fc565b5b828202905092915050565b7f4e487b7100000000000000000000000000000000000000000000000000000000600052601260045260246000fd5b6000611b2c82611242565b9150611b3783611242565b925082611b4757611b46611af2565b5b828204905092915050565b7f54656e616e745368617265202b204c616e646c6f7264205368617265202b204660008201527f656520536861726520646f6573206e6f7420657175616c20457363726f77205660208201527f616c756500000000000000000000000000000000000000000000000000000000604082015250565b6000611bd46044836113d6565b9150611bdf82611b52565b606082019050919050565b60006020820190508181036000830152611c0381611bc7565b9050919050565b7f457363726f7720686173206265656e20616c726561642072656465656d65642e600082015250565b6000611c406020836113d6565b9150611c4b82611c0a565b602082019050919050565b60006020820190508181036000830152611c6f81611c33565b9050919050565b7f4574682073656e74206973206e6f742073616d6520617320657363726f77566160008201527f6c75650000000000000000000000000000000000000000000000000000000000602082015250565b6000611cd26023836113d6565b9150611cdd82611c76565b604082019050919050565b60006020820190508181036000830152611d0181611cc5565b9050919050565b7f4f6e6c792074656e616e74206f72206c616e646c6f72642063616e206163636560008201527f70742072656465656d2070726f706f73616c0000000000000000000000000000602082015250565b6000611d646032836113d6565b9150611d6f82611d08565b604082019050919050565b60006020820190508181036000830152611d9381611d57565b9050919050565b7f416c72656164792072656a656374656400000000000000000000000000000000600082015250565b6000611dd06010836113d6565b9150611ddb82611d9a565b602082019050919050565b60006020820190508181036000830152611dff81611dc3565b9050919050565b7f416c726561647920616363657074656400000000000000000000000000000000600082015250565b6000611e3c6010836113d6565b9150611e4782611e06565b602082019050919050565b60006020820190508181036000830152611e6b81611e2f565b905091905056fea2646970667358221220c452ca4618053033acf1906c3d61489f841e83fa56b59d46771c9f703b566d4f64736f6c634300080a0033",
  "immutableReferences": {},
  "source": "pragma solidity ^0.8.10;\n\ncontract rentEscrow{\n\n    struct rentContract {\n        address tenant;\n        address landlord;\n        uint256 escrowValue;\n        string contractDetail;\n        string status;\n        redeemProposal redeemProposal;\n    }\n\n    struct redeemProposal {\n        uint tenantShare;\n        uint landlordShare;\n        uint feeShare;\n        address feeAddress;\n        uint proposalStatus; /// @dev 100 Proposed 200 Redeemed by tenant 202 Redemed via Dispute Resolution 301 rejected by landlord 302 rejected by tenant\n    }\n\n    mapping(uint => rentContract) public rentContractsMapping;\n\n    // will use this to search contracts by address\n    mapping(address => uint[]) public addressMapping;\n    uint public nextRentId = 0;\n\n    // Should go to some utils contract\n\n    function updateAddressMapping (uint _rentId) internal {\n        addressMapping[msg.sender].push(_rentId);\n    }\n\n    function getContractsByAddress () external view returns ( uint[] memory ){\n    return addressMapping[msg.sender];\n\n    }\n\n    function proposeNewContract (uint256 _escrowValue, string memory _contractDetail) external returns(uint256 rentId ){\n        rentContract memory myRentContract;\n     \n        myRentContract.landlord = msg.sender;\n        myRentContract.escrowValue = _escrowValue;\n        myRentContract.contractDetail = _contractDetail;\n        \n        rentContractsMapping[nextRentId] = myRentContract; //Later: Change to nextId to hashed ID\n        updateAddressMapping(nextRentId);\n        rentId = nextRentId;\n        nextRentId += 1;\n        return rentId;\n\n    }\n\n    function acceptNewContract (uint _rentId) external payable{\n        require(msg.value == rentContractsMapping[_rentId].escrowValue, \"Eth sent is not same as escrowValue\");\n        \n        rentContractsMapping[_rentId].tenant = msg.sender;\n\n        updateAddressMapping(_rentId);\n\n    }\n\n    function createRedeemProposal (uint _rentId, uint _tenantShare, uint _landlordShare, uint _feeShare, address _feeAddress  ) external {\n        \n        uint shareSum = _tenantShare + _landlordShare + _feeShare;\n        require(shareSum == 100, \"TenantShare + Landlord Share + Fee Share is not 100%\" );\n\n        //only landlord can create redeemProposal\n        // test required\n        require(msg.sender ==  rentContractsMapping[_rentId].landlord, \"Only Landlord can create redeem proposal\");\n\n        rentContractsMapping[_rentId].redeemProposal.tenantShare = _tenantShare;\n        rentContractsMapping[_rentId].redeemProposal.landlordShare = _landlordShare;\n        rentContractsMapping[_rentId].redeemProposal.feeShare = _feeShare;\n        //Later: fee address must be protected\n        rentContractsMapping[_rentId].redeemProposal.feeAddress = _feeAddress;\n        rentContractsMapping[_rentId].redeemProposal.proposalStatus = 100;\n    \n    }\n\n    function acceptRedeemProposal(uint _rentId) external {\n        //only tenant can accept redeemProposal\n        // test required\n        require(msg.sender ==  rentContractsMapping[_rentId].tenant,\"Only tenant can accept redeem proposal\");\n\n        \n        uint escrowValue = rentContractsMapping[_rentId].escrowValue;\n        // send to tenant\n        address payable tenantAddress = payable(rentContractsMapping[_rentId].tenant);\n        uint escrowTenant = escrowValue * rentContractsMapping[_rentId].redeemProposal.tenantShare / 100;\n\n         // send to landlord\n        address payable landlordAddress = payable(rentContractsMapping[_rentId].landlord);\n        uint escrowLandlord = escrowValue * rentContractsMapping[_rentId].redeemProposal.landlordShare / 100;\n\n        // send to fee\n        address payable feeAddress = payable(rentContractsMapping[_rentId].redeemProposal.feeAddress);\n        uint fee = escrowValue * rentContractsMapping[_rentId].redeemProposal.feeShare / 100;\n\n        //values to send must equal to escrowValue\n        require((escrowTenant + escrowLandlord + fee) == escrowValue, \"TenantShare + Landlord Share + Fee Share does not equal Escrow Value\");\n\n        // status must be 100 (proposed), to avoid double dip\n        require(rentContractsMapping[_rentId].redeemProposal.proposalStatus == 100, \"Escrow has been alread redeemed.\");\n        rentContractsMapping[_rentId].redeemProposal.proposalStatus = 200;\n\n        //Later: would it make sense to stop any redemptions in case sum of individual escrows is below total balance ???\n        \n        //Sending\n        tenantAddress.transfer(escrowTenant);\n        landlordAddress.transfer(escrowLandlord);\n        feeAddress.transfer(fee);    \n    }\n\n    ///@notice Use this function to reject redeem proposal. Will send it to the resolution centre\n    ///@param _rentId identifies the contract between tenant and landlord\n\n    function rejectRedeemProposal(uint _rentId) external {\n        ///@dev UX has a say here, currently tenant and landlord can reject at any time\n        require((msg.sender ==  rentContractsMapping[_rentId].tenant || msg.sender == rentContractsMapping[_rentId].landlord), \"Only tenant or landlord can accept redeem proposal\");\n        \n        ///@custom:later probably better to re-write to allowed statuses\n        require(\n            rentContractsMapping[_rentId].redeemProposal.proposalStatus != 301 &&\n            rentContractsMapping[_rentId].redeemProposal.proposalStatus != 302,\"Already rejected\");\n        require(rentContractsMapping[_rentId].redeemProposal.proposalStatus != (200),\"Already accepted\" );\n\n        if(msg.sender == rentContractsMapping[_rentId].landlord) {\n            rentContractsMapping[_rentId].redeemProposal.proposalStatus = 301;\n        }\n        else if (msg.sender == rentContractsMapping[_rentId].tenant){\n             rentContractsMapping[_rentId].redeemProposal.proposalStatus = 302;\n\n        }\n\n    }\n \n\n    function devGetBalance () external view returns(uint){\n        return(address(this).balance);\n    }\n}",
  "sourcePath": "/Users/andy/my_repos/rentEscrow/contracts/rentEscrow.sol",
  "compiler": {
    "name": "solc",
    "version": "0.8.10+commit.fc410830.Emscripten.clang"
  },
  "schemaVersion": "3.4.3",
  "updatedAt": "2022-01-14T16:03:44.680Z",
  "devdoc": {
    "kind": "dev",
    "methods": {
      "rejectRedeemProposal(uint256)": {
        "params": {
          "_rentId": "identifies the contract between tenant and landlord"
        }
      }
    },
    "version": 1
  },
  "userdoc": {
    "kind": "user",
    "methods": {
      "rejectRedeemProposal(uint256)": {
        "notice": "Use this function to reject redeem proposal. Will send it to the resolution centre"
      }
    },
    "version": 1
  }
}