{
  "contractName": "rentEscrow",
  "abi": [
    {
      "anonymous": false,
      "inputs": [
        {
          "indexed": false,
          "internalType": "uint256",
          "name": "_rentId",
          "type": "uint256"
        }
      ],
      "name": "rentContractId",
      "type": "event"
    },
    {
      "anonymous": false,
      "inputs": [
        {
          "indexed": false,
          "internalType": "address",
          "name": "_message",
          "type": "address"
        }
      ],
      "name": "sendAddressRent",
      "type": "event"
    },
    {
      "anonymous": false,
      "inputs": [
        {
          "indexed": false,
          "internalType": "uint256",
          "name": "_message",
          "type": "uint256"
        }
      ],
      "name": "sendIdRent",
      "type": "event"
    },
    {
      "anonymous": false,
      "inputs": [
        {
          "indexed": false,
          "internalType": "string",
          "name": "_message",
          "type": "string"
        }
      ],
      "name": "sendStringRent",
      "type": "event"
    },
    {
      "inputs": [
        {
          "internalType": "address",
          "name": "",
          "type": "address"
        },
        {
          "internalType": "uint256",
          "name": "",
          "type": "uint256"
        }
      ],
      "name": "addressMapping",
      "outputs": [
        {
          "internalType": "uint256",
          "name": "",
          "type": "uint256"
        }
      ],
      "stateMutability": "view",
      "type": "function",
      "constant": true
    },
    {
      "inputs": [
        {
          "internalType": "string",
          "name": "",
          "type": "string"
        }
      ],
      "name": "importantAddresses",
      "outputs": [
        {
          "internalType": "address",
          "name": "",
          "type": "address"
        }
      ],
      "stateMutability": "view",
      "type": "function",
      "constant": true
    },
    {
      "inputs": [
        {
          "internalType": "string",
          "name": "",
          "type": "string"
        }
      ],
      "name": "importantStrings",
      "outputs": [
        {
          "internalType": "string",
          "name": "",
          "type": "string"
        }
      ],
      "stateMutability": "view",
      "type": "function",
      "constant": true
    },
    {
      "inputs": [],
      "name": "nextRentId",
      "outputs": [
        {
          "internalType": "uint256",
          "name": "",
          "type": "uint256"
        }
      ],
      "stateMutability": "view",
      "type": "function",
      "constant": true
    },
    {
      "inputs": [
        {
          "internalType": "uint256",
          "name": "",
          "type": "uint256"
        }
      ],
      "name": "rentContractsMapping",
      "outputs": [
        {
          "internalType": "uint256",
          "name": "rentId",
          "type": "uint256"
        },
        {
          "internalType": "address",
          "name": "tenant",
          "type": "address"
        },
        {
          "internalType": "address",
          "name": "landlord",
          "type": "address"
        },
        {
          "internalType": "uint256",
          "name": "escrowValue",
          "type": "uint256"
        },
        {
          "internalType": "string",
          "name": "contractDetail",
          "type": "string"
        },
        {
          "internalType": "uint256",
          "name": "status",
          "type": "uint256"
        },
        {
          "components": [
            {
              "internalType": "uint256",
              "name": "tenantShare",
              "type": "uint256"
            },
            {
              "internalType": "uint256",
              "name": "landlordShare",
              "type": "uint256"
            },
            {
              "internalType": "uint256",
              "name": "feeShare",
              "type": "uint256"
            },
            {
              "internalType": "address",
              "name": "feeAddress",
              "type": "address"
            }
          ],
          "internalType": "struct rentEscrowInterface.RedeemProposal",
          "name": "redeemProposal",
          "type": "tuple"
        }
      ],
      "stateMutability": "view",
      "type": "function",
      "constant": true
    },
    {
      "inputs": [
        {
          "internalType": "address",
          "name": "_resolverAddress",
          "type": "address"
        }
      ],
      "name": "setResolverAddress",
      "outputs": [],
      "stateMutability": "nonpayable",
      "type": "function"
    },
    {
      "inputs": [
        {
          "internalType": "uint256",
          "name": "_escrowValue",
          "type": "uint256"
        },
        {
          "internalType": "string",
          "name": "_contractDetail",
          "type": "string"
        }
      ],
      "name": "proposeNewContract",
      "outputs": [],
      "stateMutability": "nonpayable",
      "type": "function"
    },
    {
      "inputs": [
        {
          "internalType": "uint256",
          "name": "_rentId",
          "type": "uint256"
        }
      ],
      "name": "acceptNewContract",
      "outputs": [],
      "stateMutability": "payable",
      "type": "function",
      "payable": true
    },
    {
      "inputs": [
        {
          "internalType": "uint256",
          "name": "_rentId",
          "type": "uint256"
        },
        {
          "internalType": "uint256",
          "name": "_tenantShare",
          "type": "uint256"
        },
        {
          "internalType": "uint256",
          "name": "_landlordShare",
          "type": "uint256"
        },
        {
          "internalType": "uint256",
          "name": "_feeShare",
          "type": "uint256"
        }
      ],
      "name": "createRedeemProposal",
      "outputs": [],
      "stateMutability": "nonpayable",
      "type": "function"
    },
    {
      "inputs": [
        {
          "internalType": "uint256",
          "name": "_rentId",
          "type": "uint256"
        }
      ],
      "name": "acceptRedeemProposal",
      "outputs": [],
      "stateMutability": "nonpayable",
      "type": "function"
    },
    {
      "inputs": [
        {
          "internalType": "uint256",
          "name": "_rentId",
          "type": "uint256"
        }
      ],
      "name": "rejectRedeemProposal",
      "outputs": [],
      "stateMutability": "nonpayable",
      "type": "function"
    },
    {
      "inputs": [],
      "name": "devGetBalance",
      "outputs": [
        {
          "internalType": "uint256",
          "name": "",
          "type": "uint256"
        }
      ],
      "stateMutability": "view",
      "type": "function",
      "constant": true
    },
    {
      "inputs": [],
      "name": "getContractToResolve",
      "outputs": [
        {
          "components": [
            {
              "internalType": "uint256",
              "name": "rentId",
              "type": "uint256"
            },
            {
              "internalType": "address",
              "name": "tenant",
              "type": "address"
            },
            {
              "internalType": "address",
              "name": "landlord",
              "type": "address"
            },
            {
              "internalType": "uint256",
              "name": "escrowValue",
              "type": "uint256"
            },
            {
              "internalType": "string",
              "name": "contractDetail",
              "type": "string"
            },
            {
              "internalType": "uint256",
              "name": "status",
              "type": "uint256"
            },
            {
              "components": [
                {
                  "internalType": "uint256",
                  "name": "tenantShare",
                  "type": "uint256"
                },
                {
                  "internalType": "uint256",
                  "name": "landlordShare",
                  "type": "uint256"
                },
                {
                  "internalType": "uint256",
                  "name": "feeShare",
                  "type": "uint256"
                },
                {
                  "internalType": "address",
                  "name": "feeAddress",
                  "type": "address"
                }
              ],
              "internalType": "struct rentEscrowInterface.RedeemProposal",
              "name": "redeemProposal",
              "type": "tuple"
            }
          ],
          "internalType": "struct rentEscrowInterface.RentContract",
          "name": "",
          "type": "tuple"
        }
      ],
      "stateMutability": "view",
      "type": "function",
      "constant": true
    },
    {
      "inputs": [],
      "name": "getContractsByAddress",
      "outputs": [
        {
          "internalType": "uint256[]",
          "name": "",
          "type": "uint256[]"
        }
      ],
      "stateMutability": "view",
      "type": "function",
      "constant": true
    },
    {
      "inputs": [
        {
          "internalType": "uint256",
          "name": "_rentId",
          "type": "uint256"
        }
      ],
      "name": "getContractDetails",
      "outputs": [
        {
          "components": [
            {
              "internalType": "uint256",
              "name": "rentId",
              "type": "uint256"
            },
            {
              "internalType": "address",
              "name": "tenant",
              "type": "address"
            },
            {
              "internalType": "address",
              "name": "landlord",
              "type": "address"
            },
            {
              "internalType": "uint256",
              "name": "escrowValue",
              "type": "uint256"
            },
            {
              "internalType": "string",
              "name": "contractDetail",
              "type": "string"
            },
            {
              "internalType": "uint256",
              "name": "status",
              "type": "uint256"
            },
            {
              "components": [
                {
                  "internalType": "uint256",
                  "name": "tenantShare",
                  "type": "uint256"
                },
                {
                  "internalType": "uint256",
                  "name": "landlordShare",
                  "type": "uint256"
                },
                {
                  "internalType": "uint256",
                  "name": "feeShare",
                  "type": "uint256"
                },
                {
                  "internalType": "address",
                  "name": "feeAddress",
                  "type": "address"
                }
              ],
              "internalType": "struct rentEscrowInterface.RedeemProposal",
              "name": "redeemProposal",
              "type": "tuple"
            }
          ],
          "internalType": "struct rentEscrowInterface.RentContract",
          "name": "",
          "type": "tuple"
        }
      ],
      "stateMutability": "view",
      "type": "function",
      "constant": true
    }
  ],
  "bytecode": "0x6080604052600060025534801561001557600080fd5b50612925806100256000396000f3fe6080604052600436106100e85760003560e01c80637afc2d561161008a578063a6dd427611610059578063a6dd427614610313578063b59146f71461033c578063b61f5f5314610365578063dd28218b14610390576100e8565b80637afc2d561461025457806385b589631461027d5780638922dfbf1461029957806396d65c3e146102d6576100e8565b80632458cc3e116100c65780632458cc3e1461017e5780634d6d6a9c146101a95780636b695d24146101e65780637395eb4114610229576100e8565b8063039ed501146100ed57806307e31e2b146101185780630e9008fe14610155575b600080fd5b3480156100f957600080fd5b506101026103b9565b60405161010f91906119e9565b60405180910390f35b34801561012457600080fd5b5061013f600480360381019061013a9190611b5e565b6103bf565b60405161014c9190611c2f565b60405180910390f35b34801561016157600080fd5b5061017c60048036038101906101779190611c7d565b610475565b005b34801561018a57600080fd5b506101936106f5565b6040516101a091906119e9565b60405180910390f35b3480156101b557600080fd5b506101d060048036038101906101cb9190611ce4565b6106fd565b6040516101dd9190611e9d565b60405180910390f35b3480156101f257600080fd5b5061020d60048036038101906102089190611ce4565b61090d565b6040516102209796959493929190611f23565b60405180910390f35b34801561023557600080fd5b5061023e610a95565b60405161024b9190611e9d565b60405180910390f35b34801561026057600080fd5b5061027b60048036038101906102769190611ce4565b610caa565b005b61029760048036038101906102929190611ce4565b6110d2565b005b3480156102a557600080fd5b506102c060048036038101906102bb9190611b5e565b6112a1565b6040516102cd9190611f9a565b60405180910390f35b3480156102e257600080fd5b506102fd60048036038101906102f89190611fe1565b6112ea565b60405161030a91906119e9565b60405180910390f35b34801561031f57600080fd5b5061033a60048036038101906103359190611ce4565b61131b565b005b34801561034857600080fd5b50610363600480360381019061035e9190612021565b6114a0565b005b34801561037157600080fd5b5061037a6116be565b604051610387919061212c565b60405180910390f35b34801561039c57600080fd5b506103b760048036038101906103b2919061214e565b611753565b005b60025481565b60048180516020810182018051848252602083016020850120818352809550505050505060009150905080546103f4906121aa565b80601f0160208091040260200160405190810160405280929190818152602001828054610420906121aa565b801561046d5780601f106104425761010080835404028352916020019161046d565b820191906000526020600020905b81548152906001019060200180831161045057829003601f168201915b505050505081565b6000818385610484919061220b565b61048e919061220b565b9050606481146104d3576040517f08c379a00000000000000000000000000000000000000000000000000000000081526004016104ca906122d3565b60405180910390fd5b60008086815260200190815260200160002060020160009054906101000a900473ffffffffffffffffffffffffffffffffffffffff1673ffffffffffffffffffffffffffffffffffffffff163373ffffffffffffffffffffffffffffffffffffffff1614806105a95750600360405161054b9061234a565b908152602001604051809103902060009054906101000a900473ffffffffffffffffffffffffffffffffffffffff1673ffffffffffffffffffffffffffffffffffffffff163373ffffffffffffffffffffffffffffffffffffffff16145b6105e8576040517f08c379a00000000000000000000000000000000000000000000000000000000081526004016105df906123d1565b60405180910390fd5b836000808781526020019081526020016000206006016000018190555082600080878152602001908152602001600020600601600101819055508160008087815260200190815260200160002060060160020181905550600360405161064d9061234a565b908152602001604051809103902060009054906101000a900473ffffffffffffffffffffffffffffffffffffffff1660008087815260200190815260200160002060060160030160006101000a81548173ffffffffffffffffffffffffffffffffffffffff021916908373ffffffffffffffffffffffffffffffffffffffff16021790555061012c600080878152602001908152602001600020600501819055505050505050565b600047905090565b610705611880565b6000808381526020019081526020016000206040518060e0016040529081600082015481526020016001820160009054906101000a900473ffffffffffffffffffffffffffffffffffffffff1673ffffffffffffffffffffffffffffffffffffffff1673ffffffffffffffffffffffffffffffffffffffff1681526020016002820160009054906101000a900473ffffffffffffffffffffffffffffffffffffffff1673ffffffffffffffffffffffffffffffffffffffff1673ffffffffffffffffffffffffffffffffffffffff168152602001600382015481526020016004820180546107f2906121aa565b80601f016020809104026020016040519081016040528092919081815260200182805461081e906121aa565b801561086b5780601f106108405761010080835404028352916020019161086b565b820191906000526020600020905b81548152906001019060200180831161084e57829003601f168201915b5050505050815260200160058201548152602001600682016040518060800160405290816000820154815260200160018201548152602001600282015481526020016003820160009054906101000a900473ffffffffffffffffffffffffffffffffffffffff1673ffffffffffffffffffffffffffffffffffffffff1673ffffffffffffffffffffffffffffffffffffffff1681525050815250509050919050565b60006020528060005260406000206000915090508060000154908060010160009054906101000a900473ffffffffffffffffffffffffffffffffffffffff16908060020160009054906101000a900473ffffffffffffffffffffffffffffffffffffffff1690806003015490806004018054610988906121aa565b80601f01602080910402602001604051908101604052809291908181526020018280546109b4906121aa565b8015610a015780601f106109d657610100808354040283529160200191610a01565b820191906000526020600020905b8154815290600101906020018083116109e457829003601f168201915b505050505090806005015490806006016040518060800160405290816000820154815260200160018201548152602001600282015481526020016003820160009054906101000a900473ffffffffffffffffffffffffffffffffffffffff1673ffffffffffffffffffffffffffffffffffffffff1673ffffffffffffffffffffffffffffffffffffffff1681525050905087565b610a9d611880565b6000600190506000808281526020019081526020016000206040518060e0016040529081600082015481526020016001820160009054906101000a900473ffffffffffffffffffffffffffffffffffffffff1673ffffffffffffffffffffffffffffffffffffffff1673ffffffffffffffffffffffffffffffffffffffff1681526020016002820160009054906101000a900473ffffffffffffffffffffffffffffffffffffffff1673ffffffffffffffffffffffffffffffffffffffff1673ffffffffffffffffffffffffffffffffffffffff16815260200160038201548152602001600482018054610b90906121aa565b80601f0160208091040260200160405190810160405280929190818152602001828054610bbc906121aa565b8015610c095780601f10610bde57610100808354040283529160200191610c09565b820191906000526020600020905b815481529060010190602001808311610bec57829003601f168201915b5050505050815260200160058201548152602001600682016040518060800160405290816000820154815260200160018201548152602001600282015481526020016003820160009054906101000a900473ffffffffffffffffffffffffffffffffffffffff1673ffffffffffffffffffffffffffffffffffffffff1673ffffffffffffffffffffffffffffffffffffffff16815250508152505091505090565b60008082815260200190815260200160002060010160009054906101000a900473ffffffffffffffffffffffffffffffffffffffff1673ffffffffffffffffffffffffffffffffffffffff163373ffffffffffffffffffffffffffffffffffffffff161480610d8057506003604051610d229061234a565b908152602001604051809103902060009054906101000a900473ffffffffffffffffffffffffffffffffffffffff1673ffffffffffffffffffffffffffffffffffffffff163373ffffffffffffffffffffffffffffffffffffffff16145b610dbf576040517f08c379a0000000000000000000000000000000000000000000000000000000008152600401610db690612463565b60405180910390fd5b6000806000838152602001908152602001600020600301549050600080600084815260200190815260200160002060010160009054906101000a900473ffffffffffffffffffffffffffffffffffffffff169050600060646000808681526020019081526020016000206006016000015484610e3b9190612483565b610e45919061250c565b9050600080600086815260200190815260200160002060020160009054906101000a900473ffffffffffffffffffffffffffffffffffffffff169050600060646000808881526020019081526020016000206006016001015486610ea99190612483565b610eb3919061250c565b9050600080600088815260200190815260200160002060060160030160009054906101000a900473ffffffffffffffffffffffffffffffffffffffff169050600060646000808a81526020019081526020016000206006016002015488610f1a9190612483565b610f24919061250c565b905086818487610f34919061220b565b610f3e919061220b565b14610f7e576040517f08c379a0000000000000000000000000000000000000000000000000000000008152600401610f75906125d5565b60405180910390fd5b61012c6000808a81526020019081526020016000206005015414610fd7576040517f08c379a0000000000000000000000000000000000000000000000000000000008152600401610fce90612641565b60405180910390fd5b6101906000808a8152602001908152602001600020600501819055508573ffffffffffffffffffffffffffffffffffffffff166108fc869081150290604051600060405180830381858888f19350505050158015611039573d6000803e3d6000fd5b508373ffffffffffffffffffffffffffffffffffffffff166108fc849081150290604051600060405180830381858888f19350505050158015611080573d6000803e3d6000fd5b508173ffffffffffffffffffffffffffffffffffffffff166108fc829081150290604051600060405180830381858888f193505050501580156110c7573d6000803e3d6000fd5b505050505050505050565b600080828152602001908152602001600020600301543414611129576040517f08c379a0000000000000000000000000000000000000000000000000000000008152600401611120906126d3565b60405180910390fd5b60008082815260200190815260200160002060020160009054906101000a900473ffffffffffffffffffffffffffffffffffffffff1673ffffffffffffffffffffffffffffffffffffffff163373ffffffffffffffffffffffffffffffffffffffff1614156111cd576040517f08c379a00000000000000000000000000000000000000000000000000000000081526004016111c490612765565b60405180910390fd5b6000808281526020019081526020016000206005015460c81415611226576040517f08c379a000000000000000000000000000000000000000000000000000000000815260040161121d906127d1565b60405180910390fd5b3360008083815260200190815260200160002060010160006101000a81548173ffffffffffffffffffffffffffffffffffffffff021916908373ffffffffffffffffffffffffffffffffffffffff16021790555060c86000808381526020019081526020016000206005018190555061129e81611817565b50565b6003818051602081018201805184825260208301602085012081835280955050505050506000915054906101000a900473ffffffffffffffffffffffffffffffffffffffff1681565b6001602052816000526040600020818154811061130657600080fd5b90600052602060002001600091509150505481565b60008082815260200190815260200160002060010160009054906101000a900473ffffffffffffffffffffffffffffffffffffffff1673ffffffffffffffffffffffffffffffffffffffff163373ffffffffffffffffffffffffffffffffffffffff1614806113ea575060008082815260200190815260200160002060020160009054906101000a900473ffffffffffffffffffffffffffffffffffffffff1673ffffffffffffffffffffffffffffffffffffffff163373ffffffffffffffffffffffffffffffffffffffff16145b611429576040517f08c379a000000000000000000000000000000000000000000000000000000000815260040161142090612863565b60405180910390fd5b61012c6000808381526020019081526020016000206005015414611482576040517f08c379a0000000000000000000000000000000000000000000000000000000008152600401611479906128cf565b60405180910390fd5b60c86000808381526020019081526020016000206005018190555050565b6114a8611880565b60025481600001818152505033816040019073ffffffffffffffffffffffffffffffffffffffff16908173ffffffffffffffffffffffffffffffffffffffff16815250508281606001818152505081816080018190525060648160a00181815250508060008060025481526020019081526020016000206000820151816000015560208201518160010160006101000a81548173ffffffffffffffffffffffffffffffffffffffff021916908373ffffffffffffffffffffffffffffffffffffffff16021790555060408201518160020160006101000a81548173ffffffffffffffffffffffffffffffffffffffff021916908373ffffffffffffffffffffffffffffffffffffffff1602179055506060820151816003015560808201518160040190805190602001906115dd9291906118ef565b5060a0820151816005015560c08201518160060160008201518160000155602082015181600101556040820151816002015560608201518160030160006101000a81548173ffffffffffffffffffffffffffffffffffffffff021916908373ffffffffffffffffffffffffffffffffffffffff1602179055505050905050611666600254611817565b7fa44f460f2ac523b4a38d95d97950a776d7bf0adbaff2501d321f040e3d661e4660025460405161169791906119e9565b60405180910390a16001600260008282546116b2919061220b565b92505081905550505050565b6060600160003373ffffffffffffffffffffffffffffffffffffffff1673ffffffffffffffffffffffffffffffffffffffff16815260200190815260200160002080548060200260200160405190810160405280929190818152602001828054801561174957602002820191906000526020600020905b815481526020019060010190808311611735575b5050505050905090565b8060036040516117629061234a565b908152602001604051809103902060006101000a81548173ffffffffffffffffffffffffffffffffffffffff021916908373ffffffffffffffffffffffffffffffffffffffff1602179055506040518060400160405280600581526020017f48656c6c6f00000000000000000000000000000000000000000000000000000081525060046040516117f29061234a565b908152602001604051809103902090805190602001906118139291906118ef565b5050565b600160003373ffffffffffffffffffffffffffffffffffffffff1673ffffffffffffffffffffffffffffffffffffffff16815260200190815260200160002081908060018154018082558091505060019003906000526020600020016000909190919091505550565b6040518060e0016040528060008152602001600073ffffffffffffffffffffffffffffffffffffffff168152602001600073ffffffffffffffffffffffffffffffffffffffff1681526020016000815260200160608152602001600081526020016118e9611975565b81525090565b8280546118fb906121aa565b90600052602060002090601f01602090048101928261191d5760008555611964565b82601f1061193657805160ff1916838001178555611964565b82800160010185558215611964579182015b82811115611963578251825591602001919060010190611948565b5b50905061197191906119b3565b5090565b6040518060800160405280600081526020016000815260200160008152602001600073ffffffffffffffffffffffffffffffffffffffff1681525090565b5b808211156119cc5760008160009055506001016119b4565b5090565b6000819050919050565b6119e3816119d0565b82525050565b60006020820190506119fe60008301846119da565b92915050565b6000604051905090565b600080fd5b600080fd5b600080fd5b600080fd5b6000601f19601f8301169050919050565b7f4e487b7100000000000000000000000000000000000000000000000000000000600052604160045260246000fd5b611a6b82611a22565b810181811067ffffffffffffffff82111715611a8a57611a89611a33565b5b80604052505050565b6000611a9d611a04565b9050611aa98282611a62565b919050565b600067ffffffffffffffff821115611ac957611ac8611a33565b5b611ad282611a22565b9050602081019050919050565b82818337600083830152505050565b6000611b01611afc84611aae565b611a93565b905082815260208101848484011115611b1d57611b1c611a1d565b5b611b28848285611adf565b509392505050565b600082601f830112611b4557611b44611a18565b5b8135611b55848260208601611aee565b91505092915050565b600060208284031215611b7457611b73611a0e565b5b600082013567ffffffffffffffff811115611b9257611b91611a13565b5b611b9e84828501611b30565b91505092915050565b600081519050919050565b600082825260208201905092915050565b60005b83811015611be1578082015181840152602081019050611bc6565b83811115611bf0576000848401525b50505050565b6000611c0182611ba7565b611c0b8185611bb2565b9350611c1b818560208601611bc3565b611c2481611a22565b840191505092915050565b60006020820190508181036000830152611c498184611bf6565b905092915050565b611c5a816119d0565b8114611c6557600080fd5b50565b600081359050611c7781611c51565b92915050565b60008060008060808587031215611c9757611c96611a0e565b5b6000611ca587828801611c68565b9450506020611cb687828801611c68565b9350506040611cc787828801611c68565b9250506060611cd887828801611c68565b91505092959194509250565b600060208284031215611cfa57611cf9611a0e565b5b6000611d0884828501611c68565b91505092915050565b611d1a816119d0565b82525050565b600073ffffffffffffffffffffffffffffffffffffffff82169050919050565b6000611d4b82611d20565b9050919050565b611d5b81611d40565b82525050565b600082825260208201905092915050565b6000611d7d82611ba7565b611d878185611d61565b9350611d97818560208601611bc3565b611da081611a22565b840191505092915050565b608082016000820151611dc16000850182611d11565b506020820151611dd46020850182611d11565b506040820151611de76040850182611d11565b506060820151611dfa6060850182611d52565b50505050565b600061014083016000830151611e196000860182611d11565b506020830151611e2c6020860182611d52565b506040830151611e3f6040860182611d52565b506060830151611e526060860182611d11565b5060808301518482036080860152611e6a8282611d72565b91505060a0830151611e7f60a0860182611d11565b5060c0830151611e9260c0860182611dab565b508091505092915050565b60006020820190508181036000830152611eb78184611e00565b905092915050565b611ec881611d40565b82525050565b608082016000820151611ee46000850182611d11565b506020820151611ef76020850182611d11565b506040820151611f0a6040850182611d11565b506060820151611f1d6060850182611d52565b50505050565b600061014082019050611f39600083018a6119da565b611f466020830189611ebf565b611f536040830188611ebf565b611f6060608301876119da565b8181036080830152611f728186611bf6565b9050611f8160a08301856119da565b611f8e60c0830184611ece565b98975050505050505050565b6000602082019050611faf6000830184611ebf565b92915050565b611fbe81611d40565b8114611fc957600080fd5b50565b600081359050611fdb81611fb5565b92915050565b60008060408385031215611ff857611ff7611a0e565b5b600061200685828601611fcc565b925050602061201785828601611c68565b9150509250929050565b6000806040838503121561203857612037611a0e565b5b600061204685828601611c68565b925050602083013567ffffffffffffffff81111561206757612066611a13565b5b61207385828601611b30565b9150509250929050565b600081519050919050565b600082825260208201905092915050565b6000819050602082019050919050565b60006120b58383611d11565b60208301905092915050565b6000602082019050919050565b60006120d98261207d565b6120e38185612088565b93506120ee83612099565b8060005b8381101561211f57815161210688826120a9565b9750612111836120c1565b9250506001810190506120f2565b5085935050505092915050565b6000602082019050818103600083015261214681846120ce565b905092915050565b60006020828403121561216457612163611a0e565b5b600061217284828501611fcc565b91505092915050565b7f4e487b7100000000000000000000000000000000000000000000000000000000600052602260045260246000fd5b600060028204905060018216806121c257607f821691505b602082108114156121d6576121d561217b565b5b50919050565b7f4e487b7100000000000000000000000000000000000000000000000000000000600052601160045260246000fd5b6000612216826119d0565b9150612221836119d0565b9250827fffffffffffffffffffffffffffffffffffffffffffffffffffffffffffffffff03821115612256576122556121dc565b5b828201905092915050565b7f54656e616e745368617265202b204c616e646c6f7264205368617265202b204660008201527f6565205368617265206973206e6f742031303025000000000000000000000000602082015250565b60006122bd603483611bb2565b91506122c882612261565b604082019050919050565b600060208201905081810360008301526122ec816122b0565b9050919050565b600081905092915050565b7f5265736f6c766572416464726573730000000000000000000000000000000000600082015250565b6000612334600f836122f3565b915061233f826122fe565b600f82019050919050565b600061235582612327565b9150819050919050565b7f4f6e6c79204c616e646c6f7264206f72205265736f6c7665722063616e20637260008201527f656174652072656465656d2070726f706f73616c000000000000000000000000602082015250565b60006123bb603483611bb2565b91506123c68261235f565b604082019050919050565b600060208201905081810360008301526123ea816123ae565b9050919050565b7f4f6e6c792074656e616e742063616e206163636570742072656465656d20707260008201527f6f706f73616c0000000000000000000000000000000000000000000000000000602082015250565b600061244d602683611bb2565b9150612458826123f1565b604082019050919050565b6000602082019050818103600083015261247c81612440565b9050919050565b600061248e826119d0565b9150612499836119d0565b9250817fffffffffffffffffffffffffffffffffffffffffffffffffffffffffffffffff04831182151516156124d2576124d16121dc565b5b828202905092915050565b7f4e487b7100000000000000000000000000000000000000000000000000000000600052601260045260246000fd5b6000612517826119d0565b9150612522836119d0565b925082612532576125316124dd565b5b828204905092915050565b7f54656e616e745368617265202b204c616e646c6f7264205368617265202b204660008201527f656520536861726520646f6573206e6f7420657175616c20457363726f77205660208201527f616c756500000000000000000000000000000000000000000000000000000000604082015250565b60006125bf604483611bb2565b91506125ca8261253d565b606082019050919050565b600060208201905081810360008301526125ee816125b2565b9050919050565b7f457363726f7720737461747573206d7573742062652033303000000000000000600082015250565b600061262b601983611bb2565b9150612636826125f5565b602082019050919050565b6000602082019050818103600083015261265a8161261e565b9050919050565b7f4574682073656e74206973206e6f742073616d6520617320657363726f77566160008201527f6c75650000000000000000000000000000000000000000000000000000000000602082015250565b60006126bd602383611bb2565b91506126c882612661565b604082019050919050565b600060208201905081810360008301526126ec816126b0565b9050919050565b7f54656e616e7420616e64204c616e646c6f7264206d757374206e6f742062652060008201527f73616d6520616464726573736573000000000000000000000000000000000000602082015250565b600061274f602e83611bb2565b915061275a826126f3565b604082019050919050565b6000602082019050818103600083015261277e81612742565b9050919050565b7f436f6e747261637420616c726561647920616363657074656400000000000000600082015250565b60006127bb601983611bb2565b91506127c682612785565b602082019050919050565b600060208201905081810360008301526127ea816127ae565b9050919050565b7f4f6e6c792074656e616e74206f72206c616e646c6f72642063616e206163636560008201527f70742072656465656d2070726f706f73616c0000000000000000000000000000602082015250565b600061284d603283611bb2565b9150612858826127f1565b604082019050919050565b6000602082019050818103600083015261287c81612840565b9050919050565b7f416c72656164792072656a6563746564206f7220616363657074656400000000600082015250565b60006128b9601c83611bb2565b91506128c482612883565b602082019050919050565b600060208201905081810360008301526128e8816128ac565b905091905056fea26469706673582212202a12a32deffc7355431392e6472440837fbcf4fd92a40879e0999e242ebf5c0064736f6c634300080a0033",
  "immutableReferences": {},
  "source": "// SPDX-License-Identifier:\tCC-BY-4.0\npragma solidity ^0.8.10;\n\ninterface rentEscrowInterface { \n\n    struct RentContract {\n            uint rentId;\n            address tenant;\n            address landlord;\n            uint256 escrowValue;\n            string contractDetail;\n            uint status; ///@dev 100 Proposed; 200 Accepted by Tenant; 300 Redeem Proposal created; 400 Escrow Redeemed\n            RedeemProposal redeemProposal;\n        }\n\n    struct RedeemProposal {\n        uint tenantShare;\n        uint landlordShare;\n        uint feeShare;\n        address feeAddress;\n    }\n\n    function getContractToResolve () external view returns (RentContract memory);\n    function createRedeemProposal (uint _rentId, uint _tenantShare, uint _landlordShare, uint _feeShare ) external;\n    function acceptRedeemProposal(uint _rentId) external;\n    }\n\ncontract rentEscrow is rentEscrowInterface {\n///@custom:navigation Events\n    event sendAddressRent (address _message); \n    event sendStringRent (string _message); \n    event sendIdRent (uint _message); \n    ///@dev in order to give some feedback that rentcontract was created, we will emit its id. Later maybe be filled with some other\n    event rentContractId (uint _rentId);\n\n///@custom:navigation Mappings\n    mapping(uint => RentContract) public rentContractsMapping;\n\n    // will use this to search contracts by address\n    mapping(address => uint[]) public addressMapping;\n    uint public nextRentId = 0;\n\n\n    ///@dev this contracf address is allowed to trigger redeem proposal creation\n    mapping(string => address) public importantAddresses;\n    mapping(string => string) public importantStrings;\n\n    ///@dev sets\n    function setResolverAddress (address _resolverAddress) public  {\n        importantAddresses[\"ResolverAddress\"] = _resolverAddress;\n        importantStrings[\"ResolverAddress\"] = \"Hello\";\n    }\n///@custom:navigation RentContracts\n    function proposeNewContract (uint256 _escrowValue, string memory _contractDetail) external {\n        RentContract memory myRentContract;\n     \n        myRentContract.rentId = nextRentId;\n        myRentContract.landlord = msg.sender;\n        myRentContract.escrowValue = _escrowValue;\n        myRentContract.contractDetail = _contractDetail;\n        myRentContract.status = 100;\n        \n        rentContractsMapping[nextRentId] = myRentContract; //Later: Change to nextId to hashed ID\n        updateAddressMapping(nextRentId);\n        emit rentContractId(nextRentId);\n        \n        nextRentId += 1;\n\n    }\n\n    function acceptNewContract (uint _rentId) external payable{\n        require(msg.value == rentContractsMapping[_rentId].escrowValue, \"Eth sent is not same as escrowValue\");\n        require(msg.sender != rentContractsMapping[_rentId].landlord, \"Tenant and Landlord must not be same addresses\");\n        require(200 != rentContractsMapping[_rentId].status, \"Contract already accepted\");\n        \n        rentContractsMapping[_rentId].tenant = msg.sender;\n        rentContractsMapping[_rentId].status = 200;\n\n        updateAddressMapping(_rentId);\n\n    }\n///@custom:navigation Redeems\n    function createRedeemProposal (uint _rentId, uint _tenantShare, uint _landlordShare, uint _feeShare ) external {\n        \n        uint shareSum = _tenantShare + _landlordShare + _feeShare;\n        require(shareSum == 100, \"TenantShare + Landlord Share + Fee Share is not 100%\" );\n\n        //only landlord or resolver can create redeemProposal\n        // test required\n        require(msg.sender ==  rentContractsMapping[_rentId].landlord || msg.sender == importantAddresses[\"ResolverAddress\"] , \"Only Landlord or Resolver can create redeem proposal\");\n\n        rentContractsMapping[_rentId].redeemProposal.tenantShare = _tenantShare;\n        rentContractsMapping[_rentId].redeemProposal.landlordShare = _landlordShare;\n        rentContractsMapping[_rentId].redeemProposal.feeShare = _feeShare;\n        //Later: fee address must be protected\n        rentContractsMapping[_rentId].redeemProposal.feeAddress = importantAddresses[\"ResolverAddress\"];\n        rentContractsMapping[_rentId].status = 300;\n    \n    }\n\n    function acceptRedeemProposal(uint _rentId) external {\n        //only tenant can accept redeemProposal\n        // test required\n        require(msg.sender ==  rentContractsMapping[_rentId].tenant || msg.sender == importantAddresses[\"ResolverAddress\"],\"Only tenant can accept redeem proposal\");\n\n        \n        uint escrowValue = rentContractsMapping[_rentId].escrowValue;\n        // send to tenant\n        address payable tenantAddress = payable(rentContractsMapping[_rentId].tenant);\n        uint escrowTenant = escrowValue * rentContractsMapping[_rentId].redeemProposal.tenantShare / 100;\n\n         // send to landlord\n        address payable landlordAddress = payable(rentContractsMapping[_rentId].landlord);\n        uint escrowLandlord = escrowValue * rentContractsMapping[_rentId].redeemProposal.landlordShare / 100;\n\n        // send to fee\n        address payable feeAddress = payable(rentContractsMapping[_rentId].redeemProposal.feeAddress);\n        uint fee = escrowValue * rentContractsMapping[_rentId].redeemProposal.feeShare / 100;\n\n        //values to send must equal to escrowValue\n        require((escrowTenant + escrowLandlord + fee) == escrowValue, \"TenantShare + Landlord Share + Fee Share does not equal Escrow Value\");\n\n        // status must be 300 (proposed), to avoid double dip\n        require(rentContractsMapping[_rentId].status == 300, \"Escrow status must be 300\");\n        rentContractsMapping[_rentId].status = 400;\n\n        //Later: would it make sense to stop any redemptions in case sum of individual escrows is below total balance ???\n        \n        //Sending\n        tenantAddress.transfer(escrowTenant);\n        landlordAddress.transfer(escrowLandlord);\n        feeAddress.transfer(fee);    \n    }\n\n    ///@notice Use this function to reject redeem proposal. Will send it to the resolution centre\n    ///@param _rentId identifies the contract between tenant and landlord\n\n    function rejectRedeemProposal(uint _rentId) external {\n        ///@dev UX has a say here, currently tenant and landlord can reject at any time\n        require((msg.sender ==  rentContractsMapping[_rentId].tenant || msg.sender == rentContractsMapping[_rentId].landlord), \"Only tenant or landlord can accept redeem proposal\");\n        \n        require(rentContractsMapping[_rentId].status == 300, \"Already rejected or accepted\");\n\n        rentContractsMapping[_rentId].status = 200;\n\n        }\n \n///@custom:navigation Development Helpers\n    function devGetBalance () external view returns(uint){\n        return(address(this).balance);\n    }\n    ///@dev this is used by retrieve mapping by another contract\n    ///@custom:later now gives just first contract. Need to add logic to return contract where redeemProposal was rejected\n    function getContractToResolve () external view returns (RentContract memory) {\n         uint _rentId = 1;\n         return rentContractsMapping[_rentId];\n        }\n    \n    ///@dev Should go to some utils contract\n    function updateAddressMapping (uint _rentId) internal {\n        addressMapping[msg.sender].push(_rentId);\n        }\n\n    ///@notice returns all contracts  where sender is involved party\n    function getContractsByAddress () external view returns ( uint[] memory ){\n    return addressMapping[msg.sender];\n\n        }\n    ///@notice returns RentContract\n    function getContractDetails (uint _rentId) external view returns (RentContract memory) {\n        return rentContractsMapping[_rentId];\n    }\n}",
  "sourcePath": "/Users/andy/my_repos/rentEscrow/contracts/rentEscrow.sol",
  "compiler": {
    "name": "solc",
    "version": "0.8.10+commit.fc410830.Emscripten.clang"
  },
  "schemaVersion": "3.4.5",
  "updatedAt": "2022-03-13T12:54:46.217Z",
  "networkType": "ethereum",
  "devdoc": {
    "events": {
      "rentContractId(uint256)": {
        "details": "in order to give some feedback that rentcontract was created, we will emit its id. Later maybe be filled with some other"
      },
      "sendAddressRent(address)": {
        "custom:navigation": "Events"
      }
    },
    "kind": "dev",
    "methods": {
      "createRedeemProposal(uint256,uint256,uint256,uint256)": {
        "custom:navigation": "Redeems"
      },
      "devGetBalance()": {
        "custom:navigation": "Development Helpers"
      },
      "getContractToResolve()": {
        "custom:later": "now gives just first contract. Need to add logic to return contract where redeemProposal was rejected",
        "details": "this is used by retrieve mapping by another contract"
      },
      "proposeNewContract(uint256,string)": {
        "custom:navigation": "RentContracts"
      },
      "rejectRedeemProposal(uint256)": {
        "params": {
          "_rentId": "identifies the contract between tenant and landlord"
        }
      },
      "setResolverAddress(address)": {
        "details": "sets"
      }
    },
    "stateVariables": {
      "importantAddresses": {
        "details": "this contracf address is allowed to trigger redeem proposal creation"
      },
      "rentContractsMapping": {
        "custom:navigation": "Mappings"
      }
    },
    "version": 1
  },
  "userdoc": {
    "kind": "user",
    "methods": {
      "getContractDetails(uint256)": {
        "notice": "returns RentContract"
      },
      "getContractsByAddress()": {
        "notice": "returns all contracts  where sender is involved party"
      },
      "rejectRedeemProposal(uint256)": {
        "notice": "Use this function to reject redeem proposal. Will send it to the resolution centre"
      }
    },
    "version": 1
  }
}