{
  "contractName": "resolver",
  "abi": [
    {
      "anonymous": false,
      "inputs": [
        {
          "indexed": false,
          "internalType": "uint256",
          "name": "_rentId",
          "type": "uint256"
        }
      ],
      "name": "rentContractId",
      "type": "event"
    },
    {
      "anonymous": false,
      "inputs": [
        {
          "indexed": false,
          "internalType": "address",
          "name": "_message",
          "type": "address"
        }
      ],
      "name": "sendAddress",
      "type": "event"
    },
    {
      "anonymous": false,
      "inputs": [
        {
          "indexed": false,
          "internalType": "address",
          "name": "_message",
          "type": "address"
        }
      ],
      "name": "sendAddressRent",
      "type": "event"
    },
    {
      "anonymous": false,
      "inputs": [
        {
          "indexed": false,
          "internalType": "bool",
          "name": "_bool",
          "type": "bool"
        }
      ],
      "name": "sendBool",
      "type": "event"
    },
    {
      "anonymous": false,
      "inputs": [
        {
          "indexed": false,
          "internalType": "bytes32",
          "name": "",
          "type": "bytes32"
        }
      ],
      "name": "sendDisputeId",
      "type": "event"
    },
    {
      "anonymous": false,
      "inputs": [
        {
          "indexed": false,
          "internalType": "uint256",
          "name": "_message",
          "type": "uint256"
        }
      ],
      "name": "sendId",
      "type": "event"
    },
    {
      "anonymous": false,
      "inputs": [
        {
          "indexed": false,
          "internalType": "uint256",
          "name": "_message",
          "type": "uint256"
        }
      ],
      "name": "sendIdRent",
      "type": "event"
    },
    {
      "anonymous": false,
      "inputs": [
        {
          "indexed": false,
          "internalType": "string",
          "name": "_message",
          "type": "string"
        }
      ],
      "name": "sendMessage",
      "type": "event"
    },
    {
      "anonymous": false,
      "inputs": [
        {
          "indexed": false,
          "internalType": "string",
          "name": "_message",
          "type": "string"
        }
      ],
      "name": "sendStringRent",
      "type": "event"
    },
    {
      "anonymous": false,
      "inputs": [
        {
          "indexed": false,
          "internalType": "contract rentEscrow",
          "name": "_rentEscrow",
          "type": "address"
        }
      ],
      "name": "sendStruct",
      "type": "event"
    },
    {
      "inputs": [
        {
          "internalType": "address",
          "name": "",
          "type": "address"
        },
        {
          "internalType": "uint256",
          "name": "",
          "type": "uint256"
        }
      ],
      "name": "AddressToCaseMapping",
      "outputs": [
        {
          "internalType": "bytes32",
          "name": "",
          "type": "bytes32"
        }
      ],
      "stateMutability": "view",
      "type": "function"
    },
    {
      "inputs": [
        {
          "internalType": "bytes32",
          "name": "",
          "type": "bytes32"
        }
      ],
      "name": "DisputeCaseMapping",
      "outputs": [
        {
          "internalType": "bytes32",
          "name": "disputeId",
          "type": "bytes32"
        },
        {
          "internalType": "uint256",
          "name": "rentId",
          "type": "uint256"
        },
        {
          "internalType": "uint256",
          "name": "status",
          "type": "uint256"
        },
        {
          "internalType": "string",
          "name": "disputeDetail",
          "type": "string"
        }
      ],
      "stateMutability": "view",
      "type": "function"
    },
    {
      "inputs": [
        {
          "internalType": "uint256",
          "name": "_rentId",
          "type": "uint256"
        }
      ],
      "name": "acceptNewContract",
      "outputs": [],
      "stateMutability": "payable",
      "type": "function"
    },
    {
      "inputs": [
        {
          "internalType": "uint256",
          "name": "_rentId",
          "type": "uint256"
        }
      ],
      "name": "acceptRedeemProposal",
      "outputs": [],
      "stateMutability": "nonpayable",
      "type": "function"
    },
    {
      "inputs": [
        {
          "internalType": "address",
          "name": "",
          "type": "address"
        },
        {
          "internalType": "uint256",
          "name": "",
          "type": "uint256"
        }
      ],
      "name": "addressMapping",
      "outputs": [
        {
          "internalType": "uint256",
          "name": "",
          "type": "uint256"
        }
      ],
      "stateMutability": "view",
      "type": "function"
    },
    {
      "inputs": [
        {
          "internalType": "uint256",
          "name": "_rentId",
          "type": "uint256"
        },
        {
          "internalType": "uint256",
          "name": "_tenantShare",
          "type": "uint256"
        },
        {
          "internalType": "uint256",
          "name": "_landlordShare",
          "type": "uint256"
        },
        {
          "internalType": "uint256",
          "name": "_feeShare",
          "type": "uint256"
        }
      ],
      "name": "createRedeemProposal",
      "outputs": [],
      "stateMutability": "nonpayable",
      "type": "function"
    },
    {
      "inputs": [],
      "name": "devGetBalance",
      "outputs": [
        {
          "internalType": "uint256",
          "name": "",
          "type": "uint256"
        }
      ],
      "stateMutability": "view",
      "type": "function"
    },
    {
      "inputs": [],
      "name": "getContractToResolve",
      "outputs": [
        {
          "components": [
            {
              "internalType": "uint256",
              "name": "rentId",
              "type": "uint256"
            },
            {
              "internalType": "address",
              "name": "tenant",
              "type": "address"
            },
            {
              "internalType": "address",
              "name": "landlord",
              "type": "address"
            },
            {
              "internalType": "uint256",
              "name": "escrowValue",
              "type": "uint256"
            },
            {
              "internalType": "string",
              "name": "contractDetail",
              "type": "string"
            },
            {
              "internalType": "string",
              "name": "status",
              "type": "string"
            },
            {
              "components": [
                {
                  "internalType": "uint256",
                  "name": "tenantShare",
                  "type": "uint256"
                },
                {
                  "internalType": "uint256",
                  "name": "landlordShare",
                  "type": "uint256"
                },
                {
                  "internalType": "uint256",
                  "name": "feeShare",
                  "type": "uint256"
                },
                {
                  "internalType": "address",
                  "name": "feeAddress",
                  "type": "address"
                },
                {
                  "internalType": "uint256",
                  "name": "proposalStatus",
                  "type": "uint256"
                }
              ],
              "internalType": "struct rentEscrowInterface.RedeemProposal",
              "name": "redeemProposal",
              "type": "tuple"
            }
          ],
          "internalType": "struct rentEscrowInterface.RentContract",
          "name": "",
          "type": "tuple"
        }
      ],
      "stateMutability": "view",
      "type": "function"
    },
    {
      "inputs": [],
      "name": "getContractsByAddress",
      "outputs": [
        {
          "internalType": "uint256[]",
          "name": "",
          "type": "uint256[]"
        }
      ],
      "stateMutability": "view",
      "type": "function"
    },
    {
      "inputs": [
        {
          "internalType": "string",
          "name": "",
          "type": "string"
        }
      ],
      "name": "importantAddresses",
      "outputs": [
        {
          "internalType": "address",
          "name": "",
          "type": "address"
        }
      ],
      "stateMutability": "view",
      "type": "function"
    },
    {
      "inputs": [
        {
          "internalType": "string",
          "name": "",
          "type": "string"
        }
      ],
      "name": "importantStrings",
      "outputs": [
        {
          "internalType": "string",
          "name": "",
          "type": "string"
        }
      ],
      "stateMutability": "view",
      "type": "function"
    },
    {
      "inputs": [],
      "name": "nextRentId",
      "outputs": [
        {
          "internalType": "uint256",
          "name": "",
          "type": "uint256"
        }
      ],
      "stateMutability": "view",
      "type": "function"
    },
    {
      "inputs": [
        {
          "internalType": "uint256",
          "name": "_escrowValue",
          "type": "uint256"
        },
        {
          "internalType": "string",
          "name": "_contractDetail",
          "type": "string"
        }
      ],
      "name": "proposeNewContract",
      "outputs": [],
      "stateMutability": "nonpayable",
      "type": "function"
    },
    {
      "inputs": [
        {
          "internalType": "uint256",
          "name": "_rentId",
          "type": "uint256"
        }
      ],
      "name": "rejectRedeemProposal",
      "outputs": [],
      "stateMutability": "nonpayable",
      "type": "function"
    },
    {
      "inputs": [
        {
          "internalType": "uint256",
          "name": "",
          "type": "uint256"
        }
      ],
      "name": "rentContractsMapping",
      "outputs": [
        {
          "internalType": "uint256",
          "name": "rentId",
          "type": "uint256"
        },
        {
          "internalType": "address",
          "name": "tenant",
          "type": "address"
        },
        {
          "internalType": "address",
          "name": "landlord",
          "type": "address"
        },
        {
          "internalType": "uint256",
          "name": "escrowValue",
          "type": "uint256"
        },
        {
          "internalType": "string",
          "name": "contractDetail",
          "type": "string"
        },
        {
          "internalType": "string",
          "name": "status",
          "type": "string"
        },
        {
          "components": [
            {
              "internalType": "uint256",
              "name": "tenantShare",
              "type": "uint256"
            },
            {
              "internalType": "uint256",
              "name": "landlordShare",
              "type": "uint256"
            },
            {
              "internalType": "uint256",
              "name": "feeShare",
              "type": "uint256"
            },
            {
              "internalType": "address",
              "name": "feeAddress",
              "type": "address"
            },
            {
              "internalType": "uint256",
              "name": "proposalStatus",
              "type": "uint256"
            }
          ],
          "internalType": "struct rentEscrowInterface.RedeemProposal",
          "name": "redeemProposal",
          "type": "tuple"
        }
      ],
      "stateMutability": "view",
      "type": "function"
    },
    {
      "inputs": [
        {
          "internalType": "address",
          "name": "_resolverAddress",
          "type": "address"
        }
      ],
      "name": "setResolverAddress",
      "outputs": [],
      "stateMutability": "nonpayable",
      "type": "function"
    },
    {
      "stateMutability": "payable",
      "type": "receive"
    },
    {
      "inputs": [
        {
          "internalType": "uint256",
          "name": "_numberOfJudges",
          "type": "uint256"
        }
      ],
      "name": "updateNumberOfJudges",
      "outputs": [],
      "stateMutability": "nonpayable",
      "type": "function"
    },
    {
      "inputs": [
        {
          "internalType": "bytes32",
          "name": "_disputeId",
          "type": "bytes32"
        }
      ],
      "name": "getDisputeCase",
      "outputs": [
        {
          "components": [
            {
              "internalType": "bytes32",
              "name": "disputeId",
              "type": "bytes32"
            },
            {
              "internalType": "uint256",
              "name": "rentId",
              "type": "uint256"
            },
            {
              "internalType": "uint256",
              "name": "status",
              "type": "uint256"
            },
            {
              "internalType": "address[]",
              "name": "judges",
              "type": "address[]"
            },
            {
              "internalType": "address[]",
              "name": "judgesWhoVoted",
              "type": "address[]"
            },
            {
              "internalType": "address[]",
              "name": "restrictedJudges",
              "type": "address[]"
            },
            {
              "components": [
                {
                  "internalType": "address",
                  "name": "disputePartyAddress",
                  "type": "address"
                },
                {
                  "internalType": "string",
                  "name": "documentation",
                  "type": "string"
                },
                {
                  "internalType": "uint256[]",
                  "name": "judgeVotes",
                  "type": "uint256[]"
                }
              ],
              "internalType": "struct resolver.DisputeParty[2]",
              "name": "disputeParty",
              "type": "tuple[2]"
            },
            {
              "internalType": "string",
              "name": "disputeDetail",
              "type": "string"
            }
          ],
          "internalType": "struct resolver.DisputeCase",
          "name": "",
          "type": "tuple"
        }
      ],
      "stateMutability": "view",
      "type": "function"
    },
    {
      "inputs": [],
      "name": "getMyDisputeCase",
      "outputs": [
        {
          "components": [
            {
              "internalType": "bytes32",
              "name": "disputeId",
              "type": "bytes32"
            },
            {
              "internalType": "uint256",
              "name": "rentId",
              "type": "uint256"
            },
            {
              "internalType": "uint256",
              "name": "status",
              "type": "uint256"
            },
            {
              "internalType": "address[]",
              "name": "judges",
              "type": "address[]"
            },
            {
              "internalType": "address[]",
              "name": "judgesWhoVoted",
              "type": "address[]"
            },
            {
              "internalType": "address[]",
              "name": "restrictedJudges",
              "type": "address[]"
            },
            {
              "components": [
                {
                  "internalType": "address",
                  "name": "disputePartyAddress",
                  "type": "address"
                },
                {
                  "internalType": "string",
                  "name": "documentation",
                  "type": "string"
                },
                {
                  "internalType": "uint256[]",
                  "name": "judgeVotes",
                  "type": "uint256[]"
                }
              ],
              "internalType": "struct resolver.DisputeParty[2]",
              "name": "disputeParty",
              "type": "tuple[2]"
            },
            {
              "internalType": "string",
              "name": "disputeDetail",
              "type": "string"
            }
          ],
          "internalType": "struct resolver.DisputeCase[]",
          "name": "",
          "type": "tuple[]"
        }
      ],
      "stateMutability": "view",
      "type": "function"
    },
    {
      "inputs": [],
      "name": "getMyDisputeCaseId",
      "outputs": [
        {
          "internalType": "bytes32[]",
          "name": "_disputeCaseId",
          "type": "bytes32[]"
        }
      ],
      "stateMutability": "view",
      "type": "function"
    },
    {
      "inputs": [
        {
          "internalType": "address",
          "name": "_rentEscrowAddress",
          "type": "address"
        }
      ],
      "name": "setRentEscrowAddress",
      "outputs": [],
      "stateMutability": "nonpayable",
      "type": "function"
    },
    {
      "inputs": [],
      "name": "getNewContractToResolve",
      "outputs": [],
      "stateMutability": "nonpayable",
      "type": "function"
    },
    {
      "inputs": [],
      "name": "assignJudge",
      "outputs": [],
      "stateMutability": "nonpayable",
      "type": "function"
    },
    {
      "inputs": [
        {
          "internalType": "uint256[2]",
          "name": "_judgeVote",
          "type": "uint256[2]"
        },
        {
          "internalType": "bytes32",
          "name": "_disputeId",
          "type": "bytes32"
        }
      ],
      "name": "castVote",
      "outputs": [],
      "stateMutability": "nonpayable",
      "type": "function"
    },
    {
      "inputs": [
        {
          "internalType": "bytes32",
          "name": "_disputeId",
          "type": "bytes32"
        }
      ],
      "name": "triggerCreateRedeemProposal",
      "outputs": [],
      "stateMutability": "nonpayable",
      "type": "function"
    }
  ],
  "bytecode": "0x60806040526000600255600a60065560006009556003600a5534801561002457600080fd5b50615034806100346000396000f3fe60806040526004361061016a5760003560e01c80638922dfbf116100d1578063b59146f71161008a578063dd28218b11610064578063dd28218b1461052b578063eafe993414610554578063fb72d92a1461057f578063fcfe7b51146105bc57610171565b8063b59146f7146104ae578063b61f5f53146104d7578063c1ec6fc01461050257610171565b80638922dfbf146103795780638db28504146103b657806395128331146103df57806396d65c3e14610408578063a6dd427614610445578063b102b3701461046e57610171565b80634232dfed116101235780634232dfed146102865780636b695d24146102af5780637395eb41146102f25780637ad637d81461031d5780637afc2d561461033457806385b589631461035d57610171565b8063039ed5011461017657806307e31e2b146101a15780630836e7d0146101de5780630e593bc31461021b5780630e9008fe146102325780632458cc3e1461025b57610171565b3661017157005b600080fd5b34801561018257600080fd5b5061018b6105e7565b604051610198919061349b565b60405180910390f35b3480156101ad57600080fd5b506101c860048036038101906101c39190613610565b6105ed565b6040516101d591906136e1565b60405180910390f35b3480156101ea57600080fd5b5061020560048036038101906102009190613739565b6106a3565b6040516102129190613b46565b60405180910390f35b34801561022757600080fd5b50610230610ab7565b005b34801561023e57600080fd5b5061025960048036038101906102549190613b94565b610cc5565b005b34801561026757600080fd5b50610270610f47565b60405161027d919061349b565b60405180910390f35b34801561029257600080fd5b506102ad60048036038101906102a89190613bfb565b610f4f565b005b3480156102bb57600080fd5b506102d660048036038101906102d19190613bfb565b610f59565b6040516102e99796959493929190613c9f565b60405180910390f35b3480156102fe57600080fd5b50610307611173565b6040516103149190613e29565b60405180910390f35b34801561032957600080fd5b5061033261141a565b005b34801561034057600080fd5b5061035b60048036038101906103569190613bfb565b6118db565b005b61037760048036038101906103729190613bfb565b611d07565b005b34801561038557600080fd5b506103a0600480360381019061039b9190613610565b611dbe565b6040516103ad9190613e4b565b60405180910390f35b3480156103c257600080fd5b506103dd60048036038101906103d89190613e92565b611e07565b005b3480156103eb57600080fd5b5061040660048036038101906104019190613f75565b611ea4565b005b34801561041457600080fd5b5061042f600480360381019061042a9190613fb5565b6120c9565b60405161043c919061349b565b60405180910390f35b34801561045157600080fd5b5061046c60048036038101906104679190613bfb565b6120fa565b005b34801561047a57600080fd5b5061049560048036038101906104909190613739565b612401565b6040516104a59493929190614004565b60405180910390f35b3480156104ba57600080fd5b506104d560048036038101906104d09190614050565b6124b9565b005b3480156104e357600080fd5b506104ec6126e9565b6040516104f9919061411b565b60405180910390f35b34801561050e57600080fd5b5061052960048036038101906105249190613739565b61277e565b005b34801561053757600080fd5b50610552600480360381019061054d9190613e92565b61291e565b005b34801561056057600080fd5b506105696129e2565b60405161057691906141ec565b60405180910390f35b34801561058b57600080fd5b506105a660048036038101906105a19190613fb5565b612a77565b6040516105b3919061420e565b60405180910390f35b3480156105c857600080fd5b506105d1612aa8565b6040516105de91906143b7565b60405180910390f35b60025481565b600481805160208101820180518482526020830160208501208183528095505050505050600091509050805461062290614408565b80601f016020809104026020016040519081016040528092919081815260200182805461064e90614408565b801561069b5780601f106106705761010080835404028352916020019161069b565b820191906000526020600020905b81548152906001019060200180831161067e57829003601f168201915b505050505081565b6106ab61322c565b600b6000838152602001908152602001600020604051806101000160405290816000820154815260200160018201548152602001600282015481526020016003820180548060200260200160405190810160405280929190818152602001828054801561076d57602002820191906000526020600020905b8160009054906101000a900473ffffffffffffffffffffffffffffffffffffffff1673ffffffffffffffffffffffffffffffffffffffff1681526020019060010190808311610723575b50505050508152602001600482018054806020026020016040519081016040528092919081815260200182805480156107fb57602002820191906000526020600020905b8160009054906101000a900473ffffffffffffffffffffffffffffffffffffffff1673ffffffffffffffffffffffffffffffffffffffff16815260200190600101908083116107b1575b505050505081526020016005820180548060200260200160405190810160405280929190818152602001828054801561088957602002820191906000526020600020905b8160009054906101000a900473ffffffffffffffffffffffffffffffffffffffff1673ffffffffffffffffffffffffffffffffffffffff168152602001906001019080831161083f575b5050505050815260200160068201600280602002604051908101604052809291906000905b82821015610a16578382600302016040518060600160405290816000820160009054906101000a900473ffffffffffffffffffffffffffffffffffffffff1673ffffffffffffffffffffffffffffffffffffffff1673ffffffffffffffffffffffffffffffffffffffff16815260200160018201805461092d90614408565b80601f016020809104026020016040519081016040528092919081815260200182805461095990614408565b80156109a65780601f1061097b576101008083540402835291602001916109a6565b820191906000526020600020905b81548152906001019060200180831161098957829003601f168201915b50505050508152602001600282018054806020026020016040519081016040528092919081815260200182805480156109fe57602002820191906000526020600020905b8154815260200190600101908083116109ea575b505050505081525050815260200190600101906108ae565b505050508152602001600c82018054610a2e90614408565b80601f0160208091040260200160405190810160405280929190818152602001828054610a5a90614408565b8015610aa75780601f10610a7c57610100808354040283529160200191610aa7565b820191906000526020600020905b815481529060010190602001808311610a8a57829003601f168201915b5050505050815250509050919050565b60001515600760000160009054906101000a900460ff1615151415610adf57610ade61141a565b5b610aff600b60006007600101548152602001908152602001600020612b78565b610b3e576040517f08c379a0000000000000000000000000000000000000000000000000000000008152600401610b3590614486565b60405180910390fd5b7fdf247fdfb29d1a7f4a949e81abe1b391f62b391f1c1c0a258bdccbe7b9655952600b6000600760010154815260200190815260200160002060000154604051610b88919061420e565b60405180910390a1600b60006007600101548152602001908152602001600020600301339080600181540180825580915050600190039060005260206000200160009091909190916101000a81548173ffffffffffffffffffffffffffffffffffffffff021916908373ffffffffffffffffffffffffffffffffffffffff160217905550600c60003373ffffffffffffffffffffffffffffffffffffffff1673ffffffffffffffffffffffffffffffffffffffff168152602001908152602001600020600b60006007600101548152602001908152602001600020600001549080600181540180825580915050600190039060005260206000200160009091909190915055600a54600b600060076001015481526020019081526020016000206003018054905010610cc357610cc260008060001b612d07565b5b565b6000818385610cd491906144d5565b610cde91906144d5565b905060648114610d23576040517f08c379a0000000000000000000000000000000000000000000000000000000008152600401610d1a9061459d565b60405180910390fd5b60008086815260200190815260200160002060020160009054906101000a900473ffffffffffffffffffffffffffffffffffffffff1673ffffffffffffffffffffffffffffffffffffffff163373ffffffffffffffffffffffffffffffffffffffff161480610df957506003604051610d9b90614614565b908152602001604051809103902060009054906101000a900473ffffffffffffffffffffffffffffffffffffffff1673ffffffffffffffffffffffffffffffffffffffff163373ffffffffffffffffffffffffffffffffffffffff16145b610e38576040517f08c379a0000000000000000000000000000000000000000000000000000000008152600401610e2f9061469b565b60405180910390fd5b8360008087815260200190815260200160002060060160000181905550826000808781526020019081526020016000206006016001018190555081600080878152602001908152602001600020600601600201819055506003604051610e9d90614614565b908152602001604051809103902060009054906101000a900473ffffffffffffffffffffffffffffffffffffffff1660008087815260200190815260200160002060060160030160006101000a81548173ffffffffffffffffffffffffffffffffffffffff021916908373ffffffffffffffffffffffffffffffffffffffff1602179055506064600080878152602001908152602001600020600601600401819055505050505050565b600047905090565b80600a8190555050565b60006020528060005260406000206000915090508060000154908060010160009054906101000a900473ffffffffffffffffffffffffffffffffffffffff16908060020160009054906101000a900473ffffffffffffffffffffffffffffffffffffffff1690806003015490806004018054610fd490614408565b80601f016020809104026020016040519081016040528092919081815260200182805461100090614408565b801561104d5780601f106110225761010080835404028352916020019161104d565b820191906000526020600020905b81548152906001019060200180831161103057829003601f168201915b50505050509080600501805461106290614408565b80601f016020809104026020016040519081016040528092919081815260200182805461108e90614408565b80156110db5780601f106110b0576101008083540402835291602001916110db565b820191906000526020600020905b8154815290600101906020018083116110be57829003601f168201915b505050505090806006016040518060a00160405290816000820154815260200160018201548152602001600282015481526020016003820160009054906101000a900473ffffffffffffffffffffffffffffffffffffffff1673ffffffffffffffffffffffffffffffffffffffff1673ffffffffffffffffffffffffffffffffffffffff168152602001600482015481525050905087565b61117b61327a565b6000600190506000808281526020019081526020016000206040518060e0016040529081600082015481526020016001820160009054906101000a900473ffffffffffffffffffffffffffffffffffffffff1673ffffffffffffffffffffffffffffffffffffffff1673ffffffffffffffffffffffffffffffffffffffff1681526020016002820160009054906101000a900473ffffffffffffffffffffffffffffffffffffffff1673ffffffffffffffffffffffffffffffffffffffff1673ffffffffffffffffffffffffffffffffffffffff1681526020016003820154815260200160048201805461126e90614408565b80601f016020809104026020016040519081016040528092919081815260200182805461129a90614408565b80156112e75780601f106112bc576101008083540402835291602001916112e7565b820191906000526020600020905b8154815290600101906020018083116112ca57829003601f168201915b5050505050815260200160058201805461130090614408565b80601f016020809104026020016040519081016040528092919081815260200182805461132c90614408565b80156113795780601f1061134e57610100808354040283529160200191611379565b820191906000526020600020905b81548152906001019060200180831161135c57829003601f168201915b50505050508152602001600682016040518060a00160405290816000820154815260200160018201548152602001600282015481526020016003820160009054906101000a900473ffffffffffffffffffffffffffffffffffffffff1673ffffffffffffffffffffffffffffffffffffffff1673ffffffffffffffffffffffffffffffffffffffff1681526020016004820154815250508152505091505090565b6000600560009054906101000a900473ffffffffffffffffffffffffffffffffffffffff16905060008173ffffffffffffffffffffffffffffffffffffffff16637395eb416040518163ffffffff1660e01b8152600401600060405180830381865afa15801561148e573d6000803e3d6000fd5b505050506040513d6000823e3d601f19601f820116820180604052508101906114b791906148d8565b9050600060095482600001516114cd91906144d5565b6040516020016114dd9190614942565b604051602081830303815290604052805190602001209050600960008154809291906115089061495d565b91905055506000600b6000838152602001908152602001600020905081816000018190555082600001518160010181905550606481600201819055506040518060400160405280600581526020017f48656c6c6f00000000000000000000000000000000000000000000000000000081525081600c0190805190602001906115919291906132e9565b5060006040518060600160405280856040015173ffffffffffffffffffffffffffffffffffffffff168152602001604051806020016040528060008152508152602001600067ffffffffffffffff8111156115ef576115ee6134e5565b5b60405190808252806020026020018201604052801561161d5781602001602082028036833780820191505090505b50815250905060006040518060600160405280866020015173ffffffffffffffffffffffffffffffffffffffff168152602001604051806020016040528060008152508152602001600067ffffffffffffffff8111156116805761167f6134e5565b5b6040519080825280602002602001820160405280156116ae5781602001602082028036833780820191505090505b50815250905081836006016000600281106116cc576116cb6149a6565b5b6003020160008201518160000160006101000a81548173ffffffffffffffffffffffffffffffffffffffff021916908373ffffffffffffffffffffffffffffffffffffffff16021790555060208201518160010190805190602001906117339291906132e9565b50604082015181600201908051906020019061175092919061336f565b50905050808360060160016002811061176c5761176b6149a6565b5b6003020160008201518160000160006101000a81548173ffffffffffffffffffffffffffffffffffffffff021916908373ffffffffffffffffffffffffffffffffffffffff16021790555060208201518160010190805190602001906117d39291906132e9565b5060408201518160020190805190602001906117f092919061336f565b50905050600c6000866040015173ffffffffffffffffffffffffffffffffffffffff1673ffffffffffffffffffffffffffffffffffffffff168152602001908152602001600020849080600181540180825580915050600190039060005260206000200160009091909190915055600c6000866020015173ffffffffffffffffffffffffffffffffffffffff1673ffffffffffffffffffffffffffffffffffffffff1681526020019081526020016000208490806001815401808255809150506001900390600052602060002001600090919091909150556118d3600185612d07565b505050505050565b60008082815260200190815260200160002060010160009054906101000a900473ffffffffffffffffffffffffffffffffffffffff1673ffffffffffffffffffffffffffffffffffffffff163373ffffffffffffffffffffffffffffffffffffffff1614806119b15750600360405161195390614614565b908152602001604051809103902060009054906101000a900473ffffffffffffffffffffffffffffffffffffffff1673ffffffffffffffffffffffffffffffffffffffff163373ffffffffffffffffffffffffffffffffffffffff16145b6119f0576040517f08c379a00000000000000000000000000000000000000000000000000000000081526004016119e790614a47565b60405180910390fd5b6000806000838152602001908152602001600020600301549050600080600084815260200190815260200160002060010160009054906101000a900473ffffffffffffffffffffffffffffffffffffffff169050600060646000808681526020019081526020016000206006016000015484611a6c9190614a67565b611a769190614af0565b9050600080600086815260200190815260200160002060020160009054906101000a900473ffffffffffffffffffffffffffffffffffffffff169050600060646000808881526020019081526020016000206006016001015486611ada9190614a67565b611ae49190614af0565b9050600080600088815260200190815260200160002060060160030160009054906101000a900473ffffffffffffffffffffffffffffffffffffffff169050600060646000808a81526020019081526020016000206006016002015488611b4b9190614a67565b611b559190614af0565b905086818487611b6591906144d5565b611b6f91906144d5565b14611baf576040517f08c379a0000000000000000000000000000000000000000000000000000000008152600401611ba690614bb9565b60405180910390fd5b60646000808a81526020019081526020016000206006016004015414611c0a576040517f08c379a0000000000000000000000000000000000000000000000000000000008152600401611c0190614c25565b60405180910390fd5b60c86000808a8152602001908152602001600020600601600401819055508573ffffffffffffffffffffffffffffffffffffffff166108fc869081150290604051600060405180830381858888f19350505050158015611c6e573d6000803e3d6000fd5b508373ffffffffffffffffffffffffffffffffffffffff166108fc849081150290604051600060405180830381858888f19350505050158015611cb5573d6000803e3d6000fd5b508173ffffffffffffffffffffffffffffffffffffffff166108fc829081150290604051600060405180830381858888f19350505050158015611cfc573d6000803e3d6000fd5b505050505050505050565b600080828152602001908152602001600020600301543414611d5e576040517f08c379a0000000000000000000000000000000000000000000000000000000008152600401611d5590614cb7565b60405180910390fd5b3360008083815260200190815260200160002060010160006101000a81548173ffffffffffffffffffffffffffffffffffffffff021916908373ffffffffffffffffffffffffffffffffffffffff160217905550611dbb81612d32565b50565b6003818051602081018201805184825260208301602085012081835280955050505050506000915054906101000a900473ffffffffffffffffffffffffffffffffffffffff1681565b80600560006101000a81548173ffffffffffffffffffffffffffffffffffffffff021916908373ffffffffffffffffffffffffffffffffffffffff1602179055507ff3cefb6580958289ed59682f8efcbb4cc6003c65fc36e951618d6809896a407b600560009054906101000a900473ffffffffffffffffffffffffffffffffffffffff16604051611e999190613e4b565b60405180910390a150565b606482600160028110611eba57611eb96149a6565b5b602002015183600060028110611ed357611ed26149a6565b5b6020020151611ee291906144d5565b14611f22576040517f08c379a0000000000000000000000000000000000000000000000000000000008152600401611f1990614d23565b60405180910390fd5b6000600b60008381526020019081526020016000209050611f4281612d9b565b80600601600060028110611f5957611f586149a6565b5b6003020160020183600060028110611f7457611f736149a6565b5b6020020151908060018154018082558091505060019003906000526020600020016000909190919091505580600601600160028110611fb657611fb56149a6565b5b6003020160020183600160028110611fd157611fd06149a6565b5b6020020151908060018154018082558091505060019003906000526020600020016000909190919091505580600401339080600181540180825580915050600190039060005260206000200160009091909190916101000a81548173ffffffffffffffffffffffffffffffffffffffff021916908373ffffffffffffffffffffffffffffffffffffffff160217905550600a548160060160006002811061207b5761207a6149a6565b5b60030201600201805490501480156120b55750600a54816006016001600281106120a8576120a76149a6565b5b6003020160020180549050145b156120c4576120c38261277e565b5b505050565b600160205281600052604060002081815481106120e557600080fd5b90600052602060002001600091509150505481565b60008082815260200190815260200160002060010160009054906101000a900473ffffffffffffffffffffffffffffffffffffffff1673ffffffffffffffffffffffffffffffffffffffff163373ffffffffffffffffffffffffffffffffffffffff1614806121c9575060008082815260200190815260200160002060020160009054906101000a900473ffffffffffffffffffffffffffffffffffffffff1673ffffffffffffffffffffffffffffffffffffffff163373ffffffffffffffffffffffffffffffffffffffff16145b612208576040517f08c379a00000000000000000000000000000000000000000000000000000000081526004016121ff90614db5565b60405180910390fd5b61012d600080838152602001908152602001600020600601600401541415801561224c575061012e6000808381526020019081526020016000206006016004015414155b61228b576040517f08c379a000000000000000000000000000000000000000000000000000000000815260040161228290614e21565b60405180910390fd5b60c86000808381526020019081526020016000206006016004015414156122e7576040517f08c379a00000000000000000000000000000000000000000000000000000000081526004016122de90614e8d565b60405180910390fd5b60008082815260200190815260200160002060020160009054906101000a900473ffffffffffffffffffffffffffffffffffffffff1673ffffffffffffffffffffffffffffffffffffffff163373ffffffffffffffffffffffffffffffffffffffff1614156123745761012d600080838152602001908152602001600020600601600401819055506123fe565b60008082815260200190815260200160002060010160009054906101000a900473ffffffffffffffffffffffffffffffffffffffff1673ffffffffffffffffffffffffffffffffffffffff163373ffffffffffffffffffffffffffffffffffffffff1614156123fd5761012e600080838152602001908152602001600020600601600401819055505b5b50565b600b60205280600052604060002060009150905080600001549080600101549080600201549080600c01805461243690614408565b80601f016020809104026020016040519081016040528092919081815260200182805461246290614408565b80156124af5780601f10612484576101008083540402835291602001916124af565b820191906000526020600020905b81548152906001019060200180831161249257829003601f168201915b5050505050905084565b6124c161327a565b60025481600001818152505033816040019073ffffffffffffffffffffffffffffffffffffffff16908173ffffffffffffffffffffffffffffffffffffffff1681525050828160600181815250508181608001819052508060008060025481526020019081526020016000206000820151816000015560208201518160010160006101000a81548173ffffffffffffffffffffffffffffffffffffffff021916908373ffffffffffffffffffffffffffffffffffffffff16021790555060408201518160020160006101000a81548173ffffffffffffffffffffffffffffffffffffffff021916908373ffffffffffffffffffffffffffffffffffffffff1602179055506060820151816003015560808201518160040190805190602001906125eb9291906132e9565b5060a08201518160050190805190602001906126089291906132e9565b5060c08201518160060160008201518160000155602082015181600101556040820151816002015560608201518160030160006101000a81548173ffffffffffffffffffffffffffffffffffffffff021916908373ffffffffffffffffffffffffffffffffffffffff160217905550608082015181600401555050905050612691600254612d32565b7fa44f460f2ac523b4a38d95d97950a776d7bf0adbaff2501d321f040e3d661e466002546040516126c2919061349b565b60405180910390a16001600260008282546126dd91906144d5565b92505081905550505050565b6060600160003373ffffffffffffffffffffffffffffffffffffffff1673ffffffffffffffffffffffffffffffffffffffff16815260200190815260200160002080548060200260200160405190810160405280929190818152602001828054801561277457602002820191906000526020600020905b815481526020019060010190808311612760575b5050505050905090565b606061278982612f6b565b9050612797600654826130cf565b90506000600560009054906101000a900473ffffffffffffffffffffffffffffffffffffffff1690508073ffffffffffffffffffffffffffffffffffffffff16630e9008fe600b60008681526020019081526020016000206001015484600081518110612807576128066149a6565b5b602002602001015185600181518110612823576128226149a6565b5b60200260200101518660028151811061283f5761283e6149a6565b5b60200260200101516040518563ffffffff1660e01b81526004016128669493929190614ead565b600060405180830381600087803b15801561288057600080fd5b505af1158015612894573d6000803e3d6000fd5b505050508073ffffffffffffffffffffffffffffffffffffffff16637afc2d56600b6000868152602001908152602001600020600101546040518263ffffffff1660e01b81526004016128e7919061349b565b600060405180830381600087803b15801561290157600080fd5b505af1158015612915573d6000803e3d6000fd5b50505050505050565b80600360405161292d90614614565b908152602001604051809103902060006101000a81548173ffffffffffffffffffffffffffffffffffffffff021916908373ffffffffffffffffffffffffffffffffffffffff1602179055506040518060400160405280600581526020017f48656c6c6f00000000000000000000000000000000000000000000000000000081525060046040516129bd90614614565b908152602001604051809103902090805190602001906129de9291906132e9565b5050565b6060600c60003373ffffffffffffffffffffffffffffffffffffffff1673ffffffffffffffffffffffffffffffffffffffff168152602001908152602001600020805480602002602001604051908101604052809291908181526020018280548015612a6d57602002820191906000526020600020905b815481526020019060010190808311612a59575b5050505050905090565b600c6020528160005260406000208181548110612a9357600080fd5b90600052602060002001600091509150505481565b60606000612ab46129e2565b90506000815167ffffffffffffffff811115612ad357612ad26134e5565b5b604051908082528060200260200182016040528015612b0c57816020015b612af961322c565b815260200190600190039081612af15790505b50905060005b8251811015612b6f57612b3e838281518110612b3157612b306149a6565b5b60200260200101516106a3565b828281518110612b5157612b506149a6565b5b60200260200101819052508080612b679061495d565b915050612b12565b50809250505090565b600080600080600090505b8460030180549050811015612c2e57846003018181548110612ba857612ba76149a6565b5b9060005260206000200160009054906101000a900473ffffffffffffffffffffffffffffffffffffffff1673ffffffffffffffffffffffffffffffffffffffff163373ffffffffffffffffffffffffffffffffffffffff1614612c0b5782612c19565b600183612c1891906144d5565b5b92508080612c269061495d565b915050612b83565b5060005b6002811015612ce057846006018160028110612c5157612c506149a6565b5b6003020160000160009054906101000a900473ffffffffffffffffffffffffffffffffffffffff1673ffffffffffffffffffffffffffffffffffffffff163373ffffffffffffffffffffffffffffffffffffffff1614612cbd57600082612cb891906144d5565b612ccb565b600182612cca91906144d5565b5b91508080612cd89061495d565b915050612c32565b5060008183612cef91906144d5565b14612cfb576000612cfe565b60015b92505050919050565b81600760000160006101000a81548160ff021916908315150217905550806007600101819055505050565b600160003373ffffffffffffffffffffffffffffffffffffffff1673ffffffffffffffffffffffffffffffffffffffff16815260200190815260200160002081908060018154018082558091505060019003906000526020600020016000909190919091505550565b600080600090505b8260030180549050811015612e4e57826003018181548110612dc857612dc76149a6565b5b9060005260206000200160009054906101000a900473ffffffffffffffffffffffffffffffffffffffff1673ffffffffffffffffffffffffffffffffffffffff163373ffffffffffffffffffffffffffffffffffffffff1614612e2b5781612e39565b600182612e3891906144d5565b5b91508080612e469061495d565b915050612da3565b5060008111612e92576040517f08c379a0000000000000000000000000000000000000000000000000000000008152600401612e8990614f3e565b60405180910390fd5b60005b8260040180549050811015612f6657826004018181548110612eba57612eb96149a6565b5b9060005260206000200160009054906101000a900473ffffffffffffffffffffffffffffffffffffffff1673ffffffffffffffffffffffffffffffffffffffff163373ffffffffffffffffffffffffffffffffffffffff161415612f53576040517f08c379a0000000000000000000000000000000000000000000000000000000008152600401612f4a90614faa565b60405180910390fd5b8080612f5e9061495d565b915050612e95565b505050565b60606000600b600084815260200190815260200160002090506000600267ffffffffffffffff811115612fa157612fa06134e5565b5b604051908082528060200260200182016040528015612fcf5781602001602082028036833780820191505090505b50905060005b60028110156130c4576000805b846006018360028110612ff857612ff76149a6565b5b6003020160020180549050811015613064578460060183600281106130205761301f6149a6565b5b600302016002018181548110613039576130386149a6565b5b90600052602060002001548261304f91906144d5565b9150808061305c9061495d565b915050612fe2565b5083600601826002811061307b5761307a6149a6565b5b6003020160020180549050816130919190614af0565b8383815181106130a4576130a36149a6565b5b6020026020010181815250505080806130bc9061495d565b915050612fd5565b508092505050919050565b60606000600183516130e191906144d5565b67ffffffffffffffff8111156130fa576130f96134e5565b5b6040519080825280602002602001820160405280156131285781602001602082028036833780820191505090505b50905060005b83518110156131a75760648560646131469190614fca565b858381518110613159576131586149a6565b5b602002602001015161316b9190614a67565b6131759190614af0565b828281518110613188576131876149a6565b5b602002602001018181525050808061319f9061495d565b91505061312e565b50806001815181106131bc576131bb6149a6565b5b6020026020010151816000815181106131d8576131d76149a6565b5b602002602001015160646131ec9190614fca565b6131f69190614fca565b81600183516132059190614fca565b81518110613216576132156149a6565b5b6020026020010181815250508091505092915050565b60405180610100016040528060008019168152602001600081526020016000815260200160608152602001606081526020016060815260200161326d6133bc565b8152602001606081525090565b6040518060e0016040528060008152602001600073ffffffffffffffffffffffffffffffffffffffff168152602001600073ffffffffffffffffffffffffffffffffffffffff1681526020016000815260200160608152602001606081526020016132e36133e9565b81525090565b8280546132f590614408565b90600052602060002090601f016020900481019282613317576000855561335e565b82601f1061333057805160ff191683800117855561335e565b8280016001018555821561335e579182015b8281111561335d578251825591602001919060010190613342565b5b50905061336b919061342e565b5090565b8280548282559060005260206000209081019282156133ab579160200282015b828111156133aa57825182559160200191906001019061338f565b5b5090506133b8919061342e565b5090565b60405180604001604052806002905b6133d361344b565b8152602001906001900390816133cb5790505090565b6040518060a00160405280600081526020016000815260200160008152602001600073ffffffffffffffffffffffffffffffffffffffff168152602001600081525090565b5b8082111561344757600081600090555060010161342f565b5090565b6040518060600160405280600073ffffffffffffffffffffffffffffffffffffffff16815260200160608152602001606081525090565b6000819050919050565b61349581613482565b82525050565b60006020820190506134b0600083018461348c565b92915050565b6000604051905090565b600080fd5b600080fd5b600080fd5b600080fd5b6000601f19601f8301169050919050565b7f4e487b7100000000000000000000000000000000000000000000000000000000600052604160045260246000fd5b61351d826134d4565b810181811067ffffffffffffffff8211171561353c5761353b6134e5565b5b80604052505050565b600061354f6134b6565b905061355b8282613514565b919050565b600067ffffffffffffffff82111561357b5761357a6134e5565b5b613584826134d4565b9050602081019050919050565b82818337600083830152505050565b60006135b36135ae84613560565b613545565b9050828152602081018484840111156135cf576135ce6134cf565b5b6135da848285613591565b509392505050565b600082601f8301126135f7576135f66134ca565b5b81356136078482602086016135a0565b91505092915050565b600060208284031215613626576136256134c0565b5b600082013567ffffffffffffffff811115613644576136436134c5565b5b613650848285016135e2565b91505092915050565b600081519050919050565b600082825260208201905092915050565b60005b83811015613693578082015181840152602081019050613678565b838111156136a2576000848401525b50505050565b60006136b382613659565b6136bd8185613664565b93506136cd818560208601613675565b6136d6816134d4565b840191505092915050565b600060208201905081810360008301526136fb81846136a8565b905092915050565b6000819050919050565b61371681613703565b811461372157600080fd5b50565b6000813590506137338161370d565b92915050565b60006020828403121561374f5761374e6134c0565b5b600061375d84828501613724565b91505092915050565b61376f81613703565b82525050565b61377e81613482565b82525050565b600081519050919050565b600082825260208201905092915050565b6000819050602082019050919050565b600073ffffffffffffffffffffffffffffffffffffffff82169050919050565b60006137db826137b0565b9050919050565b6137eb816137d0565b82525050565b60006137fd83836137e2565b60208301905092915050565b6000602082019050919050565b600061382182613784565b61382b818561378f565b9350613836836137a0565b8060005b8381101561386757815161384e88826137f1565b975061385983613809565b92505060018101905061383a565b5085935050505092915050565b600060029050919050565b600081905092915050565b6000819050919050565b600082825260208201905092915050565b60006138b082613659565b6138ba8185613894565b93506138ca818560208601613675565b6138d3816134d4565b840191505092915050565b600081519050919050565b600082825260208201905092915050565b6000819050602082019050919050565b60006139168383613775565b60208301905092915050565b6000602082019050919050565b600061393a826138de565b61394481856138e9565b935061394f836138fa565b8060005b83811015613980578151613967888261390a565b975061397283613922565b925050600181019050613953565b5085935050505092915050565b60006060830160008301516139a560008601826137e2565b50602083015184820360208601526139bd82826138a5565b915050604083015184820360408601526139d7828261392f565b9150508091505092915050565b60006139f0838361398d565b905092915050565b6000602082019050919050565b6000613a1082613874565b613a1a818561387f565b935083602082028501613a2c8561388a565b8060005b85811015613a685784840389528151613a4985826139e4565b9450613a54836139f8565b925060208a01995050600181019050613a30565b50829750879550505050505092915050565b600061010083016000830151613a936000860182613766565b506020830151613aa66020860182613775565b506040830151613ab96040860182613775565b5060608301518482036060860152613ad18282613816565b91505060808301518482036080860152613aeb8282613816565b91505060a083015184820360a0860152613b058282613816565b91505060c083015184820360c0860152613b1f8282613a05565b91505060e083015184820360e0860152613b3982826138a5565b9150508091505092915050565b60006020820190508181036000830152613b608184613a7a565b905092915050565b613b7181613482565b8114613b7c57600080fd5b50565b600081359050613b8e81613b68565b92915050565b60008060008060808587031215613bae57613bad6134c0565b5b6000613bbc87828801613b7f565b9450506020613bcd87828801613b7f565b9350506040613bde87828801613b7f565b9250506060613bef87828801613b7f565b91505092959194509250565b600060208284031215613c1157613c106134c0565b5b6000613c1f84828501613b7f565b91505092915050565b613c31816137d0565b82525050565b60a082016000820151613c4d6000850182613775565b506020820151613c606020850182613775565b506040820151613c736040850182613775565b506060820151613c8660608501826137e2565b506080820151613c996080850182613775565b50505050565b600061016082019050613cb5600083018a61348c565b613cc26020830189613c28565b613ccf6040830188613c28565b613cdc606083018761348c565b8181036080830152613cee81866136a8565b905081810360a0830152613d0281856136a8565b9050613d1160c0830184613c37565b98975050505050505050565b60a082016000820151613d336000850182613775565b506020820151613d466020850182613775565b506040820151613d596040850182613775565b506060820151613d6c60608501826137e2565b506080820151613d7f6080850182613775565b50505050565b600061016083016000830151613d9e6000860182613775565b506020830151613db160208601826137e2565b506040830151613dc460408601826137e2565b506060830151613dd76060860182613775565b5060808301518482036080860152613def82826138a5565b91505060a083015184820360a0860152613e0982826138a5565b91505060c0830151613e1e60c0860182613d1d565b508091505092915050565b60006020820190508181036000830152613e438184613d85565b905092915050565b6000602082019050613e606000830184613c28565b92915050565b613e6f816137d0565b8114613e7a57600080fd5b50565b600081359050613e8c81613e66565b92915050565b600060208284031215613ea857613ea76134c0565b5b6000613eb684828501613e7d565b91505092915050565b600067ffffffffffffffff821115613eda57613ed96134e5565b5b602082029050919050565b600080fd5b6000613efd613ef884613ebf565b613545565b90508060208402830185811115613f1757613f16613ee5565b5b835b81811015613f405780613f2c8882613b7f565b845260208401935050602081019050613f19565b5050509392505050565b600082601f830112613f5f57613f5e6134ca565b5b6002613f6c848285613eea565b91505092915050565b60008060608385031215613f8c57613f8b6134c0565b5b6000613f9a85828601613f4a565b9250506040613fab85828601613724565b9150509250929050565b60008060408385031215613fcc57613fcb6134c0565b5b6000613fda85828601613e7d565b9250506020613feb85828601613b7f565b9150509250929050565b613ffe81613703565b82525050565b60006080820190506140196000830187613ff5565b614026602083018661348c565b614033604083018561348c565b818103606083015261404581846136a8565b905095945050505050565b60008060408385031215614067576140666134c0565b5b600061407585828601613b7f565b925050602083013567ffffffffffffffff811115614096576140956134c5565b5b6140a2858286016135e2565b9150509250929050565b600082825260208201905092915050565b60006140c8826138de565b6140d281856140ac565b93506140dd836138fa565b8060005b8381101561410e5781516140f5888261390a565b975061410083613922565b9250506001810190506140e1565b5085935050505092915050565b6000602082019050818103600083015261413581846140bd565b905092915050565b600081519050919050565b600082825260208201905092915050565b6000819050602082019050919050565b60006141758383613766565b60208301905092915050565b6000602082019050919050565b60006141998261413d565b6141a38185614148565b93506141ae83614159565b8060005b838110156141df5781516141c68882614169565b97506141d183614181565b9250506001810190506141b2565b5085935050505092915050565b60006020820190508181036000830152614206818461418e565b905092915050565b60006020820190506142236000830184613ff5565b92915050565b600081519050919050565b600082825260208201905092915050565b6000819050602082019050919050565b60006101008301600083015161426e6000860182613766565b5060208301516142816020860182613775565b5060408301516142946040860182613775565b50606083015184820360608601526142ac8282613816565b915050608083015184820360808601526142c68282613816565b91505060a083015184820360a08601526142e08282613816565b91505060c083015184820360c08601526142fa8282613a05565b91505060e083015184820360e086015261431482826138a5565b9150508091505092915050565b600061432d8383614255565b905092915050565b6000602082019050919050565b600061434d82614229565b6143578185614234565b93508360208202850161436985614245565b8060005b858110156143a557848403895281516143868582614321565b945061439183614335565b925060208a0199505060018101905061436d565b50829750879550505050505092915050565b600060208201905081810360008301526143d18184614342565b905092915050565b7f4e487b7100000000000000000000000000000000000000000000000000000000600052602260045260246000fd5b6000600282049050600182168061442057607f821691505b60208210811415614434576144336143d9565b5b50919050565b7f5468697320616464726573732063616e6e6f74206265206a7564676500000000600082015250565b6000614470601c83613664565b915061447b8261443a565b602082019050919050565b6000602082019050818103600083015261449f81614463565b9050919050565b7f4e487b7100000000000000000000000000000000000000000000000000000000600052601160045260246000fd5b60006144e082613482565b91506144eb83613482565b9250827fffffffffffffffffffffffffffffffffffffffffffffffffffffffffffffffff038211156145205761451f6144a6565b5b828201905092915050565b7f54656e616e745368617265202b204c616e646c6f7264205368617265202b204660008201527f6565205368617265206973206e6f742031303025000000000000000000000000602082015250565b6000614587603483613664565b91506145928261452b565b604082019050919050565b600060208201905081810360008301526145b68161457a565b9050919050565b600081905092915050565b7f5265736f6c766572416464726573730000000000000000000000000000000000600082015250565b60006145fe600f836145bd565b9150614609826145c8565b600f82019050919050565b600061461f826145f1565b9150819050919050565b7f4f6e6c79204c616e646c6f7264206f72205265736f6c7665722063616e20637260008201527f656174652072656465656d2070726f706f73616c000000000000000000000000602082015250565b6000614685603483613664565b915061469082614629565b604082019050919050565b600060208201905081810360008301526146b481614678565b9050919050565b600080fd5b600080fd5b6000815190506146d481613b68565b92915050565b6000815190506146e981613e66565b92915050565b60006147026146fd84613560565b613545565b90508281526020810184848401111561471e5761471d6134cf565b5b614729848285613675565b509392505050565b600082601f830112614746576147456134ca565b5b81516147568482602086016146ef565b91505092915050565b600060a08284031215614775576147746146bb565b5b61477f60a0613545565b9050600061478f848285016146c5565b60008301525060206147a3848285016146c5565b60208301525060406147b7848285016146c5565b60408301525060606147cb848285016146da565b60608301525060806147df848285016146c5565b60808301525092915050565b60006101608284031215614802576148016146bb565b5b61480c60e0613545565b9050600061481c848285016146c5565b6000830152506020614830848285016146da565b6020830152506040614844848285016146da565b6040830152506060614858848285016146c5565b606083015250608082015167ffffffffffffffff81111561487c5761487b6146c0565b5b61488884828501614731565b60808301525060a082015167ffffffffffffffff8111156148ac576148ab6146c0565b5b6148b884828501614731565b60a08301525060c06148cc8482850161475f565b60c08301525092915050565b6000602082840312156148ee576148ed6134c0565b5b600082015167ffffffffffffffff81111561490c5761490b6134c5565b5b614918848285016147eb565b91505092915050565b6000819050919050565b61493c61493782613482565b614921565b82525050565b600061494e828461492b565b60208201915081905092915050565b600061496882613482565b91507fffffffffffffffffffffffffffffffffffffffffffffffffffffffffffffffff82141561499b5761499a6144a6565b5b600182019050919050565b7f4e487b7100000000000000000000000000000000000000000000000000000000600052603260045260246000fd5b7f4f6e6c792074656e616e742063616e206163636570742072656465656d20707260008201527f6f706f73616c0000000000000000000000000000000000000000000000000000602082015250565b6000614a31602683613664565b9150614a3c826149d5565b604082019050919050565b60006020820190508181036000830152614a6081614a24565b9050919050565b6000614a7282613482565b9150614a7d83613482565b9250817fffffffffffffffffffffffffffffffffffffffffffffffffffffffffffffffff0483118215151615614ab657614ab56144a6565b5b828202905092915050565b7f4e487b7100000000000000000000000000000000000000000000000000000000600052601260045260246000fd5b6000614afb82613482565b9150614b0683613482565b925082614b1657614b15614ac1565b5b828204905092915050565b7f54656e616e745368617265202b204c616e646c6f7264205368617265202b204660008201527f656520536861726520646f6573206e6f7420657175616c20457363726f77205660208201527f616c756500000000000000000000000000000000000000000000000000000000604082015250565b6000614ba3604483613664565b9150614bae82614b21565b606082019050919050565b60006020820190508181036000830152614bd281614b96565b9050919050565b7f457363726f7720686173206265656e20616c726561642072656465656d65642e600082015250565b6000614c0f602083613664565b9150614c1a82614bd9565b602082019050919050565b60006020820190508181036000830152614c3e81614c02565b9050919050565b7f4574682073656e74206973206e6f742073616d6520617320657363726f77566160008201527f6c75650000000000000000000000000000000000000000000000000000000000602082015250565b6000614ca1602383613664565b9150614cac82614c45565b604082019050919050565b60006020820190508181036000830152614cd081614c94565b9050919050565b7f566f746573206e6f742031303000000000000000000000000000000000000000600082015250565b6000614d0d600d83613664565b9150614d1882614cd7565b602082019050919050565b60006020820190508181036000830152614d3c81614d00565b9050919050565b7f4f6e6c792074656e616e74206f72206c616e646c6f72642063616e206163636560008201527f70742072656465656d2070726f706f73616c0000000000000000000000000000602082015250565b6000614d9f603283613664565b9150614daa82614d43565b604082019050919050565b60006020820190508181036000830152614dce81614d92565b9050919050565b7f416c72656164792072656a656374656400000000000000000000000000000000600082015250565b6000614e0b601083613664565b9150614e1682614dd5565b602082019050919050565b60006020820190508181036000830152614e3a81614dfe565b9050919050565b7f416c726561647920616363657074656400000000000000000000000000000000600082015250565b6000614e77601083613664565b9150614e8282614e41565b602082019050919050565b60006020820190508181036000830152614ea681614e6a565b9050919050565b6000608082019050614ec2600083018761348c565b614ecf602083018661348c565b614edc604083018561348c565b614ee9606083018461348c565b95945050505050565b7f41646472657373206e6f742061206a7564676500000000000000000000000000600082015250565b6000614f28601383613664565b9150614f3382614ef2565b602082019050919050565b60006020820190508181036000830152614f5781614f1b565b9050919050565b7f4a7564676520416c726561647920766f74656400000000000000000000000000600082015250565b6000614f94601383613664565b9150614f9f82614f5e565b602082019050919050565b60006020820190508181036000830152614fc381614f87565b9050919050565b6000614fd582613482565b9150614fe083613482565b925082821015614ff357614ff26144a6565b5b82820390509291505056fea26469706673582212206513c1c31440ac4b315cfd04d613c9c390a6bee828856fdf3480f34a18a0b11264736f6c634300080a0033",
  "immutableReferences": {},
  "source": "// SPDX-License-Identifier:\tCC-BY-4.0\npragma solidity ^0.8.10;\nimport \"./rentEscrow.sol\";\n\ncontract resolver is rentEscrow {\n    ///@dev events for production\n    event sendDisputeId(bytes32);\n    //event sendTenant (uint _id);\n    ///@dev events for development\n    event sendMessage (string _message);\n    event sendAddress (address _message);\n    event sendId (uint _message);\n    event sendStruct (rentEscrow _rentEscrow);\n    event sendBool (bool _bool);\n\n    address rentEscrowAddress;\n\n    ///@param id case identifier. Currently same as rentContract. \n    ///@param status status of the case. 100: waiting for judge 200: waiting for resolution 300: resolved\n    ///@param judges addreses that are assigned to resolve the dispute\n    ///@param restrictedJudges addresses that cannot be assigned as judge (among others: tenant, landlord)\n    ///@param disputeDetail  bears details about the case. Currenly a placeholder aim is to link this to some IPFS file\n    ///@param partialResult contains voting of each judge\n    ///@param finalResult contains final result after each judge casted their vote\n    \n    struct DisputeCase {\n        bytes32 disputeId;\n        uint rentId;\n        uint status;\n        address [] judges;\n        address [] judgesWhoVoted;\n        address [] restrictedJudges;\n        DisputeParty [2] disputeParty;\n        string disputeDetail;\n    }\n\n    struct DisputeParty {\n        address disputePartyAddress;\n        string documentation;\n        uint [] judgeVotes;\n    }\n\n    uint feePct = 10;\n\n    ///@dev this is a flag to see if I need to reach for new DisputeCase or I just fill new address into existing one\n    struct CaseWaitingForJudge {\n        bool waiting;\n        bytes32 disputeId;\n    } \n    CaseWaitingForJudge caseWaitingForJudge;\n    \n    function UpdateCaseWaitingForJudge  (bool _waiting, bytes32 _disputeId) internal {\n        caseWaitingForJudge.waiting = _waiting;\n        caseWaitingForJudge.disputeId = _disputeId;\n    }\n\n    uint disputeIdNonce = 0;\n\n    ///@dev Number of judges needed for this contract\n    uint numberOfJudges = 3;\n    ///@dev update number of judges.\n    ///@custom:later should be admin only...\n    function updateNumberOfJudges (uint _numberOfJudges) external {\n        numberOfJudges = _numberOfJudges;\n    }\n\n\n    mapping(bytes32 =>DisputeCase) public DisputeCaseMapping;\n    mapping(address => bytes32 []) public AddressToCaseMapping;\n\n    function getDisputeCase (bytes32 _disputeId) public view returns (DisputeCase memory) {\n\n        return DisputeCaseMapping[_disputeId];\n    }\n    ///@notice Use this to get list of all your cases\n    ///@dev One user can have multiple dispute cases. Therefore I need to coerce from storage to list. I don't know if there is more \n    //elegant way to do this\n     function getMyDisputeCase () public view returns (DisputeCase [] memory) {\n         bytes32 [] memory disputeCaseIds  = getMyDisputeCaseId();\n        ///@custom:later I don't know exactly what I am doing here \n         DisputeCase [] memory disputeCaseList = new DisputeCase[](disputeCaseIds.length);\n        \n         for (uint i = 0; i < disputeCaseIds.length; i++) {\n             disputeCaseList[i] = getDisputeCase(disputeCaseIds[i]);\n         }\n         return disputeCaseList;\n     }\n\n    ///@notice use this to get Ids for further query\n    function getMyDisputeCaseId () public view returns (bytes32 [] memory _disputeCaseId) {\n        return AddressToCaseMapping[msg.sender];\n    }\n\n    ///@dev to establish connection to other contract\n    ///@custom:later  this works fine for single contract. I need this to be modular and can connect multiple contract on the fly\n    \n    function setRentEscrowAddress (address _rentEscrowAddress) public  {\n        rentEscrowAddress = _rentEscrowAddress;\n         emit sendAddress(rentEscrowAddress);\n    }\n\n    ///@notice requests new new dispute case from external contract. It is external contract job to send valid dispute case\n    function getNewContractToResolve () public {\n\n        rentEscrowInterface re = rentEscrowInterface(rentEscrowAddress);\n        RentContract memory rentContract = re.getContractToResolve();\n             \n        ///@dev I will create unique hash for every dispute case. This contract doesn't care if it resolves same rentCotnract multiple times. It is up to the rentContract to manage this\n        ///@dev I have no special motivation to hash the id, other than to a) try it b) make it impossible to view\n        bytes32 disputeId = keccak256(abi.encodePacked(rentContract.rentId + disputeIdNonce));\n        disputeIdNonce++;\n        \n        ///@custom:later if I get this right, newDisputeCase is a pointer to a place in storage. If this function is called multiple times on same rentID (mapping key) data will be overwritten\n        DisputeCase storage newDisputeCase = DisputeCaseMapping[disputeId];\n        newDisputeCase.disputeId = disputeId;\n        newDisputeCase.rentId = rentContract.rentId;\n        newDisputeCase.status = 100;\n        newDisputeCase.disputeDetail = \"Hello\";\n\n        ///@custom:later Seems ugly...\n        DisputeParty memory disputeParty1 = DisputeParty({\n            disputePartyAddress: rentContract.landlord,\n            documentation: \"\",\n            judgeVotes: new uint [](0)\n        });\n\n        DisputeParty memory disputeParty2 = DisputeParty({\n            disputePartyAddress: rentContract.tenant,\n            documentation: \"\",\n            judgeVotes: new uint [](0)\n        });\n\n        newDisputeCase.disputeParty[0] = disputeParty1;\n        newDisputeCase.disputeParty[1] = disputeParty2;\n\n        ///@dev update mappping, so dispute parties can track their own dispute cases\n        AddressToCaseMapping[rentContract.landlord].push(disputeId);\n        AddressToCaseMapping[rentContract.tenant].push(disputeId);\n\n        ///@dev updates flag for nex runs. Now we have a open case, but not enough judges. Therefore we dont need to ask for new disputes\n        UpdateCaseWaitingForJudge(true,disputeId );\n\n    }\n\n    ///@notice Entry point for contract. Dispute lifecycle starts here by assigning judge to existing dispute or requesting new dispute from external contract\n    function assignJudge() public {\n        ///@dev decide if I am missing judges in existing dispute. If yes, this gets skipped, otherwise will ask for new resolution case\n        if (caseWaitingForJudge.waiting == false) {\n            getNewContractToResolve();\n            }\n        ///@custom:later I am shutting this off now for development reasons\n        require(testJudgeEligibility(DisputeCaseMapping[caseWaitingForJudge.disputeId]), \"This address cannot be judge\");\n        \n\n        ///@dev emitting disputeId for future reference in front end\n        emit sendDisputeId(DisputeCaseMapping[caseWaitingForJudge.disputeId].disputeId);\n        \n        //@dev adding msg sender as a new judge and updating the mapping\n        DisputeCaseMapping[caseWaitingForJudge.disputeId].judges.push(msg.sender);\n        AddressToCaseMapping[msg.sender].push(DisputeCaseMapping[caseWaitingForJudge.disputeId].disputeId);\n                \n        ///@dev decide whether we have enough judges. if yes, nex assign judge will call getNewContractToResolve\n        if (DisputeCaseMapping[caseWaitingForJudge.disputeId].judges.length >= numberOfJudges) {\n            UpdateCaseWaitingForJudge(false, 0);\n        }\n    }\n    ///@custom:later is this a case for modifier?\n    ///@dev multiple tests to control who can be judge\n    ///@dev we are on the conservative side and starting with default False. \n    ///@dev this seems extremely verbose, please shill me something more elegant\n    function testJudgeEligibility (DisputeCase storage _disputeCase) internal view returns (bool _eligible) {\n        uint judgeCount;\n        uint disputePartyCount;\n\n        ///@dev test if address is already judge. \n        for(uint i=0; i<_disputeCase.judges.length; i++){\n            judgeCount = msg.sender == _disputeCase.judges[i] ? judgeCount+1:judgeCount;\n            }\n        ///@dev test if address is on the restricted list\n        for(uint i=0; i<_disputeCase.disputeParty.length; i++){\n            disputePartyCount = msg.sender == _disputeCase.disputeParty[i].disputePartyAddress ? disputePartyCount+1:disputePartyCount+0;\n            }\n        \n        _eligible = judgeCount+disputePartyCount==0 ? true:false;\n\n        }\n\n    ///@dev test to see if address can vote or if already voted\n    function testJudgeEligibilityToVote (DisputeCase storage _disputeCase) internal view {\n\n        ///@dev test if address is judge\n        uint judgeCounter;\n        for(uint i=0; i<_disputeCase.judges.length; i++){\n            judgeCounter = msg.sender == _disputeCase.judges[i] ? judgeCounter+1:judgeCounter;\n            }\n        require(judgeCounter >0 ,\"Address not a judge\");\n\n        //test if address already voted\n        for(uint i=0; i<_disputeCase.judgesWhoVoted.length; i++){\n            require(msg.sender!=_disputeCase.judgesWhoVoted[i], \"Judge Already voted\");\n            }\n\n    }\n\n    function castVote(uint [2] memory _judgeVote, bytes32 _disputeId) external {\n        require(_judgeVote[0] + _judgeVote[1] == 100, \"Votes not 100\");\n        DisputeCase storage disputeCase = DisputeCaseMapping[_disputeId];\n        testJudgeEligibilityToVote(disputeCase);\n\n        ///@dev this is suboptimal as it relies on order of votes within array. Should be linked to disputeParty address\n        \n        disputeCase.disputeParty[0].judgeVotes.push(_judgeVote[0]);\n        disputeCase.disputeParty[1].judgeVotes.push(_judgeVote[1]);\n        disputeCase.judgesWhoVoted.push(msg.sender);\n\n        ///@dev Test if all judges voted. If yes, trigger createRedeem proposal and release funds \n        if (disputeCase.disputeParty[0].judgeVotes.length == numberOfJudges &&\n        disputeCase.disputeParty[1].judgeVotes.length == numberOfJudges) {\n            triggerCreateRedeemProposal(_disputeId);\n        }\n    }\n\n    \n    \n    function triggerCreateRedeemProposal(bytes32 _disputeId) public {\n        uint [] memory result;\n        ///@custom:later Which is better? This?\n        result = aggregateJudgeVotes(_disputeId);\n        result = rebaseVotesIncludeFee(feePct, result);\n        //or this: result = rebaseVotesIncludeFee(feePct, aggregateJudgeVotes(_disputeId));\n\n        \n        rentEscrowInterface re = rentEscrowInterface(rentEscrowAddress);\n        re.createRedeemProposal(\n            DisputeCaseMapping[_disputeId].rentId,\n            result[0],\n            result[1],\n            result[2]\n        );\n        re.acceptRedeemProposal(DisputeCaseMapping[_disputeId].rentId);\n    }\n\n    function aggregateJudgeVotes (bytes32 _disputeId) private view returns (uint [] memory) {\n        DisputeCase storage disputeCase = DisputeCaseMapping[_disputeId];\n        uint [] memory result = new uint[](disputeCase.disputeParty.length);\n    \n\n        for (uint i = 0; i<disputeCase.disputeParty.length; i++){\n            uint cummulVotes = 0;\n            for (uint j = 0; j < disputeCase.disputeParty[i].judgeVotes.length; j++){\n                cummulVotes += disputeCase.disputeParty[i].judgeVotes[j];\n            }\n            result[i] = cummulVotes/disputeCase.disputeParty[i].judgeVotes.length;\n            \n        }\n        return result;\n\n    }\n    ///@dev This rebases Votes to include share of fee, that get into Resolver contract\n    ///@dev In case of 2 parties should return 3 values. 1 and 2, is share of dispute parties. 3 is fee share.\n    function rebaseVotesIncludeFee (uint _feeShare, uint [] memory votes) private pure returns (uint [] memory) {\n        uint [] memory result = new uint[](votes.length + 1);\n        \n        for (uint i = 0; i < votes.length; i++ ){\n            result[i] = (votes[i]*(100-_feeShare))/100;\n            \n        }\n        ///@custom:later This is dirty, but I dont know how to round properly and need the sum of result elements to be 100\n        result[result.length - 1] = 100 - result[0] - result[1];\n        return result;\n    }\n\n    receive() external payable {\n\n    }\n\n    }\n\n",
  "sourcePath": "/Users/andy/my_repos/rentEscrow/contracts/resolver.sol",
  "compiler": {
    "name": "solc",
    "version": "0.8.10+commit.fc410830.Emscripten.clang"
  },
  "schemaVersion": "3.4.5",
  "updatedAt": "2022-02-28T20:44:26.593Z",
  "devdoc": {
    "events": {
      "sendDisputeId(bytes32)": {
        "details": "events for production"
      },
      "sendMessage(string)": {
        "details": "events for development"
      }
    },
    "kind": "dev",
    "methods": {
      "createRedeemProposal(uint256,uint256,uint256,uint256)": {
        "custom:navigation": "Redeems"
      },
      "devGetBalance()": {
        "custom:navigation": "Development Helpers"
      },
      "getContractToResolve()": {
        "custom:later": "now gives just first contract. Need to add logic to return contract where redeemProposal was rejected",
        "details": "this is used by retrieve mapping by another contract"
      },
      "getMyDisputeCase()": {
        "details": "One user can have multiple dispute cases. Therefore I need to coerce from storage to list. I don't know if there is more "
      },
      "proposeNewContract(uint256,string)": {
        "custom:navigation": "RentContracts"
      },
      "rejectRedeemProposal(uint256)": {
        "params": {
          "_rentId": "identifies the contract between tenant and landlord"
        }
      },
      "setRentEscrowAddress(address)": {
        "custom:later": "this works fine for single contract. I need this to be modular and can connect multiple contract on the fly",
        "details": "to establish connection to other contract"
      },
      "setResolverAddress(address)": {
        "details": "sets"
      },
      "updateNumberOfJudges(uint256)": {
        "custom:later": "should be admin only...",
        "details": "update number of judges."
      }
    },
    "stateVariables": {
      "numberOfJudges": {
        "details": "Number of judges needed for this contract"
      }
    },
    "version": 1
  },
  "userdoc": {
    "kind": "user",
    "methods": {
      "assignJudge()": {
        "notice": "Entry point for contract. Dispute lifecycle starts here by assigning judge to existing dispute or requesting new dispute from external contract"
      },
      "getContractsByAddress()": {
        "notice": "returns all contracts  where sender is involved party"
      },
      "getMyDisputeCase()": {
        "notice": "Use this to get list of all your cases"
      },
      "getMyDisputeCaseId()": {
        "notice": "use this to get Ids for further query"
      },
      "getNewContractToResolve()": {
        "notice": "requests new new dispute case from external contract. It is external contract job to send valid dispute case"
      },
      "rejectRedeemProposal(uint256)": {
        "notice": "Use this function to reject redeem proposal. Will send it to the resolution centre"
      }
    },
    "version": 1
  }
}