{
  "contractName": "resolver",
  "abi": [
    {
      "anonymous": false,
      "inputs": [
        {
          "indexed": false,
          "internalType": "uint256",
          "name": "_rentId",
          "type": "uint256"
        }
      ],
      "name": "rentContractId",
      "type": "event"
    },
    {
      "anonymous": false,
      "inputs": [
        {
          "indexed": false,
          "internalType": "address",
          "name": "_message",
          "type": "address"
        }
      ],
      "name": "sendAddress",
      "type": "event"
    },
    {
      "anonymous": false,
      "inputs": [
        {
          "indexed": false,
          "internalType": "uint256",
          "name": "_message",
          "type": "uint256"
        }
      ],
      "name": "sendId",
      "type": "event"
    },
    {
      "anonymous": false,
      "inputs": [
        {
          "indexed": false,
          "internalType": "string",
          "name": "_message",
          "type": "string"
        }
      ],
      "name": "sendMessage",
      "type": "event"
    },
    {
      "anonymous": false,
      "inputs": [
        {
          "indexed": false,
          "internalType": "contract rentEscrow",
          "name": "_rentEscrow",
          "type": "address"
        }
      ],
      "name": "sendStruct",
      "type": "event"
    },
    {
      "inputs": [
        {
          "internalType": "uint256",
          "name": "",
          "type": "uint256"
        }
      ],
      "name": "DisputeCaseMapping",
      "outputs": [
        {
          "internalType": "uint256",
          "name": "disputeId",
          "type": "uint256"
        },
        {
          "internalType": "uint256",
          "name": "status",
          "type": "uint256"
        },
        {
          "internalType": "string",
          "name": "disputeDetail",
          "type": "string"
        }
      ],
      "stateMutability": "view",
      "type": "function"
    },
    {
      "inputs": [
        {
          "internalType": "uint256",
          "name": "_rentId",
          "type": "uint256"
        }
      ],
      "name": "acceptNewContract",
      "outputs": [],
      "stateMutability": "payable",
      "type": "function"
    },
    {
      "inputs": [
        {
          "internalType": "uint256",
          "name": "_rentId",
          "type": "uint256"
        }
      ],
      "name": "acceptRedeemProposal",
      "outputs": [],
      "stateMutability": "nonpayable",
      "type": "function"
    },
    {
      "inputs": [
        {
          "internalType": "address",
          "name": "",
          "type": "address"
        },
        {
          "internalType": "uint256",
          "name": "",
          "type": "uint256"
        }
      ],
      "name": "addressMapping",
      "outputs": [
        {
          "internalType": "uint256",
          "name": "",
          "type": "uint256"
        }
      ],
      "stateMutability": "view",
      "type": "function"
    },
    {
      "inputs": [
        {
          "internalType": "uint256",
          "name": "_rentId",
          "type": "uint256"
        },
        {
          "internalType": "uint256",
          "name": "_tenantShare",
          "type": "uint256"
        },
        {
          "internalType": "uint256",
          "name": "_landlordShare",
          "type": "uint256"
        },
        {
          "internalType": "uint256",
          "name": "_feeShare",
          "type": "uint256"
        },
        {
          "internalType": "address",
          "name": "_feeAddress",
          "type": "address"
        }
      ],
      "name": "createRedeemProposal",
      "outputs": [],
      "stateMutability": "nonpayable",
      "type": "function"
    },
    {
      "inputs": [],
      "name": "devGetBalance",
      "outputs": [
        {
          "internalType": "uint256",
          "name": "",
          "type": "uint256"
        }
      ],
      "stateMutability": "view",
      "type": "function"
    },
    {
      "inputs": [],
      "name": "getContractToResolve",
      "outputs": [
        {
          "components": [
            {
              "internalType": "uint256",
              "name": "rentId",
              "type": "uint256"
            },
            {
              "internalType": "address",
              "name": "tenant",
              "type": "address"
            },
            {
              "internalType": "address",
              "name": "landlord",
              "type": "address"
            },
            {
              "internalType": "uint256",
              "name": "escrowValue",
              "type": "uint256"
            },
            {
              "internalType": "string",
              "name": "contractDetail",
              "type": "string"
            },
            {
              "internalType": "string",
              "name": "status",
              "type": "string"
            },
            {
              "components": [
                {
                  "internalType": "uint256",
                  "name": "tenantShare",
                  "type": "uint256"
                },
                {
                  "internalType": "uint256",
                  "name": "landlordShare",
                  "type": "uint256"
                },
                {
                  "internalType": "uint256",
                  "name": "feeShare",
                  "type": "uint256"
                },
                {
                  "internalType": "address",
                  "name": "feeAddress",
                  "type": "address"
                },
                {
                  "internalType": "uint256",
                  "name": "proposalStatus",
                  "type": "uint256"
                }
              ],
              "internalType": "struct rentEscrowInterface.RedeemProposal",
              "name": "redeemProposal",
              "type": "tuple"
            }
          ],
          "internalType": "struct rentEscrowInterface.RentContract",
          "name": "",
          "type": "tuple"
        }
      ],
      "stateMutability": "view",
      "type": "function"
    },
    {
      "inputs": [],
      "name": "getContractsByAddress",
      "outputs": [
        {
          "internalType": "uint256[]",
          "name": "",
          "type": "uint256[]"
        }
      ],
      "stateMutability": "view",
      "type": "function"
    },
    {
      "inputs": [],
      "name": "nextRentId",
      "outputs": [
        {
          "internalType": "uint256",
          "name": "",
          "type": "uint256"
        }
      ],
      "stateMutability": "view",
      "type": "function"
    },
    {
      "inputs": [
        {
          "internalType": "uint256",
          "name": "_escrowValue",
          "type": "uint256"
        },
        {
          "internalType": "string",
          "name": "_contractDetail",
          "type": "string"
        }
      ],
      "name": "proposeNewContract",
      "outputs": [],
      "stateMutability": "nonpayable",
      "type": "function"
    },
    {
      "inputs": [
        {
          "internalType": "uint256",
          "name": "_rentId",
          "type": "uint256"
        }
      ],
      "name": "rejectRedeemProposal",
      "outputs": [],
      "stateMutability": "nonpayable",
      "type": "function"
    },
    {
      "inputs": [
        {
          "internalType": "uint256",
          "name": "",
          "type": "uint256"
        }
      ],
      "name": "rentContractsMapping",
      "outputs": [
        {
          "internalType": "uint256",
          "name": "rentId",
          "type": "uint256"
        },
        {
          "internalType": "address",
          "name": "tenant",
          "type": "address"
        },
        {
          "internalType": "address",
          "name": "landlord",
          "type": "address"
        },
        {
          "internalType": "uint256",
          "name": "escrowValue",
          "type": "uint256"
        },
        {
          "internalType": "string",
          "name": "contractDetail",
          "type": "string"
        },
        {
          "internalType": "string",
          "name": "status",
          "type": "string"
        },
        {
          "components": [
            {
              "internalType": "uint256",
              "name": "tenantShare",
              "type": "uint256"
            },
            {
              "internalType": "uint256",
              "name": "landlordShare",
              "type": "uint256"
            },
            {
              "internalType": "uint256",
              "name": "feeShare",
              "type": "uint256"
            },
            {
              "internalType": "address",
              "name": "feeAddress",
              "type": "address"
            },
            {
              "internalType": "uint256",
              "name": "proposalStatus",
              "type": "uint256"
            }
          ],
          "internalType": "struct rentEscrowInterface.RedeemProposal",
          "name": "redeemProposal",
          "type": "tuple"
        }
      ],
      "stateMutability": "view",
      "type": "function"
    },
    {
      "inputs": [
        {
          "internalType": "uint256",
          "name": "_numberOfJudges",
          "type": "uint256"
        }
      ],
      "name": "updateNumberOfJudges",
      "outputs": [],
      "stateMutability": "nonpayable",
      "type": "function"
    },
    {
      "inputs": [
        {
          "internalType": "address",
          "name": "_rentEscrowAddress",
          "type": "address"
        }
      ],
      "name": "setRentEscrowAddress",
      "outputs": [],
      "stateMutability": "nonpayable",
      "type": "function"
    },
    {
      "inputs": [],
      "name": "getNewContractToResolve",
      "outputs": [],
      "stateMutability": "nonpayable",
      "type": "function"
    },
    {
      "inputs": [],
      "name": "assignJudge",
      "outputs": [],
      "stateMutability": "nonpayable",
      "type": "function"
    }
  ],
  "bytecode": "0x6080604052600060025560405180604001604052806000151581526020016000815250600460008201518160000160006101000a81548160ff021916908315150217905550602082015181600101555050600360065534801561006157600080fd5b50612e9e806100716000396000f3fe6080604052600436106100f35760003560e01c80637ad637d81161008a57806396d65c3e1161005957806396d65c3e146102e9578063a6dd427614610326578063b59146f71461034f578063b61f5f5314610378576100f3565b80637ad637d8146102645780637afc2d561461027b57806385b58963146102a45780638db28504146102c0576100f3565b80633d45370c116100c65780633d45370c146101a45780634232dfed146101cd5780636b695d24146101f65780637395eb4114610239576100f3565b8063039ed501146100f85780630e593bc3146101235780632458cc3e1461013a578063275e1f9714610165575b600080fd5b34801561010457600080fd5b5061010d6103a3565b60405161011a9190611db0565b60405180910390f35b34801561012f57600080fd5b506101386103a9565b005b34801561014657600080fd5b5061014f610495565b60405161015c9190611db0565b60405180910390f35b34801561017157600080fd5b5061018c60048036038101906101879190611e0b565b61049d565b60405161019b93929190611ed1565b60405180910390f35b3480156101b057600080fd5b506101cb60048036038101906101c69190611f6d565b61054f565b005b3480156101d957600080fd5b506101f460048036038101906101ef9190611e0b565b610724565b005b34801561020257600080fd5b5061021d60048036038101906102189190611e0b565b61072e565b604051610230979695949392919061207d565b60405180910390f35b34801561024557600080fd5b5061024e610948565b60405161025b9190612251565b60405180910390f35b34801561027057600080fd5b50610279610bef565b005b34801561028757600080fd5b506102a2600480360381019061029d9190611e0b565b610ff5565b005b6102be60048036038101906102b99190611e0b565b6113af565b005b3480156102cc57600080fd5b506102e760048036038101906102e29190612273565b611466565b005b3480156102f557600080fd5b50610310600480360381019061030b91906122a0565b611503565b60405161031d9190611db0565b60405180910390f35b34801561033257600080fd5b5061034d60048036038101906103489190611e0b565b611534565b005b34801561035b57600080fd5b5061037660048036038101906103719190612415565b61183b565b005b34801561038457600080fd5b5061038d611a6b565b60405161039a9190612520565b60405180910390f35b60025481565b60001515600460000160009054906101000a900460ff16151514156103d1576103d0610bef565b5b600760006004600101548152602001908152602001600020600201339080600181540180825580915050600190039060005260206000200160009091909190916101000a81548173ffffffffffffffffffffffffffffffffffffffff021916908373ffffffffffffffffffffffffffffffffffffffff1602179055506006546007600060046001015481526020019081526020016000206002018054905011610493576000600460000160006101000a81548160ff0219169083151502179055505b565b600047905090565b600760205280600052604060002060009150905080600001549080600101549080600a0180546104cc90612571565b80601f01602080910402602001604051908101604052809291908181526020018280546104f890612571565b80156105455780601f1061051a57610100808354040283529160200191610545565b820191906000526020600020905b81548152906001019060200180831161052857829003601f168201915b5050505050905083565b600082848661055e91906125d2565b61056891906125d2565b9050606481146105ad576040517f08c379a00000000000000000000000000000000000000000000000000000000081526004016105a49061269a565b60405180910390fd5b60008087815260200190815260200160002060020160009054906101000a900473ffffffffffffffffffffffffffffffffffffffff1673ffffffffffffffffffffffffffffffffffffffff163373ffffffffffffffffffffffffffffffffffffffff1614610650576040517f08c379a00000000000000000000000000000000000000000000000000000000081526004016106479061272c565b60405180910390fd5b8460008088815260200190815260200160002060060160000181905550836000808881526020019081526020016000206006016001018190555082600080888152602001908152602001600020600601600201819055508160008088815260200190815260200160002060060160030160006101000a81548173ffffffffffffffffffffffffffffffffffffffff021916908373ffffffffffffffffffffffffffffffffffffffff160217905550606460008088815260200190815260200160002060060160040181905550505050505050565b8060068190555050565b60006020528060005260406000206000915090508060000154908060010160009054906101000a900473ffffffffffffffffffffffffffffffffffffffff16908060020160009054906101000a900473ffffffffffffffffffffffffffffffffffffffff16908060030154908060040180546107a990612571565b80601f01602080910402602001604051908101604052809291908181526020018280546107d590612571565b80156108225780601f106107f757610100808354040283529160200191610822565b820191906000526020600020905b81548152906001019060200180831161080557829003601f168201915b50505050509080600501805461083790612571565b80601f016020809104026020016040519081016040528092919081815260200182805461086390612571565b80156108b05780601f10610885576101008083540402835291602001916108b0565b820191906000526020600020905b81548152906001019060200180831161089357829003601f168201915b505050505090806006016040518060a00160405290816000820154815260200160018201548152602001600282015481526020016003820160009054906101000a900473ffffffffffffffffffffffffffffffffffffffff1673ffffffffffffffffffffffffffffffffffffffff1673ffffffffffffffffffffffffffffffffffffffff168152602001600482015481525050905087565b610950611b69565b6000600190506000808281526020019081526020016000206040518060e0016040529081600082015481526020016001820160009054906101000a900473ffffffffffffffffffffffffffffffffffffffff1673ffffffffffffffffffffffffffffffffffffffff1673ffffffffffffffffffffffffffffffffffffffff1681526020016002820160009054906101000a900473ffffffffffffffffffffffffffffffffffffffff1673ffffffffffffffffffffffffffffffffffffffff1673ffffffffffffffffffffffffffffffffffffffff16815260200160038201548152602001600482018054610a4390612571565b80601f0160208091040260200160405190810160405280929190818152602001828054610a6f90612571565b8015610abc5780601f10610a9157610100808354040283529160200191610abc565b820191906000526020600020905b815481529060010190602001808311610a9f57829003601f168201915b50505050508152602001600582018054610ad590612571565b80601f0160208091040260200160405190810160405280929190818152602001828054610b0190612571565b8015610b4e5780601f10610b2357610100808354040283529160200191610b4e565b820191906000526020600020905b815481529060010190602001808311610b3157829003601f168201915b50505050508152602001600682016040518060a00160405290816000820154815260200160018201548152602001600282015481526020016003820160009054906101000a900473ffffffffffffffffffffffffffffffffffffffff1673ffffffffffffffffffffffffffffffffffffffff1673ffffffffffffffffffffffffffffffffffffffff1681526020016004820154815250508152505091505090565b6000600360009054906101000a900473ffffffffffffffffffffffffffffffffffffffff16905060008173ffffffffffffffffffffffffffffffffffffffff16637395eb416040518163ffffffff1660e01b8152600401600060405180830381865afa158015610c63573d6000803e3d6000fd5b505050506040513d6000823e3d601f19601f82011682018060405250810190610c8c9190612969565b90507ff3cefb6580958289ed59682f8efcbb4cc6003c65fc36e951618d6809896a407b8160400151604051610cc191906129b2565b60405180910390a1600060076000836000015181526020019081526020016000209050816000015181600001819055506064816001018190555060065467ffffffffffffffff811115610d1757610d166122ea565b5b604051908082528060200260200182016040528015610d455781602001602082028036833780820191505090505b50816002019080519060200190610d5d929190611bd8565b5060006040518060600160405280846040015173ffffffffffffffffffffffffffffffffffffffff16815260200160405180602001604052806000815250815260200160065467ffffffffffffffff811115610dbc57610dbb6122ea565b5b604051908082528060200260200182016040528015610dea5781602001602082028036833780820191505090505b50815250905060006040518060600160405280856020015173ffffffffffffffffffffffffffffffffffffffff16815260200160405180602001604052806000815250815260200160065467ffffffffffffffff811115610e4e57610e4d6122ea565b5b604051908082528060200260200182016040528015610e7c5781602001602082028036833780820191505090505b5081525090508183600401600060028110610e9a57610e996129cd565b5b6003020160008201518160000160006101000a81548173ffffffffffffffffffffffffffffffffffffffff021916908373ffffffffffffffffffffffffffffffffffffffff1602179055506020820151816001019080519060200190610f01929190611c62565b506040820151816002019080519060200190610f1e929190611ce8565b509050508083600401600160028110610f3a57610f396129cd565b5b6003020160008201518160000160006101000a81548173ffffffffffffffffffffffffffffffffffffffff021916908373ffffffffffffffffffffffffffffffffffffffff1602179055506020820151816001019080519060200190610fa1929190611c62565b506040820151816002019080519060200190610fbe929190611ce8565b509050506001600460000160006101000a81548160ff02191690831515021790555083600001516004600101819055505050505050565b60008082815260200190815260200160002060010160009054906101000a900473ffffffffffffffffffffffffffffffffffffffff1673ffffffffffffffffffffffffffffffffffffffff163373ffffffffffffffffffffffffffffffffffffffff1614611098576040517f08c379a000000000000000000000000000000000000000000000000000000000815260040161108f90612a6e565b60405180910390fd5b6000806000838152602001908152602001600020600301549050600080600084815260200190815260200160002060010160009054906101000a900473ffffffffffffffffffffffffffffffffffffffff1690506000606460008086815260200190815260200160002060060160000154846111149190612a8e565b61111e9190612b17565b9050600080600086815260200190815260200160002060020160009054906101000a900473ffffffffffffffffffffffffffffffffffffffff1690506000606460008088815260200190815260200160002060060160010154866111829190612a8e565b61118c9190612b17565b9050600080600088815260200190815260200160002060060160030160009054906101000a900473ffffffffffffffffffffffffffffffffffffffff169050600060646000808a815260200190815260200160002060060160020154886111f39190612a8e565b6111fd9190612b17565b90508681848761120d91906125d2565b61121791906125d2565b14611257576040517f08c379a000000000000000000000000000000000000000000000000000000000815260040161124e90612be0565b60405180910390fd5b60646000808a815260200190815260200160002060060160040154146112b2576040517f08c379a00000000000000000000000000000000000000000000000000000000081526004016112a990612c4c565b60405180910390fd5b60c86000808a8152602001908152602001600020600601600401819055508573ffffffffffffffffffffffffffffffffffffffff166108fc869081150290604051600060405180830381858888f19350505050158015611316573d6000803e3d6000fd5b508373ffffffffffffffffffffffffffffffffffffffff166108fc849081150290604051600060405180830381858888f1935050505015801561135d573d6000803e3d6000fd5b508173ffffffffffffffffffffffffffffffffffffffff166108fc829081150290604051600060405180830381858888f193505050501580156113a4573d6000803e3d6000fd5b505050505050505050565b600080828152602001908152602001600020600301543414611406576040517f08c379a00000000000000000000000000000000000000000000000000000000081526004016113fd90612cde565b60405180910390fd5b3360008083815260200190815260200160002060010160006101000a81548173ffffffffffffffffffffffffffffffffffffffff021916908373ffffffffffffffffffffffffffffffffffffffff16021790555061146381611b00565b50565b80600360006101000a81548173ffffffffffffffffffffffffffffffffffffffff021916908373ffffffffffffffffffffffffffffffffffffffff1602179055507ff3cefb6580958289ed59682f8efcbb4cc6003c65fc36e951618d6809896a407b600360009054906101000a900473ffffffffffffffffffffffffffffffffffffffff166040516114f891906129b2565b60405180910390a150565b6001602052816000526040600020818154811061151f57600080fd5b90600052602060002001600091509150505481565b60008082815260200190815260200160002060010160009054906101000a900473ffffffffffffffffffffffffffffffffffffffff1673ffffffffffffffffffffffffffffffffffffffff163373ffffffffffffffffffffffffffffffffffffffff161480611603575060008082815260200190815260200160002060020160009054906101000a900473ffffffffffffffffffffffffffffffffffffffff1673ffffffffffffffffffffffffffffffffffffffff163373ffffffffffffffffffffffffffffffffffffffff16145b611642576040517f08c379a000000000000000000000000000000000000000000000000000000000815260040161163990612d70565b60405180910390fd5b61012d6000808381526020019081526020016000206006016004015414158015611686575061012e6000808381526020019081526020016000206006016004015414155b6116c5576040517f08c379a00000000000000000000000000000000000000000000000000000000081526004016116bc90612ddc565b60405180910390fd5b60c8600080838152602001908152602001600020600601600401541415611721576040517f08c379a000000000000000000000000000000000000000000000000000000000815260040161171890612e48565b60405180910390fd5b60008082815260200190815260200160002060020160009054906101000a900473ffffffffffffffffffffffffffffffffffffffff1673ffffffffffffffffffffffffffffffffffffffff163373ffffffffffffffffffffffffffffffffffffffff1614156117ae5761012d60008083815260200190815260200160002060060160040181905550611838565b60008082815260200190815260200160002060010160009054906101000a900473ffffffffffffffffffffffffffffffffffffffff1673ffffffffffffffffffffffffffffffffffffffff163373ffffffffffffffffffffffffffffffffffffffff1614156118375761012e600080838152602001908152602001600020600601600401819055505b5b50565b611843611b69565b60025481600001818152505033816040019073ffffffffffffffffffffffffffffffffffffffff16908173ffffffffffffffffffffffffffffffffffffffff1681525050828160600181815250508181608001819052508060008060025481526020019081526020016000206000820151816000015560208201518160010160006101000a81548173ffffffffffffffffffffffffffffffffffffffff021916908373ffffffffffffffffffffffffffffffffffffffff16021790555060408201518160020160006101000a81548173ffffffffffffffffffffffffffffffffffffffff021916908373ffffffffffffffffffffffffffffffffffffffff16021790555060608201518160030155608082015181600401908051906020019061196d929190611c62565b5060a082015181600501908051906020019061198a929190611c62565b5060c08201518160060160008201518160000155602082015181600101556040820151816002015560608201518160030160006101000a81548173ffffffffffffffffffffffffffffffffffffffff021916908373ffffffffffffffffffffffffffffffffffffffff160217905550608082015181600401555050905050611a13600254611b00565b7fa44f460f2ac523b4a38d95d97950a776d7bf0adbaff2501d321f040e3d661e46600254604051611a449190611db0565b60405180910390a1600160026000828254611a5f91906125d2565b92505081905550505050565b6060600160003373ffffffffffffffffffffffffffffffffffffffff1673ffffffffffffffffffffffffffffffffffffffff168152602001908152602001600020805480602002602001604051908101604052809291908181526020018280548015611af657602002820191906000526020600020905b815481526020019060010190808311611ae2575b5050505050905090565b600160003373ffffffffffffffffffffffffffffffffffffffff1673ffffffffffffffffffffffffffffffffffffffff16815260200190815260200160002081908060018154018082558091505060019003906000526020600020016000909190919091505550565b6040518060e0016040528060008152602001600073ffffffffffffffffffffffffffffffffffffffff168152602001600073ffffffffffffffffffffffffffffffffffffffff168152602001600081526020016060815260200160608152602001611bd2611d35565b81525090565b828054828255906000526020600020908101928215611c51579160200282015b82811115611c505782518260006101000a81548173ffffffffffffffffffffffffffffffffffffffff021916908373ffffffffffffffffffffffffffffffffffffffff16021790555091602001919060010190611bf8565b5b509050611c5e9190611d7a565b5090565b828054611c6e90612571565b90600052602060002090601f016020900481019282611c905760008555611cd7565b82601f10611ca957805160ff1916838001178555611cd7565b82800160010185558215611cd7579182015b82811115611cd6578251825591602001919060010190611cbb565b5b509050611ce49190611d7a565b5090565b828054828255906000526020600020908101928215611d24579160200282015b82811115611d23578251825591602001919060010190611d08565b5b509050611d319190611d7a565b5090565b6040518060a00160405280600081526020016000815260200160008152602001600073ffffffffffffffffffffffffffffffffffffffff168152602001600081525090565b5b80821115611d93576000816000905550600101611d7b565b5090565b6000819050919050565b611daa81611d97565b82525050565b6000602082019050611dc56000830184611da1565b92915050565b6000604051905090565b600080fd5b600080fd5b611de881611d97565b8114611df357600080fd5b50565b600081359050611e0581611ddf565b92915050565b600060208284031215611e2157611e20611dd5565b5b6000611e2f84828501611df6565b91505092915050565b600081519050919050565b600082825260208201905092915050565b60005b83811015611e72578082015181840152602081019050611e57565b83811115611e81576000848401525b50505050565b6000601f19601f8301169050919050565b6000611ea382611e38565b611ead8185611e43565b9350611ebd818560208601611e54565b611ec681611e87565b840191505092915050565b6000606082019050611ee66000830186611da1565b611ef36020830185611da1565b8181036040830152611f058184611e98565b9050949350505050565b600073ffffffffffffffffffffffffffffffffffffffff82169050919050565b6000611f3a82611f0f565b9050919050565b611f4a81611f2f565b8114611f5557600080fd5b50565b600081359050611f6781611f41565b92915050565b600080600080600060a08688031215611f8957611f88611dd5565b5b6000611f9788828901611df6565b9550506020611fa888828901611df6565b9450506040611fb988828901611df6565b9350506060611fca88828901611df6565b9250506080611fdb88828901611f58565b9150509295509295909350565b611ff181611f2f565b82525050565b61200081611d97565b82525050565b61200f81611f2f565b82525050565b60a08201600082015161202b6000850182611ff7565b50602082015161203e6020850182611ff7565b5060408201516120516040850182611ff7565b5060608201516120646060850182612006565b5060808201516120776080850182611ff7565b50505050565b600061016082019050612093600083018a611da1565b6120a06020830189611fe8565b6120ad6040830188611fe8565b6120ba6060830187611da1565b81810360808301526120cc8186611e98565b905081810360a08301526120e08185611e98565b90506120ef60c0830184612015565b98975050505050505050565b600082825260208201905092915050565b600061211782611e38565b61212181856120fb565b9350612131818560208601611e54565b61213a81611e87565b840191505092915050565b60a08201600082015161215b6000850182611ff7565b50602082015161216e6020850182611ff7565b5060408201516121816040850182611ff7565b5060608201516121946060850182612006565b5060808201516121a76080850182611ff7565b50505050565b6000610160830160008301516121c66000860182611ff7565b5060208301516121d96020860182612006565b5060408301516121ec6040860182612006565b5060608301516121ff6060860182611ff7565b5060808301518482036080860152612217828261210c565b91505060a083015184820360a0860152612231828261210c565b91505060c083015161224660c0860182612145565b508091505092915050565b6000602082019050818103600083015261226b81846121ad565b905092915050565b60006020828403121561228957612288611dd5565b5b600061229784828501611f58565b91505092915050565b600080604083850312156122b7576122b6611dd5565b5b60006122c585828601611f58565b92505060206122d685828601611df6565b9150509250929050565b600080fd5b600080fd5b7f4e487b7100000000000000000000000000000000000000000000000000000000600052604160045260246000fd5b61232282611e87565b810181811067ffffffffffffffff82111715612341576123406122ea565b5b80604052505050565b6000612354611dcb565b90506123608282612319565b919050565b600067ffffffffffffffff8211156123805761237f6122ea565b5b61238982611e87565b9050602081019050919050565b82818337600083830152505050565b60006123b86123b384612365565b61234a565b9050828152602081018484840111156123d4576123d36122e5565b5b6123df848285612396565b509392505050565b600082601f8301126123fc576123fb6122e0565b5b813561240c8482602086016123a5565b91505092915050565b6000806040838503121561242c5761242b611dd5565b5b600061243a85828601611df6565b925050602083013567ffffffffffffffff81111561245b5761245a611dda565b5b612467858286016123e7565b9150509250929050565b600081519050919050565b600082825260208201905092915050565b6000819050602082019050919050565b60006124a98383611ff7565b60208301905092915050565b6000602082019050919050565b60006124cd82612471565b6124d7818561247c565b93506124e28361248d565b8060005b838110156125135781516124fa888261249d565b9750612505836124b5565b9250506001810190506124e6565b5085935050505092915050565b6000602082019050818103600083015261253a81846124c2565b905092915050565b7f4e487b7100000000000000000000000000000000000000000000000000000000600052602260045260246000fd5b6000600282049050600182168061258957607f821691505b6020821081141561259d5761259c612542565b5b50919050565b7f4e487b7100000000000000000000000000000000000000000000000000000000600052601160045260246000fd5b60006125dd82611d97565b91506125e883611d97565b9250827fffffffffffffffffffffffffffffffffffffffffffffffffffffffffffffffff0382111561261d5761261c6125a3565b5b828201905092915050565b7f54656e616e745368617265202b204c616e646c6f7264205368617265202b204660008201527f6565205368617265206973206e6f742031303025000000000000000000000000602082015250565b6000612684603483611e43565b915061268f82612628565b604082019050919050565b600060208201905081810360008301526126b381612677565b9050919050565b7f4f6e6c79204c616e646c6f72642063616e206372656174652072656465656d2060008201527f70726f706f73616c000000000000000000000000000000000000000000000000602082015250565b6000612716602883611e43565b9150612721826126ba565b604082019050919050565b6000602082019050818103600083015261274581612709565b9050919050565b600080fd5b600080fd5b60008151905061276581611ddf565b92915050565b60008151905061277a81611f41565b92915050565b600061279361278e84612365565b61234a565b9050828152602081018484840111156127af576127ae6122e5565b5b6127ba848285611e54565b509392505050565b600082601f8301126127d7576127d66122e0565b5b81516127e7848260208601612780565b91505092915050565b600060a082840312156128065761280561274c565b5b61281060a061234a565b9050600061282084828501612756565b600083015250602061283484828501612756565b602083015250604061284884828501612756565b604083015250606061285c8482850161276b565b606083015250608061287084828501612756565b60808301525092915050565b600061016082840312156128935761289261274c565b5b61289d60e061234a565b905060006128ad84828501612756565b60008301525060206128c18482850161276b565b60208301525060406128d58482850161276b565b60408301525060606128e984828501612756565b606083015250608082015167ffffffffffffffff81111561290d5761290c612751565b5b612919848285016127c2565b60808301525060a082015167ffffffffffffffff81111561293d5761293c612751565b5b612949848285016127c2565b60a08301525060c061295d848285016127f0565b60c08301525092915050565b60006020828403121561297f5761297e611dd5565b5b600082015167ffffffffffffffff81111561299d5761299c611dda565b5b6129a98482850161287c565b91505092915050565b60006020820190506129c76000830184611fe8565b92915050565b7f4e487b7100000000000000000000000000000000000000000000000000000000600052603260045260246000fd5b7f4f6e6c792074656e616e742063616e206163636570742072656465656d20707260008201527f6f706f73616c0000000000000000000000000000000000000000000000000000602082015250565b6000612a58602683611e43565b9150612a63826129fc565b604082019050919050565b60006020820190508181036000830152612a8781612a4b565b9050919050565b6000612a9982611d97565b9150612aa483611d97565b9250817fffffffffffffffffffffffffffffffffffffffffffffffffffffffffffffffff0483118215151615612add57612adc6125a3565b5b828202905092915050565b7f4e487b7100000000000000000000000000000000000000000000000000000000600052601260045260246000fd5b6000612b2282611d97565b9150612b2d83611d97565b925082612b3d57612b3c612ae8565b5b828204905092915050565b7f54656e616e745368617265202b204c616e646c6f7264205368617265202b204660008201527f656520536861726520646f6573206e6f7420657175616c20457363726f77205660208201527f616c756500000000000000000000000000000000000000000000000000000000604082015250565b6000612bca604483611e43565b9150612bd582612b48565b606082019050919050565b60006020820190508181036000830152612bf981612bbd565b9050919050565b7f457363726f7720686173206265656e20616c726561642072656465656d65642e600082015250565b6000612c36602083611e43565b9150612c4182612c00565b602082019050919050565b60006020820190508181036000830152612c6581612c29565b9050919050565b7f4574682073656e74206973206e6f742073616d6520617320657363726f77566160008201527f6c75650000000000000000000000000000000000000000000000000000000000602082015250565b6000612cc8602383611e43565b9150612cd382612c6c565b604082019050919050565b60006020820190508181036000830152612cf781612cbb565b9050919050565b7f4f6e6c792074656e616e74206f72206c616e646c6f72642063616e206163636560008201527f70742072656465656d2070726f706f73616c0000000000000000000000000000602082015250565b6000612d5a603283611e43565b9150612d6582612cfe565b604082019050919050565b60006020820190508181036000830152612d8981612d4d565b9050919050565b7f416c72656164792072656a656374656400000000000000000000000000000000600082015250565b6000612dc6601083611e43565b9150612dd182612d90565b602082019050919050565b60006020820190508181036000830152612df581612db9565b9050919050565b7f416c726561647920616363657074656400000000000000000000000000000000600082015250565b6000612e32601083611e43565b9150612e3d82612dfc565b602082019050919050565b60006020820190508181036000830152612e6181612e25565b905091905056fea2646970667358221220ed7536da77dbcae55373012bb790a149572198f67a6649466ceaae25c8638a2b64736f6c634300080a0033",
  "immutableReferences": {},
  "source": "pragma solidity ^0.8.10;\nimport \"./rentEscrow.sol\";\n\ncontract resolver is rentEscrow {\n    //event sendTenant (uint _id);\n    event sendMessage (string _message);\n    event sendAddress (address _message);\n    event sendId (uint _message);\n    event sendStruct (rentEscrow _rentEscrow);\n\n    address rentEscrowAddress;\n\n    ///@param id case identifier. Currently same as rentContract. \n    ///@param status status of the case. 100: waiting for judge 200: waiting for resolution 300: resolved\n    ///@param judges addreses that are assigned to resolve the dispute\n    ///@param restrictedJudges addresses that cannot be assigned as judge (among others: tenant, landlord)\n    ///@param disputeDetail  bears details about the case. Currenly a placeholder aim is to link this to some IPFS file\n    ///@param partialResult contains voting of each judge\n    ///@param finalResult contains final result after each judge casted their vote\n    \n    struct DisputeCase {\n        uint disputeId;\n        uint status;\n        address [] judges;\n        address [] restrictedJudges;\n        DisputeParty [2] disputeParty;\n        string disputeDetail;\n    }\n\n    struct DisputeParty {\n        address disputePartyAddress;\n        string documentation;\n        uint [] judgeVotes;\n    }\n\n\n    ///@dev this is a flag to see if I need to reach for new DisputeCase or I just fill new address into existing one\n    struct CaseWaitingForJudge {\n        bool waiting;\n        uint disputeId;\n    } \n\n    CaseWaitingForJudge caseWaitingForJudge = CaseWaitingForJudge({waiting: false, disputeId: 0});\n\n    ///@dev Number of judges needed for this contract\n    uint numberOfJudges = 3;\n    ///@dev update number of judges.\n    ///@custom:later should be admin only...\n    function updateNumberOfJudges (uint _numberOfJudges) external {\n        numberOfJudges = _numberOfJudges;\n    }\n\n\n    mapping(uint =>DisputeCase) public DisputeCaseMapping;\n\n    ///@dev to establish connection to other contract\n    ///@custom:later  this works fine for single contract. I need this to be modular and can connect multiple contract on the fly\n    \n    function setRentEscrowAddress (address _rentEscrowAddress) public  {\n        rentEscrowAddress = _rentEscrowAddress;\n         emit sendAddress(rentEscrowAddress);\n    }\n\n    function getNewContractToResolve () public {\n        rentEscrowInterface re = rentEscrowInterface(rentEscrowAddress);\n        \n        RentContract memory rentContract = re.getContractToResolve();\n\n        ///@dev for test reasons\n        emit sendAddress(rentContract.landlord);\n        \n        ///@dev what if that particular rent Id already exists?\n        ///@custom:later if I get this right, newDisputeCase is a pointer to a place in storage. If this function is called multiple times on same rentID (mapping key) data will be overwritten\n        DisputeCase storage newDisputeCase = DisputeCaseMapping[rentContract.rentId];\n        newDisputeCase.disputeId = rentContract.rentId;\n        newDisputeCase.status = 100;\n        newDisputeCase.judges = new address[](numberOfJudges);\n\n        ///@custom:later Seems ugly...\n        DisputeParty memory disputeParty1 = DisputeParty({\n            disputePartyAddress: rentContract.landlord,\n            documentation: \"\",\n            judgeVotes: new uint [](numberOfJudges)\n        });\n\n        DisputeParty memory disputeParty2 = DisputeParty({\n            disputePartyAddress: rentContract.tenant,\n            documentation: \"\",\n            judgeVotes: new uint [](numberOfJudges)\n        });\n\n        newDisputeCase.disputeParty[0] = disputeParty1;\n        newDisputeCase.disputeParty[1] = disputeParty2;\n\n        caseWaitingForJudge.waiting = true;\n        caseWaitingForJudge.disputeId = rentContract.rentId;\n\n    }\n\n    function assignJudge() public {\n       \n        if (caseWaitingForJudge.waiting == false) {\n            getNewContractToResolve();\n        }\n        ///@custom:later I am shutting this off now for development reasons\n        //require(testJudgeEligibility(DisputeCaseMapping[caseWaitingForJudge.disputeId]), \"This address cannot be judge\");\n\n        DisputeCaseMapping[caseWaitingForJudge.disputeId].judges.push(msg.sender);\n\n        if (DisputeCaseMapping[caseWaitingForJudge.disputeId].judges.length <= numberOfJudges) {\n            caseWaitingForJudge.waiting = false;\n        }\n    }\n    ///@custom:later is this a case for modifier?\n    function testJudgeEligibility (DisputeCase storage _disputeCase) internal view returns (bool _eligible) {\n        _eligible == true;\n\n        ///@dev test if address is already judge\n        ///@custom:later this wasn't tested\n        for(uint i=0; i<_disputeCase.judges.length; i++){\n                if(msg.sender == _disputeCase.judges[i]) {_eligible = false;}\n            }\n        ///@dev test if address is on the restricted list\n        for(uint i=0; i<_disputeCase.disputeParty.length; i++){\n                if(msg.sender == _disputeCase.disputeParty[i].disputePartyAddress) {_eligible = false;}\n            }\n\n        }\n\n    //function castVote (uint _disputeId)\n\n\n    }\n\n",
  "sourcePath": "/Users/andy/my_repos/rentEscrow/contracts/resolver.sol",
  "compiler": {
    "name": "solc",
    "version": "0.8.10+commit.fc410830.Emscripten.clang"
  },
  "schemaVersion": "3.4.3",
  "updatedAt": "2022-01-29T15:12:16.036Z",
  "devdoc": {
    "kind": "dev",
    "methods": {
      "getContractToResolve()": {
        "custom:later": "now gives just first contract. Need to add logic to return contract where redeemProposal was rejected",
        "details": "this is used by retrieve mapping by another contract"
      },
      "rejectRedeemProposal(uint256)": {
        "params": {
          "_rentId": "identifies the contract between tenant and landlord"
        }
      },
      "setRentEscrowAddress(address)": {
        "custom:later": "this works fine for single contract. I need this to be modular and can connect multiple contract on the fly",
        "details": "to establish connection to other contract"
      },
      "updateNumberOfJudges(uint256)": {
        "custom:later": "should be admin only...",
        "details": "update number of judges."
      }
    },
    "stateVariables": {
      "numberOfJudges": {
        "details": "Number of judges needed for this contract"
      }
    },
    "version": 1
  },
  "userdoc": {
    "kind": "user",
    "methods": {
      "getContractsByAddress()": {
        "notice": "returns all contracts  where sender is involved party"
      },
      "rejectRedeemProposal(uint256)": {
        "notice": "Use this function to reject redeem proposal. Will send it to the resolution centre"
      }
    },
    "version": 1
  }
}