{
  "contractName": "resolver",
  "abi": [
    {
      "anonymous": false,
      "inputs": [
        {
          "indexed": false,
          "internalType": "uint256",
          "name": "_rentId",
          "type": "uint256"
        }
      ],
      "name": "rentContractId",
      "type": "event"
    },
    {
      "anonymous": false,
      "inputs": [
        {
          "indexed": false,
          "internalType": "uint256",
          "name": "_rentId",
          "type": "uint256"
        }
      ],
      "name": "rentContractId2",
      "type": "event"
    },
    {
      "anonymous": false,
      "inputs": [
        {
          "indexed": false,
          "internalType": "string",
          "name": "_message",
          "type": "string"
        }
      ],
      "name": "sendMessage",
      "type": "event"
    },
    {
      "anonymous": false,
      "inputs": [
        {
          "indexed": false,
          "internalType": "address",
          "name": "_tenant",
          "type": "address"
        }
      ],
      "name": "sendTenant",
      "type": "event"
    },
    {
      "inputs": [
        {
          "internalType": "uint256",
          "name": "_rentId",
          "type": "uint256"
        }
      ],
      "name": "acceptNewContract",
      "outputs": [],
      "stateMutability": "payable",
      "type": "function"
    },
    {
      "inputs": [
        {
          "internalType": "uint256",
          "name": "_rentId",
          "type": "uint256"
        }
      ],
      "name": "acceptRedeemProposal",
      "outputs": [],
      "stateMutability": "nonpayable",
      "type": "function"
    },
    {
      "inputs": [
        {
          "internalType": "address",
          "name": "",
          "type": "address"
        },
        {
          "internalType": "uint256",
          "name": "",
          "type": "uint256"
        }
      ],
      "name": "addressMapping",
      "outputs": [
        {
          "internalType": "uint256",
          "name": "",
          "type": "uint256"
        }
      ],
      "stateMutability": "view",
      "type": "function"
    },
    {
      "inputs": [
        {
          "internalType": "uint256",
          "name": "_rentId",
          "type": "uint256"
        },
        {
          "internalType": "uint256",
          "name": "_tenantShare",
          "type": "uint256"
        },
        {
          "internalType": "uint256",
          "name": "_landlordShare",
          "type": "uint256"
        },
        {
          "internalType": "uint256",
          "name": "_feeShare",
          "type": "uint256"
        },
        {
          "internalType": "address",
          "name": "_feeAddress",
          "type": "address"
        }
      ],
      "name": "createRedeemProposal",
      "outputs": [],
      "stateMutability": "nonpayable",
      "type": "function"
    },
    {
      "inputs": [],
      "name": "devGetBalance",
      "outputs": [
        {
          "internalType": "uint256",
          "name": "",
          "type": "uint256"
        }
      ],
      "stateMutability": "view",
      "type": "function"
    },
    {
      "inputs": [],
      "name": "getContractsByAddress",
      "outputs": [
        {
          "internalType": "uint256[]",
          "name": "",
          "type": "uint256[]"
        }
      ],
      "stateMutability": "view",
      "type": "function"
    },
    {
      "inputs": [],
      "name": "nextRentId",
      "outputs": [
        {
          "internalType": "uint256",
          "name": "",
          "type": "uint256"
        }
      ],
      "stateMutability": "view",
      "type": "function"
    },
    {
      "inputs": [
        {
          "internalType": "uint256",
          "name": "_escrowValue",
          "type": "uint256"
        },
        {
          "internalType": "string",
          "name": "_contractDetail",
          "type": "string"
        }
      ],
      "name": "proposeNewContract",
      "outputs": [],
      "stateMutability": "nonpayable",
      "type": "function"
    },
    {
      "inputs": [
        {
          "internalType": "uint256",
          "name": "_rentId",
          "type": "uint256"
        }
      ],
      "name": "rejectRedeemProposal",
      "outputs": [],
      "stateMutability": "nonpayable",
      "type": "function"
    },
    {
      "inputs": [
        {
          "internalType": "uint256",
          "name": "",
          "type": "uint256"
        }
      ],
      "name": "rentContractsMapping",
      "outputs": [
        {
          "internalType": "address",
          "name": "tenant",
          "type": "address"
        },
        {
          "internalType": "address",
          "name": "landlord",
          "type": "address"
        },
        {
          "internalType": "uint256",
          "name": "escrowValue",
          "type": "uint256"
        },
        {
          "internalType": "string",
          "name": "contractDetail",
          "type": "string"
        },
        {
          "internalType": "string",
          "name": "status",
          "type": "string"
        },
        {
          "components": [
            {
              "internalType": "uint256",
              "name": "tenantShare",
              "type": "uint256"
            },
            {
              "internalType": "uint256",
              "name": "landlordShare",
              "type": "uint256"
            },
            {
              "internalType": "uint256",
              "name": "feeShare",
              "type": "uint256"
            },
            {
              "internalType": "address",
              "name": "feeAddress",
              "type": "address"
            },
            {
              "internalType": "uint256",
              "name": "proposalStatus",
              "type": "uint256"
            }
          ],
          "internalType": "struct rentEscrow.redeemProposal",
          "name": "redeemProposal",
          "type": "tuple"
        }
      ],
      "stateMutability": "view",
      "type": "function"
    },
    {
      "inputs": [
        {
          "internalType": "uint256",
          "name": "_rentId",
          "type": "uint256"
        }
      ],
      "name": "getContractToResolve",
      "outputs": [],
      "stateMutability": "nonpayable",
      "type": "function"
    }
  ],
  "bytecode": "0x6080604052600060025534801561001557600080fd5b50612029806100256000396000f3fe60806040526004361061009c5760003560e01c806385b589631161006457806385b589631461018b57806396d65c3e146101a7578063a6dd4276146101e4578063b59146f71461020d578063b61f5f5314610236578063ef4b5184146102615761009c565b8063039ed501146100a15780632458cc3e146100cc5780633d45370c146100f75780636b695d24146101205780637afc2d5614610162575b600080fd5b3480156100ad57600080fd5b506100b661028a565b6040516100c39190611355565b60405180910390f35b3480156100d857600080fd5b506100e1610290565b6040516100ee9190611355565b60405180910390f35b34801561010357600080fd5b5061011e6004803603810190610119919061140e565b610298565b005b34801561012c57600080fd5b5061014760048036038101906101429190611489565b61046d565b604051610159969594939291906115e4565b60405180910390f35b34801561016e57600080fd5b5061018960048036038101906101849190611489565b610681565b005b6101a560048036038101906101a09190611489565b610a3b565b005b3480156101b357600080fd5b506101ce60048036038101906101c99190611654565b610af2565b6040516101db9190611355565b60405180910390f35b3480156101f057600080fd5b5061020b60048036038101906102069190611489565b610b23565b005b34801561021957600080fd5b50610234600480360381019061022f91906117c9565b610e2a565b005b34801561024257600080fd5b5061024b611044565b60405161025891906118d4565b60405180910390f35b34801561026d57600080fd5b5061028860048036038101906102839190611489565b6110d9565b005b60025481565b600047905090565b60008284866102a79190611925565b6102b19190611925565b9050606481146102f6576040517f08c379a00000000000000000000000000000000000000000000000000000000081526004016102ed906119ed565b60405180910390fd5b60008087815260200190815260200160002060010160009054906101000a900473ffffffffffffffffffffffffffffffffffffffff1673ffffffffffffffffffffffffffffffffffffffff163373ffffffffffffffffffffffffffffffffffffffff1614610399576040517f08c379a000000000000000000000000000000000000000000000000000000000815260040161039090611a7f565b60405180910390fd5b8460008088815260200190815260200160002060050160000181905550836000808881526020019081526020016000206005016001018190555082600080888152602001908152602001600020600501600201819055508160008088815260200190815260200160002060050160030160006101000a81548173ffffffffffffffffffffffffffffffffffffffff021916908373ffffffffffffffffffffffffffffffffffffffff160217905550606460008088815260200190815260200160002060050160040181905550505050505050565b60006020528060005260406000206000915090508060000160009054906101000a900473ffffffffffffffffffffffffffffffffffffffff16908060010160009054906101000a900473ffffffffffffffffffffffffffffffffffffffff16908060020154908060030180546104e290611ace565b80601f016020809104026020016040519081016040528092919081815260200182805461050e90611ace565b801561055b5780601f106105305761010080835404028352916020019161055b565b820191906000526020600020905b81548152906001019060200180831161053e57829003601f168201915b50505050509080600401805461057090611ace565b80601f016020809104026020016040519081016040528092919081815260200182805461059c90611ace565b80156105e95780601f106105be576101008083540402835291602001916105e9565b820191906000526020600020905b8154815290600101906020018083116105cc57829003601f168201915b505050505090806005016040518060a00160405290816000820154815260200160018201548152602001600282015481526020016003820160009054906101000a900473ffffffffffffffffffffffffffffffffffffffff1673ffffffffffffffffffffffffffffffffffffffff1673ffffffffffffffffffffffffffffffffffffffff168152602001600482015481525050905086565b60008082815260200190815260200160002060000160009054906101000a900473ffffffffffffffffffffffffffffffffffffffff1673ffffffffffffffffffffffffffffffffffffffff163373ffffffffffffffffffffffffffffffffffffffff1614610724576040517f08c379a000000000000000000000000000000000000000000000000000000000815260040161071b90611b72565b60405180910390fd5b6000806000838152602001908152602001600020600201549050600080600084815260200190815260200160002060000160009054906101000a900473ffffffffffffffffffffffffffffffffffffffff1690506000606460008086815260200190815260200160002060050160000154846107a09190611b92565b6107aa9190611c1b565b9050600080600086815260200190815260200160002060010160009054906101000a900473ffffffffffffffffffffffffffffffffffffffff16905060006064600080888152602001908152602001600020600501600101548661080e9190611b92565b6108189190611c1b565b9050600080600088815260200190815260200160002060050160030160009054906101000a900473ffffffffffffffffffffffffffffffffffffffff169050600060646000808a8152602001908152602001600020600501600201548861087f9190611b92565b6108899190611c1b565b9050868184876108999190611925565b6108a39190611925565b146108e3576040517f08c379a00000000000000000000000000000000000000000000000000000000081526004016108da90611ce4565b60405180910390fd5b60646000808a8152602001908152602001600020600501600401541461093e576040517f08c379a000000000000000000000000000000000000000000000000000000000815260040161093590611d50565b60405180910390fd5b60c86000808a8152602001908152602001600020600501600401819055508573ffffffffffffffffffffffffffffffffffffffff166108fc869081150290604051600060405180830381858888f193505050501580156109a2573d6000803e3d6000fd5b508373ffffffffffffffffffffffffffffffffffffffff166108fc849081150290604051600060405180830381858888f193505050501580156109e9573d6000803e3d6000fd5b508173ffffffffffffffffffffffffffffffffffffffff166108fc829081150290604051600060405180830381858888f19350505050158015610a30573d6000803e3d6000fd5b505050505050505050565b600080828152602001908152602001600020600201543414610a92576040517f08c379a0000000000000000000000000000000000000000000000000000000008152600401610a8990611de2565b60405180910390fd5b3360008083815260200190815260200160002060000160006101000a81548173ffffffffffffffffffffffffffffffffffffffff021916908373ffffffffffffffffffffffffffffffffffffffff160217905550610aef81611183565b50565b60016020528160005260406000208181548110610b0e57600080fd5b90600052602060002001600091509150505481565b60008082815260200190815260200160002060000160009054906101000a900473ffffffffffffffffffffffffffffffffffffffff1673ffffffffffffffffffffffffffffffffffffffff163373ffffffffffffffffffffffffffffffffffffffff161480610bf2575060008082815260200190815260200160002060010160009054906101000a900473ffffffffffffffffffffffffffffffffffffffff1673ffffffffffffffffffffffffffffffffffffffff163373ffffffffffffffffffffffffffffffffffffffff16145b610c31576040517f08c379a0000000000000000000000000000000000000000000000000000000008152600401610c2890611e74565b60405180910390fd5b61012d6000808381526020019081526020016000206005016004015414158015610c75575061012e6000808381526020019081526020016000206005016004015414155b610cb4576040517f08c379a0000000000000000000000000000000000000000000000000000000008152600401610cab90611ee0565b60405180910390fd5b60c8600080838152602001908152602001600020600501600401541415610d10576040517f08c379a0000000000000000000000000000000000000000000000000000000008152600401610d0790611f4c565b60405180910390fd5b60008082815260200190815260200160002060010160009054906101000a900473ffffffffffffffffffffffffffffffffffffffff1673ffffffffffffffffffffffffffffffffffffffff163373ffffffffffffffffffffffffffffffffffffffff161415610d9d5761012d60008083815260200190815260200160002060050160040181905550610e27565b60008082815260200190815260200160002060000160009054906101000a900473ffffffffffffffffffffffffffffffffffffffff1673ffffffffffffffffffffffffffffffffffffffff163373ffffffffffffffffffffffffffffffffffffffff161415610e265761012e600080838152602001908152602001600020600501600401819055505b5b50565b610e326111ec565b33816020019073ffffffffffffffffffffffffffffffffffffffff16908173ffffffffffffffffffffffffffffffffffffffff16815250508281604001818152505081816060018190525080600080600254815260200190815260200160002060008201518160000160006101000a81548173ffffffffffffffffffffffffffffffffffffffff021916908373ffffffffffffffffffffffffffffffffffffffff16021790555060208201518160010160006101000a81548173ffffffffffffffffffffffffffffffffffffffff021916908373ffffffffffffffffffffffffffffffffffffffff160217905550604082015181600201556060820151816003019080519060200190610f46929190611254565b506080820151816004019080519060200190610f63929190611254565b5060a08201518160050160008201518160000155602082015181600101556040820151816002015560608201518160030160006101000a81548173ffffffffffffffffffffffffffffffffffffffff021916908373ffffffffffffffffffffffffffffffffffffffff160217905550608082015181600401555050905050610fec600254611183565b7fa44f460f2ac523b4a38d95d97950a776d7bf0adbaff2501d321f040e3d661e4660025460405161101d9190611355565b60405180910390a16001600260008282546110389190611925565b92505081905550505050565b6060600160003373ffffffffffffffffffffffffffffffffffffffff1673ffffffffffffffffffffffffffffffffffffffff1681526020019081526020016000208054806020026020016040519081016040528092919081815260200182805480156110cf57602002820191906000526020600020905b8154815260200190600101908083116110bb575b5050505050905090565b600080600083815260200190815260200160002060000160009054906101000a900473ffffffffffffffffffffffffffffffffffffffff1690507f2729c3766589091eff558f27cca6ae33b4e4e142ed7dc70d7c6bbbe13c1a6ab4816040516111429190611f6c565b60405180910390a17f469c8110e66a813a00933de02b0c8860dd514416a0163d9ee059eed9528d4c3f60405161117790611fd3565b60405180910390a15050565b600160003373ffffffffffffffffffffffffffffffffffffffff1673ffffffffffffffffffffffffffffffffffffffff16815260200190815260200160002081908060018154018082558091505060019003906000526020600020016000909190919091505550565b6040518060c00160405280600073ffffffffffffffffffffffffffffffffffffffff168152602001600073ffffffffffffffffffffffffffffffffffffffff16815260200160008152602001606081526020016060815260200161124e6112da565b81525090565b82805461126090611ace565b90600052602060002090601f01602090048101928261128257600085556112c9565b82601f1061129b57805160ff19168380011785556112c9565b828001600101855582156112c9579182015b828111156112c85782518255916020019190600101906112ad565b5b5090506112d6919061131f565b5090565b6040518060a00160405280600081526020016000815260200160008152602001600073ffffffffffffffffffffffffffffffffffffffff168152602001600081525090565b5b80821115611338576000816000905550600101611320565b5090565b6000819050919050565b61134f8161133c565b82525050565b600060208201905061136a6000830184611346565b92915050565b6000604051905090565b600080fd5b600080fd5b61138d8161133c565b811461139857600080fd5b50565b6000813590506113aa81611384565b92915050565b600073ffffffffffffffffffffffffffffffffffffffff82169050919050565b60006113db826113b0565b9050919050565b6113eb816113d0565b81146113f657600080fd5b50565b600081359050611408816113e2565b92915050565b600080600080600060a0868803121561142a5761142961137a565b5b60006114388882890161139b565b95505060206114498882890161139b565b945050604061145a8882890161139b565b935050606061146b8882890161139b565b925050608061147c888289016113f9565b9150509295509295909350565b60006020828403121561149f5761149e61137a565b5b60006114ad8482850161139b565b91505092915050565b6114bf816113d0565b82525050565b600081519050919050565b600082825260208201905092915050565b60005b838110156114ff5780820151818401526020810190506114e4565b8381111561150e576000848401525b50505050565b6000601f19601f8301169050919050565b6000611530826114c5565b61153a81856114d0565b935061154a8185602086016114e1565b61155381611514565b840191505092915050565b6115678161133c565b82525050565b611576816113d0565b82525050565b60a082016000820151611592600085018261155e565b5060208201516115a5602085018261155e565b5060408201516115b8604085018261155e565b5060608201516115cb606085018261156d565b5060808201516115de608085018261155e565b50505050565b6000610140820190506115fa60008301896114b6565b61160760208301886114b6565b6116146040830187611346565b81810360608301526116268186611525565b9050818103608083015261163a8185611525565b905061164960a083018461157c565b979650505050505050565b6000806040838503121561166b5761166a61137a565b5b6000611679858286016113f9565b925050602061168a8582860161139b565b9150509250929050565b600080fd5b600080fd5b7f4e487b7100000000000000000000000000000000000000000000000000000000600052604160045260246000fd5b6116d682611514565b810181811067ffffffffffffffff821117156116f5576116f461169e565b5b80604052505050565b6000611708611370565b905061171482826116cd565b919050565b600067ffffffffffffffff8211156117345761173361169e565b5b61173d82611514565b9050602081019050919050565b82818337600083830152505050565b600061176c61176784611719565b6116fe565b90508281526020810184848401111561178857611787611699565b5b61179384828561174a565b509392505050565b600082601f8301126117b0576117af611694565b5b81356117c0848260208601611759565b91505092915050565b600080604083850312156117e0576117df61137a565b5b60006117ee8582860161139b565b925050602083013567ffffffffffffffff81111561180f5761180e61137f565b5b61181b8582860161179b565b9150509250929050565b600081519050919050565b600082825260208201905092915050565b6000819050602082019050919050565b600061185d838361155e565b60208301905092915050565b6000602082019050919050565b600061188182611825565b61188b8185611830565b935061189683611841565b8060005b838110156118c75781516118ae8882611851565b97506118b983611869565b92505060018101905061189a565b5085935050505092915050565b600060208201905081810360008301526118ee8184611876565b905092915050565b7f4e487b7100000000000000000000000000000000000000000000000000000000600052601160045260246000fd5b60006119308261133c565b915061193b8361133c565b9250827fffffffffffffffffffffffffffffffffffffffffffffffffffffffffffffffff038211156119705761196f6118f6565b5b828201905092915050565b7f54656e616e745368617265202b204c616e646c6f7264205368617265202b204660008201527f6565205368617265206973206e6f742031303025000000000000000000000000602082015250565b60006119d76034836114d0565b91506119e28261197b565b604082019050919050565b60006020820190508181036000830152611a06816119ca565b9050919050565b7f4f6e6c79204c616e646c6f72642063616e206372656174652072656465656d2060008201527f70726f706f73616c000000000000000000000000000000000000000000000000602082015250565b6000611a696028836114d0565b9150611a7482611a0d565b604082019050919050565b60006020820190508181036000830152611a9881611a5c565b9050919050565b7f4e487b7100000000000000000000000000000000000000000000000000000000600052602260045260246000fd5b60006002820490506001821680611ae657607f821691505b60208210811415611afa57611af9611a9f565b5b50919050565b7f4f6e6c792074656e616e742063616e206163636570742072656465656d20707260008201527f6f706f73616c0000000000000000000000000000000000000000000000000000602082015250565b6000611b5c6026836114d0565b9150611b6782611b00565b604082019050919050565b60006020820190508181036000830152611b8b81611b4f565b9050919050565b6000611b9d8261133c565b9150611ba88361133c565b9250817fffffffffffffffffffffffffffffffffffffffffffffffffffffffffffffffff0483118215151615611be157611be06118f6565b5b828202905092915050565b7f4e487b7100000000000000000000000000000000000000000000000000000000600052601260045260246000fd5b6000611c268261133c565b9150611c318361133c565b925082611c4157611c40611bec565b5b828204905092915050565b7f54656e616e745368617265202b204c616e646c6f7264205368617265202b204660008201527f656520536861726520646f6573206e6f7420657175616c20457363726f77205660208201527f616c756500000000000000000000000000000000000000000000000000000000604082015250565b6000611cce6044836114d0565b9150611cd982611c4c565b606082019050919050565b60006020820190508181036000830152611cfd81611cc1565b9050919050565b7f457363726f7720686173206265656e20616c726561642072656465656d65642e600082015250565b6000611d3a6020836114d0565b9150611d4582611d04565b602082019050919050565b60006020820190508181036000830152611d6981611d2d565b9050919050565b7f4574682073656e74206973206e6f742073616d6520617320657363726f77566160008201527f6c75650000000000000000000000000000000000000000000000000000000000602082015250565b6000611dcc6023836114d0565b9150611dd782611d70565b604082019050919050565b60006020820190508181036000830152611dfb81611dbf565b9050919050565b7f4f6e6c792074656e616e74206f72206c616e646c6f72642063616e206163636560008201527f70742072656465656d2070726f706f73616c0000000000000000000000000000602082015250565b6000611e5e6032836114d0565b9150611e6982611e02565b604082019050919050565b60006020820190508181036000830152611e8d81611e51565b9050919050565b7f416c72656164792072656a656374656400000000000000000000000000000000600082015250565b6000611eca6010836114d0565b9150611ed582611e94565b602082019050919050565b60006020820190508181036000830152611ef981611ebd565b9050919050565b7f416c726561647920616363657074656400000000000000000000000000000000600082015250565b6000611f366010836114d0565b9150611f4182611f00565b602082019050919050565b60006020820190508181036000830152611f6581611f29565b9050919050565b6000602082019050611f8160008301846114b6565b92915050565b7f48616c6c6f000000000000000000000000000000000000000000000000000000600082015250565b6000611fbd6005836114d0565b9150611fc882611f87565b602082019050919050565b60006020820190508181036000830152611fec81611fb0565b905091905056fea26469706673582212200bf98aa436aba9cc0c6fd9f3b5c7d7d5437ef2dc77a1fd7e1a0e6c7f03a4e12e64736f6c634300080a0033",
  "immutableReferences": {},
  "source": "pragma solidity ^0.8.10;\nimport \"./rentEscrow.sol\";\n\ncontract resolver is rentEscrow {\n    event sendTenant (address _tenant);\n    event sendMessage (string _message);\n\n    function getContractToResolve (uint _rentId) public {\n        address tenant;\n        tenant = rentContractsMapping[_rentId].tenant;\n\n        emit sendTenant (tenant);\n        emit sendMessage (\"Hallo\");\n\n    }\n}",
  "sourcePath": "/Users/andy/my_repos/rentEscrow/contracts/resolver.sol",
  "compiler": {
    "name": "solc",
    "version": "0.8.10+commit.fc410830.Emscripten.clang"
  },
  "schemaVersion": "3.4.3",
  "updatedAt": "2022-01-18T17:31:41.259Z",
  "devdoc": {
    "kind": "dev",
    "methods": {
      "rejectRedeemProposal(uint256)": {
        "params": {
          "_rentId": "identifies the contract between tenant and landlord"
        }
      }
    },
    "version": 1
  },
  "userdoc": {
    "kind": "user",
    "methods": {
      "rejectRedeemProposal(uint256)": {
        "notice": "Use this function to reject redeem proposal. Will send it to the resolution centre"
      }
    },
    "version": 1
  }
}