{
  "contractName": "resolver",
  "abi": [
    {
      "anonymous": false,
      "inputs": [
        {
          "indexed": false,
          "internalType": "uint256",
          "name": "_rentId",
          "type": "uint256"
        }
      ],
      "name": "rentContractId",
      "type": "event"
    },
    {
      "anonymous": false,
      "inputs": [
        {
          "indexed": false,
          "internalType": "address",
          "name": "_message",
          "type": "address"
        }
      ],
      "name": "sendAddress",
      "type": "event"
    },
    {
      "anonymous": false,
      "inputs": [
        {
          "indexed": false,
          "internalType": "bool",
          "name": "_bool",
          "type": "bool"
        }
      ],
      "name": "sendBool",
      "type": "event"
    },
    {
      "anonymous": false,
      "inputs": [
        {
          "indexed": false,
          "internalType": "bytes32",
          "name": "",
          "type": "bytes32"
        }
      ],
      "name": "sendDisputeId",
      "type": "event"
    },
    {
      "anonymous": false,
      "inputs": [
        {
          "indexed": false,
          "internalType": "uint256",
          "name": "_message",
          "type": "uint256"
        }
      ],
      "name": "sendId",
      "type": "event"
    },
    {
      "anonymous": false,
      "inputs": [
        {
          "indexed": false,
          "internalType": "string",
          "name": "_message",
          "type": "string"
        }
      ],
      "name": "sendMessage",
      "type": "event"
    },
    {
      "anonymous": false,
      "inputs": [
        {
          "indexed": false,
          "internalType": "contract rentEscrow",
          "name": "_rentEscrow",
          "type": "address"
        }
      ],
      "name": "sendStruct",
      "type": "event"
    },
    {
      "inputs": [
        {
          "internalType": "address",
          "name": "",
          "type": "address"
        },
        {
          "internalType": "uint256",
          "name": "",
          "type": "uint256"
        }
      ],
      "name": "AddressToCaseMapping",
      "outputs": [
        {
          "internalType": "bytes32",
          "name": "",
          "type": "bytes32"
        }
      ],
      "stateMutability": "view",
      "type": "function"
    },
    {
      "inputs": [
        {
          "internalType": "bytes32",
          "name": "",
          "type": "bytes32"
        }
      ],
      "name": "DisputeCaseMapping",
      "outputs": [
        {
          "internalType": "bytes32",
          "name": "disputeId",
          "type": "bytes32"
        },
        {
          "internalType": "uint256",
          "name": "status",
          "type": "uint256"
        },
        {
          "internalType": "string",
          "name": "disputeDetail",
          "type": "string"
        }
      ],
      "stateMutability": "view",
      "type": "function"
    },
    {
      "inputs": [
        {
          "internalType": "uint256",
          "name": "_rentId",
          "type": "uint256"
        }
      ],
      "name": "acceptNewContract",
      "outputs": [],
      "stateMutability": "payable",
      "type": "function"
    },
    {
      "inputs": [
        {
          "internalType": "uint256",
          "name": "_rentId",
          "type": "uint256"
        }
      ],
      "name": "acceptRedeemProposal",
      "outputs": [],
      "stateMutability": "nonpayable",
      "type": "function"
    },
    {
      "inputs": [
        {
          "internalType": "address",
          "name": "",
          "type": "address"
        },
        {
          "internalType": "uint256",
          "name": "",
          "type": "uint256"
        }
      ],
      "name": "addressMapping",
      "outputs": [
        {
          "internalType": "uint256",
          "name": "",
          "type": "uint256"
        }
      ],
      "stateMutability": "view",
      "type": "function"
    },
    {
      "inputs": [
        {
          "internalType": "uint256",
          "name": "_rentId",
          "type": "uint256"
        },
        {
          "internalType": "uint256",
          "name": "_tenantShare",
          "type": "uint256"
        },
        {
          "internalType": "uint256",
          "name": "_landlordShare",
          "type": "uint256"
        },
        {
          "internalType": "uint256",
          "name": "_feeShare",
          "type": "uint256"
        },
        {
          "internalType": "address",
          "name": "_feeAddress",
          "type": "address"
        }
      ],
      "name": "createRedeemProposal",
      "outputs": [],
      "stateMutability": "nonpayable",
      "type": "function"
    },
    {
      "inputs": [],
      "name": "devGetBalance",
      "outputs": [
        {
          "internalType": "uint256",
          "name": "",
          "type": "uint256"
        }
      ],
      "stateMutability": "view",
      "type": "function"
    },
    {
      "inputs": [],
      "name": "getContractToResolve",
      "outputs": [
        {
          "components": [
            {
              "internalType": "uint256",
              "name": "rentId",
              "type": "uint256"
            },
            {
              "internalType": "address",
              "name": "tenant",
              "type": "address"
            },
            {
              "internalType": "address",
              "name": "landlord",
              "type": "address"
            },
            {
              "internalType": "uint256",
              "name": "escrowValue",
              "type": "uint256"
            },
            {
              "internalType": "string",
              "name": "contractDetail",
              "type": "string"
            },
            {
              "internalType": "string",
              "name": "status",
              "type": "string"
            },
            {
              "components": [
                {
                  "internalType": "uint256",
                  "name": "tenantShare",
                  "type": "uint256"
                },
                {
                  "internalType": "uint256",
                  "name": "landlordShare",
                  "type": "uint256"
                },
                {
                  "internalType": "uint256",
                  "name": "feeShare",
                  "type": "uint256"
                },
                {
                  "internalType": "address",
                  "name": "feeAddress",
                  "type": "address"
                },
                {
                  "internalType": "uint256",
                  "name": "proposalStatus",
                  "type": "uint256"
                }
              ],
              "internalType": "struct rentEscrowInterface.RedeemProposal",
              "name": "redeemProposal",
              "type": "tuple"
            }
          ],
          "internalType": "struct rentEscrowInterface.RentContract",
          "name": "",
          "type": "tuple"
        }
      ],
      "stateMutability": "view",
      "type": "function"
    },
    {
      "inputs": [],
      "name": "getContractsByAddress",
      "outputs": [
        {
          "internalType": "uint256[]",
          "name": "",
          "type": "uint256[]"
        }
      ],
      "stateMutability": "view",
      "type": "function"
    },
    {
      "inputs": [],
      "name": "nextRentId",
      "outputs": [
        {
          "internalType": "uint256",
          "name": "",
          "type": "uint256"
        }
      ],
      "stateMutability": "view",
      "type": "function"
    },
    {
      "inputs": [
        {
          "internalType": "uint256",
          "name": "_escrowValue",
          "type": "uint256"
        },
        {
          "internalType": "string",
          "name": "_contractDetail",
          "type": "string"
        }
      ],
      "name": "proposeNewContract",
      "outputs": [],
      "stateMutability": "nonpayable",
      "type": "function"
    },
    {
      "inputs": [
        {
          "internalType": "uint256",
          "name": "_rentId",
          "type": "uint256"
        }
      ],
      "name": "rejectRedeemProposal",
      "outputs": [],
      "stateMutability": "nonpayable",
      "type": "function"
    },
    {
      "inputs": [
        {
          "internalType": "uint256",
          "name": "",
          "type": "uint256"
        }
      ],
      "name": "rentContractsMapping",
      "outputs": [
        {
          "internalType": "uint256",
          "name": "rentId",
          "type": "uint256"
        },
        {
          "internalType": "address",
          "name": "tenant",
          "type": "address"
        },
        {
          "internalType": "address",
          "name": "landlord",
          "type": "address"
        },
        {
          "internalType": "uint256",
          "name": "escrowValue",
          "type": "uint256"
        },
        {
          "internalType": "string",
          "name": "contractDetail",
          "type": "string"
        },
        {
          "internalType": "string",
          "name": "status",
          "type": "string"
        },
        {
          "components": [
            {
              "internalType": "uint256",
              "name": "tenantShare",
              "type": "uint256"
            },
            {
              "internalType": "uint256",
              "name": "landlordShare",
              "type": "uint256"
            },
            {
              "internalType": "uint256",
              "name": "feeShare",
              "type": "uint256"
            },
            {
              "internalType": "address",
              "name": "feeAddress",
              "type": "address"
            },
            {
              "internalType": "uint256",
              "name": "proposalStatus",
              "type": "uint256"
            }
          ],
          "internalType": "struct rentEscrowInterface.RedeemProposal",
          "name": "redeemProposal",
          "type": "tuple"
        }
      ],
      "stateMutability": "view",
      "type": "function"
    },
    {
      "inputs": [
        {
          "internalType": "uint256",
          "name": "_numberOfJudges",
          "type": "uint256"
        }
      ],
      "name": "updateNumberOfJudges",
      "outputs": [],
      "stateMutability": "nonpayable",
      "type": "function"
    },
    {
      "inputs": [
        {
          "internalType": "bytes32",
          "name": "_disputeId",
          "type": "bytes32"
        }
      ],
      "name": "getDisputeCase",
      "outputs": [
        {
          "components": [
            {
              "internalType": "bytes32",
              "name": "disputeId",
              "type": "bytes32"
            },
            {
              "internalType": "uint256",
              "name": "status",
              "type": "uint256"
            },
            {
              "internalType": "address[]",
              "name": "judges",
              "type": "address[]"
            },
            {
              "internalType": "address[]",
              "name": "judgesWhoVoted",
              "type": "address[]"
            },
            {
              "internalType": "address[]",
              "name": "restrictedJudges",
              "type": "address[]"
            },
            {
              "components": [
                {
                  "internalType": "address",
                  "name": "disputePartyAddress",
                  "type": "address"
                },
                {
                  "internalType": "string",
                  "name": "documentation",
                  "type": "string"
                },
                {
                  "internalType": "uint256[]",
                  "name": "judgeVotes",
                  "type": "uint256[]"
                }
              ],
              "internalType": "struct resolver.DisputeParty[2]",
              "name": "disputeParty",
              "type": "tuple[2]"
            },
            {
              "internalType": "string",
              "name": "disputeDetail",
              "type": "string"
            }
          ],
          "internalType": "struct resolver.DisputeCase",
          "name": "",
          "type": "tuple"
        }
      ],
      "stateMutability": "view",
      "type": "function"
    },
    {
      "inputs": [],
      "name": "getMyDisputeCase",
      "outputs": [
        {
          "components": [
            {
              "internalType": "bytes32",
              "name": "disputeId",
              "type": "bytes32"
            },
            {
              "internalType": "uint256",
              "name": "status",
              "type": "uint256"
            },
            {
              "internalType": "address[]",
              "name": "judges",
              "type": "address[]"
            },
            {
              "internalType": "address[]",
              "name": "judgesWhoVoted",
              "type": "address[]"
            },
            {
              "internalType": "address[]",
              "name": "restrictedJudges",
              "type": "address[]"
            },
            {
              "components": [
                {
                  "internalType": "address",
                  "name": "disputePartyAddress",
                  "type": "address"
                },
                {
                  "internalType": "string",
                  "name": "documentation",
                  "type": "string"
                },
                {
                  "internalType": "uint256[]",
                  "name": "judgeVotes",
                  "type": "uint256[]"
                }
              ],
              "internalType": "struct resolver.DisputeParty[2]",
              "name": "disputeParty",
              "type": "tuple[2]"
            },
            {
              "internalType": "string",
              "name": "disputeDetail",
              "type": "string"
            }
          ],
          "internalType": "struct resolver.DisputeCase[]",
          "name": "",
          "type": "tuple[]"
        }
      ],
      "stateMutability": "view",
      "type": "function"
    },
    {
      "inputs": [],
      "name": "getMyDisputeCaseId",
      "outputs": [
        {
          "internalType": "bytes32[]",
          "name": "_disputeCaseId",
          "type": "bytes32[]"
        }
      ],
      "stateMutability": "view",
      "type": "function"
    },
    {
      "inputs": [
        {
          "internalType": "address",
          "name": "_rentEscrowAddress",
          "type": "address"
        }
      ],
      "name": "setRentEscrowAddress",
      "outputs": [],
      "stateMutability": "nonpayable",
      "type": "function"
    },
    {
      "inputs": [],
      "name": "getNewContractToResolve",
      "outputs": [],
      "stateMutability": "nonpayable",
      "type": "function"
    },
    {
      "inputs": [],
      "name": "assignJudge",
      "outputs": [],
      "stateMutability": "nonpayable",
      "type": "function"
    },
    {
      "inputs": [
        {
          "internalType": "uint256[2]",
          "name": "_judgeVote",
          "type": "uint256[2]"
        },
        {
          "internalType": "bytes32",
          "name": "_disputeId",
          "type": "bytes32"
        }
      ],
      "name": "castVote",
      "outputs": [],
      "stateMutability": "nonpayable",
      "type": "function"
    }
  ],
  "bytecode": "0x608060405260006002556000600655600360075534801561001f57600080fd5b506144e28061002f6000396000f3fe60806040526004361061012a5760003560e01c806385b58963116100ab578063b102b3701161006f578063b102b370146103ad578063b59146f7146103ec578063b61f5f5314610415578063eafe993414610440578063fb72d92a1461046b578063fcfe7b51146104a85761012a565b806385b58963146102d95780638db28504146102f5578063951283311461031e57806396d65c3e14610347578063a6dd4276146103845761012a565b80634232dfed116100f25780634232dfed146102025780636b695d241461022b5780637395eb411461026e5780637ad637d8146102995780637afc2d56146102b05761012a565b8063039ed5011461012f5780630836e7d01461015a5780630e593bc3146101975780632458cc3e146101ae5780633d45370c146101d9575b600080fd5b34801561013b57600080fd5b506101446104d3565b6040516101519190612b27565b60405180910390f35b34801561016657600080fd5b50610181600480360381019061017c9190612b8c565b6104d9565b60405161018e9190612fd4565b60405180910390f35b3480156101a357600080fd5b506101ac6108e2565b005b3480156101ba57600080fd5b506101c3610af0565b6040516101d09190612b27565b60405180910390f35b3480156101e557600080fd5b5061020060048036038101906101fb919061304e565b610af8565b005b34801561020e57600080fd5b50610229600480360381019061022491906130c9565b610ccd565b005b34801561023757600080fd5b50610252600480360381019061024d91906130c9565b610cd7565b60405161026597969594939291906131b7565b60405180910390f35b34801561027a57600080fd5b50610283610ef1565b6040516102909190613341565b60405180910390f35b3480156102a557600080fd5b506102ae611198565b005b3480156102bc57600080fd5b506102d760048036038101906102d291906130c9565b61164c565b005b6102f360048036038101906102ee91906130c9565b611a06565b005b34801561030157600080fd5b5061031c60048036038101906103179190613363565b611abd565b005b34801561032a57600080fd5b50610345600480360381019061034091906134c6565b611b5a565b005b34801561035357600080fd5b5061036e60048036038101906103699190613506565b611cab565b60405161037b9190612b27565b60405180910390f35b34801561039057600080fd5b506103ab60048036038101906103a691906130c9565b611cdc565b005b3480156103b957600080fd5b506103d460048036038101906103cf9190612b8c565b611fe3565b6040516103e393929190613555565b60405180910390f35b3480156103f857600080fd5b50610413600480360381019061040e9190613648565b612095565b005b34801561042157600080fd5b5061042a6122c5565b6040516104379190613713565b60405180910390f35b34801561044c57600080fd5b5061045561235a565b60405161046291906137e4565b60405180910390f35b34801561047757600080fd5b50610492600480360381019061048d9190613506565b6123ef565b60405161049f9190613806565b60405180910390f35b3480156104b457600080fd5b506104bd612420565b6040516104ca919061399b565b60405180910390f35b60025481565b6104e16128c0565b600860008381526020019081526020016000206040518060e001604052908160008201548152602001600182015481526020016002820180548060200260200160405190810160405280929190818152602001828054801561059857602002820191906000526020600020905b8160009054906101000a900473ffffffffffffffffffffffffffffffffffffffff1673ffffffffffffffffffffffffffffffffffffffff168152602001906001019080831161054e575b505050505081526020016003820180548060200260200160405190810160405280929190818152602001828054801561062657602002820191906000526020600020905b8160009054906101000a900473ffffffffffffffffffffffffffffffffffffffff1673ffffffffffffffffffffffffffffffffffffffff16815260200190600101908083116105dc575b50505050508152602001600482018054806020026020016040519081016040528092919081815260200182805480156106b457602002820191906000526020600020905b8160009054906101000a900473ffffffffffffffffffffffffffffffffffffffff1673ffffffffffffffffffffffffffffffffffffffff168152602001906001019080831161066a575b5050505050815260200160058201600280602002604051908101604052809291906000905b82821015610841578382600302016040518060600160405290816000820160009054906101000a900473ffffffffffffffffffffffffffffffffffffffff1673ffffffffffffffffffffffffffffffffffffffff1673ffffffffffffffffffffffffffffffffffffffff168152602001600182018054610758906139ec565b80601f0160208091040260200160405190810160405280929190818152602001828054610784906139ec565b80156107d15780601f106107a6576101008083540402835291602001916107d1565b820191906000526020600020905b8154815290600101906020018083116107b457829003601f168201915b505050505081526020016002820180548060200260200160405190810160405280929190818152602001828054801561082957602002820191906000526020600020905b815481526020019060010190808311610815575b505050505081525050815260200190600101906106d9565b505050508152602001600b82018054610859906139ec565b80601f0160208091040260200160405190810160405280929190818152602001828054610885906139ec565b80156108d25780601f106108a7576101008083540402835291602001916108d2565b820191906000526020600020905b8154815290600101906020018083116108b557829003601f168201915b5050505050815250509050919050565b60001515600460000160009054906101000a900460ff161515141561090a57610909611198565b5b61092a6008600060046001015481526020019081526020016000206124f0565b610969576040517f08c379a000000000000000000000000000000000000000000000000000000000815260040161096090613a6a565b60405180910390fd5b7fdf247fdfb29d1a7f4a949e81abe1b391f62b391f1c1c0a258bdccbe7b9655952600860006004600101548152602001908152602001600020600001546040516109b39190613806565b60405180910390a1600860006004600101548152602001908152602001600020600201339080600181540180825580915050600190039060005260206000200160009091909190916101000a81548173ffffffffffffffffffffffffffffffffffffffff021916908373ffffffffffffffffffffffffffffffffffffffff160217905550600960003373ffffffffffffffffffffffffffffffffffffffff1673ffffffffffffffffffffffffffffffffffffffff1681526020019081526020016000206008600060046001015481526020019081526020016000206000015490806001815401808255809150506001900390600052602060002001600090919091909150556007546008600060046001015481526020019081526020016000206002018054905010610aee57610aed60008060001b61267f565b5b565b600047905090565b6000828486610b079190613ab9565b610b119190613ab9565b905060648114610b56576040517f08c379a0000000000000000000000000000000000000000000000000000000008152600401610b4d90613b81565b60405180910390fd5b60008087815260200190815260200160002060020160009054906101000a900473ffffffffffffffffffffffffffffffffffffffff1673ffffffffffffffffffffffffffffffffffffffff163373ffffffffffffffffffffffffffffffffffffffff1614610bf9576040517f08c379a0000000000000000000000000000000000000000000000000000000008152600401610bf090613c13565b60405180910390fd5b8460008088815260200190815260200160002060060160000181905550836000808881526020019081526020016000206006016001018190555082600080888152602001908152602001600020600601600201819055508160008088815260200190815260200160002060060160030160006101000a81548173ffffffffffffffffffffffffffffffffffffffff021916908373ffffffffffffffffffffffffffffffffffffffff160217905550606460008088815260200190815260200160002060060160040181905550505050505050565b8060078190555050565b60006020528060005260406000206000915090508060000154908060010160009054906101000a900473ffffffffffffffffffffffffffffffffffffffff16908060020160009054906101000a900473ffffffffffffffffffffffffffffffffffffffff1690806003015490806004018054610d52906139ec565b80601f0160208091040260200160405190810160405280929190818152602001828054610d7e906139ec565b8015610dcb5780601f10610da057610100808354040283529160200191610dcb565b820191906000526020600020905b815481529060010190602001808311610dae57829003601f168201915b505050505090806005018054610de0906139ec565b80601f0160208091040260200160405190810160405280929190818152602001828054610e0c906139ec565b8015610e595780601f10610e2e57610100808354040283529160200191610e59565b820191906000526020600020905b815481529060010190602001808311610e3c57829003601f168201915b505050505090806006016040518060a00160405290816000820154815260200160018201548152602001600282015481526020016003820160009054906101000a900473ffffffffffffffffffffffffffffffffffffffff1673ffffffffffffffffffffffffffffffffffffffff1673ffffffffffffffffffffffffffffffffffffffff168152602001600482015481525050905087565b610ef9612906565b6000600190506000808281526020019081526020016000206040518060e0016040529081600082015481526020016001820160009054906101000a900473ffffffffffffffffffffffffffffffffffffffff1673ffffffffffffffffffffffffffffffffffffffff1673ffffffffffffffffffffffffffffffffffffffff1681526020016002820160009054906101000a900473ffffffffffffffffffffffffffffffffffffffff1673ffffffffffffffffffffffffffffffffffffffff1673ffffffffffffffffffffffffffffffffffffffff16815260200160038201548152602001600482018054610fec906139ec565b80601f0160208091040260200160405190810160405280929190818152602001828054611018906139ec565b80156110655780601f1061103a57610100808354040283529160200191611065565b820191906000526020600020905b81548152906001019060200180831161104857829003601f168201915b5050505050815260200160058201805461107e906139ec565b80601f01602080910402602001604051908101604052809291908181526020018280546110aa906139ec565b80156110f75780601f106110cc576101008083540402835291602001916110f7565b820191906000526020600020905b8154815290600101906020018083116110da57829003601f168201915b50505050508152602001600682016040518060a00160405290816000820154815260200160018201548152602001600282015481526020016003820160009054906101000a900473ffffffffffffffffffffffffffffffffffffffff1673ffffffffffffffffffffffffffffffffffffffff1673ffffffffffffffffffffffffffffffffffffffff1681526020016004820154815250508152505091505090565b6000600360009054906101000a900473ffffffffffffffffffffffffffffffffffffffff16905060008173ffffffffffffffffffffffffffffffffffffffff16637395eb416040518163ffffffff1660e01b8152600401600060405180830381865afa15801561120c573d6000803e3d6000fd5b505050506040513d6000823e3d601f19601f820116820180604052508101906112359190613e50565b90506000600654826000015161124b9190613ab9565b60405160200161125b9190613eba565b6040516020818303038152906040528051906020012090506006600081548092919061128690613ed5565b91905055506000600860008381526020019081526020016000209050818160000181905550606481600101819055506040518060400160405280600581526020017f48656c6c6f00000000000000000000000000000000000000000000000000000081525081600b019080519060200190611302929190612975565b5060006040518060600160405280856040015173ffffffffffffffffffffffffffffffffffffffff168152602001604051806020016040528060008152508152602001600067ffffffffffffffff8111156113605761135f613395565b5b60405190808252806020026020018201604052801561138e5781602001602082028036833780820191505090505b50815250905060006040518060600160405280866020015173ffffffffffffffffffffffffffffffffffffffff168152602001604051806020016040528060008152508152602001600067ffffffffffffffff8111156113f1576113f0613395565b5b60405190808252806020026020018201604052801561141f5781602001602082028036833780820191505090505b508152509050818360050160006002811061143d5761143c613f1e565b5b6003020160008201518160000160006101000a81548173ffffffffffffffffffffffffffffffffffffffff021916908373ffffffffffffffffffffffffffffffffffffffff16021790555060208201518160010190805190602001906114a4929190612975565b5060408201518160020190805190602001906114c19291906129fb565b5090505080836005016001600281106114dd576114dc613f1e565b5b6003020160008201518160000160006101000a81548173ffffffffffffffffffffffffffffffffffffffff021916908373ffffffffffffffffffffffffffffffffffffffff1602179055506020820151816001019080519060200190611544929190612975565b5060408201518160020190805190602001906115619291906129fb565b5090505060096000866040015173ffffffffffffffffffffffffffffffffffffffff1673ffffffffffffffffffffffffffffffffffffffff16815260200190815260200160002084908060018154018082558091505060019003906000526020600020016000909190919091505560096000866020015173ffffffffffffffffffffffffffffffffffffffff1673ffffffffffffffffffffffffffffffffffffffff16815260200190815260200160002084908060018154018082558091505060019003906000526020600020016000909190919091505561164460018561267f565b505050505050565b60008082815260200190815260200160002060010160009054906101000a900473ffffffffffffffffffffffffffffffffffffffff1673ffffffffffffffffffffffffffffffffffffffff163373ffffffffffffffffffffffffffffffffffffffff16146116ef576040517f08c379a00000000000000000000000000000000000000000000000000000000081526004016116e690613fbf565b60405180910390fd5b6000806000838152602001908152602001600020600301549050600080600084815260200190815260200160002060010160009054906101000a900473ffffffffffffffffffffffffffffffffffffffff16905060006064600080868152602001908152602001600020600601600001548461176b9190613fdf565b6117759190614068565b9050600080600086815260200190815260200160002060020160009054906101000a900473ffffffffffffffffffffffffffffffffffffffff1690506000606460008088815260200190815260200160002060060160010154866117d99190613fdf565b6117e39190614068565b9050600080600088815260200190815260200160002060060160030160009054906101000a900473ffffffffffffffffffffffffffffffffffffffff169050600060646000808a8152602001908152602001600020600601600201548861184a9190613fdf565b6118549190614068565b9050868184876118649190613ab9565b61186e9190613ab9565b146118ae576040517f08c379a00000000000000000000000000000000000000000000000000000000081526004016118a590614131565b60405180910390fd5b60646000808a81526020019081526020016000206006016004015414611909576040517f08c379a00000000000000000000000000000000000000000000000000000000081526004016119009061419d565b60405180910390fd5b60c86000808a8152602001908152602001600020600601600401819055508573ffffffffffffffffffffffffffffffffffffffff166108fc869081150290604051600060405180830381858888f1935050505015801561196d573d6000803e3d6000fd5b508373ffffffffffffffffffffffffffffffffffffffff166108fc849081150290604051600060405180830381858888f193505050501580156119b4573d6000803e3d6000fd5b508173ffffffffffffffffffffffffffffffffffffffff166108fc829081150290604051600060405180830381858888f193505050501580156119fb573d6000803e3d6000fd5b505050505050505050565b600080828152602001908152602001600020600301543414611a5d576040517f08c379a0000000000000000000000000000000000000000000000000000000008152600401611a549061422f565b60405180910390fd5b3360008083815260200190815260200160002060010160006101000a81548173ffffffffffffffffffffffffffffffffffffffff021916908373ffffffffffffffffffffffffffffffffffffffff160217905550611aba816126aa565b50565b80600360006101000a81548173ffffffffffffffffffffffffffffffffffffffff021916908373ffffffffffffffffffffffffffffffffffffffff1602179055507ff3cefb6580958289ed59682f8efcbb4cc6003c65fc36e951618d6809896a407b600360009054906101000a900473ffffffffffffffffffffffffffffffffffffffff16604051611b4f919061424f565b60405180910390a150565b6000600860008381526020019081526020016000209050611b7a81612713565b80600501600060028110611b9157611b90613f1e565b5b6003020160020183600060028110611bac57611bab613f1e565b5b6020020151908060018154018082558091505060019003906000526020600020016000909190919091505580600501600160028110611bee57611bed613f1e565b5b6003020160020183600160028110611c0957611c08613f1e565b5b602002015190806001815401808255809150506001900390600052602060002001600090919091909150557f355627877af82ad074db681f3c3f5dd9909f4cbfe8bb2fcfbc4061ffa25704e181600501600060028110611c6c57611c6b613f1e565b5b60030201600201600081548110611c8657611c85613f1e565b5b9060005260206000200154604051611c9e9190612b27565b60405180910390a1505050565b60016020528160005260406000208181548110611cc757600080fd5b90600052602060002001600091509150505481565b60008082815260200190815260200160002060010160009054906101000a900473ffffffffffffffffffffffffffffffffffffffff1673ffffffffffffffffffffffffffffffffffffffff163373ffffffffffffffffffffffffffffffffffffffff161480611dab575060008082815260200190815260200160002060020160009054906101000a900473ffffffffffffffffffffffffffffffffffffffff1673ffffffffffffffffffffffffffffffffffffffff163373ffffffffffffffffffffffffffffffffffffffff16145b611dea576040517f08c379a0000000000000000000000000000000000000000000000000000000008152600401611de1906142dc565b60405180910390fd5b61012d6000808381526020019081526020016000206006016004015414158015611e2e575061012e6000808381526020019081526020016000206006016004015414155b611e6d576040517f08c379a0000000000000000000000000000000000000000000000000000000008152600401611e6490614348565b60405180910390fd5b60c8600080838152602001908152602001600020600601600401541415611ec9576040517f08c379a0000000000000000000000000000000000000000000000000000000008152600401611ec0906143b4565b60405180910390fd5b60008082815260200190815260200160002060020160009054906101000a900473ffffffffffffffffffffffffffffffffffffffff1673ffffffffffffffffffffffffffffffffffffffff163373ffffffffffffffffffffffffffffffffffffffff161415611f565761012d60008083815260200190815260200160002060060160040181905550611fe0565b60008082815260200190815260200160002060010160009054906101000a900473ffffffffffffffffffffffffffffffffffffffff1673ffffffffffffffffffffffffffffffffffffffff163373ffffffffffffffffffffffffffffffffffffffff161415611fdf5761012e600080838152602001908152602001600020600601600401819055505b5b50565b600860205280600052604060002060009150905080600001549080600101549080600b018054612012906139ec565b80601f016020809104026020016040519081016040528092919081815260200182805461203e906139ec565b801561208b5780601f106120605761010080835404028352916020019161208b565b820191906000526020600020905b81548152906001019060200180831161206e57829003601f168201915b5050505050905083565b61209d612906565b60025481600001818152505033816040019073ffffffffffffffffffffffffffffffffffffffff16908173ffffffffffffffffffffffffffffffffffffffff1681525050828160600181815250508181608001819052508060008060025481526020019081526020016000206000820151816000015560208201518160010160006101000a81548173ffffffffffffffffffffffffffffffffffffffff021916908373ffffffffffffffffffffffffffffffffffffffff16021790555060408201518160020160006101000a81548173ffffffffffffffffffffffffffffffffffffffff021916908373ffffffffffffffffffffffffffffffffffffffff1602179055506060820151816003015560808201518160040190805190602001906121c7929190612975565b5060a08201518160050190805190602001906121e4929190612975565b5060c08201518160060160008201518160000155602082015181600101556040820151816002015560608201518160030160006101000a81548173ffffffffffffffffffffffffffffffffffffffff021916908373ffffffffffffffffffffffffffffffffffffffff16021790555060808201518160040155505090505061226d6002546126aa565b7fa44f460f2ac523b4a38d95d97950a776d7bf0adbaff2501d321f040e3d661e4660025460405161229e9190612b27565b60405180910390a16001600260008282546122b99190613ab9565b92505081905550505050565b6060600160003373ffffffffffffffffffffffffffffffffffffffff1673ffffffffffffffffffffffffffffffffffffffff16815260200190815260200160002080548060200260200160405190810160405280929190818152602001828054801561235057602002820191906000526020600020905b81548152602001906001019080831161233c575b5050505050905090565b6060600960003373ffffffffffffffffffffffffffffffffffffffff1673ffffffffffffffffffffffffffffffffffffffff1681526020019081526020016000208054806020026020016040519081016040528092919081815260200182805480156123e557602002820191906000526020600020905b8154815260200190600101908083116123d1575b5050505050905090565b6009602052816000526040600020818154811061240b57600080fd5b90600052602060002001600091509150505481565b6060600061242c61235a565b90506000815167ffffffffffffffff81111561244b5761244a613395565b5b60405190808252806020026020018201604052801561248457816020015b6124716128c0565b8152602001906001900390816124695790505b50905060005b82518110156124e7576124b68382815181106124a9576124a8613f1e565b5b60200260200101516104d9565b8282815181106124c9576124c8613f1e565b5b602002602001018190525080806124df90613ed5565b91505061248a565b50809250505090565b600080600080600090505b84600201805490508110156125a6578460020181815481106125205761251f613f1e565b5b9060005260206000200160009054906101000a900473ffffffffffffffffffffffffffffffffffffffff1673ffffffffffffffffffffffffffffffffffffffff163373ffffffffffffffffffffffffffffffffffffffff16146125835782612591565b6001836125909190613ab9565b5b9250808061259e90613ed5565b9150506124fb565b5060005b6002811015612658578460050181600281106125c9576125c8613f1e565b5b6003020160000160009054906101000a900473ffffffffffffffffffffffffffffffffffffffff1673ffffffffffffffffffffffffffffffffffffffff163373ffffffffffffffffffffffffffffffffffffffff1614612635576000826126309190613ab9565b612643565b6001826126429190613ab9565b5b9150808061265090613ed5565b9150506125aa565b50600081836126679190613ab9565b14612673576000612676565b60015b92505050919050565b81600460000160006101000a81548160ff021916908315150217905550806004600101819055505050565b600160003373ffffffffffffffffffffffffffffffffffffffff1673ffffffffffffffffffffffffffffffffffffffff16815260200190815260200160002081908060018154018082558091505060019003906000526020600020016000909190919091505550565b60005b81600201805490508110156127e75781600201818154811061273b5761273a613f1e565b5b9060005260206000200160009054906101000a900473ffffffffffffffffffffffffffffffffffffffff1673ffffffffffffffffffffffffffffffffffffffff163373ffffffffffffffffffffffffffffffffffffffff1614156127d4576040517f08c379a00000000000000000000000000000000000000000000000000000000081526004016127cb90614420565b60405180910390fd5b80806127df90613ed5565b915050612716565b5060005b81600301805490508110156128bc578160030181815481106128105761280f613f1e565b5b9060005260206000200160009054906101000a900473ffffffffffffffffffffffffffffffffffffffff1673ffffffffffffffffffffffffffffffffffffffff163373ffffffffffffffffffffffffffffffffffffffff1614156128a9576040517f08c379a00000000000000000000000000000000000000000000000000000000081526004016128a09061448c565b60405180910390fd5b80806128b490613ed5565b9150506127eb565b5050565b6040518060e0016040528060008019168152602001600081526020016060815260200160608152602001606081526020016128f9612a48565b8152602001606081525090565b6040518060e0016040528060008152602001600073ffffffffffffffffffffffffffffffffffffffff168152602001600073ffffffffffffffffffffffffffffffffffffffff16815260200160008152602001606081526020016060815260200161296f612a75565b81525090565b828054612981906139ec565b90600052602060002090601f0160209004810192826129a357600085556129ea565b82601f106129bc57805160ff19168380011785556129ea565b828001600101855582156129ea579182015b828111156129e95782518255916020019190600101906129ce565b5b5090506129f79190612aba565b5090565b828054828255906000526020600020908101928215612a37579160200282015b82811115612a36578251825591602001919060010190612a1b565b5b509050612a449190612aba565b5090565b60405180604001604052806002905b612a5f612ad7565b815260200190600190039081612a575790505090565b6040518060a00160405280600081526020016000815260200160008152602001600073ffffffffffffffffffffffffffffffffffffffff168152602001600081525090565b5b80821115612ad3576000816000905550600101612abb565b5090565b6040518060600160405280600073ffffffffffffffffffffffffffffffffffffffff16815260200160608152602001606081525090565b6000819050919050565b612b2181612b0e565b82525050565b6000602082019050612b3c6000830184612b18565b92915050565b6000604051905090565b600080fd5b600080fd5b6000819050919050565b612b6981612b56565b8114612b7457600080fd5b50565b600081359050612b8681612b60565b92915050565b600060208284031215612ba257612ba1612b4c565b5b6000612bb084828501612b77565b91505092915050565b612bc281612b56565b82525050565b612bd181612b0e565b82525050565b600081519050919050565b600082825260208201905092915050565b6000819050602082019050919050565b600073ffffffffffffffffffffffffffffffffffffffff82169050919050565b6000612c2e82612c03565b9050919050565b612c3e81612c23565b82525050565b6000612c508383612c35565b60208301905092915050565b6000602082019050919050565b6000612c7482612bd7565b612c7e8185612be2565b9350612c8983612bf3565b8060005b83811015612cba578151612ca18882612c44565b9750612cac83612c5c565b925050600181019050612c8d565b5085935050505092915050565b600060029050919050565b600081905092915050565b6000819050919050565b600081519050919050565b600082825260208201905092915050565b60005b83811015612d21578082015181840152602081019050612d06565b83811115612d30576000848401525b50505050565b6000601f19601f8301169050919050565b6000612d5282612ce7565b612d5c8185612cf2565b9350612d6c818560208601612d03565b612d7581612d36565b840191505092915050565b600081519050919050565b600082825260208201905092915050565b6000819050602082019050919050565b6000612db88383612bc8565b60208301905092915050565b6000602082019050919050565b6000612ddc82612d80565b612de68185612d8b565b9350612df183612d9c565b8060005b83811015612e22578151612e098882612dac565b9750612e1483612dc4565b925050600181019050612df5565b5085935050505092915050565b6000606083016000830151612e476000860182612c35565b5060208301518482036020860152612e5f8282612d47565b91505060408301518482036040860152612e798282612dd1565b9150508091505092915050565b6000612e928383612e2f565b905092915050565b6000602082019050919050565b6000612eb282612cc7565b612ebc8185612cd2565b935083602082028501612ece85612cdd565b8060005b85811015612f0a5784840389528151612eeb8582612e86565b9450612ef683612e9a565b925060208a01995050600181019050612ed2565b50829750879550505050505092915050565b600060e083016000830151612f346000860182612bb9565b506020830151612f476020860182612bc8565b5060408301518482036040860152612f5f8282612c69565b91505060608301518482036060860152612f798282612c69565b91505060808301518482036080860152612f938282612c69565b91505060a083015184820360a0860152612fad8282612ea7565b91505060c083015184820360c0860152612fc78282612d47565b9150508091505092915050565b60006020820190508181036000830152612fee8184612f1c565b905092915050565b612fff81612b0e565b811461300a57600080fd5b50565b60008135905061301c81612ff6565b92915050565b61302b81612c23565b811461303657600080fd5b50565b60008135905061304881613022565b92915050565b600080600080600060a0868803121561306a57613069612b4c565b5b60006130788882890161300d565b95505060206130898882890161300d565b945050604061309a8882890161300d565b93505060606130ab8882890161300d565b92505060806130bc88828901613039565b9150509295509295909350565b6000602082840312156130df576130de612b4c565b5b60006130ed8482850161300d565b91505092915050565b6130ff81612c23565b82525050565b600082825260208201905092915050565b600061312182612ce7565b61312b8185613105565b935061313b818560208601612d03565b61314481612d36565b840191505092915050565b60a0820160008201516131656000850182612bc8565b5060208201516131786020850182612bc8565b50604082015161318b6040850182612bc8565b50606082015161319e6060850182612c35565b5060808201516131b16080850182612bc8565b50505050565b6000610160820190506131cd600083018a612b18565b6131da60208301896130f6565b6131e760408301886130f6565b6131f46060830187612b18565b81810360808301526132068186613116565b905081810360a083015261321a8185613116565b905061322960c083018461314f565b98975050505050505050565b60a08201600082015161324b6000850182612bc8565b50602082015161325e6020850182612bc8565b5060408201516132716040850182612bc8565b5060608201516132846060850182612c35565b5060808201516132976080850182612bc8565b50505050565b6000610160830160008301516132b66000860182612bc8565b5060208301516132c96020860182612c35565b5060408301516132dc6040860182612c35565b5060608301516132ef6060860182612bc8565b50608083015184820360808601526133078282612d47565b91505060a083015184820360a08601526133218282612d47565b91505060c083015161333660c0860182613235565b508091505092915050565b6000602082019050818103600083015261335b818461329d565b905092915050565b60006020828403121561337957613378612b4c565b5b600061338784828501613039565b91505092915050565b600080fd5b7f4e487b7100000000000000000000000000000000000000000000000000000000600052604160045260246000fd5b6133cd82612d36565b810181811067ffffffffffffffff821117156133ec576133eb613395565b5b80604052505050565b60006133ff612b42565b905061340b82826133c4565b919050565b600067ffffffffffffffff82111561342b5761342a613395565b5b602082029050919050565b600080fd5b600061344e61344984613410565b6133f5565b9050806020840283018581111561346857613467613436565b5b835b81811015613491578061347d888261300d565b84526020840193505060208101905061346a565b5050509392505050565b600082601f8301126134b0576134af613390565b5b60026134bd84828561343b565b91505092915050565b600080606083850312156134dd576134dc612b4c565b5b60006134eb8582860161349b565b92505060406134fc85828601612b77565b9150509250929050565b6000806040838503121561351d5761351c612b4c565b5b600061352b85828601613039565b925050602061353c8582860161300d565b9150509250929050565b61354f81612b56565b82525050565b600060608201905061356a6000830186613546565b6135776020830185612b18565b81810360408301526135898184613116565b9050949350505050565b600080fd5b600067ffffffffffffffff8211156135b3576135b2613395565b5b6135bc82612d36565b9050602081019050919050565b82818337600083830152505050565b60006135eb6135e684613598565b6133f5565b90508281526020810184848401111561360757613606613593565b5b6136128482856135c9565b509392505050565b600082601f83011261362f5761362e613390565b5b813561363f8482602086016135d8565b91505092915050565b6000806040838503121561365f5761365e612b4c565b5b600061366d8582860161300d565b925050602083013567ffffffffffffffff81111561368e5761368d612b51565b5b61369a8582860161361a565b9150509250929050565b600082825260208201905092915050565b60006136c082612d80565b6136ca81856136a4565b93506136d583612d9c565b8060005b838110156137065781516136ed8882612dac565b97506136f883612dc4565b9250506001810190506136d9565b5085935050505092915050565b6000602082019050818103600083015261372d81846136b5565b905092915050565b600081519050919050565b600082825260208201905092915050565b6000819050602082019050919050565b600061376d8383612bb9565b60208301905092915050565b6000602082019050919050565b600061379182613735565b61379b8185613740565b93506137a683613751565b8060005b838110156137d75781516137be8882613761565b97506137c983613779565b9250506001810190506137aa565b5085935050505092915050565b600060208201905081810360008301526137fe8184613786565b905092915050565b600060208201905061381b6000830184613546565b92915050565b600081519050919050565b600082825260208201905092915050565b6000819050602082019050919050565b600060e0830160008301516138656000860182612bb9565b5060208301516138786020860182612bc8565b50604083015184820360408601526138908282612c69565b915050606083015184820360608601526138aa8282612c69565b915050608083015184820360808601526138c48282612c69565b91505060a083015184820360a08601526138de8282612ea7565b91505060c083015184820360c08601526138f88282612d47565b9150508091505092915050565b6000613911838361384d565b905092915050565b6000602082019050919050565b600061393182613821565b61393b818561382c565b93508360208202850161394d8561383d565b8060005b85811015613989578484038952815161396a8582613905565b945061397583613919565b925060208a01995050600181019050613951565b50829750879550505050505092915050565b600060208201905081810360008301526139b58184613926565b905092915050565b7f4e487b7100000000000000000000000000000000000000000000000000000000600052602260045260246000fd5b60006002820490506001821680613a0457607f821691505b60208210811415613a1857613a176139bd565b5b50919050565b7f5468697320616464726573732063616e6e6f74206265206a7564676500000000600082015250565b6000613a54601c83613105565b9150613a5f82613a1e565b602082019050919050565b60006020820190508181036000830152613a8381613a47565b9050919050565b7f4e487b7100000000000000000000000000000000000000000000000000000000600052601160045260246000fd5b6000613ac482612b0e565b9150613acf83612b0e565b9250827fffffffffffffffffffffffffffffffffffffffffffffffffffffffffffffffff03821115613b0457613b03613a8a565b5b828201905092915050565b7f54656e616e745368617265202b204c616e646c6f7264205368617265202b204660008201527f6565205368617265206973206e6f742031303025000000000000000000000000602082015250565b6000613b6b603483613105565b9150613b7682613b0f565b604082019050919050565b60006020820190508181036000830152613b9a81613b5e565b9050919050565b7f4f6e6c79204c616e646c6f72642063616e206372656174652072656465656d2060008201527f70726f706f73616c000000000000000000000000000000000000000000000000602082015250565b6000613bfd602883613105565b9150613c0882613ba1565b604082019050919050565b60006020820190508181036000830152613c2c81613bf0565b9050919050565b600080fd5b600080fd5b600081519050613c4c81612ff6565b92915050565b600081519050613c6181613022565b92915050565b6000613c7a613c7584613598565b6133f5565b905082815260208101848484011115613c9657613c95613593565b5b613ca1848285612d03565b509392505050565b600082601f830112613cbe57613cbd613390565b5b8151613cce848260208601613c67565b91505092915050565b600060a08284031215613ced57613cec613c33565b5b613cf760a06133f5565b90506000613d0784828501613c3d565b6000830152506020613d1b84828501613c3d565b6020830152506040613d2f84828501613c3d565b6040830152506060613d4384828501613c52565b6060830152506080613d5784828501613c3d565b60808301525092915050565b60006101608284031215613d7a57613d79613c33565b5b613d8460e06133f5565b90506000613d9484828501613c3d565b6000830152506020613da884828501613c52565b6020830152506040613dbc84828501613c52565b6040830152506060613dd084828501613c3d565b606083015250608082015167ffffffffffffffff811115613df457613df3613c38565b5b613e0084828501613ca9565b60808301525060a082015167ffffffffffffffff811115613e2457613e23613c38565b5b613e3084828501613ca9565b60a08301525060c0613e4484828501613cd7565b60c08301525092915050565b600060208284031215613e6657613e65612b4c565b5b600082015167ffffffffffffffff811115613e8457613e83612b51565b5b613e9084828501613d63565b91505092915050565b6000819050919050565b613eb4613eaf82612b0e565b613e99565b82525050565b6000613ec68284613ea3565b60208201915081905092915050565b6000613ee082612b0e565b91507fffffffffffffffffffffffffffffffffffffffffffffffffffffffffffffffff821415613f1357613f12613a8a565b5b600182019050919050565b7f4e487b7100000000000000000000000000000000000000000000000000000000600052603260045260246000fd5b7f4f6e6c792074656e616e742063616e206163636570742072656465656d20707260008201527f6f706f73616c0000000000000000000000000000000000000000000000000000602082015250565b6000613fa9602683613105565b9150613fb482613f4d565b604082019050919050565b60006020820190508181036000830152613fd881613f9c565b9050919050565b6000613fea82612b0e565b9150613ff583612b0e565b9250817fffffffffffffffffffffffffffffffffffffffffffffffffffffffffffffffff048311821515161561402e5761402d613a8a565b5b828202905092915050565b7f4e487b7100000000000000000000000000000000000000000000000000000000600052601260045260246000fd5b600061407382612b0e565b915061407e83612b0e565b92508261408e5761408d614039565b5b828204905092915050565b7f54656e616e745368617265202b204c616e646c6f7264205368617265202b204660008201527f656520536861726520646f6573206e6f7420657175616c20457363726f77205660208201527f616c756500000000000000000000000000000000000000000000000000000000604082015250565b600061411b604483613105565b915061412682614099565b606082019050919050565b6000602082019050818103600083015261414a8161410e565b9050919050565b7f457363726f7720686173206265656e20616c726561642072656465656d65642e600082015250565b6000614187602083613105565b915061419282614151565b602082019050919050565b600060208201905081810360008301526141b68161417a565b9050919050565b7f4574682073656e74206973206e6f742073616d6520617320657363726f77566160008201527f6c75650000000000000000000000000000000000000000000000000000000000602082015250565b6000614219602383613105565b9150614224826141bd565b604082019050919050565b600060208201905081810360008301526142488161420c565b9050919050565b600060208201905061426460008301846130f6565b92915050565b7f4f6e6c792074656e616e74206f72206c616e646c6f72642063616e206163636560008201527f70742072656465656d2070726f706f73616c0000000000000000000000000000602082015250565b60006142c6603283613105565b91506142d18261426a565b604082019050919050565b600060208201905081810360008301526142f5816142b9565b9050919050565b7f416c72656164792072656a656374656400000000000000000000000000000000600082015250565b6000614332601083613105565b915061433d826142fc565b602082019050919050565b6000602082019050818103600083015261436181614325565b9050919050565b7f416c726561647920616363657074656400000000000000000000000000000000600082015250565b600061439e601083613105565b91506143a982614368565b602082019050919050565b600060208201905081810360008301526143cd81614391565b9050919050565b7f41646472657373206e6f742061206a7564676500000000000000000000000000600082015250565b600061440a601383613105565b9150614415826143d4565b602082019050919050565b60006020820190508181036000830152614439816143fd565b9050919050565b7f4a7564676520416c726561647920766f74656400000000000000000000000000600082015250565b6000614476601383613105565b915061448182614440565b602082019050919050565b600060208201905081810360008301526144a581614469565b905091905056fea26469706673582212208e843b29916c61b1d8331a80776d953761cd3498eba4be3da5507c667865daa964736f6c634300080a0033",
  "immutableReferences": {},
  "source": "pragma solidity ^0.8.10;\nimport \"./rentEscrow.sol\";\n\ncontract resolver is rentEscrow {\n    ///@dev events for production\n    event sendDisputeId(bytes32);\n    //event sendTenant (uint _id);\n    ///@dev events for development\n    event sendMessage (string _message);\n    event sendAddress (address _message);\n    event sendId (uint _message);\n    event sendStruct (rentEscrow _rentEscrow);\n    event sendBool (bool _bool);\n\n    address rentEscrowAddress;\n\n    ///@param id case identifier. Currently same as rentContract. \n    ///@param status status of the case. 100: waiting for judge 200: waiting for resolution 300: resolved\n    ///@param judges addreses that are assigned to resolve the dispute\n    ///@param restrictedJudges addresses that cannot be assigned as judge (among others: tenant, landlord)\n    ///@param disputeDetail  bears details about the case. Currenly a placeholder aim is to link this to some IPFS file\n    ///@param partialResult contains voting of each judge\n    ///@param finalResult contains final result after each judge casted their vote\n    \n    struct DisputeCase {\n        bytes32 disputeId;\n        uint status;\n        address [] judges;\n        address [] judgesWhoVoted;\n        address [] restrictedJudges;\n        DisputeParty [2] disputeParty;\n        string disputeDetail;\n    }\n\n    struct DisputeParty {\n        address disputePartyAddress;\n        string documentation;\n        uint [] judgeVotes;\n    }\n\n    ///@dev this is a flag to see if I need to reach for new DisputeCase or I just fill new address into existing one\n    struct CaseWaitingForJudge {\n        bool waiting;\n        bytes32 disputeId;\n    } \n    CaseWaitingForJudge caseWaitingForJudge;\n    \n    function UpdateCaseWaitingForJudge  (bool _waiting, bytes32 _disputeId) internal {\n        caseWaitingForJudge.waiting = _waiting;\n        caseWaitingForJudge.disputeId = _disputeId;\n    }\n\n    uint disputeIdNonce = 0;\n\n    ///@dev Number of judges needed for this contract\n    uint numberOfJudges = 3;\n    ///@dev update number of judges.\n    ///@custom:later should be admin only...\n    function updateNumberOfJudges (uint _numberOfJudges) external {\n        numberOfJudges = _numberOfJudges;\n    }\n\n\n    mapping(bytes32 =>DisputeCase) public DisputeCaseMapping;\n    mapping(address => bytes32 []) public AddressToCaseMapping;\n\n    function getDisputeCase (bytes32 _disputeId) public view returns (DisputeCase memory) {\n\n        return DisputeCaseMapping[_disputeId];\n    }\n    ///@notice Use this to get list of all your cases\n    ///@dev One user can have multiple dispute cases. Therefore I need to coerce from storage to list. I don't know if there is more \n    //elegant way to do this\n     function getMyDisputeCase () public view returns (DisputeCase [] memory) {\n         bytes32 [] memory disputeCaseIds  = getMyDisputeCaseId();\n        ///@custom:later I don't know exactly what I am doing here \n         DisputeCase [] memory disputeCaseList = new DisputeCase[](disputeCaseIds.length);\n        \n         for (uint i = 0; i < disputeCaseIds.length; i++) {\n             disputeCaseList[i] = getDisputeCase(disputeCaseIds[i]);\n         }\n         return disputeCaseList;\n     }\n\n    ///@notice use this to get Ids for further query\n    function getMyDisputeCaseId () public view returns (bytes32 [] memory _disputeCaseId) {\n        return AddressToCaseMapping[msg.sender];\n    }\n\n    ///@dev to establish connection to other contract\n    ///@custom:later  this works fine for single contract. I need this to be modular and can connect multiple contract on the fly\n    \n    function setRentEscrowAddress (address _rentEscrowAddress) public  {\n        rentEscrowAddress = _rentEscrowAddress;\n         emit sendAddress(rentEscrowAddress);\n    }\n\n    ///@notice requests new new dispute case from external contract. It is external contract job to send valid dispute case\n    function getNewContractToResolve () public {\n\n        rentEscrowInterface re = rentEscrowInterface(rentEscrowAddress);\n        RentContract memory rentContract = re.getContractToResolve();\n             \n        ///@dev I will create unique hash for every dispute case. This contract doesn't care if it resolves same rentCotnract multiple times. It is up to the rentContract to manage this\n        ///@dev I have no special motivation to hash the id, other than to a) try it b) make it impossible to view\n        bytes32 disputeId = keccak256(abi.encodePacked(rentContract.rentId + disputeIdNonce));\n        disputeIdNonce++;\n        \n        ///@custom:later if I get this right, newDisputeCase is a pointer to a place in storage. If this function is called multiple times on same rentID (mapping key) data will be overwritten\n        DisputeCase storage newDisputeCase = DisputeCaseMapping[disputeId];\n        newDisputeCase.disputeId = disputeId;\n        newDisputeCase.status = 100;\n        newDisputeCase.disputeDetail = \"Hello\";\n\n        ///@custom:later Seems ugly...\n        DisputeParty memory disputeParty1 = DisputeParty({\n            disputePartyAddress: rentContract.landlord,\n            documentation: \"\",\n            judgeVotes: new uint [](0)\n        });\n\n        DisputeParty memory disputeParty2 = DisputeParty({\n            disputePartyAddress: rentContract.tenant,\n            documentation: \"\",\n            judgeVotes: new uint [](0)\n        });\n\n        newDisputeCase.disputeParty[0] = disputeParty1;\n        newDisputeCase.disputeParty[1] = disputeParty2;\n\n        ///@dev update mappping, so dispute parties can track their own dispute cases\n        AddressToCaseMapping[rentContract.landlord].push(disputeId);\n        AddressToCaseMapping[rentContract.tenant].push(disputeId);\n\n        ///@dev updates flag for nex runs. Now we have a open case, but not enough judges. Therefore we dont need to ask for new disputes\n        UpdateCaseWaitingForJudge(true,disputeId );\n\n    }\n\n    ///@notice Entry point for contract. Dispute lifecycle starts here by assigning judge to existing dispute or requesting new dispute from external contract\n    function assignJudge() public {\n        ///@dev decide if I am missing judges in existing dispute. If yes, this gets skipped, otherwise will ask for new resolution case\n        if (caseWaitingForJudge.waiting == false) {\n            getNewContractToResolve();\n            }\n        ///@custom:later I am shutting this off now for development reasons\n        require(testJudgeEligibility(DisputeCaseMapping[caseWaitingForJudge.disputeId]), \"This address cannot be judge\");\n        \n\n        ///@dev emitting disputeId for future reference in front end\n        emit sendDisputeId(DisputeCaseMapping[caseWaitingForJudge.disputeId].disputeId);\n        \n        //@dev adding msg sender as a new judge and updating the mapping\n        DisputeCaseMapping[caseWaitingForJudge.disputeId].judges.push(msg.sender);\n        AddressToCaseMapping[msg.sender].push(DisputeCaseMapping[caseWaitingForJudge.disputeId].disputeId);\n                \n        ///@dev decide whether we have enough judges. if yes, nex assign judge will call getNewContractToResolve\n        if (DisputeCaseMapping[caseWaitingForJudge.disputeId].judges.length >= numberOfJudges) {\n            UpdateCaseWaitingForJudge(false, 0);\n        }\n    }\n    ///@custom:later is this a case for modifier?\n    ///@dev multiple tests to control who can be judge\n    ///@dev we are on the conservative side and starting with default False. \n    ///@dev this seems extremely verbose, please shill me something more elegant\n    function testJudgeEligibility (DisputeCase storage _disputeCase) internal view returns (bool _eligible) {\n        uint judgeCount;\n        uint disputePartyCount;\n\n        ///@dev test if address is already judge. \n        for(uint i=0; i<_disputeCase.judges.length; i++){\n            judgeCount = msg.sender == _disputeCase.judges[i] ? judgeCount+1:judgeCount;\n            }\n        ///@dev test if address is on the restricted list\n        for(uint i=0; i<_disputeCase.disputeParty.length; i++){\n            disputePartyCount = msg.sender == _disputeCase.disputeParty[i].disputePartyAddress ? disputePartyCount+1:disputePartyCount+0;\n            }\n        \n        _eligible = judgeCount+disputePartyCount==0 ? true:false;\n\n        }\n\n    ///@dev test to see if address can vote or if already voted\n    function testJudgeEligibilityToVote (DisputeCase storage _disputeCase) internal view {\n\n        ///@dev test if address is judge\n        for(uint i=0; i<_disputeCase.judges.length; i++){\n            require(msg.sender != _disputeCase.judges[i],\"Address not a judge\");\n            }\n\n        //test if address already voted\n        for(uint i=0; i<_disputeCase.judgesWhoVoted.length; i++){\n            require(msg.sender!=_disputeCase.judgesWhoVoted[i], \"Judge Already voted\");\n            }\n\n    }\n\n    function castVote(uint [2] memory _judgeVote, bytes32 _disputeId) external {\n        DisputeCase storage  disputeCase = DisputeCaseMapping[_disputeId];\n        testJudgeEligibilityToVote(disputeCase);\n\n        ///@dev this is suboptimal as it relies on order of votes within array. Should be linked to disputeParty address\n        \n        disputeCase.disputeParty[0].judgeVotes.push(_judgeVote[0]);\n        disputeCase.disputeParty[1].judgeVotes.push(_judgeVote[1]);\n\n        emit sendId(disputeCase.disputeParty[0].judgeVotes[0]);        \n\n\n    }\n\n\n    }\n\n",
  "sourcePath": "/Users/andy/my_repos/rentEscrow/contracts/resolver.sol",
  "compiler": {
    "name": "solc",
    "version": "0.8.10+commit.fc410830.Emscripten.clang"
  },
  "schemaVersion": "3.4.3",
  "updatedAt": "2022-02-18T15:17:52.213Z",
  "devdoc": {
    "events": {
      "sendDisputeId(bytes32)": {
        "details": "events for production"
      },
      "sendMessage(string)": {
        "details": "events for development"
      }
    },
    "kind": "dev",
    "methods": {
      "getContractToResolve()": {
        "custom:later": "now gives just first contract. Need to add logic to return contract where redeemProposal was rejected",
        "details": "this is used by retrieve mapping by another contract"
      },
      "getMyDisputeCase()": {
        "details": "One user can have multiple dispute cases. Therefore I need to coerce from storage to list. I don't know if there is more "
      },
      "rejectRedeemProposal(uint256)": {
        "params": {
          "_rentId": "identifies the contract between tenant and landlord"
        }
      },
      "setRentEscrowAddress(address)": {
        "custom:later": "this works fine for single contract. I need this to be modular and can connect multiple contract on the fly",
        "details": "to establish connection to other contract"
      },
      "updateNumberOfJudges(uint256)": {
        "custom:later": "should be admin only...",
        "details": "update number of judges."
      }
    },
    "stateVariables": {
      "numberOfJudges": {
        "details": "Number of judges needed for this contract"
      }
    },
    "version": 1
  },
  "userdoc": {
    "kind": "user",
    "methods": {
      "assignJudge()": {
        "notice": "Entry point for contract. Dispute lifecycle starts here by assigning judge to existing dispute or requesting new dispute from external contract"
      },
      "getContractsByAddress()": {
        "notice": "returns all contracts  where sender is involved party"
      },
      "getMyDisputeCase()": {
        "notice": "Use this to get list of all your cases"
      },
      "getMyDisputeCaseId()": {
        "notice": "use this to get Ids for further query"
      },
      "getNewContractToResolve()": {
        "notice": "requests new new dispute case from external contract. It is external contract job to send valid dispute case"
      },
      "rejectRedeemProposal(uint256)": {
        "notice": "Use this function to reject redeem proposal. Will send it to the resolution centre"
      }
    },
    "version": 1
  }
}