{
  "contractName": "resolver",
  "abi": [
    {
      "anonymous": false,
      "inputs": [
        {
          "indexed": false,
          "internalType": "uint256",
          "name": "_rentId",
          "type": "uint256"
        }
      ],
      "name": "rentContractId",
      "type": "event"
    },
    {
      "anonymous": false,
      "inputs": [
        {
          "indexed": false,
          "internalType": "address",
          "name": "_message",
          "type": "address"
        }
      ],
      "name": "sendAddress",
      "type": "event"
    },
    {
      "anonymous": false,
      "inputs": [
        {
          "indexed": false,
          "internalType": "address",
          "name": "_message",
          "type": "address"
        }
      ],
      "name": "sendAddressRent",
      "type": "event"
    },
    {
      "anonymous": false,
      "inputs": [
        {
          "indexed": false,
          "internalType": "bool",
          "name": "_bool",
          "type": "bool"
        }
      ],
      "name": "sendBool",
      "type": "event"
    },
    {
      "anonymous": false,
      "inputs": [
        {
          "indexed": false,
          "internalType": "bytes32",
          "name": "",
          "type": "bytes32"
        }
      ],
      "name": "sendDisputeId",
      "type": "event"
    },
    {
      "anonymous": false,
      "inputs": [
        {
          "indexed": false,
          "internalType": "uint256",
          "name": "_message",
          "type": "uint256"
        }
      ],
      "name": "sendId",
      "type": "event"
    },
    {
      "anonymous": false,
      "inputs": [
        {
          "indexed": false,
          "internalType": "uint256",
          "name": "_message",
          "type": "uint256"
        }
      ],
      "name": "sendIdRent",
      "type": "event"
    },
    {
      "anonymous": false,
      "inputs": [
        {
          "indexed": false,
          "internalType": "string",
          "name": "_message",
          "type": "string"
        }
      ],
      "name": "sendMessage",
      "type": "event"
    },
    {
      "anonymous": false,
      "inputs": [
        {
          "indexed": false,
          "internalType": "string",
          "name": "_message",
          "type": "string"
        }
      ],
      "name": "sendStringRent",
      "type": "event"
    },
    {
      "anonymous": false,
      "inputs": [
        {
          "indexed": false,
          "internalType": "contract rentEscrow",
          "name": "_rentEscrow",
          "type": "address"
        }
      ],
      "name": "sendStruct",
      "type": "event"
    },
    {
      "inputs": [
        {
          "internalType": "address",
          "name": "",
          "type": "address"
        },
        {
          "internalType": "uint256",
          "name": "",
          "type": "uint256"
        }
      ],
      "name": "AddressToCaseMapping",
      "outputs": [
        {
          "internalType": "bytes32",
          "name": "",
          "type": "bytes32"
        }
      ],
      "stateMutability": "view",
      "type": "function"
    },
    {
      "inputs": [
        {
          "internalType": "bytes32",
          "name": "",
          "type": "bytes32"
        }
      ],
      "name": "DisputeCaseMapping",
      "outputs": [
        {
          "internalType": "bytes32",
          "name": "disputeId",
          "type": "bytes32"
        },
        {
          "internalType": "uint256",
          "name": "rentId",
          "type": "uint256"
        },
        {
          "internalType": "uint256",
          "name": "status",
          "type": "uint256"
        },
        {
          "internalType": "string",
          "name": "disputeDetail",
          "type": "string"
        }
      ],
      "stateMutability": "view",
      "type": "function"
    },
    {
      "inputs": [
        {
          "internalType": "uint256",
          "name": "_rentId",
          "type": "uint256"
        }
      ],
      "name": "acceptNewContract",
      "outputs": [],
      "stateMutability": "payable",
      "type": "function"
    },
    {
      "inputs": [
        {
          "internalType": "uint256",
          "name": "_rentId",
          "type": "uint256"
        }
      ],
      "name": "acceptRedeemProposal",
      "outputs": [],
      "stateMutability": "nonpayable",
      "type": "function"
    },
    {
      "inputs": [
        {
          "internalType": "address",
          "name": "",
          "type": "address"
        },
        {
          "internalType": "uint256",
          "name": "",
          "type": "uint256"
        }
      ],
      "name": "addressMapping",
      "outputs": [
        {
          "internalType": "uint256",
          "name": "",
          "type": "uint256"
        }
      ],
      "stateMutability": "view",
      "type": "function"
    },
    {
      "inputs": [
        {
          "internalType": "uint256",
          "name": "_rentId",
          "type": "uint256"
        },
        {
          "internalType": "uint256",
          "name": "_tenantShare",
          "type": "uint256"
        },
        {
          "internalType": "uint256",
          "name": "_landlordShare",
          "type": "uint256"
        },
        {
          "internalType": "uint256",
          "name": "_feeShare",
          "type": "uint256"
        }
      ],
      "name": "createRedeemProposal",
      "outputs": [],
      "stateMutability": "nonpayable",
      "type": "function"
    },
    {
      "inputs": [],
      "name": "devGetBalance",
      "outputs": [
        {
          "internalType": "uint256",
          "name": "",
          "type": "uint256"
        }
      ],
      "stateMutability": "view",
      "type": "function"
    },
    {
      "inputs": [
        {
          "internalType": "uint256",
          "name": "_rentId",
          "type": "uint256"
        }
      ],
      "name": "getContractDetails",
      "outputs": [
        {
          "components": [
            {
              "internalType": "uint256",
              "name": "rentId",
              "type": "uint256"
            },
            {
              "internalType": "address",
              "name": "tenant",
              "type": "address"
            },
            {
              "internalType": "address",
              "name": "landlord",
              "type": "address"
            },
            {
              "internalType": "uint256",
              "name": "escrowValue",
              "type": "uint256"
            },
            {
              "internalType": "string",
              "name": "contractDetail",
              "type": "string"
            },
            {
              "internalType": "uint256",
              "name": "status",
              "type": "uint256"
            },
            {
              "components": [
                {
                  "internalType": "uint256",
                  "name": "tenantShare",
                  "type": "uint256"
                },
                {
                  "internalType": "uint256",
                  "name": "landlordShare",
                  "type": "uint256"
                },
                {
                  "internalType": "uint256",
                  "name": "feeShare",
                  "type": "uint256"
                },
                {
                  "internalType": "address",
                  "name": "feeAddress",
                  "type": "address"
                },
                {
                  "internalType": "uint256",
                  "name": "proposalStatus",
                  "type": "uint256"
                }
              ],
              "internalType": "struct rentEscrowInterface.RedeemProposal",
              "name": "redeemProposal",
              "type": "tuple"
            }
          ],
          "internalType": "struct rentEscrowInterface.RentContract",
          "name": "",
          "type": "tuple"
        }
      ],
      "stateMutability": "view",
      "type": "function"
    },
    {
      "inputs": [],
      "name": "getContractToResolve",
      "outputs": [
        {
          "components": [
            {
              "internalType": "uint256",
              "name": "rentId",
              "type": "uint256"
            },
            {
              "internalType": "address",
              "name": "tenant",
              "type": "address"
            },
            {
              "internalType": "address",
              "name": "landlord",
              "type": "address"
            },
            {
              "internalType": "uint256",
              "name": "escrowValue",
              "type": "uint256"
            },
            {
              "internalType": "string",
              "name": "contractDetail",
              "type": "string"
            },
            {
              "internalType": "uint256",
              "name": "status",
              "type": "uint256"
            },
            {
              "components": [
                {
                  "internalType": "uint256",
                  "name": "tenantShare",
                  "type": "uint256"
                },
                {
                  "internalType": "uint256",
                  "name": "landlordShare",
                  "type": "uint256"
                },
                {
                  "internalType": "uint256",
                  "name": "feeShare",
                  "type": "uint256"
                },
                {
                  "internalType": "address",
                  "name": "feeAddress",
                  "type": "address"
                },
                {
                  "internalType": "uint256",
                  "name": "proposalStatus",
                  "type": "uint256"
                }
              ],
              "internalType": "struct rentEscrowInterface.RedeemProposal",
              "name": "redeemProposal",
              "type": "tuple"
            }
          ],
          "internalType": "struct rentEscrowInterface.RentContract",
          "name": "",
          "type": "tuple"
        }
      ],
      "stateMutability": "view",
      "type": "function"
    },
    {
      "inputs": [],
      "name": "getContractsByAddress",
      "outputs": [
        {
          "internalType": "uint256[]",
          "name": "",
          "type": "uint256[]"
        }
      ],
      "stateMutability": "view",
      "type": "function"
    },
    {
      "inputs": [
        {
          "internalType": "string",
          "name": "",
          "type": "string"
        }
      ],
      "name": "importantAddresses",
      "outputs": [
        {
          "internalType": "address",
          "name": "",
          "type": "address"
        }
      ],
      "stateMutability": "view",
      "type": "function"
    },
    {
      "inputs": [
        {
          "internalType": "string",
          "name": "",
          "type": "string"
        }
      ],
      "name": "importantStrings",
      "outputs": [
        {
          "internalType": "string",
          "name": "",
          "type": "string"
        }
      ],
      "stateMutability": "view",
      "type": "function"
    },
    {
      "inputs": [],
      "name": "nextRentId",
      "outputs": [
        {
          "internalType": "uint256",
          "name": "",
          "type": "uint256"
        }
      ],
      "stateMutability": "view",
      "type": "function"
    },
    {
      "inputs": [
        {
          "internalType": "uint256",
          "name": "_escrowValue",
          "type": "uint256"
        },
        {
          "internalType": "string",
          "name": "_contractDetail",
          "type": "string"
        }
      ],
      "name": "proposeNewContract",
      "outputs": [],
      "stateMutability": "nonpayable",
      "type": "function"
    },
    {
      "inputs": [
        {
          "internalType": "uint256",
          "name": "_rentId",
          "type": "uint256"
        }
      ],
      "name": "rejectRedeemProposal",
      "outputs": [],
      "stateMutability": "nonpayable",
      "type": "function"
    },
    {
      "inputs": [
        {
          "internalType": "uint256",
          "name": "",
          "type": "uint256"
        }
      ],
      "name": "rentContractsMapping",
      "outputs": [
        {
          "internalType": "uint256",
          "name": "rentId",
          "type": "uint256"
        },
        {
          "internalType": "address",
          "name": "tenant",
          "type": "address"
        },
        {
          "internalType": "address",
          "name": "landlord",
          "type": "address"
        },
        {
          "internalType": "uint256",
          "name": "escrowValue",
          "type": "uint256"
        },
        {
          "internalType": "string",
          "name": "contractDetail",
          "type": "string"
        },
        {
          "internalType": "uint256",
          "name": "status",
          "type": "uint256"
        },
        {
          "components": [
            {
              "internalType": "uint256",
              "name": "tenantShare",
              "type": "uint256"
            },
            {
              "internalType": "uint256",
              "name": "landlordShare",
              "type": "uint256"
            },
            {
              "internalType": "uint256",
              "name": "feeShare",
              "type": "uint256"
            },
            {
              "internalType": "address",
              "name": "feeAddress",
              "type": "address"
            },
            {
              "internalType": "uint256",
              "name": "proposalStatus",
              "type": "uint256"
            }
          ],
          "internalType": "struct rentEscrowInterface.RedeemProposal",
          "name": "redeemProposal",
          "type": "tuple"
        }
      ],
      "stateMutability": "view",
      "type": "function"
    },
    {
      "inputs": [
        {
          "internalType": "address",
          "name": "_resolverAddress",
          "type": "address"
        }
      ],
      "name": "setResolverAddress",
      "outputs": [],
      "stateMutability": "nonpayable",
      "type": "function"
    },
    {
      "stateMutability": "payable",
      "type": "receive"
    },
    {
      "inputs": [
        {
          "internalType": "uint256",
          "name": "_numberOfJudges",
          "type": "uint256"
        }
      ],
      "name": "updateNumberOfJudges",
      "outputs": [],
      "stateMutability": "nonpayable",
      "type": "function"
    },
    {
      "inputs": [
        {
          "internalType": "bytes32",
          "name": "_disputeId",
          "type": "bytes32"
        }
      ],
      "name": "getDisputeCase",
      "outputs": [
        {
          "components": [
            {
              "internalType": "bytes32",
              "name": "disputeId",
              "type": "bytes32"
            },
            {
              "internalType": "uint256",
              "name": "rentId",
              "type": "uint256"
            },
            {
              "internalType": "uint256",
              "name": "status",
              "type": "uint256"
            },
            {
              "internalType": "address[]",
              "name": "judges",
              "type": "address[]"
            },
            {
              "internalType": "address[]",
              "name": "judgesWhoVoted",
              "type": "address[]"
            },
            {
              "internalType": "address[]",
              "name": "restrictedJudges",
              "type": "address[]"
            },
            {
              "components": [
                {
                  "internalType": "address",
                  "name": "disputePartyAddress",
                  "type": "address"
                },
                {
                  "internalType": "string",
                  "name": "documentation",
                  "type": "string"
                },
                {
                  "internalType": "uint256[]",
                  "name": "judgeVotes",
                  "type": "uint256[]"
                }
              ],
              "internalType": "struct resolver.DisputeParty[2]",
              "name": "disputeParty",
              "type": "tuple[2]"
            },
            {
              "internalType": "string",
              "name": "disputeDetail",
              "type": "string"
            }
          ],
          "internalType": "struct resolver.DisputeCase",
          "name": "",
          "type": "tuple"
        }
      ],
      "stateMutability": "view",
      "type": "function"
    },
    {
      "inputs": [],
      "name": "getMyDisputeCase",
      "outputs": [
        {
          "components": [
            {
              "internalType": "bytes32",
              "name": "disputeId",
              "type": "bytes32"
            },
            {
              "internalType": "uint256",
              "name": "rentId",
              "type": "uint256"
            },
            {
              "internalType": "uint256",
              "name": "status",
              "type": "uint256"
            },
            {
              "internalType": "address[]",
              "name": "judges",
              "type": "address[]"
            },
            {
              "internalType": "address[]",
              "name": "judgesWhoVoted",
              "type": "address[]"
            },
            {
              "internalType": "address[]",
              "name": "restrictedJudges",
              "type": "address[]"
            },
            {
              "components": [
                {
                  "internalType": "address",
                  "name": "disputePartyAddress",
                  "type": "address"
                },
                {
                  "internalType": "string",
                  "name": "documentation",
                  "type": "string"
                },
                {
                  "internalType": "uint256[]",
                  "name": "judgeVotes",
                  "type": "uint256[]"
                }
              ],
              "internalType": "struct resolver.DisputeParty[2]",
              "name": "disputeParty",
              "type": "tuple[2]"
            },
            {
              "internalType": "string",
              "name": "disputeDetail",
              "type": "string"
            }
          ],
          "internalType": "struct resolver.DisputeCase[]",
          "name": "",
          "type": "tuple[]"
        }
      ],
      "stateMutability": "view",
      "type": "function"
    },
    {
      "inputs": [],
      "name": "getMyDisputeCaseId",
      "outputs": [
        {
          "internalType": "bytes32[]",
          "name": "_disputeCaseId",
          "type": "bytes32[]"
        }
      ],
      "stateMutability": "view",
      "type": "function"
    },
    {
      "inputs": [
        {
          "internalType": "address",
          "name": "_rentEscrowAddress",
          "type": "address"
        }
      ],
      "name": "setRentEscrowAddress",
      "outputs": [],
      "stateMutability": "nonpayable",
      "type": "function"
    },
    {
      "inputs": [],
      "name": "getNewContractToResolve",
      "outputs": [],
      "stateMutability": "nonpayable",
      "type": "function"
    },
    {
      "inputs": [],
      "name": "assignJudge",
      "outputs": [],
      "stateMutability": "nonpayable",
      "type": "function"
    },
    {
      "inputs": [
        {
          "internalType": "uint256[2]",
          "name": "_judgeVote",
          "type": "uint256[2]"
        },
        {
          "internalType": "bytes32",
          "name": "_disputeId",
          "type": "bytes32"
        }
      ],
      "name": "castVote",
      "outputs": [],
      "stateMutability": "nonpayable",
      "type": "function"
    },
    {
      "inputs": [
        {
          "internalType": "bytes32",
          "name": "_disputeId",
          "type": "bytes32"
        }
      ],
      "name": "triggerCreateRedeemProposal",
      "outputs": [],
      "stateMutability": "nonpayable",
      "type": "function"
    }
  ],
  "bytecode": "0x60806040526000600255600a60065560006009556003600a5534801561002457600080fd5b5061537a806100346000396000f3fe6080604052600436106101855760003560e01c80638922dfbf116100d1578063b59146f71161008a578063dd28218b11610064578063dd28218b14610583578063eafe9934146105ac578063fb72d92a146105d7578063fcfe7b51146106145761018c565b8063b59146f714610506578063b61f5f531461052f578063c1ec6fc01461055a5761018c565b80638922dfbf146103d15780638db285041461040e578063951283311461043757806396d65c3e14610460578063a6dd42761461049d578063b102b370146104c65761018c565b80634232dfed1161013e5780637395eb41116101185780637395eb411461034a5780637ad637d8146103755780637afc2d561461038c57806385b58963146103b55761018c565b80634232dfed146102a15780634d6d6a9c146102ca5780636b695d24146103075761018c565b8063039ed5011461019157806307e31e2b146101bc5780630836e7d0146101f95780630e593bc3146102365780630e9008fe1461024d5780632458cc3e146102765761018c565b3661018c57005b600080fd5b34801561019d57600080fd5b506101a661063f565b6040516101b3919061370d565b60405180910390f35b3480156101c857600080fd5b506101e360048036038101906101de9190613882565b610645565b6040516101f09190613953565b60405180910390f35b34801561020557600080fd5b50610220600480360381019061021b91906139ab565b6106fb565b60405161022d9190613db8565b60405180910390f35b34801561024257600080fd5b5061024b610b0f565b005b34801561025957600080fd5b50610274600480360381019061026f9190613e06565b610d1d565b005b34801561028257600080fd5b5061028b610f9f565b604051610298919061370d565b60405180910390f35b3480156102ad57600080fd5b506102c860048036038101906102c39190613e6d565b610fa7565b005b3480156102d657600080fd5b506102f160048036038101906102ec9190613e6d565b610fb1565b6040516102fe9190613f9f565b60405180910390f35b34801561031357600080fd5b5061032e60048036038101906103299190613e6d565b6111cb565b6040516103419796959493929190614038565b60405180910390f35b34801561035657600080fd5b5061035f61135d565b60405161036c9190613f9f565b60405180910390f35b34801561038157600080fd5b5061038a61157c565b005b34801561039857600080fd5b506103b360048036038101906103ae9190613e6d565b611a3d565b005b6103cf60048036038101906103ca9190613e6d565b611e69565b005b3480156103dd57600080fd5b506103f860048036038101906103f39190613882565b612038565b60405161040591906140af565b60405180910390f35b34801561041a57600080fd5b50610435600480360381019061043091906140f6565b612081565b005b34801561044357600080fd5b5061045e600480360381019061045991906141d9565b61211e565b005b34801561046c57600080fd5b5061048760048036038101906104829190614219565b612343565b604051610494919061370d565b60405180910390f35b3480156104a957600080fd5b506104c460048036038101906104bf9190613e6d565b612374565b005b3480156104d257600080fd5b506104ed60048036038101906104e891906139ab565b61267b565b6040516104fd9493929190614268565b60405180910390f35b34801561051257600080fd5b5061052d600480360381019061052891906142b4565b612733565b005b34801561053b57600080fd5b5061054461295b565b604051610551919061437f565b60405180910390f35b34801561056657600080fd5b50610581600480360381019061057c91906139ab565b6129f0565b005b34801561058f57600080fd5b506105aa60048036038101906105a591906140f6565b612b90565b005b3480156105b857600080fd5b506105c1612c54565b6040516105ce9190614450565b60405180910390f35b3480156105e357600080fd5b506105fe60048036038101906105f99190614219565b612ce9565b60405161060b9190614472565b60405180910390f35b34801561062057600080fd5b50610629612d1a565b604051610636919061461b565b60405180910390f35b60025481565b600481805160208101820180518482526020830160208501208183528095505050505050600091509050805461067a9061466c565b80601f01602080910402602001604051908101604052809291908181526020018280546106a69061466c565b80156106f35780601f106106c8576101008083540402835291602001916106f3565b820191906000526020600020905b8154815290600101906020018083116106d657829003601f168201915b505050505081565b61070361349e565b600b600083815260200190815260200160002060405180610100016040529081600082015481526020016001820154815260200160028201548152602001600382018054806020026020016040519081016040528092919081815260200182805480156107c557602002820191906000526020600020905b8160009054906101000a900473ffffffffffffffffffffffffffffffffffffffff1673ffffffffffffffffffffffffffffffffffffffff168152602001906001019080831161077b575b505050505081526020016004820180548060200260200160405190810160405280929190818152602001828054801561085357602002820191906000526020600020905b8160009054906101000a900473ffffffffffffffffffffffffffffffffffffffff1673ffffffffffffffffffffffffffffffffffffffff1681526020019060010190808311610809575b50505050508152602001600582018054806020026020016040519081016040528092919081815260200182805480156108e157602002820191906000526020600020905b8160009054906101000a900473ffffffffffffffffffffffffffffffffffffffff1673ffffffffffffffffffffffffffffffffffffffff1681526020019060010190808311610897575b5050505050815260200160068201600280602002604051908101604052809291906000905b82821015610a6e578382600302016040518060600160405290816000820160009054906101000a900473ffffffffffffffffffffffffffffffffffffffff1673ffffffffffffffffffffffffffffffffffffffff1673ffffffffffffffffffffffffffffffffffffffff1681526020016001820180546109859061466c565b80601f01602080910402602001604051908101604052809291908181526020018280546109b19061466c565b80156109fe5780601f106109d3576101008083540402835291602001916109fe565b820191906000526020600020905b8154815290600101906020018083116109e157829003601f168201915b5050505050815260200160028201805480602002602001604051908101604052809291908181526020018280548015610a5657602002820191906000526020600020905b815481526020019060010190808311610a42575b50505050508152505081526020019060010190610906565b505050508152602001600c82018054610a869061466c565b80601f0160208091040260200160405190810160405280929190818152602001828054610ab29061466c565b8015610aff5780601f10610ad457610100808354040283529160200191610aff565b820191906000526020600020905b815481529060010190602001808311610ae257829003601f168201915b5050505050815250509050919050565b60001515600760000160009054906101000a900460ff1615151415610b3757610b3661157c565b5b610b57600b60006007600101548152602001908152602001600020612dea565b610b96576040517f08c379a0000000000000000000000000000000000000000000000000000000008152600401610b8d906146ea565b60405180910390fd5b7fdf247fdfb29d1a7f4a949e81abe1b391f62b391f1c1c0a258bdccbe7b9655952600b6000600760010154815260200190815260200160002060000154604051610be09190614472565b60405180910390a1600b60006007600101548152602001908152602001600020600301339080600181540180825580915050600190039060005260206000200160009091909190916101000a81548173ffffffffffffffffffffffffffffffffffffffff021916908373ffffffffffffffffffffffffffffffffffffffff160217905550600c60003373ffffffffffffffffffffffffffffffffffffffff1673ffffffffffffffffffffffffffffffffffffffff168152602001908152602001600020600b60006007600101548152602001908152602001600020600001549080600181540180825580915050600190039060005260206000200160009091909190915055600a54600b600060076001015481526020019081526020016000206003018054905010610d1b57610d1a60008060001b612f79565b5b565b6000818385610d2c9190614739565b610d369190614739565b905060648114610d7b576040517f08c379a0000000000000000000000000000000000000000000000000000000008152600401610d7290614801565b60405180910390fd5b60008086815260200190815260200160002060020160009054906101000a900473ffffffffffffffffffffffffffffffffffffffff1673ffffffffffffffffffffffffffffffffffffffff163373ffffffffffffffffffffffffffffffffffffffff161480610e5157506003604051610df390614878565b908152602001604051809103902060009054906101000a900473ffffffffffffffffffffffffffffffffffffffff1673ffffffffffffffffffffffffffffffffffffffff163373ffffffffffffffffffffffffffffffffffffffff16145b610e90576040517f08c379a0000000000000000000000000000000000000000000000000000000008152600401610e87906148ff565b60405180910390fd5b8360008087815260200190815260200160002060060160000181905550826000808781526020019081526020016000206006016001018190555081600080878152602001908152602001600020600601600201819055506003604051610ef590614878565b908152602001604051809103902060009054906101000a900473ffffffffffffffffffffffffffffffffffffffff1660008087815260200190815260200160002060060160030160006101000a81548173ffffffffffffffffffffffffffffffffffffffff021916908373ffffffffffffffffffffffffffffffffffffffff1602179055506064600080878152602001908152602001600020600601600401819055505050505050565b600047905090565b80600a8190555050565b610fb96134ec565b6000808381526020019081526020016000206040518060e0016040529081600082015481526020016001820160009054906101000a900473ffffffffffffffffffffffffffffffffffffffff1673ffffffffffffffffffffffffffffffffffffffff1673ffffffffffffffffffffffffffffffffffffffff1681526020016002820160009054906101000a900473ffffffffffffffffffffffffffffffffffffffff1673ffffffffffffffffffffffffffffffffffffffff1673ffffffffffffffffffffffffffffffffffffffff168152602001600382015481526020016004820180546110a69061466c565b80601f01602080910402602001604051908101604052809291908181526020018280546110d29061466c565b801561111f5780601f106110f45761010080835404028352916020019161111f565b820191906000526020600020905b81548152906001019060200180831161110257829003601f168201915b5050505050815260200160058201548152602001600682016040518060a00160405290816000820154815260200160018201548152602001600282015481526020016003820160009054906101000a900473ffffffffffffffffffffffffffffffffffffffff1673ffffffffffffffffffffffffffffffffffffffff1673ffffffffffffffffffffffffffffffffffffffff168152602001600482015481525050815250509050919050565b60006020528060005260406000206000915090508060000154908060010160009054906101000a900473ffffffffffffffffffffffffffffffffffffffff16908060020160009054906101000a900473ffffffffffffffffffffffffffffffffffffffff16908060030154908060040180546112469061466c565b80601f01602080910402602001604051908101604052809291908181526020018280546112729061466c565b80156112bf5780601f10611294576101008083540402835291602001916112bf565b820191906000526020600020905b8154815290600101906020018083116112a257829003601f168201915b505050505090806005015490806006016040518060a00160405290816000820154815260200160018201548152602001600282015481526020016003820160009054906101000a900473ffffffffffffffffffffffffffffffffffffffff1673ffffffffffffffffffffffffffffffffffffffff1673ffffffffffffffffffffffffffffffffffffffff168152602001600482015481525050905087565b6113656134ec565b6000600190506000808281526020019081526020016000206040518060e0016040529081600082015481526020016001820160009054906101000a900473ffffffffffffffffffffffffffffffffffffffff1673ffffffffffffffffffffffffffffffffffffffff1673ffffffffffffffffffffffffffffffffffffffff1681526020016002820160009054906101000a900473ffffffffffffffffffffffffffffffffffffffff1673ffffffffffffffffffffffffffffffffffffffff1673ffffffffffffffffffffffffffffffffffffffff168152602001600382015481526020016004820180546114589061466c565b80601f01602080910402602001604051908101604052809291908181526020018280546114849061466c565b80156114d15780601f106114a6576101008083540402835291602001916114d1565b820191906000526020600020905b8154815290600101906020018083116114b457829003601f168201915b5050505050815260200160058201548152602001600682016040518060a00160405290816000820154815260200160018201548152602001600282015481526020016003820160009054906101000a900473ffffffffffffffffffffffffffffffffffffffff1673ffffffffffffffffffffffffffffffffffffffff1673ffffffffffffffffffffffffffffffffffffffff1681526020016004820154815250508152505091505090565b6000600560009054906101000a900473ffffffffffffffffffffffffffffffffffffffff16905060008173ffffffffffffffffffffffffffffffffffffffff16637395eb416040518163ffffffff1660e01b8152600401600060405180830381865afa1580156115f0573d6000803e3d6000fd5b505050506040513d6000823e3d601f19601f820116820180604052508101906116199190614b20565b90506000600954826000015161162f9190614739565b60405160200161163f9190614b8a565b6040516020818303038152906040528051906020012090506009600081548092919061166a90614ba5565b91905055506000600b6000838152602001908152602001600020905081816000018190555082600001518160010181905550606481600201819055506040518060400160405280600581526020017f48656c6c6f00000000000000000000000000000000000000000000000000000081525081600c0190805190602001906116f392919061355b565b5060006040518060600160405280856040015173ffffffffffffffffffffffffffffffffffffffff168152602001604051806020016040528060008152508152602001600067ffffffffffffffff81111561175157611750613757565b5b60405190808252806020026020018201604052801561177f5781602001602082028036833780820191505090505b50815250905060006040518060600160405280866020015173ffffffffffffffffffffffffffffffffffffffff168152602001604051806020016040528060008152508152602001600067ffffffffffffffff8111156117e2576117e1613757565b5b6040519080825280602002602001820160405280156118105781602001602082028036833780820191505090505b508152509050818360060160006002811061182e5761182d614bee565b5b6003020160008201518160000160006101000a81548173ffffffffffffffffffffffffffffffffffffffff021916908373ffffffffffffffffffffffffffffffffffffffff160217905550602082015181600101908051906020019061189592919061355b565b5060408201518160020190805190602001906118b29291906135e1565b5090505080836006016001600281106118ce576118cd614bee565b5b6003020160008201518160000160006101000a81548173ffffffffffffffffffffffffffffffffffffffff021916908373ffffffffffffffffffffffffffffffffffffffff160217905550602082015181600101908051906020019061193592919061355b565b5060408201518160020190805190602001906119529291906135e1565b50905050600c6000866040015173ffffffffffffffffffffffffffffffffffffffff1673ffffffffffffffffffffffffffffffffffffffff168152602001908152602001600020849080600181540180825580915050600190039060005260206000200160009091909190915055600c6000866020015173ffffffffffffffffffffffffffffffffffffffff1673ffffffffffffffffffffffffffffffffffffffff168152602001908152602001600020849080600181540180825580915050600190039060005260206000200160009091909190915055611a35600185612f79565b505050505050565b60008082815260200190815260200160002060010160009054906101000a900473ffffffffffffffffffffffffffffffffffffffff1673ffffffffffffffffffffffffffffffffffffffff163373ffffffffffffffffffffffffffffffffffffffff161480611b1357506003604051611ab590614878565b908152602001604051809103902060009054906101000a900473ffffffffffffffffffffffffffffffffffffffff1673ffffffffffffffffffffffffffffffffffffffff163373ffffffffffffffffffffffffffffffffffffffff16145b611b52576040517f08c379a0000000000000000000000000000000000000000000000000000000008152600401611b4990614c8f565b60405180910390fd5b6000806000838152602001908152602001600020600301549050600080600084815260200190815260200160002060010160009054906101000a900473ffffffffffffffffffffffffffffffffffffffff169050600060646000808681526020019081526020016000206006016000015484611bce9190614caf565b611bd89190614d38565b9050600080600086815260200190815260200160002060020160009054906101000a900473ffffffffffffffffffffffffffffffffffffffff169050600060646000808881526020019081526020016000206006016001015486611c3c9190614caf565b611c469190614d38565b9050600080600088815260200190815260200160002060060160030160009054906101000a900473ffffffffffffffffffffffffffffffffffffffff169050600060646000808a81526020019081526020016000206006016002015488611cad9190614caf565b611cb79190614d38565b905086818487611cc79190614739565b611cd19190614739565b14611d11576040517f08c379a0000000000000000000000000000000000000000000000000000000008152600401611d0890614e01565b60405180910390fd5b60646000808a81526020019081526020016000206006016004015414611d6c576040517f08c379a0000000000000000000000000000000000000000000000000000000008152600401611d6390614e6d565b60405180910390fd5b60c86000808a8152602001908152602001600020600601600401819055508573ffffffffffffffffffffffffffffffffffffffff166108fc869081150290604051600060405180830381858888f19350505050158015611dd0573d6000803e3d6000fd5b508373ffffffffffffffffffffffffffffffffffffffff166108fc849081150290604051600060405180830381858888f19350505050158015611e17573d6000803e3d6000fd5b508173ffffffffffffffffffffffffffffffffffffffff166108fc829081150290604051600060405180830381858888f19350505050158015611e5e573d6000803e3d6000fd5b505050505050505050565b600080828152602001908152602001600020600301543414611ec0576040517f08c379a0000000000000000000000000000000000000000000000000000000008152600401611eb790614eff565b60405180910390fd5b60008082815260200190815260200160002060020160009054906101000a900473ffffffffffffffffffffffffffffffffffffffff1673ffffffffffffffffffffffffffffffffffffffff163373ffffffffffffffffffffffffffffffffffffffff161415611f64576040517f08c379a0000000000000000000000000000000000000000000000000000000008152600401611f5b90614f91565b60405180910390fd5b6000808281526020019081526020016000206005015460c81415611fbd576040517f08c379a0000000000000000000000000000000000000000000000000000000008152600401611fb490614ffd565b60405180910390fd5b3360008083815260200190815260200160002060010160006101000a81548173ffffffffffffffffffffffffffffffffffffffff021916908373ffffffffffffffffffffffffffffffffffffffff16021790555060c86000808381526020019081526020016000206005018190555061203581612fa4565b50565b6003818051602081018201805184825260208301602085012081835280955050505050506000915054906101000a900473ffffffffffffffffffffffffffffffffffffffff1681565b80600560006101000a81548173ffffffffffffffffffffffffffffffffffffffff021916908373ffffffffffffffffffffffffffffffffffffffff1602179055507ff3cefb6580958289ed59682f8efcbb4cc6003c65fc36e951618d6809896a407b600560009054906101000a900473ffffffffffffffffffffffffffffffffffffffff1660405161211391906140af565b60405180910390a150565b60648260016002811061213457612133614bee565b5b60200201518360006002811061214d5761214c614bee565b5b602002015161215c9190614739565b1461219c576040517f08c379a000000000000000000000000000000000000000000000000000000000815260040161219390615069565b60405180910390fd5b6000600b600083815260200190815260200160002090506121bc8161300d565b806006016000600281106121d3576121d2614bee565b5b60030201600201836000600281106121ee576121ed614bee565b5b60200201519080600181540180825580915050600190039060005260206000200160009091909190915055806006016001600281106122305761222f614bee565b5b600302016002018360016002811061224b5761224a614bee565b5b6020020151908060018154018082558091505060019003906000526020600020016000909190919091505580600401339080600181540180825580915050600190039060005260206000200160009091909190916101000a81548173ffffffffffffffffffffffffffffffffffffffff021916908373ffffffffffffffffffffffffffffffffffffffff160217905550600a54816006016000600281106122f5576122f4614bee565b5b600302016002018054905014801561232f5750600a548160060160016002811061232257612321614bee565b5b6003020160020180549050145b1561233e5761233d826129f0565b5b505050565b6001602052816000526040600020818154811061235f57600080fd5b90600052602060002001600091509150505481565b60008082815260200190815260200160002060010160009054906101000a900473ffffffffffffffffffffffffffffffffffffffff1673ffffffffffffffffffffffffffffffffffffffff163373ffffffffffffffffffffffffffffffffffffffff161480612443575060008082815260200190815260200160002060020160009054906101000a900473ffffffffffffffffffffffffffffffffffffffff1673ffffffffffffffffffffffffffffffffffffffff163373ffffffffffffffffffffffffffffffffffffffff16145b612482576040517f08c379a0000000000000000000000000000000000000000000000000000000008152600401612479906150fb565b60405180910390fd5b61012d60008083815260200190815260200160002060060160040154141580156124c6575061012e6000808381526020019081526020016000206006016004015414155b612505576040517f08c379a00000000000000000000000000000000000000000000000000000000081526004016124fc90615167565b60405180910390fd5b60c8600080838152602001908152602001600020600601600401541415612561576040517f08c379a0000000000000000000000000000000000000000000000000000000008152600401612558906151d3565b60405180910390fd5b60008082815260200190815260200160002060020160009054906101000a900473ffffffffffffffffffffffffffffffffffffffff1673ffffffffffffffffffffffffffffffffffffffff163373ffffffffffffffffffffffffffffffffffffffff1614156125ee5761012d60008083815260200190815260200160002060060160040181905550612678565b60008082815260200190815260200160002060010160009054906101000a900473ffffffffffffffffffffffffffffffffffffffff1673ffffffffffffffffffffffffffffffffffffffff163373ffffffffffffffffffffffffffffffffffffffff1614156126775761012e600080838152602001908152602001600020600601600401819055505b5b50565b600b60205280600052604060002060009150905080600001549080600101549080600201549080600c0180546126b09061466c565b80601f01602080910402602001604051908101604052809291908181526020018280546126dc9061466c565b80156127295780601f106126fe57610100808354040283529160200191612729565b820191906000526020600020905b81548152906001019060200180831161270c57829003601f168201915b5050505050905084565b61273b6134ec565b60025481600001818152505033816040019073ffffffffffffffffffffffffffffffffffffffff16908173ffffffffffffffffffffffffffffffffffffffff16815250508281606001818152505081816080018190525060648160a00181815250508060008060025481526020019081526020016000206000820151816000015560208201518160010160006101000a81548173ffffffffffffffffffffffffffffffffffffffff021916908373ffffffffffffffffffffffffffffffffffffffff16021790555060408201518160020160006101000a81548173ffffffffffffffffffffffffffffffffffffffff021916908373ffffffffffffffffffffffffffffffffffffffff16021790555060608201518160030155608082015181600401908051906020019061287092919061355b565b5060a0820151816005015560c08201518160060160008201518160000155602082015181600101556040820151816002015560608201518160030160006101000a81548173ffffffffffffffffffffffffffffffffffffffff021916908373ffffffffffffffffffffffffffffffffffffffff160217905550608082015181600401555050905050612903600254612fa4565b7fa44f460f2ac523b4a38d95d97950a776d7bf0adbaff2501d321f040e3d661e46600254604051612934919061370d565b60405180910390a160016002600082825461294f9190614739565b92505081905550505050565b6060600160003373ffffffffffffffffffffffffffffffffffffffff1673ffffffffffffffffffffffffffffffffffffffff1681526020019081526020016000208054806020026020016040519081016040528092919081815260200182805480156129e657602002820191906000526020600020905b8154815260200190600101908083116129d2575b5050505050905090565b60606129fb826131dd565b9050612a0960065482613341565b90506000600560009054906101000a900473ffffffffffffffffffffffffffffffffffffffff1690508073ffffffffffffffffffffffffffffffffffffffff16630e9008fe600b60008681526020019081526020016000206001015484600081518110612a7957612a78614bee565b5b602002602001015185600181518110612a9557612a94614bee565b5b602002602001015186600281518110612ab157612ab0614bee565b5b60200260200101516040518563ffffffff1660e01b8152600401612ad894939291906151f3565b600060405180830381600087803b158015612af257600080fd5b505af1158015612b06573d6000803e3d6000fd5b505050508073ffffffffffffffffffffffffffffffffffffffff16637afc2d56600b6000868152602001908152602001600020600101546040518263ffffffff1660e01b8152600401612b59919061370d565b600060405180830381600087803b158015612b7357600080fd5b505af1158015612b87573d6000803e3d6000fd5b50505050505050565b806003604051612b9f90614878565b908152602001604051809103902060006101000a81548173ffffffffffffffffffffffffffffffffffffffff021916908373ffffffffffffffffffffffffffffffffffffffff1602179055506040518060400160405280600581526020017f48656c6c6f0000000000000000000000000000000000000000000000000000008152506004604051612c2f90614878565b90815260200160405180910390209080519060200190612c5092919061355b565b5050565b6060600c60003373ffffffffffffffffffffffffffffffffffffffff1673ffffffffffffffffffffffffffffffffffffffff168152602001908152602001600020805480602002602001604051908101604052809291908181526020018280548015612cdf57602002820191906000526020600020905b815481526020019060010190808311612ccb575b5050505050905090565b600c6020528160005260406000208181548110612d0557600080fd5b90600052602060002001600091509150505481565b60606000612d26612c54565b90506000815167ffffffffffffffff811115612d4557612d44613757565b5b604051908082528060200260200182016040528015612d7e57816020015b612d6b61349e565b815260200190600190039081612d635790505b50905060005b8251811015612de157612db0838281518110612da357612da2614bee565b5b60200260200101516106fb565b828281518110612dc357612dc2614bee565b5b60200260200101819052508080612dd990614ba5565b915050612d84565b50809250505090565b600080600080600090505b8460030180549050811015612ea057846003018181548110612e1a57612e19614bee565b5b9060005260206000200160009054906101000a900473ffffffffffffffffffffffffffffffffffffffff1673ffffffffffffffffffffffffffffffffffffffff163373ffffffffffffffffffffffffffffffffffffffff1614612e7d5782612e8b565b600183612e8a9190614739565b5b92508080612e9890614ba5565b915050612df5565b5060005b6002811015612f5257846006018160028110612ec357612ec2614bee565b5b6003020160000160009054906101000a900473ffffffffffffffffffffffffffffffffffffffff1673ffffffffffffffffffffffffffffffffffffffff163373ffffffffffffffffffffffffffffffffffffffff1614612f2f57600082612f2a9190614739565b612f3d565b600182612f3c9190614739565b5b91508080612f4a90614ba5565b915050612ea4565b5060008183612f619190614739565b14612f6d576000612f70565b60015b92505050919050565b81600760000160006101000a81548160ff021916908315150217905550806007600101819055505050565b600160003373ffffffffffffffffffffffffffffffffffffffff1673ffffffffffffffffffffffffffffffffffffffff16815260200190815260200160002081908060018154018082558091505060019003906000526020600020016000909190919091505550565b600080600090505b82600301805490508110156130c05782600301818154811061303a57613039614bee565b5b9060005260206000200160009054906101000a900473ffffffffffffffffffffffffffffffffffffffff1673ffffffffffffffffffffffffffffffffffffffff163373ffffffffffffffffffffffffffffffffffffffff161461309d57816130ab565b6001826130aa9190614739565b5b915080806130b890614ba5565b915050613015565b5060008111613104576040517f08c379a00000000000000000000000000000000000000000000000000000000081526004016130fb90615284565b60405180910390fd5b60005b82600401805490508110156131d85782600401818154811061312c5761312b614bee565b5b9060005260206000200160009054906101000a900473ffffffffffffffffffffffffffffffffffffffff1673ffffffffffffffffffffffffffffffffffffffff163373ffffffffffffffffffffffffffffffffffffffff1614156131c5576040517f08c379a00000000000000000000000000000000000000000000000000000000081526004016131bc906152f0565b60405180910390fd5b80806131d090614ba5565b915050613107565b505050565b60606000600b600084815260200190815260200160002090506000600267ffffffffffffffff81111561321357613212613757565b5b6040519080825280602002602001820160405280156132415781602001602082028036833780820191505090505b50905060005b6002811015613336576000805b84600601836002811061326a57613269614bee565b5b60030201600201805490508110156132d65784600601836002811061329257613291614bee565b5b6003020160020181815481106132ab576132aa614bee565b5b9060005260206000200154826132c19190614739565b915080806132ce90614ba5565b915050613254565b508360060182600281106132ed576132ec614bee565b5b6003020160020180549050816133039190614d38565b83838151811061331657613315614bee565b5b60200260200101818152505050808061332e90614ba5565b915050613247565b508092505050919050565b60606000600183516133539190614739565b67ffffffffffffffff81111561336c5761336b613757565b5b60405190808252806020026020018201604052801561339a5781602001602082028036833780820191505090505b50905060005b83518110156134195760648560646133b89190615310565b8583815181106133cb576133ca614bee565b5b60200260200101516133dd9190614caf565b6133e79190614d38565b8282815181106133fa576133f9614bee565b5b602002602001018181525050808061341190614ba5565b9150506133a0565b508060018151811061342e5761342d614bee565b5b60200260200101518160008151811061344a57613449614bee565b5b6020026020010151606461345e9190615310565b6134689190615310565b81600183516134779190615310565b8151811061348857613487614bee565b5b6020026020010181815250508091505092915050565b6040518061010001604052806000801916815260200160008152602001600081526020016060815260200160608152602001606081526020016134df61362e565b8152602001606081525090565b6040518060e0016040528060008152602001600073ffffffffffffffffffffffffffffffffffffffff168152602001600073ffffffffffffffffffffffffffffffffffffffff16815260200160008152602001606081526020016000815260200161355561365b565b81525090565b8280546135679061466c565b90600052602060002090601f01602090048101928261358957600085556135d0565b82601f106135a257805160ff19168380011785556135d0565b828001600101855582156135d0579182015b828111156135cf5782518255916020019190600101906135b4565b5b5090506135dd91906136a0565b5090565b82805482825590600052602060002090810192821561361d579160200282015b8281111561361c578251825591602001919060010190613601565b5b50905061362a91906136a0565b5090565b60405180604001604052806002905b6136456136bd565b81526020019060019003908161363d5790505090565b6040518060a00160405280600081526020016000815260200160008152602001600073ffffffffffffffffffffffffffffffffffffffff168152602001600081525090565b5b808211156136b95760008160009055506001016136a1565b5090565b6040518060600160405280600073ffffffffffffffffffffffffffffffffffffffff16815260200160608152602001606081525090565b6000819050919050565b613707816136f4565b82525050565b600060208201905061372260008301846136fe565b92915050565b6000604051905090565b600080fd5b600080fd5b600080fd5b600080fd5b6000601f19601f8301169050919050565b7f4e487b7100000000000000000000000000000000000000000000000000000000600052604160045260246000fd5b61378f82613746565b810181811067ffffffffffffffff821117156137ae576137ad613757565b5b80604052505050565b60006137c1613728565b90506137cd8282613786565b919050565b600067ffffffffffffffff8211156137ed576137ec613757565b5b6137f682613746565b9050602081019050919050565b82818337600083830152505050565b6000613825613820846137d2565b6137b7565b90508281526020810184848401111561384157613840613741565b5b61384c848285613803565b509392505050565b600082601f8301126138695761386861373c565b5b8135613879848260208601613812565b91505092915050565b60006020828403121561389857613897613732565b5b600082013567ffffffffffffffff8111156138b6576138b5613737565b5b6138c284828501613854565b91505092915050565b600081519050919050565b600082825260208201905092915050565b60005b838110156139055780820151818401526020810190506138ea565b83811115613914576000848401525b50505050565b6000613925826138cb565b61392f81856138d6565b935061393f8185602086016138e7565b61394881613746565b840191505092915050565b6000602082019050818103600083015261396d818461391a565b905092915050565b6000819050919050565b61398881613975565b811461399357600080fd5b50565b6000813590506139a58161397f565b92915050565b6000602082840312156139c1576139c0613732565b5b60006139cf84828501613996565b91505092915050565b6139e181613975565b82525050565b6139f0816136f4565b82525050565b600081519050919050565b600082825260208201905092915050565b6000819050602082019050919050565b600073ffffffffffffffffffffffffffffffffffffffff82169050919050565b6000613a4d82613a22565b9050919050565b613a5d81613a42565b82525050565b6000613a6f8383613a54565b60208301905092915050565b6000602082019050919050565b6000613a93826139f6565b613a9d8185613a01565b9350613aa883613a12565b8060005b83811015613ad9578151613ac08882613a63565b9750613acb83613a7b565b925050600181019050613aac565b5085935050505092915050565b600060029050919050565b600081905092915050565b6000819050919050565b600082825260208201905092915050565b6000613b22826138cb565b613b2c8185613b06565b9350613b3c8185602086016138e7565b613b4581613746565b840191505092915050565b600081519050919050565b600082825260208201905092915050565b6000819050602082019050919050565b6000613b8883836139e7565b60208301905092915050565b6000602082019050919050565b6000613bac82613b50565b613bb68185613b5b565b9350613bc183613b6c565b8060005b83811015613bf2578151613bd98882613b7c565b9750613be483613b94565b925050600181019050613bc5565b5085935050505092915050565b6000606083016000830151613c176000860182613a54565b5060208301518482036020860152613c2f8282613b17565b91505060408301518482036040860152613c498282613ba1565b9150508091505092915050565b6000613c628383613bff565b905092915050565b6000602082019050919050565b6000613c8282613ae6565b613c8c8185613af1565b935083602082028501613c9e85613afc565b8060005b85811015613cda5784840389528151613cbb8582613c56565b9450613cc683613c6a565b925060208a01995050600181019050613ca2565b50829750879550505050505092915050565b600061010083016000830151613d0560008601826139d8565b506020830151613d1860208601826139e7565b506040830151613d2b60408601826139e7565b5060608301518482036060860152613d438282613a88565b91505060808301518482036080860152613d5d8282613a88565b91505060a083015184820360a0860152613d778282613a88565b91505060c083015184820360c0860152613d918282613c77565b91505060e083015184820360e0860152613dab8282613b17565b9150508091505092915050565b60006020820190508181036000830152613dd28184613cec565b905092915050565b613de3816136f4565b8114613dee57600080fd5b50565b600081359050613e0081613dda565b92915050565b60008060008060808587031215613e2057613e1f613732565b5b6000613e2e87828801613df1565b9450506020613e3f87828801613df1565b9350506040613e5087828801613df1565b9250506060613e6187828801613df1565b91505092959194509250565b600060208284031215613e8357613e82613732565b5b6000613e9184828501613df1565b91505092915050565b60a082016000820151613eb060008501826139e7565b506020820151613ec360208501826139e7565b506040820151613ed660408501826139e7565b506060820151613ee96060850182613a54565b506080820151613efc60808501826139e7565b50505050565b600061016083016000830151613f1b60008601826139e7565b506020830151613f2e6020860182613a54565b506040830151613f416040860182613a54565b506060830151613f5460608601826139e7565b5060808301518482036080860152613f6c8282613b17565b91505060a0830151613f8160a08601826139e7565b5060c0830151613f9460c0860182613e9a565b508091505092915050565b60006020820190508181036000830152613fb98184613f02565b905092915050565b613fca81613a42565b82525050565b60a082016000820151613fe660008501826139e7565b506020820151613ff960208501826139e7565b50604082015161400c60408501826139e7565b50606082015161401f6060850182613a54565b50608082015161403260808501826139e7565b50505050565b60006101608201905061404e600083018a6136fe565b61405b6020830189613fc1565b6140686040830188613fc1565b61407560608301876136fe565b8181036080830152614087818661391a565b905061409660a08301856136fe565b6140a360c0830184613fd0565b98975050505050505050565b60006020820190506140c46000830184613fc1565b92915050565b6140d381613a42565b81146140de57600080fd5b50565b6000813590506140f0816140ca565b92915050565b60006020828403121561410c5761410b613732565b5b600061411a848285016140e1565b91505092915050565b600067ffffffffffffffff82111561413e5761413d613757565b5b602082029050919050565b600080fd5b600061416161415c84614123565b6137b7565b9050806020840283018581111561417b5761417a614149565b5b835b818110156141a457806141908882613df1565b84526020840193505060208101905061417d565b5050509392505050565b600082601f8301126141c3576141c261373c565b5b60026141d084828561414e565b91505092915050565b600080606083850312156141f0576141ef613732565b5b60006141fe858286016141ae565b925050604061420f85828601613996565b9150509250929050565b600080604083850312156142305761422f613732565b5b600061423e858286016140e1565b925050602061424f85828601613df1565b9150509250929050565b61426281613975565b82525050565b600060808201905061427d6000830187614259565b61428a60208301866136fe565b61429760408301856136fe565b81810360608301526142a9818461391a565b905095945050505050565b600080604083850312156142cb576142ca613732565b5b60006142d985828601613df1565b925050602083013567ffffffffffffffff8111156142fa576142f9613737565b5b61430685828601613854565b9150509250929050565b600082825260208201905092915050565b600061432c82613b50565b6143368185614310565b935061434183613b6c565b8060005b838110156143725781516143598882613b7c565b975061436483613b94565b925050600181019050614345565b5085935050505092915050565b600060208201905081810360008301526143998184614321565b905092915050565b600081519050919050565b600082825260208201905092915050565b6000819050602082019050919050565b60006143d983836139d8565b60208301905092915050565b6000602082019050919050565b60006143fd826143a1565b61440781856143ac565b9350614412836143bd565b8060005b8381101561444357815161442a88826143cd565b9750614435836143e5565b925050600181019050614416565b5085935050505092915050565b6000602082019050818103600083015261446a81846143f2565b905092915050565b60006020820190506144876000830184614259565b92915050565b600081519050919050565b600082825260208201905092915050565b6000819050602082019050919050565b6000610100830160008301516144d260008601826139d8565b5060208301516144e560208601826139e7565b5060408301516144f860408601826139e7565b50606083015184820360608601526145108282613a88565b9150506080830151848203608086015261452a8282613a88565b91505060a083015184820360a08601526145448282613a88565b91505060c083015184820360c086015261455e8282613c77565b91505060e083015184820360e08601526145788282613b17565b9150508091505092915050565b600061459183836144b9565b905092915050565b6000602082019050919050565b60006145b18261448d565b6145bb8185614498565b9350836020820285016145cd856144a9565b8060005b8581101561460957848403895281516145ea8582614585565b94506145f583614599565b925060208a019950506001810190506145d1565b50829750879550505050505092915050565b6000602082019050818103600083015261463581846145a6565b905092915050565b7f4e487b7100000000000000000000000000000000000000000000000000000000600052602260045260246000fd5b6000600282049050600182168061468457607f821691505b602082108114156146985761469761463d565b5b50919050565b7f5468697320616464726573732063616e6e6f74206265206a7564676500000000600082015250565b60006146d4601c836138d6565b91506146df8261469e565b602082019050919050565b60006020820190508181036000830152614703816146c7565b9050919050565b7f4e487b7100000000000000000000000000000000000000000000000000000000600052601160045260246000fd5b6000614744826136f4565b915061474f836136f4565b9250827fffffffffffffffffffffffffffffffffffffffffffffffffffffffffffffffff038211156147845761478361470a565b5b828201905092915050565b7f54656e616e745368617265202b204c616e646c6f7264205368617265202b204660008201527f6565205368617265206973206e6f742031303025000000000000000000000000602082015250565b60006147eb6034836138d6565b91506147f68261478f565b604082019050919050565b6000602082019050818103600083015261481a816147de565b9050919050565b600081905092915050565b7f5265736f6c766572416464726573730000000000000000000000000000000000600082015250565b6000614862600f83614821565b915061486d8261482c565b600f82019050919050565b600061488382614855565b9150819050919050565b7f4f6e6c79204c616e646c6f7264206f72205265736f6c7665722063616e20637260008201527f656174652072656465656d2070726f706f73616c000000000000000000000000602082015250565b60006148e96034836138d6565b91506148f48261488d565b604082019050919050565b60006020820190508181036000830152614918816148dc565b9050919050565b600080fd5b600080fd5b60008151905061493881613dda565b92915050565b60008151905061494d816140ca565b92915050565b6000614966614961846137d2565b6137b7565b90508281526020810184848401111561498257614981613741565b5b61498d8482856138e7565b509392505050565b600082601f8301126149aa576149a961373c565b5b81516149ba848260208601614953565b91505092915050565b600060a082840312156149d9576149d861491f565b5b6149e360a06137b7565b905060006149f384828501614929565b6000830152506020614a0784828501614929565b6020830152506040614a1b84828501614929565b6040830152506060614a2f8482850161493e565b6060830152506080614a4384828501614929565b60808301525092915050565b60006101608284031215614a6657614a6561491f565b5b614a7060e06137b7565b90506000614a8084828501614929565b6000830152506020614a948482850161493e565b6020830152506040614aa88482850161493e565b6040830152506060614abc84828501614929565b606083015250608082015167ffffffffffffffff811115614ae057614adf614924565b5b614aec84828501614995565b60808301525060a0614b0084828501614929565b60a08301525060c0614b14848285016149c3565b60c08301525092915050565b600060208284031215614b3657614b35613732565b5b600082015167ffffffffffffffff811115614b5457614b53613737565b5b614b6084828501614a4f565b91505092915050565b6000819050919050565b614b84614b7f826136f4565b614b69565b82525050565b6000614b968284614b73565b60208201915081905092915050565b6000614bb0826136f4565b91507fffffffffffffffffffffffffffffffffffffffffffffffffffffffffffffffff821415614be357614be261470a565b5b600182019050919050565b7f4e487b7100000000000000000000000000000000000000000000000000000000600052603260045260246000fd5b7f4f6e6c792074656e616e742063616e206163636570742072656465656d20707260008201527f6f706f73616c0000000000000000000000000000000000000000000000000000602082015250565b6000614c796026836138d6565b9150614c8482614c1d565b604082019050919050565b60006020820190508181036000830152614ca881614c6c565b9050919050565b6000614cba826136f4565b9150614cc5836136f4565b9250817fffffffffffffffffffffffffffffffffffffffffffffffffffffffffffffffff0483118215151615614cfe57614cfd61470a565b5b828202905092915050565b7f4e487b7100000000000000000000000000000000000000000000000000000000600052601260045260246000fd5b6000614d43826136f4565b9150614d4e836136f4565b925082614d5e57614d5d614d09565b5b828204905092915050565b7f54656e616e745368617265202b204c616e646c6f7264205368617265202b204660008201527f656520536861726520646f6573206e6f7420657175616c20457363726f77205660208201527f616c756500000000000000000000000000000000000000000000000000000000604082015250565b6000614deb6044836138d6565b9150614df682614d69565b606082019050919050565b60006020820190508181036000830152614e1a81614dde565b9050919050565b7f457363726f7720686173206265656e20616c726561642072656465656d65642e600082015250565b6000614e576020836138d6565b9150614e6282614e21565b602082019050919050565b60006020820190508181036000830152614e8681614e4a565b9050919050565b7f4574682073656e74206973206e6f742073616d6520617320657363726f77566160008201527f6c75650000000000000000000000000000000000000000000000000000000000602082015250565b6000614ee96023836138d6565b9150614ef482614e8d565b604082019050919050565b60006020820190508181036000830152614f1881614edc565b9050919050565b7f54656e616e7420616e64204c616e646c6f7264206d757374206e6f742062652060008201527f73616d6520616464726573736573000000000000000000000000000000000000602082015250565b6000614f7b602e836138d6565b9150614f8682614f1f565b604082019050919050565b60006020820190508181036000830152614faa81614f6e565b9050919050565b7f436f6e747261637420616c726561647920616363657074656400000000000000600082015250565b6000614fe76019836138d6565b9150614ff282614fb1565b602082019050919050565b6000602082019050818103600083015261501681614fda565b9050919050565b7f566f746573206e6f742031303000000000000000000000000000000000000000600082015250565b6000615053600d836138d6565b915061505e8261501d565b602082019050919050565b6000602082019050818103600083015261508281615046565b9050919050565b7f4f6e6c792074656e616e74206f72206c616e646c6f72642063616e206163636560008201527f70742072656465656d2070726f706f73616c0000000000000000000000000000602082015250565b60006150e56032836138d6565b91506150f082615089565b604082019050919050565b60006020820190508181036000830152615114816150d8565b9050919050565b7f416c72656164792072656a656374656400000000000000000000000000000000600082015250565b60006151516010836138d6565b915061515c8261511b565b602082019050919050565b6000602082019050818103600083015261518081615144565b9050919050565b7f416c726561647920616363657074656400000000000000000000000000000000600082015250565b60006151bd6010836138d6565b91506151c882615187565b602082019050919050565b600060208201905081810360008301526151ec816151b0565b9050919050565b600060808201905061520860008301876136fe565b61521560208301866136fe565b61522260408301856136fe565b61522f60608301846136fe565b95945050505050565b7f41646472657373206e6f742061206a7564676500000000000000000000000000600082015250565b600061526e6013836138d6565b915061527982615238565b602082019050919050565b6000602082019050818103600083015261529d81615261565b9050919050565b7f4a7564676520416c726561647920766f74656400000000000000000000000000600082015250565b60006152da6013836138d6565b91506152e5826152a4565b602082019050919050565b60006020820190508181036000830152615309816152cd565b9050919050565b600061531b826136f4565b9150615326836136f4565b9250828210156153395761533861470a565b5b82820390509291505056fea2646970667358221220e56bea9eace4d966725173ec24bf81b7fdbd7f0288d9e3dd8fc0da5f14be228064736f6c634300080a0033",
  "immutableReferences": {},
  "source": "// SPDX-License-Identifier:\tCC-BY-4.0\npragma solidity ^0.8.10;\nimport \"./rentEscrow.sol\";\n\ncontract resolver is rentEscrow {\n    ///@dev events for production\n    event sendDisputeId(bytes32);\n    //event sendTenant (uint _id);\n    ///@dev events for development\n    event sendMessage (string _message);\n    event sendAddress (address _message);\n    event sendId (uint _message);\n    event sendStruct (rentEscrow _rentEscrow);\n    event sendBool (bool _bool);\n\n    address rentEscrowAddress;\n\n    ///@param id case identifier. Currently same as rentContract. \n    ///@param status status of the case. 100: waiting for judge 200: waiting for resolution 300: resolved\n    ///@param judges addreses that are assigned to resolve the dispute\n    ///@param restrictedJudges addresses that cannot be assigned as judge (among others: tenant, landlord)\n    ///@param disputeDetail  bears details about the case. Currenly a placeholder aim is to link this to some IPFS file\n    ///@param partialResult contains voting of each judge\n    ///@param finalResult contains final result after each judge casted their vote\n    \n    struct DisputeCase {\n        bytes32 disputeId;\n        uint rentId;\n        uint status;\n        address [] judges;\n        address [] judgesWhoVoted;\n        address [] restrictedJudges;\n        DisputeParty [2] disputeParty;\n        string disputeDetail;\n    }\n\n    struct DisputeParty {\n        address disputePartyAddress;\n        string documentation;\n        uint [] judgeVotes;\n    }\n\n    uint feePct = 10;\n\n    ///@dev this is a flag to see if I need to reach for new DisputeCase or I just fill new address into existing one\n    struct CaseWaitingForJudge {\n        bool waiting;\n        bytes32 disputeId;\n    } \n    CaseWaitingForJudge caseWaitingForJudge;\n    \n    function UpdateCaseWaitingForJudge  (bool _waiting, bytes32 _disputeId) internal {\n        caseWaitingForJudge.waiting = _waiting;\n        caseWaitingForJudge.disputeId = _disputeId;\n    }\n\n    uint disputeIdNonce = 0;\n\n    ///@dev Number of judges needed for this contract\n    uint numberOfJudges = 3;\n    ///@dev update number of judges.\n    ///@custom:later should be admin only...\n    function updateNumberOfJudges (uint _numberOfJudges) external {\n        numberOfJudges = _numberOfJudges;\n    }\n\n\n    mapping(bytes32 =>DisputeCase) public DisputeCaseMapping;\n    mapping(address => bytes32 []) public AddressToCaseMapping;\n\n    function getDisputeCase (bytes32 _disputeId) public view returns (DisputeCase memory) {\n\n        return DisputeCaseMapping[_disputeId];\n    }\n    ///@notice Use this to get list of all your cases\n    ///@dev One user can have multiple dispute cases. Therefore I need to coerce from storage to list. I don't know if there is more \n    //elegant way to do this\n     function getMyDisputeCase () public view returns (DisputeCase [] memory) {\n         bytes32 [] memory disputeCaseIds  = getMyDisputeCaseId();\n        ///@custom:later I don't know exactly what I am doing here \n         DisputeCase [] memory disputeCaseList = new DisputeCase[](disputeCaseIds.length);\n        \n         for (uint i = 0; i < disputeCaseIds.length; i++) {\n             disputeCaseList[i] = getDisputeCase(disputeCaseIds[i]);\n         }\n         return disputeCaseList;\n     }\n\n    ///@notice use this to get Ids for further query\n    function getMyDisputeCaseId () public view returns (bytes32 [] memory _disputeCaseId) {\n        return AddressToCaseMapping[msg.sender];\n    }\n\n    ///@dev to establish connection to other contract\n    ///@custom:later  this works fine for single contract. I need this to be modular and can connect multiple contract on the fly\n    \n    function setRentEscrowAddress (address _rentEscrowAddress) public  {\n        rentEscrowAddress = _rentEscrowAddress;\n         emit sendAddress(rentEscrowAddress);\n    }\n\n    ///@notice requests new new dispute case from external contract. It is external contract job to send valid dispute case\n    function getNewContractToResolve () public {\n\n        rentEscrowInterface re = rentEscrowInterface(rentEscrowAddress);\n        RentContract memory rentContract = re.getContractToResolve();\n             \n        ///@dev I will create unique hash for every dispute case. This contract doesn't care if it resolves same rentCotnract multiple times. It is up to the rentContract to manage this\n        ///@dev I have no special motivation to hash the id, other than to a) try it b) make it impossible to view\n        bytes32 disputeId = keccak256(abi.encodePacked(rentContract.rentId + disputeIdNonce));\n        disputeIdNonce++;\n        \n        ///@custom:later if I get this right, newDisputeCase is a pointer to a place in storage. If this function is called multiple times on same rentID (mapping key) data will be overwritten\n        DisputeCase storage newDisputeCase = DisputeCaseMapping[disputeId];\n        newDisputeCase.disputeId = disputeId;\n        newDisputeCase.rentId = rentContract.rentId;\n        newDisputeCase.status = 100;\n        newDisputeCase.disputeDetail = \"Hello\";\n\n        ///@custom:later Seems ugly...\n        DisputeParty memory disputeParty1 = DisputeParty({\n            disputePartyAddress: rentContract.landlord,\n            documentation: \"\",\n            judgeVotes: new uint [](0)\n        });\n\n        DisputeParty memory disputeParty2 = DisputeParty({\n            disputePartyAddress: rentContract.tenant,\n            documentation: \"\",\n            judgeVotes: new uint [](0)\n        });\n\n        newDisputeCase.disputeParty[0] = disputeParty1;\n        newDisputeCase.disputeParty[1] = disputeParty2;\n\n        ///@dev update mappping, so dispute parties can track their own dispute cases\n        AddressToCaseMapping[rentContract.landlord].push(disputeId);\n        AddressToCaseMapping[rentContract.tenant].push(disputeId);\n\n        ///@dev updates flag for nex runs. Now we have a open case, but not enough judges. Therefore we dont need to ask for new disputes\n        UpdateCaseWaitingForJudge(true,disputeId );\n\n    }\n\n    ///@notice Entry point for contract. Dispute lifecycle starts here by assigning judge to existing dispute or requesting new dispute from external contract\n    function assignJudge() public {\n        ///@dev decide if I am missing judges in existing dispute. If yes, this gets skipped, otherwise will ask for new resolution case\n        if (caseWaitingForJudge.waiting == false) {\n            getNewContractToResolve();\n            }\n        ///@custom:later I am shutting this off now for development reasons\n        require(testJudgeEligibility(DisputeCaseMapping[caseWaitingForJudge.disputeId]), \"This address cannot be judge\");\n        \n\n        ///@dev emitting disputeId for future reference in front end\n        emit sendDisputeId(DisputeCaseMapping[caseWaitingForJudge.disputeId].disputeId);\n        \n        //@dev adding msg sender as a new judge and updating the mapping\n        DisputeCaseMapping[caseWaitingForJudge.disputeId].judges.push(msg.sender);\n        AddressToCaseMapping[msg.sender].push(DisputeCaseMapping[caseWaitingForJudge.disputeId].disputeId);\n                \n        ///@dev decide whether we have enough judges. if yes, nex assign judge will call getNewContractToResolve\n        if (DisputeCaseMapping[caseWaitingForJudge.disputeId].judges.length >= numberOfJudges) {\n            UpdateCaseWaitingForJudge(false, 0);\n        }\n    }\n    ///@custom:later is this a case for modifier?\n    ///@dev multiple tests to control who can be judge\n    ///@dev we are on the conservative side and starting with default False. \n    ///@dev this seems extremely verbose, please shill me something more elegant\n    function testJudgeEligibility (DisputeCase storage _disputeCase) internal view returns (bool _eligible) {\n        uint judgeCount;\n        uint disputePartyCount;\n\n        ///@dev test if address is already judge. \n        for(uint i=0; i<_disputeCase.judges.length; i++){\n            judgeCount = msg.sender == _disputeCase.judges[i] ? judgeCount+1:judgeCount;\n            }\n        ///@dev test if address is on the restricted list\n        for(uint i=0; i<_disputeCase.disputeParty.length; i++){\n            disputePartyCount = msg.sender == _disputeCase.disputeParty[i].disputePartyAddress ? disputePartyCount+1:disputePartyCount+0;\n            }\n        \n        _eligible = judgeCount+disputePartyCount==0 ? true:false;\n\n        }\n\n    ///@dev test to see if address can vote or if already voted\n    function testJudgeEligibilityToVote (DisputeCase storage _disputeCase) internal view {\n\n        ///@dev test if address is judge\n        uint judgeCounter;\n        for(uint i=0; i<_disputeCase.judges.length; i++){\n            judgeCounter = msg.sender == _disputeCase.judges[i] ? judgeCounter+1:judgeCounter;\n            }\n        require(judgeCounter >0 ,\"Address not a judge\");\n\n        //test if address already voted\n        for(uint i=0; i<_disputeCase.judgesWhoVoted.length; i++){\n            require(msg.sender!=_disputeCase.judgesWhoVoted[i], \"Judge Already voted\");\n            }\n\n    }\n\n    function castVote(uint [2] memory _judgeVote, bytes32 _disputeId) external {\n        require(_judgeVote[0] + _judgeVote[1] == 100, \"Votes not 100\");\n        DisputeCase storage disputeCase = DisputeCaseMapping[_disputeId];\n        testJudgeEligibilityToVote(disputeCase);\n\n        ///@dev this is suboptimal as it relies on order of votes within array. Should be linked to disputeParty address\n        \n        disputeCase.disputeParty[0].judgeVotes.push(_judgeVote[0]);\n        disputeCase.disputeParty[1].judgeVotes.push(_judgeVote[1]);\n        disputeCase.judgesWhoVoted.push(msg.sender);\n\n        ///@dev Test if all judges voted. If yes, trigger createRedeem proposal and release funds \n        if (disputeCase.disputeParty[0].judgeVotes.length == numberOfJudges &&\n        disputeCase.disputeParty[1].judgeVotes.length == numberOfJudges) {\n            triggerCreateRedeemProposal(_disputeId);\n        }\n    }\n\n    \n    \n    function triggerCreateRedeemProposal(bytes32 _disputeId) public {\n        uint [] memory result;\n        ///@custom:later Which is better? This?\n        result = aggregateJudgeVotes(_disputeId);\n        result = rebaseVotesIncludeFee(feePct, result);\n        //or this: result = rebaseVotesIncludeFee(feePct, aggregateJudgeVotes(_disputeId));\n\n        \n        rentEscrowInterface re = rentEscrowInterface(rentEscrowAddress);\n        re.createRedeemProposal(\n            DisputeCaseMapping[_disputeId].rentId,\n            result[0],\n            result[1],\n            result[2]\n        );\n        re.acceptRedeemProposal(DisputeCaseMapping[_disputeId].rentId);\n    }\n\n    function aggregateJudgeVotes (bytes32 _disputeId) private view returns (uint [] memory) {\n        DisputeCase storage disputeCase = DisputeCaseMapping[_disputeId];\n        uint [] memory result = new uint[](disputeCase.disputeParty.length);\n    \n\n        for (uint i = 0; i<disputeCase.disputeParty.length; i++){\n            uint cummulVotes = 0;\n            for (uint j = 0; j < disputeCase.disputeParty[i].judgeVotes.length; j++){\n                cummulVotes += disputeCase.disputeParty[i].judgeVotes[j];\n            }\n            result[i] = cummulVotes/disputeCase.disputeParty[i].judgeVotes.length;\n            \n        }\n        return result;\n\n    }\n    ///@dev This rebases Votes to include share of fee, that get into Resolver contract\n    ///@dev In case of 2 parties should return 3 values. 1 and 2, is share of dispute parties. 3 is fee share.\n    function rebaseVotesIncludeFee (uint _feeShare, uint [] memory votes) private pure returns (uint [] memory) {\n        uint [] memory result = new uint[](votes.length + 1);\n        \n        for (uint i = 0; i < votes.length; i++ ){\n            result[i] = (votes[i]*(100-_feeShare))/100;\n            \n        }\n        ///@custom:later This is dirty, but I dont know how to round properly and need the sum of result elements to be 100\n        result[result.length - 1] = 100 - result[0] - result[1];\n        return result;\n    }\n\n    receive() external payable {\n\n    }\n\n    }\n\n",
  "sourcePath": "/Users/andy/my_repos/rentEscrow/contracts/resolver.sol",
  "compiler": {
    "name": "solc",
    "version": "0.8.10+commit.fc410830.Emscripten.clang"
  },
  "schemaVersion": "3.4.5",
  "updatedAt": "2022-03-12T13:14:06.218Z",
  "devdoc": {
    "events": {
      "sendDisputeId(bytes32)": {
        "details": "events for production"
      },
      "sendMessage(string)": {
        "details": "events for development"
      }
    },
    "kind": "dev",
    "methods": {
      "createRedeemProposal(uint256,uint256,uint256,uint256)": {
        "custom:navigation": "Redeems"
      },
      "devGetBalance()": {
        "custom:navigation": "Development Helpers"
      },
      "getContractToResolve()": {
        "custom:later": "now gives just first contract. Need to add logic to return contract where redeemProposal was rejected",
        "details": "this is used by retrieve mapping by another contract"
      },
      "getMyDisputeCase()": {
        "details": "One user can have multiple dispute cases. Therefore I need to coerce from storage to list. I don't know if there is more "
      },
      "proposeNewContract(uint256,string)": {
        "custom:navigation": "RentContracts"
      },
      "rejectRedeemProposal(uint256)": {
        "params": {
          "_rentId": "identifies the contract between tenant and landlord"
        }
      },
      "setRentEscrowAddress(address)": {
        "custom:later": "this works fine for single contract. I need this to be modular and can connect multiple contract on the fly",
        "details": "to establish connection to other contract"
      },
      "setResolverAddress(address)": {
        "details": "sets"
      },
      "updateNumberOfJudges(uint256)": {
        "custom:later": "should be admin only...",
        "details": "update number of judges."
      }
    },
    "stateVariables": {
      "numberOfJudges": {
        "details": "Number of judges needed for this contract"
      }
    },
    "version": 1
  },
  "userdoc": {
    "kind": "user",
    "methods": {
      "assignJudge()": {
        "notice": "Entry point for contract. Dispute lifecycle starts here by assigning judge to existing dispute or requesting new dispute from external contract"
      },
      "getContractDetails(uint256)": {
        "notice": "returns RentContract"
      },
      "getContractsByAddress()": {
        "notice": "returns all contracts  where sender is involved party"
      },
      "getMyDisputeCase()": {
        "notice": "Use this to get list of all your cases"
      },
      "getMyDisputeCaseId()": {
        "notice": "use this to get Ids for further query"
      },
      "getNewContractToResolve()": {
        "notice": "requests new new dispute case from external contract. It is external contract job to send valid dispute case"
      },
      "rejectRedeemProposal(uint256)": {
        "notice": "Use this function to reject redeem proposal. Will send it to the resolution centre"
      }
    },
    "version": 1
  }
}