{
  "contractName": "resolver",
  "abi": [
    {
      "anonymous": false,
      "inputs": [
        {
          "indexed": false,
          "internalType": "uint256",
          "name": "_rentId",
          "type": "uint256"
        }
      ],
      "name": "rentContractId",
      "type": "event"
    },
    {
      "anonymous": false,
      "inputs": [
        {
          "indexed": false,
          "internalType": "address",
          "name": "_message",
          "type": "address"
        }
      ],
      "name": "sendMessage",
      "type": "event"
    },
    {
      "inputs": [
        {
          "internalType": "uint256",
          "name": "_rentId",
          "type": "uint256"
        }
      ],
      "name": "acceptNewContract",
      "outputs": [],
      "stateMutability": "payable",
      "type": "function"
    },
    {
      "inputs": [
        {
          "internalType": "uint256",
          "name": "_rentId",
          "type": "uint256"
        }
      ],
      "name": "acceptRedeemProposal",
      "outputs": [],
      "stateMutability": "nonpayable",
      "type": "function"
    },
    {
      "inputs": [
        {
          "internalType": "address",
          "name": "",
          "type": "address"
        },
        {
          "internalType": "uint256",
          "name": "",
          "type": "uint256"
        }
      ],
      "name": "addressMapping",
      "outputs": [
        {
          "internalType": "uint256",
          "name": "",
          "type": "uint256"
        }
      ],
      "stateMutability": "view",
      "type": "function"
    },
    {
      "inputs": [
        {
          "internalType": "uint256",
          "name": "_rentId",
          "type": "uint256"
        },
        {
          "internalType": "uint256",
          "name": "_tenantShare",
          "type": "uint256"
        },
        {
          "internalType": "uint256",
          "name": "_landlordShare",
          "type": "uint256"
        },
        {
          "internalType": "uint256",
          "name": "_feeShare",
          "type": "uint256"
        },
        {
          "internalType": "address",
          "name": "_feeAddress",
          "type": "address"
        }
      ],
      "name": "createRedeemProposal",
      "outputs": [],
      "stateMutability": "nonpayable",
      "type": "function"
    },
    {
      "inputs": [],
      "name": "devGetBalance",
      "outputs": [
        {
          "internalType": "uint256",
          "name": "",
          "type": "uint256"
        }
      ],
      "stateMutability": "view",
      "type": "function"
    },
    {
      "inputs": [],
      "name": "getContractToResolve",
      "outputs": [
        {
          "components": [
            {
              "internalType": "uint256",
              "name": "rentId",
              "type": "uint256"
            },
            {
              "internalType": "address",
              "name": "tenant",
              "type": "address"
            },
            {
              "internalType": "address",
              "name": "landlord",
              "type": "address"
            },
            {
              "internalType": "uint256",
              "name": "escrowValue",
              "type": "uint256"
            },
            {
              "internalType": "string",
              "name": "contractDetail",
              "type": "string"
            },
            {
              "internalType": "string",
              "name": "status",
              "type": "string"
            },
            {
              "components": [
                {
                  "internalType": "uint256",
                  "name": "tenantShare",
                  "type": "uint256"
                },
                {
                  "internalType": "uint256",
                  "name": "landlordShare",
                  "type": "uint256"
                },
                {
                  "internalType": "uint256",
                  "name": "feeShare",
                  "type": "uint256"
                },
                {
                  "internalType": "address",
                  "name": "feeAddress",
                  "type": "address"
                },
                {
                  "internalType": "uint256",
                  "name": "proposalStatus",
                  "type": "uint256"
                }
              ],
              "internalType": "struct rentEscrowInterface.redeemProposal",
              "name": "redeemProposal",
              "type": "tuple"
            }
          ],
          "internalType": "struct rentEscrowInterface.rentContract",
          "name": "",
          "type": "tuple"
        }
      ],
      "stateMutability": "view",
      "type": "function"
    },
    {
      "inputs": [],
      "name": "getContractsByAddress",
      "outputs": [
        {
          "internalType": "uint256[]",
          "name": "",
          "type": "uint256[]"
        }
      ],
      "stateMutability": "view",
      "type": "function"
    },
    {
      "inputs": [],
      "name": "nextRentId",
      "outputs": [
        {
          "internalType": "uint256",
          "name": "",
          "type": "uint256"
        }
      ],
      "stateMutability": "view",
      "type": "function"
    },
    {
      "inputs": [
        {
          "internalType": "uint256",
          "name": "_escrowValue",
          "type": "uint256"
        },
        {
          "internalType": "string",
          "name": "_contractDetail",
          "type": "string"
        }
      ],
      "name": "proposeNewContract",
      "outputs": [],
      "stateMutability": "nonpayable",
      "type": "function"
    },
    {
      "inputs": [
        {
          "internalType": "uint256",
          "name": "_rentId",
          "type": "uint256"
        }
      ],
      "name": "rejectRedeemProposal",
      "outputs": [],
      "stateMutability": "nonpayable",
      "type": "function"
    },
    {
      "inputs": [
        {
          "internalType": "uint256",
          "name": "",
          "type": "uint256"
        }
      ],
      "name": "rentContractsMapping",
      "outputs": [
        {
          "internalType": "uint256",
          "name": "rentId",
          "type": "uint256"
        },
        {
          "internalType": "address",
          "name": "tenant",
          "type": "address"
        },
        {
          "internalType": "address",
          "name": "landlord",
          "type": "address"
        },
        {
          "internalType": "uint256",
          "name": "escrowValue",
          "type": "uint256"
        },
        {
          "internalType": "string",
          "name": "contractDetail",
          "type": "string"
        },
        {
          "internalType": "string",
          "name": "status",
          "type": "string"
        },
        {
          "components": [
            {
              "internalType": "uint256",
              "name": "tenantShare",
              "type": "uint256"
            },
            {
              "internalType": "uint256",
              "name": "landlordShare",
              "type": "uint256"
            },
            {
              "internalType": "uint256",
              "name": "feeShare",
              "type": "uint256"
            },
            {
              "internalType": "address",
              "name": "feeAddress",
              "type": "address"
            },
            {
              "internalType": "uint256",
              "name": "proposalStatus",
              "type": "uint256"
            }
          ],
          "internalType": "struct rentEscrowInterface.redeemProposal",
          "name": "redeemProposal",
          "type": "tuple"
        }
      ],
      "stateMutability": "view",
      "type": "function"
    },
    {
      "inputs": [
        {
          "internalType": "uint256",
          "name": "_numberOfJudges",
          "type": "uint256"
        }
      ],
      "name": "updateNumberOfJudges",
      "outputs": [],
      "stateMutability": "nonpayable",
      "type": "function"
    },
    {
      "inputs": [
        {
          "internalType": "address",
          "name": "_rentEscrowAddress",
          "type": "address"
        }
      ],
      "name": "setRentEscrowAddress",
      "outputs": [],
      "stateMutability": "nonpayable",
      "type": "function"
    },
    {
      "inputs": [],
      "name": "getNewContractToResolve",
      "outputs": [],
      "stateMutability": "nonpayable",
      "type": "function"
    },
    {
      "inputs": [],
      "name": "assignJudge",
      "outputs": [],
      "stateMutability": "nonpayable",
      "type": "function"
    }
  ],
  "bytecode": "0x6080604052600060025560405180604001604052806000151581526020016000815250600460008201518160000160006101000a81548160ff021916908315150217905550602082015181600101555050600360065534801561006157600080fd5b50612c99806100716000396000f3fe6080604052600436106100e85760003560e01c80637ad637d81161008a57806396d65c3e1161005957806396d65c3e1461029f578063a6dd4276146102dc578063b59146f714610305578063b61f5f531461032e576100e8565b80637ad637d81461021a5780637afc2d561461023157806385b589631461025a5780638db2850414610276576100e8565b80633d45370c116100c65780633d45370c1461015a5780634232dfed146101835780636b695d24146101ac5780637395eb41146101ef576100e8565b8063039ed501146100ed5780630e593bc3146101185780632458cc3e1461012f575b600080fd5b3480156100f957600080fd5b50610102610359565b60405161010f9190611be9565b60405180910390f35b34801561012457600080fd5b5061012d61035f565b005b34801561013b57600080fd5b5061014461044b565b6040516101519190611be9565b60405180910390f35b34801561016657600080fd5b50610181600480360381019061017c9190611ca2565b610453565b005b34801561018f57600080fd5b506101aa60048036038101906101a59190611d1d565b610628565b005b3480156101b857600080fd5b506101d360048036038101906101ce9190611d1d565b610632565b6040516101e69796959493929190611e78565b60405180910390f35b3480156101fb57600080fd5b5061020461084c565b604051610211919061204c565b60405180910390f35b34801561022657600080fd5b5061022f610af3565b005b34801561023d57600080fd5b5061025860048036038101906102539190611d1d565b610e7b565b005b610274600480360381019061026f9190611d1d565b611235565b005b34801561028257600080fd5b5061029d6004803603810190610298919061206e565b6112ec565b005b3480156102ab57600080fd5b506102c660048036038101906102c1919061209b565b611389565b6040516102d39190611be9565b60405180910390f35b3480156102e857600080fd5b5061030360048036038101906102fe9190611d1d565b6113ba565b005b34801561031157600080fd5b5061032c60048036038101906103279190612210565b6116c1565b005b34801561033a57600080fd5b506103436118f1565b604051610350919061231b565b60405180910390f35b60025481565b60001515600460000160009054906101000a900460ff161515141561038757610386610af3565b5b600760006004600101548152602001908152602001600020600201339080600181540180825580915050600190039060005260206000200160009091909190916101000a81548173ffffffffffffffffffffffffffffffffffffffff021916908373ffffffffffffffffffffffffffffffffffffffff1602179055506006546007600060046001015481526020019081526020016000206002018054905011610449576000600460000160006101000a81548160ff0219169083151502179055505b565b600047905090565b6000828486610462919061236c565b61046c919061236c565b9050606481146104b1576040517f08c379a00000000000000000000000000000000000000000000000000000000081526004016104a890612434565b60405180910390fd5b60008087815260200190815260200160002060020160009054906101000a900473ffffffffffffffffffffffffffffffffffffffff1673ffffffffffffffffffffffffffffffffffffffff163373ffffffffffffffffffffffffffffffffffffffff1614610554576040517f08c379a000000000000000000000000000000000000000000000000000000000815260040161054b906124c6565b60405180910390fd5b8460008088815260200190815260200160002060060160000181905550836000808881526020019081526020016000206006016001018190555082600080888152602001908152602001600020600601600201819055508160008088815260200190815260200160002060060160030160006101000a81548173ffffffffffffffffffffffffffffffffffffffff021916908373ffffffffffffffffffffffffffffffffffffffff160217905550606460008088815260200190815260200160002060060160040181905550505050505050565b8060068190555050565b60006020528060005260406000206000915090508060000154908060010160009054906101000a900473ffffffffffffffffffffffffffffffffffffffff16908060020160009054906101000a900473ffffffffffffffffffffffffffffffffffffffff16908060030154908060040180546106ad90612515565b80601f01602080910402602001604051908101604052809291908181526020018280546106d990612515565b80156107265780601f106106fb57610100808354040283529160200191610726565b820191906000526020600020905b81548152906001019060200180831161070957829003601f168201915b50505050509080600501805461073b90612515565b80601f016020809104026020016040519081016040528092919081815260200182805461076790612515565b80156107b45780601f10610789576101008083540402835291602001916107b4565b820191906000526020600020905b81548152906001019060200180831161079757829003601f168201915b505050505090806006016040518060a00160405290816000820154815260200160018201548152602001600282015481526020016003820160009054906101000a900473ffffffffffffffffffffffffffffffffffffffff1673ffffffffffffffffffffffffffffffffffffffff1673ffffffffffffffffffffffffffffffffffffffff168152602001600482015481525050905087565b6108546119ef565b6000600190506000808281526020019081526020016000206040518060e0016040529081600082015481526020016001820160009054906101000a900473ffffffffffffffffffffffffffffffffffffffff1673ffffffffffffffffffffffffffffffffffffffff1673ffffffffffffffffffffffffffffffffffffffff1681526020016002820160009054906101000a900473ffffffffffffffffffffffffffffffffffffffff1673ffffffffffffffffffffffffffffffffffffffff1673ffffffffffffffffffffffffffffffffffffffff1681526020016003820154815260200160048201805461094790612515565b80601f016020809104026020016040519081016040528092919081815260200182805461097390612515565b80156109c05780601f10610995576101008083540402835291602001916109c0565b820191906000526020600020905b8154815290600101906020018083116109a357829003601f168201915b505050505081526020016005820180546109d990612515565b80601f0160208091040260200160405190810160405280929190818152602001828054610a0590612515565b8015610a525780601f10610a2757610100808354040283529160200191610a52565b820191906000526020600020905b815481529060010190602001808311610a3557829003601f168201915b50505050508152602001600682016040518060a00160405290816000820154815260200160018201548152602001600282015481526020016003820160009054906101000a900473ffffffffffffffffffffffffffffffffffffffff1673ffffffffffffffffffffffffffffffffffffffff1673ffffffffffffffffffffffffffffffffffffffff1681526020016004820154815250508152505091505090565b600080600360009054906101000a900473ffffffffffffffffffffffffffffffffffffffff1690508073ffffffffffffffffffffffffffffffffffffffff16637395eb416040518163ffffffff1660e01b8152600401600060405180830381865afa158015610b66573d6000803e3d6000fd5b505050506040513d6000823e3d601f19601f82011682018060405250810190610b8f9190612764565b60000151915060603381600081518110610bac57610bab6127ad565b5b602002602001019073ffffffffffffffffffffffffffffffffffffffff16908173ffffffffffffffffffffffffffffffffffffffff1681525050600060405180608001604052808473ffffffffffffffffffffffffffffffffffffffff16637395eb416040518163ffffffff1660e01b8152600401600060405180830381865afa158015610c3e573d6000803e3d6000fd5b505050506040513d6000823e3d601f19601f82011682018060405250810190610c679190612764565b600001518152602001606481526020018381526020018473ffffffffffffffffffffffffffffffffffffffff16637395eb416040518163ffffffff1660e01b8152600401600060405180830381865afa158015610cc8573d6000803e3d6000fd5b505050506040513d6000823e3d601f19601f82011682018060405250810190610cf19190612764565b60800151815250905080600760008573ffffffffffffffffffffffffffffffffffffffff16637395eb416040518163ffffffff1660e01b8152600401600060405180830381865afa158015610d4a573d6000803e3d6000fd5b505050506040513d6000823e3d601f19601f82011682018060405250810190610d739190612764565b60000151815260200190815260200160002060008201518160000155602082015181600101556040820151816002019080519060200190610db5929190611a5e565b506060820151816003019080519060200190610dd2929190611ae8565b509050506001600460000160006101000a81548160ff0219169083151502179055508273ffffffffffffffffffffffffffffffffffffffff16637395eb416040518163ffffffff1660e01b8152600401600060405180830381865afa158015610e3f573d6000803e3d6000fd5b505050506040513d6000823e3d601f19601f82011682018060405250810190610e689190612764565b6000015160046001018190555050505050565b60008082815260200190815260200160002060010160009054906101000a900473ffffffffffffffffffffffffffffffffffffffff1673ffffffffffffffffffffffffffffffffffffffff163373ffffffffffffffffffffffffffffffffffffffff1614610f1e576040517f08c379a0000000000000000000000000000000000000000000000000000000008152600401610f159061284e565b60405180910390fd5b6000806000838152602001908152602001600020600301549050600080600084815260200190815260200160002060010160009054906101000a900473ffffffffffffffffffffffffffffffffffffffff169050600060646000808681526020019081526020016000206006016000015484610f9a919061286e565b610fa491906128f7565b9050600080600086815260200190815260200160002060020160009054906101000a900473ffffffffffffffffffffffffffffffffffffffff169050600060646000808881526020019081526020016000206006016001015486611008919061286e565b61101291906128f7565b9050600080600088815260200190815260200160002060060160030160009054906101000a900473ffffffffffffffffffffffffffffffffffffffff169050600060646000808a81526020019081526020016000206006016002015488611079919061286e565b61108391906128f7565b905086818487611093919061236c565b61109d919061236c565b146110dd576040517f08c379a00000000000000000000000000000000000000000000000000000000081526004016110d4906129c0565b60405180910390fd5b60646000808a81526020019081526020016000206006016004015414611138576040517f08c379a000000000000000000000000000000000000000000000000000000000815260040161112f90612a2c565b60405180910390fd5b60c86000808a8152602001908152602001600020600601600401819055508573ffffffffffffffffffffffffffffffffffffffff166108fc869081150290604051600060405180830381858888f1935050505015801561119c573d6000803e3d6000fd5b508373ffffffffffffffffffffffffffffffffffffffff166108fc849081150290604051600060405180830381858888f193505050501580156111e3573d6000803e3d6000fd5b508173ffffffffffffffffffffffffffffffffffffffff166108fc829081150290604051600060405180830381858888f1935050505015801561122a573d6000803e3d6000fd5b505050505050505050565b60008082815260200190815260200160002060030154341461128c576040517f08c379a000000000000000000000000000000000000000000000000000000000815260040161128390612abe565b60405180910390fd5b3360008083815260200190815260200160002060010160006101000a81548173ffffffffffffffffffffffffffffffffffffffff021916908373ffffffffffffffffffffffffffffffffffffffff1602179055506112e981611986565b50565b80600360006101000a81548173ffffffffffffffffffffffffffffffffffffffff021916908373ffffffffffffffffffffffffffffffffffffffff1602179055507f3b7c4b9381c49e17c7cfbb3055a801e6c675ceabbdd62810aac03768b8c3708a600360009054906101000a900473ffffffffffffffffffffffffffffffffffffffff1660405161137e9190612ade565b60405180910390a150565b600160205281600052604060002081815481106113a557600080fd5b90600052602060002001600091509150505481565b60008082815260200190815260200160002060010160009054906101000a900473ffffffffffffffffffffffffffffffffffffffff1673ffffffffffffffffffffffffffffffffffffffff163373ffffffffffffffffffffffffffffffffffffffff161480611489575060008082815260200190815260200160002060020160009054906101000a900473ffffffffffffffffffffffffffffffffffffffff1673ffffffffffffffffffffffffffffffffffffffff163373ffffffffffffffffffffffffffffffffffffffff16145b6114c8576040517f08c379a00000000000000000000000000000000000000000000000000000000081526004016114bf90612b6b565b60405180910390fd5b61012d600080838152602001908152602001600020600601600401541415801561150c575061012e6000808381526020019081526020016000206006016004015414155b61154b576040517f08c379a000000000000000000000000000000000000000000000000000000000815260040161154290612bd7565b60405180910390fd5b60c86000808381526020019081526020016000206006016004015414156115a7576040517f08c379a000000000000000000000000000000000000000000000000000000000815260040161159e90612c43565b60405180910390fd5b60008082815260200190815260200160002060020160009054906101000a900473ffffffffffffffffffffffffffffffffffffffff1673ffffffffffffffffffffffffffffffffffffffff163373ffffffffffffffffffffffffffffffffffffffff1614156116345761012d600080838152602001908152602001600020600601600401819055506116be565b60008082815260200190815260200160002060010160009054906101000a900473ffffffffffffffffffffffffffffffffffffffff1673ffffffffffffffffffffffffffffffffffffffff163373ffffffffffffffffffffffffffffffffffffffff1614156116bd5761012e600080838152602001908152602001600020600601600401819055505b5b50565b6116c96119ef565b60025481600001818152505033816040019073ffffffffffffffffffffffffffffffffffffffff16908173ffffffffffffffffffffffffffffffffffffffff1681525050828160600181815250508181608001819052508060008060025481526020019081526020016000206000820151816000015560208201518160010160006101000a81548173ffffffffffffffffffffffffffffffffffffffff021916908373ffffffffffffffffffffffffffffffffffffffff16021790555060408201518160020160006101000a81548173ffffffffffffffffffffffffffffffffffffffff021916908373ffffffffffffffffffffffffffffffffffffffff1602179055506060820151816003015560808201518160040190805190602001906117f3929190611ae8565b5060a0820151816005019080519060200190611810929190611ae8565b5060c08201518160060160008201518160000155602082015181600101556040820151816002015560608201518160030160006101000a81548173ffffffffffffffffffffffffffffffffffffffff021916908373ffffffffffffffffffffffffffffffffffffffff160217905550608082015181600401555050905050611899600254611986565b7fa44f460f2ac523b4a38d95d97950a776d7bf0adbaff2501d321f040e3d661e466002546040516118ca9190611be9565b60405180910390a16001600260008282546118e5919061236c565b92505081905550505050565b6060600160003373ffffffffffffffffffffffffffffffffffffffff1673ffffffffffffffffffffffffffffffffffffffff16815260200190815260200160002080548060200260200160405190810160405280929190818152602001828054801561197c57602002820191906000526020600020905b815481526020019060010190808311611968575b5050505050905090565b600160003373ffffffffffffffffffffffffffffffffffffffff1673ffffffffffffffffffffffffffffffffffffffff16815260200190815260200160002081908060018154018082558091505060019003906000526020600020016000909190919091505550565b6040518060e0016040528060008152602001600073ffffffffffffffffffffffffffffffffffffffff168152602001600073ffffffffffffffffffffffffffffffffffffffff168152602001600081526020016060815260200160608152602001611a58611b6e565b81525090565b828054828255906000526020600020908101928215611ad7579160200282015b82811115611ad65782518260006101000a81548173ffffffffffffffffffffffffffffffffffffffff021916908373ffffffffffffffffffffffffffffffffffffffff16021790555091602001919060010190611a7e565b5b509050611ae49190611bb3565b5090565b828054611af490612515565b90600052602060002090601f016020900481019282611b165760008555611b5d565b82601f10611b2f57805160ff1916838001178555611b5d565b82800160010185558215611b5d579182015b82811115611b5c578251825591602001919060010190611b41565b5b509050611b6a9190611bb3565b5090565b6040518060a00160405280600081526020016000815260200160008152602001600073ffffffffffffffffffffffffffffffffffffffff168152602001600081525090565b5b80821115611bcc576000816000905550600101611bb4565b5090565b6000819050919050565b611be381611bd0565b82525050565b6000602082019050611bfe6000830184611bda565b92915050565b6000604051905090565b600080fd5b600080fd5b611c2181611bd0565b8114611c2c57600080fd5b50565b600081359050611c3e81611c18565b92915050565b600073ffffffffffffffffffffffffffffffffffffffff82169050919050565b6000611c6f82611c44565b9050919050565b611c7f81611c64565b8114611c8a57600080fd5b50565b600081359050611c9c81611c76565b92915050565b600080600080600060a08688031215611cbe57611cbd611c0e565b5b6000611ccc88828901611c2f565b9550506020611cdd88828901611c2f565b9450506040611cee88828901611c2f565b9350506060611cff88828901611c2f565b9250506080611d1088828901611c8d565b9150509295509295909350565b600060208284031215611d3357611d32611c0e565b5b6000611d4184828501611c2f565b91505092915050565b611d5381611c64565b82525050565b600081519050919050565b600082825260208201905092915050565b60005b83811015611d93578082015181840152602081019050611d78565b83811115611da2576000848401525b50505050565b6000601f19601f8301169050919050565b6000611dc482611d59565b611dce8185611d64565b9350611dde818560208601611d75565b611de781611da8565b840191505092915050565b611dfb81611bd0565b82525050565b611e0a81611c64565b82525050565b60a082016000820151611e266000850182611df2565b506020820151611e396020850182611df2565b506040820151611e4c6040850182611df2565b506060820151611e5f6060850182611e01565b506080820151611e726080850182611df2565b50505050565b600061016082019050611e8e600083018a611bda565b611e9b6020830189611d4a565b611ea86040830188611d4a565b611eb56060830187611bda565b8181036080830152611ec78186611db9565b905081810360a0830152611edb8185611db9565b9050611eea60c0830184611e10565b98975050505050505050565b600082825260208201905092915050565b6000611f1282611d59565b611f1c8185611ef6565b9350611f2c818560208601611d75565b611f3581611da8565b840191505092915050565b60a082016000820151611f566000850182611df2565b506020820151611f696020850182611df2565b506040820151611f7c6040850182611df2565b506060820151611f8f6060850182611e01565b506080820151611fa26080850182611df2565b50505050565b600061016083016000830151611fc16000860182611df2565b506020830151611fd46020860182611e01565b506040830151611fe76040860182611e01565b506060830151611ffa6060860182611df2565b50608083015184820360808601526120128282611f07565b91505060a083015184820360a086015261202c8282611f07565b91505060c083015161204160c0860182611f40565b508091505092915050565b600060208201905081810360008301526120668184611fa8565b905092915050565b60006020828403121561208457612083611c0e565b5b600061209284828501611c8d565b91505092915050565b600080604083850312156120b2576120b1611c0e565b5b60006120c085828601611c8d565b92505060206120d185828601611c2f565b9150509250929050565b600080fd5b600080fd5b7f4e487b7100000000000000000000000000000000000000000000000000000000600052604160045260246000fd5b61211d82611da8565b810181811067ffffffffffffffff8211171561213c5761213b6120e5565b5b80604052505050565b600061214f611c04565b905061215b8282612114565b919050565b600067ffffffffffffffff82111561217b5761217a6120e5565b5b61218482611da8565b9050602081019050919050565b82818337600083830152505050565b60006121b36121ae84612160565b612145565b9050828152602081018484840111156121cf576121ce6120e0565b5b6121da848285612191565b509392505050565b600082601f8301126121f7576121f66120db565b5b81356122078482602086016121a0565b91505092915050565b6000806040838503121561222757612226611c0e565b5b600061223585828601611c2f565b925050602083013567ffffffffffffffff81111561225657612255611c13565b5b612262858286016121e2565b9150509250929050565b600081519050919050565b600082825260208201905092915050565b6000819050602082019050919050565b60006122a48383611df2565b60208301905092915050565b6000602082019050919050565b60006122c88261226c565b6122d28185612277565b93506122dd83612288565b8060005b8381101561230e5781516122f58882612298565b9750612300836122b0565b9250506001810190506122e1565b5085935050505092915050565b6000602082019050818103600083015261233581846122bd565b905092915050565b7f4e487b7100000000000000000000000000000000000000000000000000000000600052601160045260246000fd5b600061237782611bd0565b915061238283611bd0565b9250827fffffffffffffffffffffffffffffffffffffffffffffffffffffffffffffffff038211156123b7576123b661233d565b5b828201905092915050565b7f54656e616e745368617265202b204c616e646c6f7264205368617265202b204660008201527f6565205368617265206973206e6f742031303025000000000000000000000000602082015250565b600061241e603483611d64565b9150612429826123c2565b604082019050919050565b6000602082019050818103600083015261244d81612411565b9050919050565b7f4f6e6c79204c616e646c6f72642063616e206372656174652072656465656d2060008201527f70726f706f73616c000000000000000000000000000000000000000000000000602082015250565b60006124b0602883611d64565b91506124bb82612454565b604082019050919050565b600060208201905081810360008301526124df816124a3565b9050919050565b7f4e487b7100000000000000000000000000000000000000000000000000000000600052602260045260246000fd5b6000600282049050600182168061252d57607f821691505b60208210811415612541576125406124e6565b5b50919050565b600080fd5b600080fd5b60008151905061256081611c18565b92915050565b60008151905061257581611c76565b92915050565b600061258e61258984612160565b612145565b9050828152602081018484840111156125aa576125a96120e0565b5b6125b5848285611d75565b509392505050565b600082601f8301126125d2576125d16120db565b5b81516125e284826020860161257b565b91505092915050565b600060a0828403121561260157612600612547565b5b61260b60a0612145565b9050600061261b84828501612551565b600083015250602061262f84828501612551565b602083015250604061264384828501612551565b604083015250606061265784828501612566565b606083015250608061266b84828501612551565b60808301525092915050565b6000610160828403121561268e5761268d612547565b5b61269860e0612145565b905060006126a884828501612551565b60008301525060206126bc84828501612566565b60208301525060406126d084828501612566565b60408301525060606126e484828501612551565b606083015250608082015167ffffffffffffffff8111156127085761270761254c565b5b612714848285016125bd565b60808301525060a082015167ffffffffffffffff8111156127385761273761254c565b5b612744848285016125bd565b60a08301525060c0612758848285016125eb565b60c08301525092915050565b60006020828403121561277a57612779611c0e565b5b600082015167ffffffffffffffff81111561279857612797611c13565b5b6127a484828501612677565b91505092915050565b7f4e487b7100000000000000000000000000000000000000000000000000000000600052603260045260246000fd5b7f4f6e6c792074656e616e742063616e206163636570742072656465656d20707260008201527f6f706f73616c0000000000000000000000000000000000000000000000000000602082015250565b6000612838602683611d64565b9150612843826127dc565b604082019050919050565b600060208201905081810360008301526128678161282b565b9050919050565b600061287982611bd0565b915061288483611bd0565b9250817fffffffffffffffffffffffffffffffffffffffffffffffffffffffffffffffff04831182151516156128bd576128bc61233d565b5b828202905092915050565b7f4e487b7100000000000000000000000000000000000000000000000000000000600052601260045260246000fd5b600061290282611bd0565b915061290d83611bd0565b92508261291d5761291c6128c8565b5b828204905092915050565b7f54656e616e745368617265202b204c616e646c6f7264205368617265202b204660008201527f656520536861726520646f6573206e6f7420657175616c20457363726f77205660208201527f616c756500000000000000000000000000000000000000000000000000000000604082015250565b60006129aa604483611d64565b91506129b582612928565b606082019050919050565b600060208201905081810360008301526129d98161299d565b9050919050565b7f457363726f7720686173206265656e20616c726561642072656465656d65642e600082015250565b6000612a16602083611d64565b9150612a21826129e0565b602082019050919050565b60006020820190508181036000830152612a4581612a09565b9050919050565b7f4574682073656e74206973206e6f742073616d6520617320657363726f77566160008201527f6c75650000000000000000000000000000000000000000000000000000000000602082015250565b6000612aa8602383611d64565b9150612ab382612a4c565b604082019050919050565b60006020820190508181036000830152612ad781612a9b565b9050919050565b6000602082019050612af36000830184611d4a565b92915050565b7f4f6e6c792074656e616e74206f72206c616e646c6f72642063616e206163636560008201527f70742072656465656d2070726f706f73616c0000000000000000000000000000602082015250565b6000612b55603283611d64565b9150612b6082612af9565b604082019050919050565b60006020820190508181036000830152612b8481612b48565b9050919050565b7f416c72656164792072656a656374656400000000000000000000000000000000600082015250565b6000612bc1601083611d64565b9150612bcc82612b8b565b602082019050919050565b60006020820190508181036000830152612bf081612bb4565b9050919050565b7f416c726561647920616363657074656400000000000000000000000000000000600082015250565b6000612c2d601083611d64565b9150612c3882612bf7565b602082019050919050565b60006020820190508181036000830152612c5c81612c20565b905091905056fea26469706673582212204d915d5f5eab1bdc87759847eb37ab789042a76e0054d43755ea6c4187087fe164736f6c634300080a0033",
  "immutableReferences": {},
  "source": "pragma solidity ^0.8.10;\nimport \"./rentEscrow.sol\";\n\ncontract resolver is rentEscrow {\n    //event sendTenant (uint _id);\n    event sendMessage (address _message);\n\n    address rentEscrowAddress;\n\n    ///@param id case identifier. Currently same as rentContract. \n    ///@param status status of the case. 100: waiting for judge 200: waiting for resolution 300: resolved\n    ///@param judges addreses that are assigned to resolve the dispute\n    ///@param disputeDetail  bears details about the case. Currenly a placeholder aim is to link this to some IPFS file\n    ///@param partialResult contains voting of each judge\n    ///@param finalResult contains final result after each judge casted their vote\n    \n    struct DisputeCase {\n        uint disputeId;\n        uint status;\n        address [] judges;\n        string disputeDetail;\n    }\n\n\n    ///@dev this is a flag to see if I need to reach for new DisputeCase or I just fill new address into existing one\n    struct CaseWaitingForJudge {\n        bool waiting;\n        uint disputeId;\n    } \n\n    CaseWaitingForJudge caseWaitingForJudge = CaseWaitingForJudge({waiting: false, disputeId: 0});\n\n    ///@dev Number of judges needed for this contract\n    uint numberOfJudges = 3;\n    ///@dev update number of judges.\n    ///@custom:later should be admin only...\n    function updateNumberOfJudges (uint _numberOfJudges) external {\n        numberOfJudges = _numberOfJudges;\n    }\n\n\n    mapping(uint =>DisputeCase) DisputeCaseMapping;\n\n    ///@dev to establish connection to other contract\n    ///@custom:later  this works fine for single contract. I need this to be modular and can connect multiple contract on the fly\n    \n    function setRentEscrowAddress (address _rentEscrowAddress) public  {\n        rentEscrowAddress = _rentEscrowAddress;\n         emit sendMessage(rentEscrowAddress);\n    }\n\n    function getNewContractToResolve () public {\n        uint id;\n        rentEscrowInterface re = rentEscrowInterface(rentEscrowAddress);\n        id = re.getContractToResolve().rentId;    \n\n        address [] memory _judges;\n        _judges[0] = msg.sender;\n\n        ///@custom:later I am calling the getContractToresolve each time I need a attribute. Which is retarded. Need to fix this.\n        DisputeCase memory disputeCase = DisputeCase({\n            disputeId: re.getContractToResolve().rentId,\n            status: 100,\n            judges: _judges,\n            disputeDetail: re.getContractToResolve().contractDetail });\n        \n        DisputeCaseMapping[re.getContractToResolve().rentId] = disputeCase;\n\n        caseWaitingForJudge.waiting = true;\n        caseWaitingForJudge.disputeId = re.getContractToResolve().rentId;\n\n    }\n    /**@custom:later this currently misses couple of requirements. among others:\n    - what if landlord should be judge?)\n    - each judge must be unique id\n\n     **/\n    function assignJudge() public {\n       \n        if (caseWaitingForJudge.waiting == false) {\n            getNewContractToResolve();\n        }\n\n        DisputeCaseMapping[caseWaitingForJudge.disputeId].judges.push(msg.sender);\n\n        if (DisputeCaseMapping[caseWaitingForJudge.disputeId].judges.length <= numberOfJudges) {\n            caseWaitingForJudge.waiting = false;\n        }\n    }\n\n}",
  "sourcePath": "/Users/andy/my_repos/rentEscrow/contracts/resolver.sol",
  "compiler": {
    "name": "solc",
    "version": "0.8.10+commit.fc410830.Emscripten.clang"
  },
  "schemaVersion": "3.4.3",
  "updatedAt": "2022-01-25T05:37:59.139Z",
  "devdoc": {
    "kind": "dev",
    "methods": {
      "assignJudge()": {
        "custom:later": "this currently misses couple of requirements. among others: - what if landlord should be judge?) - each judge must be unique id*"
      },
      "getContractToResolve()": {
        "custom:later": "now gives just first contract. Need to add logic to return contract where redeemProposal was rejected",
        "details": "this is used by retrieve mapping by another contract"
      },
      "rejectRedeemProposal(uint256)": {
        "params": {
          "_rentId": "identifies the contract between tenant and landlord"
        }
      },
      "setRentEscrowAddress(address)": {
        "custom:later": "this works fine for single contract. I need this to be modular and can connect multiple contract on the fly",
        "details": "to establish connection to other contract"
      },
      "updateNumberOfJudges(uint256)": {
        "custom:later": "should be admin only...",
        "details": "update number of judges."
      }
    },
    "stateVariables": {
      "numberOfJudges": {
        "details": "Number of judges needed for this contract"
      }
    },
    "version": 1
  },
  "userdoc": {
    "kind": "user",
    "methods": {
      "getContractsByAddress()": {
        "notice": "returns all contracts  where sender is involved party"
      },
      "rejectRedeemProposal(uint256)": {
        "notice": "Use this function to reject redeem proposal. Will send it to the resolution centre"
      }
    },
    "version": 1
  }
}