{
  "contractName": "resolver",
  "abi": [
    {
      "anonymous": false,
      "inputs": [
        {
          "indexed": false,
          "internalType": "uint256",
          "name": "_rentId",
          "type": "uint256"
        }
      ],
      "name": "rentContractId",
      "type": "event"
    },
    {
      "anonymous": false,
      "inputs": [
        {
          "indexed": false,
          "internalType": "uint256",
          "name": "_rentId",
          "type": "uint256"
        }
      ],
      "name": "rentContractId2",
      "type": "event"
    },
    {
      "inputs": [
        {
          "internalType": "uint256",
          "name": "_rentId",
          "type": "uint256"
        }
      ],
      "name": "acceptNewContract",
      "outputs": [],
      "stateMutability": "payable",
      "type": "function"
    },
    {
      "inputs": [
        {
          "internalType": "uint256",
          "name": "_rentId",
          "type": "uint256"
        }
      ],
      "name": "acceptRedeemProposal",
      "outputs": [],
      "stateMutability": "nonpayable",
      "type": "function"
    },
    {
      "inputs": [
        {
          "internalType": "address",
          "name": "",
          "type": "address"
        },
        {
          "internalType": "uint256",
          "name": "",
          "type": "uint256"
        }
      ],
      "name": "addressMapping",
      "outputs": [
        {
          "internalType": "uint256",
          "name": "",
          "type": "uint256"
        }
      ],
      "stateMutability": "view",
      "type": "function"
    },
    {
      "inputs": [
        {
          "internalType": "uint256",
          "name": "_rentId",
          "type": "uint256"
        },
        {
          "internalType": "uint256",
          "name": "_tenantShare",
          "type": "uint256"
        },
        {
          "internalType": "uint256",
          "name": "_landlordShare",
          "type": "uint256"
        },
        {
          "internalType": "uint256",
          "name": "_feeShare",
          "type": "uint256"
        },
        {
          "internalType": "address",
          "name": "_feeAddress",
          "type": "address"
        }
      ],
      "name": "createRedeemProposal",
      "outputs": [],
      "stateMutability": "nonpayable",
      "type": "function"
    },
    {
      "inputs": [],
      "name": "devGetBalance",
      "outputs": [
        {
          "internalType": "uint256",
          "name": "",
          "type": "uint256"
        }
      ],
      "stateMutability": "view",
      "type": "function"
    },
    {
      "inputs": [],
      "name": "getContractToResolve",
      "outputs": [
        {
          "components": [
            {
              "internalType": "uint256",
              "name": "rentId",
              "type": "uint256"
            },
            {
              "internalType": "address",
              "name": "tenant",
              "type": "address"
            },
            {
              "internalType": "address",
              "name": "landlord",
              "type": "address"
            },
            {
              "internalType": "uint256",
              "name": "escrowValue",
              "type": "uint256"
            },
            {
              "internalType": "string",
              "name": "contractDetail",
              "type": "string"
            },
            {
              "internalType": "string",
              "name": "status",
              "type": "string"
            },
            {
              "components": [
                {
                  "internalType": "uint256",
                  "name": "tenantShare",
                  "type": "uint256"
                },
                {
                  "internalType": "uint256",
                  "name": "landlordShare",
                  "type": "uint256"
                },
                {
                  "internalType": "uint256",
                  "name": "feeShare",
                  "type": "uint256"
                },
                {
                  "internalType": "address",
                  "name": "feeAddress",
                  "type": "address"
                },
                {
                  "internalType": "uint256",
                  "name": "proposalStatus",
                  "type": "uint256"
                }
              ],
              "internalType": "struct rentEscrow.redeemProposal",
              "name": "redeemProposal",
              "type": "tuple"
            }
          ],
          "internalType": "struct rentEscrow.rentContract",
          "name": "",
          "type": "tuple"
        }
      ],
      "stateMutability": "view",
      "type": "function"
    },
    {
      "inputs": [],
      "name": "getContractsByAddress",
      "outputs": [
        {
          "internalType": "uint256[]",
          "name": "",
          "type": "uint256[]"
        }
      ],
      "stateMutability": "view",
      "type": "function"
    },
    {
      "inputs": [],
      "name": "nextRentId",
      "outputs": [
        {
          "internalType": "uint256",
          "name": "",
          "type": "uint256"
        }
      ],
      "stateMutability": "view",
      "type": "function"
    },
    {
      "inputs": [
        {
          "internalType": "uint256",
          "name": "_escrowValue",
          "type": "uint256"
        },
        {
          "internalType": "string",
          "name": "_contractDetail",
          "type": "string"
        }
      ],
      "name": "proposeNewContract",
      "outputs": [],
      "stateMutability": "nonpayable",
      "type": "function"
    },
    {
      "inputs": [
        {
          "internalType": "uint256",
          "name": "_rentId",
          "type": "uint256"
        }
      ],
      "name": "rejectRedeemProposal",
      "outputs": [],
      "stateMutability": "nonpayable",
      "type": "function"
    },
    {
      "inputs": [
        {
          "internalType": "uint256",
          "name": "",
          "type": "uint256"
        }
      ],
      "name": "rentContractsMapping",
      "outputs": [
        {
          "internalType": "uint256",
          "name": "rentId",
          "type": "uint256"
        },
        {
          "internalType": "address",
          "name": "tenant",
          "type": "address"
        },
        {
          "internalType": "address",
          "name": "landlord",
          "type": "address"
        },
        {
          "internalType": "uint256",
          "name": "escrowValue",
          "type": "uint256"
        },
        {
          "internalType": "string",
          "name": "contractDetail",
          "type": "string"
        },
        {
          "internalType": "string",
          "name": "status",
          "type": "string"
        },
        {
          "components": [
            {
              "internalType": "uint256",
              "name": "tenantShare",
              "type": "uint256"
            },
            {
              "internalType": "uint256",
              "name": "landlordShare",
              "type": "uint256"
            },
            {
              "internalType": "uint256",
              "name": "feeShare",
              "type": "uint256"
            },
            {
              "internalType": "address",
              "name": "feeAddress",
              "type": "address"
            },
            {
              "internalType": "uint256",
              "name": "proposalStatus",
              "type": "uint256"
            }
          ],
          "internalType": "struct rentEscrow.redeemProposal",
          "name": "redeemProposal",
          "type": "tuple"
        }
      ],
      "stateMutability": "view",
      "type": "function"
    },
    {
      "inputs": [
        {
          "internalType": "address",
          "name": "_rentEscrowAddress",
          "type": "address"
        }
      ],
      "name": "setRentEscrowAddress",
      "outputs": [],
      "stateMutability": "nonpayable",
      "type": "function"
    },
    {
      "inputs": [],
      "name": "getNewContractToResolve",
      "outputs": [],
      "stateMutability": "nonpayable",
      "type": "function"
    },
    {
      "inputs": [],
      "name": "assignJudge",
      "outputs": [],
      "stateMutability": "nonpayable",
      "type": "function"
    }
  ],
  "bytecode": "0x6080604052600060025560405180604001604052806000151581526020016000815250600460008201518160000160006101000a81548160ff02191690831515021790555060208201518160010155505034801561005c57600080fd5b50612bc18061006c6000396000f3fe6080604052600436106100dd5760003560e01c80637afc2d561161007f57806396d65c3e1161005957806396d65c3e1461026b578063a6dd4276146102a8578063b59146f7146102d1578063b61f5f53146102fa576100dd565b80637afc2d56146101fd57806385b58963146102265780638db2850414610242576100dd565b80633d45370c116100bb5780633d45370c1461014f5780636b695d24146101785780637395eb41146101bb5780637ad637d8146101e6576100dd565b8063039ed501146100e25780630e593bc31461010d5780632458cc3e14610124575b600080fd5b3480156100ee57600080fd5b506100f7610325565b6040516101049190611b2c565b60405180910390f35b34801561011957600080fd5b5061012261032b565b005b34801561013057600080fd5b506101396103f1565b6040516101469190611b2c565b60405180910390f35b34801561015b57600080fd5b5061017660048036038101906101719190611be5565b6103f9565b005b34801561018457600080fd5b5061019f600480360381019061019a9190611c60565b6105ce565b6040516101b29796959493929190611dbb565b60405180910390f35b3480156101c757600080fd5b506101d06107e8565b6040516101dd9190611f8f565b60405180910390f35b3480156101f257600080fd5b506101fb610a8f565b005b34801561020957600080fd5b50610224600480360381019061021f9190611c60565b610e17565b005b610240600480360381019061023b9190611c60565b6111d1565b005b34801561024e57600080fd5b5061026960048036038101906102649190611fb1565b611288565b005b34801561027757600080fd5b50610292600480360381019061028d9190611fde565b6112cc565b60405161029f9190611b2c565b60405180910390f35b3480156102b457600080fd5b506102cf60048036038101906102ca9190611c60565b6112fd565b005b3480156102dd57600080fd5b506102f860048036038101906102f39190612153565b611604565b005b34801561030657600080fd5b5061030f611834565b60405161031c919061225e565b60405180910390f35b60025481565b60001515600460000160009054906101000a900460ff161515141561035357610352610a8f565b5b600660006004600101548152602001908152602001600020600201339080600181540180825580915050600190039060005260206000200160009091909190916101000a81548173ffffffffffffffffffffffffffffffffffffffff021916908373ffffffffffffffffffffffffffffffffffffffff1602179055506006600060046001015481526020019081526020016000206002018054905050565b600047905090565b600082848661040891906122af565b61041291906122af565b905060648114610457576040517f08c379a000000000000000000000000000000000000000000000000000000000815260040161044e90612377565b60405180910390fd5b60008087815260200190815260200160002060020160009054906101000a900473ffffffffffffffffffffffffffffffffffffffff1673ffffffffffffffffffffffffffffffffffffffff163373ffffffffffffffffffffffffffffffffffffffff16146104fa576040517f08c379a00000000000000000000000000000000000000000000000000000000081526004016104f190612409565b60405180910390fd5b8460008088815260200190815260200160002060060160000181905550836000808881526020019081526020016000206006016001018190555082600080888152602001908152602001600020600601600201819055508160008088815260200190815260200160002060060160030160006101000a81548173ffffffffffffffffffffffffffffffffffffffff021916908373ffffffffffffffffffffffffffffffffffffffff160217905550606460008088815260200190815260200160002060060160040181905550505050505050565b60006020528060005260406000206000915090508060000154908060010160009054906101000a900473ffffffffffffffffffffffffffffffffffffffff16908060020160009054906101000a900473ffffffffffffffffffffffffffffffffffffffff169080600301549080600401805461064990612458565b80601f016020809104026020016040519081016040528092919081815260200182805461067590612458565b80156106c25780601f10610697576101008083540402835291602001916106c2565b820191906000526020600020905b8154815290600101906020018083116106a557829003601f168201915b5050505050908060050180546106d790612458565b80601f016020809104026020016040519081016040528092919081815260200182805461070390612458565b80156107505780601f1061072557610100808354040283529160200191610750565b820191906000526020600020905b81548152906001019060200180831161073357829003601f168201915b505050505090806006016040518060a00160405290816000820154815260200160018201548152602001600282015481526020016003820160009054906101000a900473ffffffffffffffffffffffffffffffffffffffff1673ffffffffffffffffffffffffffffffffffffffff1673ffffffffffffffffffffffffffffffffffffffff168152602001600482015481525050905087565b6107f0611932565b6000600190506000808281526020019081526020016000206040518060e0016040529081600082015481526020016001820160009054906101000a900473ffffffffffffffffffffffffffffffffffffffff1673ffffffffffffffffffffffffffffffffffffffff1673ffffffffffffffffffffffffffffffffffffffff1681526020016002820160009054906101000a900473ffffffffffffffffffffffffffffffffffffffff1673ffffffffffffffffffffffffffffffffffffffff1673ffffffffffffffffffffffffffffffffffffffff168152602001600382015481526020016004820180546108e390612458565b80601f016020809104026020016040519081016040528092919081815260200182805461090f90612458565b801561095c5780601f106109315761010080835404028352916020019161095c565b820191906000526020600020905b81548152906001019060200180831161093f57829003601f168201915b5050505050815260200160058201805461097590612458565b80601f01602080910402602001604051908101604052809291908181526020018280546109a190612458565b80156109ee5780601f106109c3576101008083540402835291602001916109ee565b820191906000526020600020905b8154815290600101906020018083116109d157829003601f168201915b50505050508152602001600682016040518060a00160405290816000820154815260200160018201548152602001600282015481526020016003820160009054906101000a900473ffffffffffffffffffffffffffffffffffffffff1673ffffffffffffffffffffffffffffffffffffffff1673ffffffffffffffffffffffffffffffffffffffff1681526020016004820154815250508152505091505090565b600080600360009054906101000a900473ffffffffffffffffffffffffffffffffffffffff1690508073ffffffffffffffffffffffffffffffffffffffff16637395eb416040518163ffffffff1660e01b8152600401600060405180830381865afa158015610b02573d6000803e3d6000fd5b505050506040513d6000823e3d601f19601f82011682018060405250810190610b2b91906126a7565b60000151915060603381600081518110610b4857610b476126f0565b5b602002602001019073ffffffffffffffffffffffffffffffffffffffff16908173ffffffffffffffffffffffffffffffffffffffff1681525050600060405180608001604052808473ffffffffffffffffffffffffffffffffffffffff16637395eb416040518163ffffffff1660e01b8152600401600060405180830381865afa158015610bda573d6000803e3d6000fd5b505050506040513d6000823e3d601f19601f82011682018060405250810190610c0391906126a7565b600001518152602001606481526020018381526020018473ffffffffffffffffffffffffffffffffffffffff16637395eb416040518163ffffffff1660e01b8152600401600060405180830381865afa158015610c64573d6000803e3d6000fd5b505050506040513d6000823e3d601f19601f82011682018060405250810190610c8d91906126a7565b60800151815250905080600660008573ffffffffffffffffffffffffffffffffffffffff16637395eb416040518163ffffffff1660e01b8152600401600060405180830381865afa158015610ce6573d6000803e3d6000fd5b505050506040513d6000823e3d601f19601f82011682018060405250810190610d0f91906126a7565b60000151815260200190815260200160002060008201518160000155602082015181600101556040820151816002019080519060200190610d519291906119a1565b506060820151816003019080519060200190610d6e929190611a2b565b509050506001600460000160006101000a81548160ff0219169083151502179055508273ffffffffffffffffffffffffffffffffffffffff16637395eb416040518163ffffffff1660e01b8152600401600060405180830381865afa158015610ddb573d6000803e3d6000fd5b505050506040513d6000823e3d601f19601f82011682018060405250810190610e0491906126a7565b6000015160046001018190555050505050565b60008082815260200190815260200160002060010160009054906101000a900473ffffffffffffffffffffffffffffffffffffffff1673ffffffffffffffffffffffffffffffffffffffff163373ffffffffffffffffffffffffffffffffffffffff1614610eba576040517f08c379a0000000000000000000000000000000000000000000000000000000008152600401610eb190612791565b60405180910390fd5b6000806000838152602001908152602001600020600301549050600080600084815260200190815260200160002060010160009054906101000a900473ffffffffffffffffffffffffffffffffffffffff169050600060646000808681526020019081526020016000206006016000015484610f3691906127b1565b610f40919061283a565b9050600080600086815260200190815260200160002060020160009054906101000a900473ffffffffffffffffffffffffffffffffffffffff169050600060646000808881526020019081526020016000206006016001015486610fa491906127b1565b610fae919061283a565b9050600080600088815260200190815260200160002060060160030160009054906101000a900473ffffffffffffffffffffffffffffffffffffffff169050600060646000808a8152602001908152602001600020600601600201548861101591906127b1565b61101f919061283a565b90508681848761102f91906122af565b61103991906122af565b14611079576040517f08c379a000000000000000000000000000000000000000000000000000000000815260040161107090612903565b60405180910390fd5b60646000808a815260200190815260200160002060060160040154146110d4576040517f08c379a00000000000000000000000000000000000000000000000000000000081526004016110cb9061296f565b60405180910390fd5b60c86000808a8152602001908152602001600020600601600401819055508573ffffffffffffffffffffffffffffffffffffffff166108fc869081150290604051600060405180830381858888f19350505050158015611138573d6000803e3d6000fd5b508373ffffffffffffffffffffffffffffffffffffffff166108fc849081150290604051600060405180830381858888f1935050505015801561117f573d6000803e3d6000fd5b508173ffffffffffffffffffffffffffffffffffffffff166108fc829081150290604051600060405180830381858888f193505050501580156111c6573d6000803e3d6000fd5b505050505050505050565b600080828152602001908152602001600020600301543414611228576040517f08c379a000000000000000000000000000000000000000000000000000000000815260040161121f90612a01565b60405180910390fd5b3360008083815260200190815260200160002060010160006101000a81548173ffffffffffffffffffffffffffffffffffffffff021916908373ffffffffffffffffffffffffffffffffffffffff160217905550611285816118c9565b50565b80600360006101000a81548173ffffffffffffffffffffffffffffffffffffffff021916908373ffffffffffffffffffffffffffffffffffffffff16021790555050565b600160205281600052604060002081815481106112e857600080fd5b90600052602060002001600091509150505481565b60008082815260200190815260200160002060010160009054906101000a900473ffffffffffffffffffffffffffffffffffffffff1673ffffffffffffffffffffffffffffffffffffffff163373ffffffffffffffffffffffffffffffffffffffff1614806113cc575060008082815260200190815260200160002060020160009054906101000a900473ffffffffffffffffffffffffffffffffffffffff1673ffffffffffffffffffffffffffffffffffffffff163373ffffffffffffffffffffffffffffffffffffffff16145b61140b576040517f08c379a000000000000000000000000000000000000000000000000000000000815260040161140290612a93565b60405180910390fd5b61012d600080838152602001908152602001600020600601600401541415801561144f575061012e6000808381526020019081526020016000206006016004015414155b61148e576040517f08c379a000000000000000000000000000000000000000000000000000000000815260040161148590612aff565b60405180910390fd5b60c86000808381526020019081526020016000206006016004015414156114ea576040517f08c379a00000000000000000000000000000000000000000000000000000000081526004016114e190612b6b565b60405180910390fd5b60008082815260200190815260200160002060020160009054906101000a900473ffffffffffffffffffffffffffffffffffffffff1673ffffffffffffffffffffffffffffffffffffffff163373ffffffffffffffffffffffffffffffffffffffff1614156115775761012d60008083815260200190815260200160002060060160040181905550611601565b60008082815260200190815260200160002060010160009054906101000a900473ffffffffffffffffffffffffffffffffffffffff1673ffffffffffffffffffffffffffffffffffffffff163373ffffffffffffffffffffffffffffffffffffffff1614156116005761012e600080838152602001908152602001600020600601600401819055505b5b50565b61160c611932565b60025481600001818152505033816040019073ffffffffffffffffffffffffffffffffffffffff16908173ffffffffffffffffffffffffffffffffffffffff1681525050828160600181815250508181608001819052508060008060025481526020019081526020016000206000820151816000015560208201518160010160006101000a81548173ffffffffffffffffffffffffffffffffffffffff021916908373ffffffffffffffffffffffffffffffffffffffff16021790555060408201518160020160006101000a81548173ffffffffffffffffffffffffffffffffffffffff021916908373ffffffffffffffffffffffffffffffffffffffff160217905550606082015181600301556080820151816004019080519060200190611736929190611a2b565b5060a0820151816005019080519060200190611753929190611a2b565b5060c08201518160060160008201518160000155602082015181600101556040820151816002015560608201518160030160006101000a81548173ffffffffffffffffffffffffffffffffffffffff021916908373ffffffffffffffffffffffffffffffffffffffff1602179055506080820151816004015550509050506117dc6002546118c9565b7fa44f460f2ac523b4a38d95d97950a776d7bf0adbaff2501d321f040e3d661e4660025460405161180d9190611b2c565b60405180910390a160016002600082825461182891906122af565b92505081905550505050565b6060600160003373ffffffffffffffffffffffffffffffffffffffff1673ffffffffffffffffffffffffffffffffffffffff1681526020019081526020016000208054806020026020016040519081016040528092919081815260200182805480156118bf57602002820191906000526020600020905b8154815260200190600101908083116118ab575b5050505050905090565b600160003373ffffffffffffffffffffffffffffffffffffffff1673ffffffffffffffffffffffffffffffffffffffff16815260200190815260200160002081908060018154018082558091505060019003906000526020600020016000909190919091505550565b6040518060e0016040528060008152602001600073ffffffffffffffffffffffffffffffffffffffff168152602001600073ffffffffffffffffffffffffffffffffffffffff16815260200160008152602001606081526020016060815260200161199b611ab1565b81525090565b828054828255906000526020600020908101928215611a1a579160200282015b82811115611a195782518260006101000a81548173ffffffffffffffffffffffffffffffffffffffff021916908373ffffffffffffffffffffffffffffffffffffffff160217905550916020019190600101906119c1565b5b509050611a279190611af6565b5090565b828054611a3790612458565b90600052602060002090601f016020900481019282611a595760008555611aa0565b82601f10611a7257805160ff1916838001178555611aa0565b82800160010185558215611aa0579182015b82811115611a9f578251825591602001919060010190611a84565b5b509050611aad9190611af6565b5090565b6040518060a00160405280600081526020016000815260200160008152602001600073ffffffffffffffffffffffffffffffffffffffff168152602001600081525090565b5b80821115611b0f576000816000905550600101611af7565b5090565b6000819050919050565b611b2681611b13565b82525050565b6000602082019050611b416000830184611b1d565b92915050565b6000604051905090565b600080fd5b600080fd5b611b6481611b13565b8114611b6f57600080fd5b50565b600081359050611b8181611b5b565b92915050565b600073ffffffffffffffffffffffffffffffffffffffff82169050919050565b6000611bb282611b87565b9050919050565b611bc281611ba7565b8114611bcd57600080fd5b50565b600081359050611bdf81611bb9565b92915050565b600080600080600060a08688031215611c0157611c00611b51565b5b6000611c0f88828901611b72565b9550506020611c2088828901611b72565b9450506040611c3188828901611b72565b9350506060611c4288828901611b72565b9250506080611c5388828901611bd0565b9150509295509295909350565b600060208284031215611c7657611c75611b51565b5b6000611c8484828501611b72565b91505092915050565b611c9681611ba7565b82525050565b600081519050919050565b600082825260208201905092915050565b60005b83811015611cd6578082015181840152602081019050611cbb565b83811115611ce5576000848401525b50505050565b6000601f19601f8301169050919050565b6000611d0782611c9c565b611d118185611ca7565b9350611d21818560208601611cb8565b611d2a81611ceb565b840191505092915050565b611d3e81611b13565b82525050565b611d4d81611ba7565b82525050565b60a082016000820151611d696000850182611d35565b506020820151611d7c6020850182611d35565b506040820151611d8f6040850182611d35565b506060820151611da26060850182611d44565b506080820151611db56080850182611d35565b50505050565b600061016082019050611dd1600083018a611b1d565b611dde6020830189611c8d565b611deb6040830188611c8d565b611df86060830187611b1d565b8181036080830152611e0a8186611cfc565b905081810360a0830152611e1e8185611cfc565b9050611e2d60c0830184611d53565b98975050505050505050565b600082825260208201905092915050565b6000611e5582611c9c565b611e5f8185611e39565b9350611e6f818560208601611cb8565b611e7881611ceb565b840191505092915050565b60a082016000820151611e996000850182611d35565b506020820151611eac6020850182611d35565b506040820151611ebf6040850182611d35565b506060820151611ed26060850182611d44565b506080820151611ee56080850182611d35565b50505050565b600061016083016000830151611f046000860182611d35565b506020830151611f176020860182611d44565b506040830151611f2a6040860182611d44565b506060830151611f3d6060860182611d35565b5060808301518482036080860152611f558282611e4a565b91505060a083015184820360a0860152611f6f8282611e4a565b91505060c0830151611f8460c0860182611e83565b508091505092915050565b60006020820190508181036000830152611fa98184611eeb565b905092915050565b600060208284031215611fc757611fc6611b51565b5b6000611fd584828501611bd0565b91505092915050565b60008060408385031215611ff557611ff4611b51565b5b600061200385828601611bd0565b925050602061201485828601611b72565b9150509250929050565b600080fd5b600080fd5b7f4e487b7100000000000000000000000000000000000000000000000000000000600052604160045260246000fd5b61206082611ceb565b810181811067ffffffffffffffff8211171561207f5761207e612028565b5b80604052505050565b6000612092611b47565b905061209e8282612057565b919050565b600067ffffffffffffffff8211156120be576120bd612028565b5b6120c782611ceb565b9050602081019050919050565b82818337600083830152505050565b60006120f66120f1846120a3565b612088565b90508281526020810184848401111561211257612111612023565b5b61211d8482856120d4565b509392505050565b600082601f83011261213a5761213961201e565b5b813561214a8482602086016120e3565b91505092915050565b6000806040838503121561216a57612169611b51565b5b600061217885828601611b72565b925050602083013567ffffffffffffffff81111561219957612198611b56565b5b6121a585828601612125565b9150509250929050565b600081519050919050565b600082825260208201905092915050565b6000819050602082019050919050565b60006121e78383611d35565b60208301905092915050565b6000602082019050919050565b600061220b826121af565b61221581856121ba565b9350612220836121cb565b8060005b8381101561225157815161223888826121db565b9750612243836121f3565b925050600181019050612224565b5085935050505092915050565b600060208201905081810360008301526122788184612200565b905092915050565b7f4e487b7100000000000000000000000000000000000000000000000000000000600052601160045260246000fd5b60006122ba82611b13565b91506122c583611b13565b9250827fffffffffffffffffffffffffffffffffffffffffffffffffffffffffffffffff038211156122fa576122f9612280565b5b828201905092915050565b7f54656e616e745368617265202b204c616e646c6f7264205368617265202b204660008201527f6565205368617265206973206e6f742031303025000000000000000000000000602082015250565b6000612361603483611ca7565b915061236c82612305565b604082019050919050565b6000602082019050818103600083015261239081612354565b9050919050565b7f4f6e6c79204c616e646c6f72642063616e206372656174652072656465656d2060008201527f70726f706f73616c000000000000000000000000000000000000000000000000602082015250565b60006123f3602883611ca7565b91506123fe82612397565b604082019050919050565b60006020820190508181036000830152612422816123e6565b9050919050565b7f4e487b7100000000000000000000000000000000000000000000000000000000600052602260045260246000fd5b6000600282049050600182168061247057607f821691505b6020821081141561248457612483612429565b5b50919050565b600080fd5b600080fd5b6000815190506124a381611b5b565b92915050565b6000815190506124b881611bb9565b92915050565b60006124d16124cc846120a3565b612088565b9050828152602081018484840111156124ed576124ec612023565b5b6124f8848285611cb8565b509392505050565b600082601f8301126125155761251461201e565b5b81516125258482602086016124be565b91505092915050565b600060a082840312156125445761254361248a565b5b61254e60a0612088565b9050600061255e84828501612494565b600083015250602061257284828501612494565b602083015250604061258684828501612494565b604083015250606061259a848285016124a9565b60608301525060806125ae84828501612494565b60808301525092915050565b600061016082840312156125d1576125d061248a565b5b6125db60e0612088565b905060006125eb84828501612494565b60008301525060206125ff848285016124a9565b6020830152506040612613848285016124a9565b604083015250606061262784828501612494565b606083015250608082015167ffffffffffffffff81111561264b5761264a61248f565b5b61265784828501612500565b60808301525060a082015167ffffffffffffffff81111561267b5761267a61248f565b5b61268784828501612500565b60a08301525060c061269b8482850161252e565b60c08301525092915050565b6000602082840312156126bd576126bc611b51565b5b600082015167ffffffffffffffff8111156126db576126da611b56565b5b6126e7848285016125ba565b91505092915050565b7f4e487b7100000000000000000000000000000000000000000000000000000000600052603260045260246000fd5b7f4f6e6c792074656e616e742063616e206163636570742072656465656d20707260008201527f6f706f73616c0000000000000000000000000000000000000000000000000000602082015250565b600061277b602683611ca7565b91506127868261271f565b604082019050919050565b600060208201905081810360008301526127aa8161276e565b9050919050565b60006127bc82611b13565b91506127c783611b13565b9250817fffffffffffffffffffffffffffffffffffffffffffffffffffffffffffffffff0483118215151615612800576127ff612280565b5b828202905092915050565b7f4e487b7100000000000000000000000000000000000000000000000000000000600052601260045260246000fd5b600061284582611b13565b915061285083611b13565b9250826128605761285f61280b565b5b828204905092915050565b7f54656e616e745368617265202b204c616e646c6f7264205368617265202b204660008201527f656520536861726520646f6573206e6f7420657175616c20457363726f77205660208201527f616c756500000000000000000000000000000000000000000000000000000000604082015250565b60006128ed604483611ca7565b91506128f88261286b565b606082019050919050565b6000602082019050818103600083015261291c816128e0565b9050919050565b7f457363726f7720686173206265656e20616c726561642072656465656d65642e600082015250565b6000612959602083611ca7565b915061296482612923565b602082019050919050565b600060208201905081810360008301526129888161294c565b9050919050565b7f4574682073656e74206973206e6f742073616d6520617320657363726f77566160008201527f6c75650000000000000000000000000000000000000000000000000000000000602082015250565b60006129eb602383611ca7565b91506129f68261298f565b604082019050919050565b60006020820190508181036000830152612a1a816129de565b9050919050565b7f4f6e6c792074656e616e74206f72206c616e646c6f72642063616e206163636560008201527f70742072656465656d2070726f706f73616c0000000000000000000000000000602082015250565b6000612a7d603283611ca7565b9150612a8882612a21565b604082019050919050565b60006020820190508181036000830152612aac81612a70565b9050919050565b7f416c72656164792072656a656374656400000000000000000000000000000000600082015250565b6000612ae9601083611ca7565b9150612af482612ab3565b602082019050919050565b60006020820190508181036000830152612b1881612adc565b9050919050565b7f416c726561647920616363657074656400000000000000000000000000000000600082015250565b6000612b55601083611ca7565b9150612b6082612b1f565b602082019050919050565b60006020820190508181036000830152612b8481612b48565b905091905056fea2646970667358221220ef1695da4de42178e6d93692d36e6f10899bfb3fabcccf6ad7bd56320514f69964736f6c634300080a0033",
  "immutableReferences": {},
  "source": "pragma solidity ^0.8.10;\nimport \"./rentEscrow.sol\";\n\ncontract resolver is rentEscrow {\n    //event sendTenant (uint _id);\n    //event sendMessage (address _message);\n\n    address rentEscrowAddress;\n\n    ///@param id case identifier. Currently same as rentContract. \n    ///@param status status of the case. 100: waiting for judge 200: waiting for resolution 300: resolved\n    ///@param judges addreses that are assigned to resolve the dispute\n    ///@param disputeDetail  bears details about the case. Currenly a placeholder aim is to link this to some IPFS file\n    ///@param partialResult contains voting of each judge\n    ///@param finalResult contains final result after each judge casted their vote\n    \n    struct DisputeCase {\n        uint disputeId;\n        uint status;\n        address [] judges;\n        string disputeDetail;\n    }\n\n\n    ///@dev this is a flag to see if I need to reach for new DisputeCase or I just fill new address into existing one\n    struct CaseWaitingForJudge {\n        bool waiting;\n        uint disputeId;\n    } \n\n    \n    CaseWaitingForJudge caseWaitingForJudge = CaseWaitingForJudge({waiting: false, disputeId: 0});\n\n\n    mapping(uint =>DisputeCase) DisputeCaseMapping;\n\n    ///@dev to establish connection to other contract\n    ///@custom:later  this works fine for single contract. I need this to be modular and can connect multiple contract on the fly\n    \n    function setRentEscrowAddress (address _rentEscrowAddress) public  {\n        rentEscrowAddress = _rentEscrowAddress;\n    }\n\n    function getNewContractToResolve () public {\n        uint id;\n        rentEscrowInterface re = rentEscrowInterface(rentEscrowAddress);\n        id = re.getContractToResolve().rentId;    \n\n        address [] memory _judges;\n        _judges[0] = msg.sender;\n\n        ///@custom:later I am calling the getContractToresolve each time I need a attribute. Which is retarded. Need to fix this.\n        DisputeCase memory disputeCase = DisputeCase({\n            disputeId: re.getContractToResolve().rentId,\n            status: 100,\n            judges: _judges,\n            disputeDetail: re.getContractToResolve().contractDetail });\n        \n        DisputeCaseMapping[re.getContractToResolve().rentId] = disputeCase;\n\n        caseWaitingForJudge.waiting = true;\n        caseWaitingForJudge.disputeId = re.getContractToResolve().rentId;\n\n    }\n\n    function assignJudge() public {\n        if (caseWaitingForJudge.waiting == false) {\n            getNewContractToResolve();\n        }\n\n        DisputeCaseMapping[caseWaitingForJudge.disputeId].judges.push(msg.sender);\n        DisputeCaseMapping[caseWaitingForJudge.disputeId].judges.length;\n\n    }\n\n}",
  "sourcePath": "/Users/andy/my_repos/rentEscrow/contracts/resolver.sol",
  "compiler": {
    "name": "solc",
    "version": "0.8.10+commit.fc410830.Emscripten.clang"
  },
  "schemaVersion": "3.4.3",
  "updatedAt": "2022-01-21T21:13:14.721Z",
  "devdoc": {
    "kind": "dev",
    "methods": {
      "getContractToResolve()": {
        "custom:later": "now gives just first contract. Need to add logic to return contract where redeemProposal was rejected",
        "details": "this is used by retrieve mapping by another contract"
      },
      "rejectRedeemProposal(uint256)": {
        "params": {
          "_rentId": "identifies the contract between tenant and landlord"
        }
      },
      "setRentEscrowAddress(address)": {
        "custom:later": "this works fine for single contract. I need this to be modular and can connect multiple contract on the fly",
        "details": "to establish connection to other contract"
      }
    },
    "version": 1
  },
  "userdoc": {
    "kind": "user",
    "methods": {
      "getContractsByAddress()": {
        "notice": "returns all contracts  where sender is involved party"
      },
      "rejectRedeemProposal(uint256)": {
        "notice": "Use this function to reject redeem proposal. Will send it to the resolution centre"
      }
    },
    "version": 1
  }
}